{
  "_format": "hh-sol-artifact-1",
  "contractName": "NFTCollection",
  "sourceName": "contracts/NFTCollection.sol",
  "abi": [
    {
      "inputs": [
        {
          "internalType": "string",
          "name": "_name",
          "type": "string"
        },
        {
          "internalType": "string",
          "name": "_symbol",
          "type": "string"
        },
        {
          "internalType": "uint256",
          "name": "_maxSupply",
          "type": "uint256"
        },
        {
          "internalType": "uint256",
          "name": "_mintCost",
          "type": "uint256"
        },
        {
          "internalType": "uint256",
          "name": "_revealBatchSize",
          "type": "uint256"
        },
        {
          "internalType": "uint256",
          "name": "_revealInterval",
          "type": "uint256"
        },
        {
          "internalType": "address",
          "name": "_vrfCoordinatorV2",
          "type": "address"
        },
        {
          "internalType": "uint64",
          "name": "_vrfSubscriptionId",
          "type": "uint64"
        },
        {
          "internalType": "bytes32",
          "name": "_vrfGasLane",
          "type": "bytes32"
        },
        {
          "internalType": "uint32",
          "name": "_vrfCallbackGasLimit",
          "type": "uint32"
        }
      ],
      "stateMutability": "nonpayable",
      "type": "constructor"
    },
    {
      "inputs": [],
      "name": "InsufficientFunds",
      "type": "error"
    },
    {
      "inputs": [],
      "name": "InsufficientLINK",
      "type": "error"
    },
    {
      "inputs": [],
      "name": "InvalidAmount",
      "type": "error"
    },
    {
      "inputs": [],
      "name": "MaxSupplyReached",
      "type": "error"
    },
    {
      "inputs": [],
      "name": "NonExistentToken",
      "type": "error"
    },
    {
      "inputs": [
        {
          "internalType": "address",
          "name": "have",
          "type": "address"
        },
        {
          "internalType": "address",
          "name": "want",
          "type": "address"
        }
      ],
      "name": "OnlyCoordinatorCanFulfill",
      "type": "error"
    },
    {
      "inputs": [],
      "name": "RevealCriteriaNotMet",
      "type": "error"
    },
    {
      "inputs": [],
      "name": "RevealInProgress",
      "type": "error"
    },
    {
      "inputs": [],
      "name": "WithdrawProceedsFailed",
      "type": "error"
    },
    {
      "anonymous": false,
      "inputs": [
        {
          "indexed": true,
          "internalType": "address",
          "name": "owner",
          "type": "address"
        },
        {
          "indexed": true,
          "internalType": "address",
          "name": "approved",
          "type": "address"
        },
        {
          "indexed": true,
          "internalType": "uint256",
          "name": "tokenId",
          "type": "uint256"
        }
      ],
      "name": "Approval",
      "type": "event"
    },
    {
      "anonymous": false,
      "inputs": [
        {
          "indexed": true,
          "internalType": "address",
          "name": "owner",
          "type": "address"
        },
        {
          "indexed": true,
          "internalType": "address",
          "name": "operator",
          "type": "address"
        },
        {
          "indexed": false,
          "internalType": "bool",
          "name": "approved",
          "type": "bool"
        }
      ],
      "name": "ApprovalForAll",
      "type": "event"
    },
    {
      "anonymous": false,
      "inputs": [
        {
          "indexed": false,
          "internalType": "uint256",
          "name": "startIndex",
          "type": "uint256"
        },
        {
          "indexed": false,
          "internalType": "uint256",
          "name": "endIndex",
          "type": "uint256"
        }
      ],
      "name": "BatchRevealFinished",
      "type": "event"
    },
    {
      "anonymous": false,
      "inputs": [
        {
          "indexed": false,
          "internalType": "uint256",
          "name": "requestId",
          "type": "uint256"
        }
      ],
      "name": "BatchRevealRequested",
      "type": "event"
    },
    {
      "anonymous": false,
      "inputs": [
        {
          "indexed": true,
          "internalType": "address",
          "name": "previousOwner",
          "type": "address"
        },
        {
          "indexed": true,
          "internalType": "address",
          "name": "newOwner",
          "type": "address"
        }
      ],
      "name": "OwnershipTransferred",
      "type": "event"
    },
    {
      "anonymous": false,
      "inputs": [
        {
          "indexed": true,
          "internalType": "address",
          "name": "from",
          "type": "address"
        },
        {
          "indexed": true,
          "internalType": "address",
          "name": "to",
          "type": "address"
        },
        {
          "indexed": true,
          "internalType": "uint256",
          "name": "tokenId",
          "type": "uint256"
        }
      ],
      "name": "Transfer",
      "type": "event"
    },
    {
      "inputs": [
        {
          "internalType": "address",
          "name": "to",
          "type": "address"
        },
        {
          "internalType": "uint256",
          "name": "tokenId",
          "type": "uint256"
        }
      ],
      "name": "approve",
      "outputs": [],
      "stateMutability": "nonpayable",
      "type": "function"
    },
    {
      "inputs": [
        {
          "internalType": "address",
          "name": "owner",
          "type": "address"
        }
      ],
      "name": "balanceOf",
      "outputs": [
        {
          "internalType": "uint256",
          "name": "",
          "type": "uint256"
        }
      ],
      "stateMutability": "view",
      "type": "function"
    },
    {
      "inputs": [],
      "name": "batchSize",
      "outputs": [
        {
          "internalType": "uint256",
          "name": "",
          "type": "uint256"
        }
      ],
      "stateMutability": "view",
      "type": "function"
    },
    {
      "inputs": [
        {
          "internalType": "bytes",
          "name": "",
          "type": "bytes"
        }
      ],
      "name": "checkUpkeep",
      "outputs": [
        {
          "internalType": "bool",
          "name": "upkeepNeeded",
          "type": "bool"
        },
        {
          "internalType": "bytes",
          "name": "",
          "type": "bytes"
        }
      ],
      "stateMutability": "view",
      "type": "function"
    },
    {
      "inputs": [
        {
          "internalType": "uint256",
          "name": "tokenId",
          "type": "uint256"
        }
      ],
      "name": "getApproved",
      "outputs": [
        {
          "internalType": "address",
          "name": "",
          "type": "address"
        }
      ],
      "stateMutability": "view",
      "type": "function"
    },
    {
      "inputs": [
        {
          "internalType": "address",
          "name": "owner",
          "type": "address"
        },
        {
          "internalType": "address",
          "name": "operator",
          "type": "address"
        }
      ],
      "name": "isApprovedForAll",
      "outputs": [
        {
          "internalType": "bool",
          "name": "",
          "type": "bool"
        }
      ],
      "stateMutability": "view",
      "type": "function"
    },
    {
      "inputs": [],
      "name": "lastRevealed",
      "outputs": [
        {
          "internalType": "uint256",
          "name": "",
          "type": "uint256"
        }
      ],
      "stateMutability": "view",
      "type": "function"
    },
    {
      "inputs": [],
      "name": "maxSupply",
      "outputs": [
        {
          "internalType": "uint256",
          "name": "",
          "type": "uint256"
        }
      ],
      "stateMutability": "view",
      "type": "function"
    },
    {
      "inputs": [
        {
          "internalType": "uint256",
          "name": "_amount",
          "type": "uint256"
        }
      ],
      "name": "mint",
      "outputs": [],
      "stateMutability": "payable",
      "type": "function"
    },
    {
      "inputs": [],
      "name": "mintCost",
      "outputs": [
        {
          "internalType": "uint256",
          "name": "",
          "type": "uint256"
        }
      ],
      "stateMutability": "view",
      "type": "function"
    },
    {
      "inputs": [],
      "name": "name",
      "outputs": [
        {
          "internalType": "string",
          "name": "",
          "type": "string"
        }
      ],
      "stateMutability": "view",
      "type": "function"
    },
    {
      "inputs": [],
      "name": "owner",
      "outputs": [
        {
          "internalType": "address",
          "name": "",
          "type": "address"
        }
      ],
      "stateMutability": "view",
      "type": "function"
    },
    {
      "inputs": [
        {
          "internalType": "uint256",
          "name": "tokenId",
          "type": "uint256"
        }
      ],
      "name": "ownerOf",
      "outputs": [
        {
          "internalType": "address",
          "name": "",
          "type": "address"
        }
      ],
      "stateMutability": "view",
      "type": "function"
    },
    {
      "inputs": [
        {
          "internalType": "bytes",
          "name": "",
          "type": "bytes"
        }
      ],
      "name": "performUpkeep",
      "outputs": [],
      "stateMutability": "nonpayable",
      "type": "function"
    },
    {
      "inputs": [
        {
          "internalType": "uint256",
          "name": "requestId",
          "type": "uint256"
        },
        {
          "internalType": "uint256[]",
          "name": "randomWords",
          "type": "uint256[]"
        }
      ],
      "name": "rawFulfillRandomWords",
      "outputs": [],
      "stateMutability": "nonpayable",
      "type": "function"
    },
    {
      "inputs": [],
      "name": "renounceOwnership",
      "outputs": [],
      "stateMutability": "nonpayable",
      "type": "function"
    },
    {
      "inputs": [],
      "name": "revealPendingMetadata",
      "outputs": [
        {
          "internalType": "uint256",
          "name": "requestId",
          "type": "uint256"
        }
      ],
      "stateMutability": "nonpayable",
      "type": "function"
    },
    {
      "inputs": [],
      "name": "revealedCount",
      "outputs": [
        {
          "internalType": "uint256",
          "name": "",
          "type": "uint256"
        }
      ],
      "stateMutability": "view",
      "type": "function"
    },
    {
      "inputs": [],
      "name": "revealedInterval",
      "outputs": [
        {
          "internalType": "uint256",
          "name": "",
          "type": "uint256"
        }
      ],
      "stateMutability": "view",
      "type": "function"
    },
    {
      "inputs": [
        {
          "internalType": "address",
          "name": "from",
          "type": "address"
        },
        {
          "internalType": "address",
          "name": "to",
          "type": "address"
        },
        {
          "internalType": "uint256",
          "name": "tokenId",
          "type": "uint256"
        }
      ],
      "name": "safeTransferFrom",
      "outputs": [],
      "stateMutability": "nonpayable",
      "type": "function"
    },
    {
      "inputs": [
        {
          "internalType": "address",
          "name": "from",
          "type": "address"
        },
        {
          "internalType": "address",
          "name": "to",
          "type": "address"
        },
        {
          "internalType": "uint256",
          "name": "tokenId",
          "type": "uint256"
        },
        {
          "internalType": "bytes",
          "name": "data",
          "type": "bytes"
        }
      ],
      "name": "safeTransferFrom",
      "outputs": [],
      "stateMutability": "nonpayable",
      "type": "function"
    },
    {
      "inputs": [
        {
          "internalType": "address",
          "name": "operator",
          "type": "address"
        },
        {
          "internalType": "bool",
          "name": "approved",
          "type": "bool"
        }
      ],
      "name": "setApprovalForAll",
      "outputs": [],
      "stateMutability": "nonpayable",
      "type": "function"
    },
    {
      "inputs": [
        {
          "internalType": "uint256",
          "name": "_revealBatchSize",
          "type": "uint256"
        }
      ],
      "name": "setRevealBatchSize",
      "outputs": [],
      "stateMutability": "nonpayable",
      "type": "function"
    },
    {
      "inputs": [
        {
          "internalType": "uint256",
          "name": "_revealInterval",
          "type": "uint256"
        }
      ],
      "name": "setRevealInterval",
      "outputs": [],
      "stateMutability": "nonpayable",
      "type": "function"
    },
    {
      "inputs": [],
      "name": "shouldReveal",
      "outputs": [
        {
          "internalType": "bool",
          "name": "",
          "type": "bool"
        }
      ],
      "stateMutability": "view",
      "type": "function"
    },
    {
      "inputs": [
        {
          "internalType": "string",
          "name": "str",
          "type": "string"
        },
        {
          "internalType": "uint256",
          "name": "startIndex",
          "type": "uint256"
        },
        {
          "internalType": "uint256",
          "name": "endIndex",
          "type": "uint256"
        }
      ],
      "name": "substring",
      "outputs": [
        {
          "internalType": "string",
          "name": "",
          "type": "string"
        }
      ],
      "stateMutability": "pure",
      "type": "function"
    },
    {
      "inputs": [
        {
          "internalType": "bytes4",
          "name": "interfaceId",
          "type": "bytes4"
        }
      ],
      "name": "supportsInterface",
      "outputs": [
        {
          "internalType": "bool",
          "name": "",
          "type": "bool"
        }
      ],
      "stateMutability": "view",
      "type": "function"
    },
    {
      "inputs": [],
      "name": "symbol",
      "outputs": [
        {
          "internalType": "string",
          "name": "",
          "type": "string"
        }
      ],
      "stateMutability": "view",
      "type": "function"
    },
    {
      "inputs": [
        {
          "internalType": "uint256",
          "name": "index",
          "type": "uint256"
        }
      ],
      "name": "tokenByIndex",
      "outputs": [
        {
          "internalType": "uint256",
          "name": "",
          "type": "uint256"
        }
      ],
      "stateMutability": "view",
      "type": "function"
    },
    {
      "inputs": [
        {
          "internalType": "address",
          "name": "owner",
          "type": "address"
        },
        {
          "internalType": "uint256",
          "name": "index",
          "type": "uint256"
        }
      ],
      "name": "tokenOfOwnerByIndex",
      "outputs": [
        {
          "internalType": "uint256",
          "name": "",
          "type": "uint256"
        }
      ],
      "stateMutability": "view",
      "type": "function"
    },
    {
      "inputs": [
        {
          "internalType": "uint256",
          "name": "tokenId",
          "type": "uint256"
        }
      ],
      "name": "tokenURI",
      "outputs": [
        {
          "internalType": "string",
          "name": "",
          "type": "string"
        }
      ],
      "stateMutability": "view",
      "type": "function"
    },
    {
      "inputs": [],
      "name": "totalSupply",
      "outputs": [
        {
          "internalType": "uint256",
          "name": "",
          "type": "uint256"
        }
      ],
      "stateMutability": "view",
      "type": "function"
    },
    {
      "inputs": [
        {
          "internalType": "address",
          "name": "from",
          "type": "address"
        },
        {
          "internalType": "address",
          "name": "to",
          "type": "address"
        },
        {
          "internalType": "uint256",
          "name": "tokenId",
          "type": "uint256"
        }
      ],
      "name": "transferFrom",
      "outputs": [],
      "stateMutability": "nonpayable",
      "type": "function"
    },
    {
      "inputs": [
        {
          "internalType": "address",
          "name": "newOwner",
          "type": "address"
        }
      ],
      "name": "transferOwnership",
      "outputs": [],
      "stateMutability": "nonpayable",
      "type": "function"
    },
    {
      "inputs": [],
      "name": "withdrawProceeds",
      "outputs": [],
      "stateMutability": "nonpayable",
      "type": "function"
    }
  ],
  "bytecode": "0x61016060405242600e553480156200001657600080fd5b5060405162005b5838038062005b5883398181016040528101906200003c9190620003d2565b838a8a6200005f620000536200017160201b60201c565b6200017960201b60201c565b8160019080519060200190620000779291906200023d565b508060029080519060200190620000909291906200023d565b5050508073ffffffffffffffffffffffffffffffffffffffff1660808173ffffffffffffffffffffffffffffffffffffffff1660601b81525050508760a081815250508660c081815250508373ffffffffffffffffffffffffffffffffffffffff1660e08173ffffffffffffffffffffffffffffffffffffffff1660601b815250508267ffffffffffffffff166101008167ffffffffffffffff1660c01b815250508161012081815250508063ffffffff166101408163ffffffff1660e01b8152505085600c8190555084600d819055505050505050505050505062000752565b600033905090565b60008060009054906101000a900473ffffffffffffffffffffffffffffffffffffffff169050816000806101000a81548173ffffffffffffffffffffffffffffffffffffffff021916908373ffffffffffffffffffffffffffffffffffffffff1602179055508173ffffffffffffffffffffffffffffffffffffffff168173ffffffffffffffffffffffffffffffffffffffff167f8be0079c531659141344cd1fd0a4f28419497f9722a3daafe3b4186f6b6457e060405160405180910390a35050565b8280546200024b90620005f5565b90600052602060002090601f0160209004810192826200026f5760008555620002bb565b82601f106200028a57805160ff1916838001178555620002bb565b82800160010185558215620002bb579182015b82811115620002ba5782518255916020019190600101906200029d565b5b509050620002ca9190620002ce565b5090565b5b80821115620002e9576000816000905550600101620002cf565b5090565b600062000304620002fe846200051d565b620004f4565b9050828152602081018484840111156200031d57600080fd5b6200032a848285620005bf565b509392505050565b6000815190506200034381620006d0565b92915050565b6000815190506200035a81620006ea565b92915050565b600082601f8301126200037257600080fd5b815162000384848260208601620002ed565b91505092915050565b6000815190506200039e8162000704565b92915050565b600081519050620003b5816200071e565b92915050565b600081519050620003cc8162000738565b92915050565b6000806000806000806000806000806101408b8d031215620003f357600080fd5b60008b015167ffffffffffffffff8111156200040e57600080fd5b6200041c8d828e0162000360565b9a505060208b015167ffffffffffffffff8111156200043a57600080fd5b620004488d828e0162000360565b99505060406200045b8d828e016200038d565b98505060606200046e8d828e016200038d565b9750506080620004818d828e016200038d565b96505060a0620004948d828e016200038d565b95505060c0620004a78d828e0162000332565b94505060e0620004ba8d828e01620003bb565b935050610100620004ce8d828e0162000349565b925050610120620004e28d828e01620003a4565b9150509295989b9194979a5092959850565b60006200050062000513565b90506200050e82826200062b565b919050565b6000604051905090565b600067ffffffffffffffff8211156200053b576200053a62000690565b5b6200054682620006bf565b9050602081019050919050565b6000620005608262000571565b9050919050565b6000819050919050565b600073ffffffffffffffffffffffffffffffffffffffff82169050919050565b6000819050919050565b600063ffffffff82169050919050565b600067ffffffffffffffff82169050919050565b60005b83811015620005df578082015181840152602081019050620005c2565b83811115620005ef576000848401525b50505050565b600060028204905060018216806200060e57607f821691505b6020821081141562000625576200062462000661565b5b50919050565b6200063682620006bf565b810181811067ffffffffffffffff8211171562000658576200065762000690565b5b80604052505050565b7f4e487b7100000000000000000000000000000000000000000000000000000000600052602260045260246000fd5b7f4e487b7100000000000000000000000000000000000000000000000000000000600052604160045260246000fd5b6000601f19601f8301169050919050565b620006db8162000553565b8114620006e757600080fd5b50565b620006f58162000567565b81146200070157600080fd5b50565b6200070f8162000591565b81146200071b57600080fd5b50565b62000729816200059b565b81146200073557600080fd5b50565b6200074381620005ab565b81146200074f57600080fd5b50565b60805160601c60a05160c05160e05160601c6101005160c01c610120516101405160e01c61538a620007ce600039600061130d015260006112c9015260006112ea0152600061128d0152600081816114a601526115db015260008181611440015261170c015260008181610c3b0152610c8f015261538a6000f3fe6080604052600436106102045760003560e01c8063777accbb11610118578063b88d4fde116100a0578063cf3b94cd1161006f578063cf3b94cd1461076d578063d5abeb0114610798578063e985e9c5146107c3578063f2fde38b14610800578063f4daaba11461082957610204565b8063b88d4fde146106b1578063bbd78e93146106da578063bdb4b84814610705578063c87b56dd1461073057610204565b806395d89b41116100e757806395d89b41146105ed57806396634a4014610618578063a0712d6814610643578063a22cb4651461065f578063aaae4e231461068857610204565b8063777accbb146105555780637b4fab5a146105805780638da5cb5b146105ab5780639038e693146105d657610204565b80632f745c591161019b5780635c65d81f1161016a5780635c65d81f1461045d5780636352211e146104865780636e04ff0d146104c357806370a0823114610501578063715018a61461053e57610204565b80632f745c591461039157806342842e0e146103ce5780634585e33b146103f75780634f6ccce71461042057610204565b806318160ddd116101d757806318160ddd146102d75780631dcd9b55146103025780631fe543e31461033f57806323b872dd1461036857610204565b806301ffc9a71461020957806306fdde0314610246578063081812fc14610271578063095ea7b3146102ae575b600080fd5b34801561021557600080fd5b50610230600480360381019061022b9190613ad3565b610854565b60405161023d9190614347565b60405180910390f35b34801561025257600080fd5b5061025b6108ce565b60405161026891906143e5565b60405180910390f35b34801561027d57600080fd5b5061029860048036038101906102939190613bd1565b610960565b6040516102a591906142b7565b60405180910390f35b3480156102ba57600080fd5b506102d560048036038101906102d09190613a97565b6109a6565b005b3480156102e357600080fd5b506102ec610abe565b6040516102f991906145e7565b60405180910390f35b34801561030e57600080fd5b5061032960048036038101906103249190613b6a565b610acb565b60405161033691906143e5565b60405180910390f35b34801561034b57600080fd5b5061036660048036038101906103619190613c23565b610c39565b005b34801561037457600080fd5b5061038f600480360381019061038a9190613991565b610cf9565b005b34801561039d57600080fd5b506103b860048036038101906103b39190613a97565b610d59565b6040516103c591906145e7565b60405180910390f35b3480156103da57600080fd5b506103f560048036038101906103f09190613991565b610dfe565b005b34801561040357600080fd5b5061041e60048036038101906104199190613b25565b610e1e565b005b34801561042c57600080fd5b5061044760048036038101906104429190613bd1565b610e2b565b60405161045491906145e7565b60405180910390f35b34801561046957600080fd5b50610484600480360381019061047f9190613bd1565b610ec2565b005b34801561049257600080fd5b506104ad60048036038101906104a89190613bd1565b610ed4565b6040516104ba91906142b7565b60405180910390f35b3480156104cf57600080fd5b506104ea60048036038101906104e59190613b25565b610f86565b6040516104f8929190614362565b60405180910390f35b34801561050d57600080fd5b506105286004803603810190610523919061392c565b610fb4565b60405161053591906145e7565b60405180910390f35b34801561054a57600080fd5b5061055361106c565b005b34801561056157600080fd5b5061056a611080565b60405161057791906145e7565b60405180910390f35b34801561058c57600080fd5b5061059561108a565b6040516105a291906145e7565b60405180910390f35b3480156105b757600080fd5b506105c0611094565b6040516105cd91906142b7565b60405180910390f35b3480156105e257600080fd5b506105eb6110bd565b005b3480156105f957600080fd5b50610602611172565b60405161060f91906143e5565b60405180910390f35b34801561062457600080fd5b5061062d611204565b60405161063a91906145e7565b60405180910390f35b61065d60048036038101906106589190613bd1565b6113f7565b005b34801561066b57600080fd5b5061068660048036038101906106819190613a5b565b611543565b005b34801561069457600080fd5b506106af60048036038101906106aa9190613bd1565b611559565b005b3480156106bd57600080fd5b506106d860048036038101906106d391906139e0565b61156b565b005b3480156106e657600080fd5b506106ef6115cd565b6040516106fc91906145e7565b60405180910390f35b34801561071157600080fd5b5061071a6115d7565b60405161072791906145e7565b60405180910390f35b34801561073c57600080fd5b5061075760048036038101906107529190613bd1565b6115ff565b60405161076491906143e5565b60405180910390f35b34801561077957600080fd5b5061078261167f565b60405161078f9190614347565b60405180910390f35b3480156107a457600080fd5b506107ad611708565b6040516107ba91906145e7565b60405180910390f35b3480156107cf57600080fd5b506107ea60048036038101906107e59190613955565b611730565b6040516107f79190614347565b60405180910390f35b34801561080c57600080fd5b506108276004803603810190610822919061392c565b6117c4565b005b34801561083557600080fd5b5061083e611848565b60405161084b91906145e7565b60405180910390f35b60007f780e9d63000000000000000000000000000000000000000000000000000000007bffffffffffffffffffffffffffffffffffffffffffffffffffffffff1916827bffffffffffffffffffffffffffffffffffffffffffffffffffffffff191614806108c757506108c682611852565b5b9050919050565b6060600180546108dd906149b2565b80601f0160208091040260200160405190810160405280929190818152602001828054610909906149b2565b80156109565780601f1061092b57610100808354040283529160200191610956565b820191906000526020600020905b81548152906001019060200180831161093957829003601f168201915b5050505050905090565b600061096b82611934565b6005600083815260200190815260200160002060009054906101000a900473ffffffffffffffffffffffffffffffffffffffff169050919050565b60006109b182610ed4565b90508073ffffffffffffffffffffffffffffffffffffffff168373ffffffffffffffffffffffffffffffffffffffff161415610a22576040517f08c379a0000000000000000000000000000000000000000000000000000000008152600401610a1990614587565b60405180910390fd5b8073ffffffffffffffffffffffffffffffffffffffff16610a4161197f565b73ffffffffffffffffffffffffffffffffffffffff161480610a705750610a6f81610a6a61197f565b611730565b5b610aaf576040517f08c379a0000000000000000000000000000000000000000000000000000000008152600401610aa690614507565b60405180910390fd5b610ab98383611987565b505050565b6000600980549050905090565b6060600084905060008484610ae0919061487f565b67ffffffffffffffff811115610b1f577f4e487b7100000000000000000000000000000000000000000000000000000000600052604160045260246000fd5b6040519080825280601f01601f191660200182016040528015610b515781602001600182028036833780820191505090505b50905060008590505b84811015610c2c57828181518110610b9b577f4e487b7100000000000000000000000000000000000000000000000000000000600052603260045260246000fd5b602001015160f81c60f81b828783610bb3919061487f565b81518110610bea577f4e487b7100000000000000000000000000000000000000000000000000000000600052603260045260246000fd5b60200101907effffffffffffffffffffffffffffffffffffffffffffffffffffffffffffff1916908160001a9053508080610c2490614a15565b915050610b5a565b5080925050509392505050565b7f000000000000000000000000000000000000000000000000000000000000000073ffffffffffffffffffffffffffffffffffffffff163373ffffffffffffffffffffffffffffffffffffffff1614610ceb57337f00000000000000000000000000000000000000000000000000000000000000006040517f1cf993f4000000000000000000000000000000000000000000000000000000008152600401610ce29291906142d2565b60405180910390fd5b610cf58282611a40565b5050565b610d0a610d0461197f565b82611a8e565b610d49576040517f08c379a0000000000000000000000000000000000000000000000000000000008152600401610d40906145c7565b60405180910390fd5b610d54838383611b23565b505050565b6000610d6483610fb4565b8210610da5576040517f08c379a0000000000000000000000000000000000000000000000000000000008152600401610d9c90614407565b60405180910390fd5b600760008473ffffffffffffffffffffffffffffffffffffffff1673ffffffffffffffffffffffffffffffffffffffff168152602001908152602001600020600083815260200190815260200160002054905092915050565b610e198383836040518060200160405280600081525061156b565b505050565b610e26611204565b505050565b6000610e35610abe565b8210610e76576040517f08c379a0000000000000000000000000000000000000000000000000000000008152600401610e6d906145a7565b60405180910390fd5b60098281548110610eb0577f4e487b7100000000000000000000000000000000000000000000000000000000600052603260045260246000fd5b90600052602060002001549050919050565b610eca611d8a565b80600d8190555050565b6000806003600084815260200190815260200160002060009054906101000a900473ffffffffffffffffffffffffffffffffffffffff169050600073ffffffffffffffffffffffffffffffffffffffff168173ffffffffffffffffffffffffffffffffffffffff161415610f7d576040517f08c379a0000000000000000000000000000000000000000000000000000000008152600401610f7490614567565b60405180910390fd5b80915050919050565b60006060600f60009054906101000a900460ff16158015610fab5750610faa61167f565b5b91509250929050565b60008073ffffffffffffffffffffffffffffffffffffffff168273ffffffffffffffffffffffffffffffffffffffff161415611025576040517f08c379a000000000000000000000000000000000000000000000000000000000815260040161101c906144e7565b60405180910390fd5b600460008373ffffffffffffffffffffffffffffffffffffffff1673ffffffffffffffffffffffffffffffffffffffff168152602001908152602001600020549050919050565b611074611d8a565b61107e6000611e08565b565b6000600d54905090565b6000600e54905090565b60008060009054906101000a900473ffffffffffffffffffffffffffffffffffffffff16905090565b6110c5611d8a565b60006110cf611094565b73ffffffffffffffffffffffffffffffffffffffff16476040516110f2906142a2565b60006040518083038185875af1925050503d806000811461112f576040519150601f19603f3d011682016040523d82523d6000602084013e611134565b606091505b505090508061116f576040517f0ca5b23000000000000000000000000000000000000000000000000000000000815260040160405180910390fd5b50565b606060028054611181906149b2565b80601f01602080910402602001604051908101604052809291908181526020018280546111ad906149b2565b80156111fa5780601f106111cf576101008083540402835291602001916111fa565b820191906000526020600020905b8154815290600101906020018083116111dd57829003601f168201915b5050505050905090565b6000600f60009054906101000a900460ff161561124d576040517fd0cf055400000000000000000000000000000000000000000000000000000000815260040160405180910390fd5b61125561167f565b61128b576040517f4e628ebc00000000000000000000000000000000000000000000000000000000815260040160405180910390fd5b7f000000000000000000000000000000000000000000000000000000000000000073ffffffffffffffffffffffffffffffffffffffff16635d3b1d307f00000000000000000000000000000000000000000000000000000000000000007f000000000000000000000000000000000000000000000000000000000000000060037f000000000000000000000000000000000000000000000000000000000000000060016040518663ffffffff1660e01b815260040161134e959493929190614392565b602060405180830381600087803b15801561136857600080fd5b505af115801561137c573d6000803e3d6000fd5b505050506040513d601f19601f820116820180604052508101906113a09190613bfa565b90506001600f60006101000a81548160ff0219169083151502179055507f8d83bdd6db199ff596cec09ea8e4f4e50da2dcb4020bc2a1cf072c507056b1ea816040516113ec91906145e7565b60405180910390a190565b6000611401610abe565b9050600082141561143e576040517f2c5211c600000000000000000000000000000000000000000000000000000000815260040160405180910390fd5b7f0000000000000000000000000000000000000000000000000000000000000000828261146b919061472c565b11156114a3576040517fd05cb60900000000000000000000000000000000000000000000000000000000815260040160405180910390fd5b817f00000000000000000000000000000000000000000000000000000000000000006114cf91906147ea565b341015611508576040517f356680b700000000000000000000000000000000000000000000000000000000815260040160405180910390fd5b6000600190505b82811161153e5761152b338284611526919061472c565b611ecc565b808061153690614a15565b91505061150f565b505050565b61155561154e61197f565b8383611eea565b5050565b611561611d8a565b80600c8190555050565b61157c61157661197f565b83611a8e565b6115bb576040517f08c379a00000000000000000000000000000000000000000000000000000000081526004016115b2906145c7565b60405180910390fd5b6115c784848484612057565b50505050565b6000600b54905090565b60007f0000000000000000000000000000000000000000000000000000000000000000905090565b606061160a826120b3565b611640576040517f9430a17e00000000000000000000000000000000000000000000000000000000815260040160405180910390fd5b60008061164c8461211f565b91509150600061165c8383612273565b90506000611669826128a9565b90506116748161293c565b945050505050919050565b600080600b5461168d610abe565b611697919061487f565b905060008114156116ac576000915050611705565b600080600c541180156116c15750600c548210155b156116cb57600190505b600080600d541180156116ec5750600d54600e54426116ea919061487f565b115b156116f657600190505b81806116ff5750805b93505050505b90565b60007f0000000000000000000000000000000000000000000000000000000000000000905090565b6000600660008473ffffffffffffffffffffffffffffffffffffffff1673ffffffffffffffffffffffffffffffffffffffff16815260200190815260200160002060008373ffffffffffffffffffffffffffffffffffffffff1673ffffffffffffffffffffffffffffffffffffffff16815260200190815260200160002060009054906101000a900460ff16905092915050565b6117cc611d8a565b600073ffffffffffffffffffffffffffffffffffffffff168173ffffffffffffffffffffffffffffffffffffffff16141561183c576040517f08c379a000000000000000000000000000000000000000000000000000000000815260040161183390614447565b60405180910390fd5b61184581611e08565b50565b6000600c54905090565b60007f80ac58cd000000000000000000000000000000000000000000000000000000007bffffffffffffffffffffffffffffffffffffffffffffffffffffffff1916827bffffffffffffffffffffffffffffffffffffffffffffffffffffffff1916148061191d57507f5b5e139f000000000000000000000000000000000000000000000000000000007bffffffffffffffffffffffffffffffffffffffffffffffffffffffff1916827bffffffffffffffffffffffffffffffffffffffffffffffffffffffff1916145b8061192d575061192c8261298c565b5b9050919050565b61193d816120b3565b61197c576040517f08c379a000000000000000000000000000000000000000000000000000000000815260040161197390614567565b60405180910390fd5b50565b600033905090565b816005600083815260200190815260200160002060006101000a81548173ffffffffffffffffffffffffffffffffffffffff021916908373ffffffffffffffffffffffffffffffffffffffff160217905550808273ffffffffffffffffffffffffffffffffffffffff166119fa83610ed4565b73ffffffffffffffffffffffffffffffffffffffff167f8c5be1e5ebec7d5bd14f71427d1e84f3dd0314c0f7b2291e5b200ac8c7c3b92560405160405180910390a45050565b611a8a81600081518110611a7d577f4e487b7100000000000000000000000000000000000000000000000000000000600052603260045260246000fd5b60200260200101516129f6565b5050565b600080611a9a83610ed4565b90508073ffffffffffffffffffffffffffffffffffffffff168473ffffffffffffffffffffffffffffffffffffffff161480611adc5750611adb8185611730565b5b80611b1a57508373ffffffffffffffffffffffffffffffffffffffff16611b0284610960565b73ffffffffffffffffffffffffffffffffffffffff16145b91505092915050565b8273ffffffffffffffffffffffffffffffffffffffff16611b4382610ed4565b73ffffffffffffffffffffffffffffffffffffffff1614611b99576040517f08c379a0000000000000000000000000000000000000000000000000000000008152600401611b9090614467565b60405180910390fd5b600073ffffffffffffffffffffffffffffffffffffffff168273ffffffffffffffffffffffffffffffffffffffff161415611c09576040517f08c379a0000000000000000000000000000000000000000000000000000000008152600401611c00906144a7565b60405180910390fd5b611c14838383612af4565b611c1f600082611987565b6001600460008573ffffffffffffffffffffffffffffffffffffffff1673ffffffffffffffffffffffffffffffffffffffff1681526020019081526020016000206000828254611c6f919061487f565b925050819055506001600460008473ffffffffffffffffffffffffffffffffffffffff1673ffffffffffffffffffffffffffffffffffffffff1681526020019081526020016000206000828254611cc6919061472c565b92505081905550816003600083815260200190815260200160002060006101000a81548173ffffffffffffffffffffffffffffffffffffffff021916908373ffffffffffffffffffffffffffffffffffffffff160217905550808273ffffffffffffffffffffffffffffffffffffffff168473ffffffffffffffffffffffffffffffffffffffff167fddf252ad1be2c89b69c2b068fc378daa952ba7f163c4a11628f55a4df523b3ef60405160405180910390a4611d85838383612c08565b505050565b611d9261197f565b73ffffffffffffffffffffffffffffffffffffffff16611db0611094565b73ffffffffffffffffffffffffffffffffffffffff1614611e06576040517f08c379a0000000000000000000000000000000000000000000000000000000008152600401611dfd90614547565b60405180910390fd5b565b60008060009054906101000a900473ffffffffffffffffffffffffffffffffffffffff169050816000806101000a81548173ffffffffffffffffffffffffffffffffffffffff021916908373ffffffffffffffffffffffffffffffffffffffff1602179055508173ffffffffffffffffffffffffffffffffffffffff168173ffffffffffffffffffffffffffffffffffffffff167f8be0079c531659141344cd1fd0a4f28419497f9722a3daafe3b4186f6b6457e060405160405180910390a35050565b611ee6828260405180602001604052806000815250612c0d565b5050565b8173ffffffffffffffffffffffffffffffffffffffff168373ffffffffffffffffffffffffffffffffffffffff161415611f59576040517f08c379a0000000000000000000000000000000000000000000000000000000008152600401611f50906144c7565b60405180910390fd5b80600660008573ffffffffffffffffffffffffffffffffffffffff1673ffffffffffffffffffffffffffffffffffffffff16815260200190815260200160002060008473ffffffffffffffffffffffffffffffffffffffff1673ffffffffffffffffffffffffffffffffffffffff16815260200190815260200160002060006101000a81548160ff0219169083151502179055508173ffffffffffffffffffffffffffffffffffffffff168373ffffffffffffffffffffffffffffffffffffffff167f17307eab39ab6107e8899845ad3d59bd9653f200f220920489ca2b5937696c318360405161204a9190614347565b60405180910390a3505050565b612062848484611b23565b61206e84848484612c68565b6120ad576040517f08c379a00000000000000000000000000000000000000000000000000000000081526004016120a490614427565b60405180910390fd5b50505050565b60008073ffffffffffffffffffffffffffffffffffffffff166003600084815260200190815260200160002060009054906101000a900473ffffffffffffffffffffffffffffffffffffffff1673ffffffffffffffffffffffffffffffffffffffff1614159050919050565b60008060005b60108054905081101561226d576010818154811061216c577f4e487b7100000000000000000000000000000000000000000000000000000000600052603260045260246000fd5b90600052602060002090600302016000015484101580156121d75750601081815481106121c2577f4e487b7100000000000000000000000000000000000000000000000000000000600052603260045260246000fd5b90600052602060002090600302016001015484105b1561225a5760108181548110612216577f4e487b7100000000000000000000000000000000000000000000000000000000600052603260045260246000fd5b9060005260206000209060030201600201548460405160200161223a929190614602565b6040516020818303038152906040528051906020012060001c9250600191505b808061226590614a15565b915050612125565b50915091565b606061227d6136b0565b6040518060a001604052806062815260200161518960629139816000600481106122d0577f4e487b7100000000000000000000000000000000000000000000000000000000600052603260045260246000fd5b60200201819052508215612636576040518060c00160405280608d81526020016152c8608d913981600160048110612331577f4e487b7100000000000000000000000000000000000000000000000000000000600052603260045260246000fd5b60200201819052506123416136d7565b600061234c86612dff565b905060005b60078160ff16101561240e57600061239483600b846123709190614844565b60ff16600b6001866123829190614782565b61238c9190614844565b60ff16610acb565b9050806040516020016123a791906141ef565b604051602081830303815290604052848360ff16600781106123f2577f4e487b7100000000000000000000000000000000000000000000000000000000600052603260045260246000fd5b602002018190525050808061240690614a5e565b915050612351565b5081600060078110612449577f4e487b7100000000000000000000000000000000000000000000000000000000600052603260045260246000fd5b602002015182600160078110612488577f4e487b7100000000000000000000000000000000000000000000000000000000600052603260045260246000fd5b6020020151836002600781106124c7577f4e487b7100000000000000000000000000000000000000000000000000000000600052603260045260246000fd5b602002015184600360078110612506577f4e487b7100000000000000000000000000000000000000000000000000000000600052603260045260246000fd5b602002015185600460078110612545577f4e487b7100000000000000000000000000000000000000000000000000000000600052603260045260246000fd5b602002015186600560078110612584577f4e487b7100000000000000000000000000000000000000000000000000000000600052603260045260246000fd5b6020020151876006600781106125c3577f4e487b7100000000000000000000000000000000000000000000000000000000600052603260045260246000fd5b60200201516040516020016125de979695949392919061418a565b60405160208183030381529060405283600260048110612627577f4e487b7100000000000000000000000000000000000000000000000000000000600052603260045260246000fd5b6020020181905250505061270a565b6040518060c00160405280609d815260200161522b609d913981600160048110612689577f4e487b7100000000000000000000000000000000000000000000000000000000600052603260045260246000fd5b60200201819052506040518060400160405280600181526020017f3f0000000000000000000000000000000000000000000000000000000000000081525081600260048110612701577f4e487b7100000000000000000000000000000000000000000000000000000000600052603260045260246000fd5b60200201819052505b6040518060400160405280600d81526020017f3c2f746578743e3c2f7376673e000000000000000000000000000000000000008152508160036004811061277a577f4e487b7100000000000000000000000000000000000000000000000000000000600052603260045260246000fd5b6020020181905250806000600481106127bc577f4e487b7100000000000000000000000000000000000000000000000000000000600052603260045260246000fd5b6020020151816001600481106127fb577f4e487b7100000000000000000000000000000000000000000000000000000000600052603260045260246000fd5b60200201518260026004811061283a577f4e487b7100000000000000000000000000000000000000000000000000000000600052603260045260246000fd5b602002015183600360048110612879577f4e487b7100000000000000000000000000000000000000000000000000000000600052603260045260246000fd5b6020020151604051602001612891949392919061414c565b60405160208183030381529060405291505092915050565b606060006040518060400160405280601a81526020017f646174613a696d6167652f7376672b786d6c3b6261736536342c0000000000008152509050600061290f846040516020016128fb9190614111565b604051602081830303815290604052612fac565b90508181604051602001612924929190614128565b60405160208183030381529060405292505050919050565b606061296682604051602001612952919061421c565b604051602081830303815290604052612fac565b6040516020016129769190614280565b6040516020818303038152906040529050919050565b60007f01ffc9a7000000000000000000000000000000000000000000000000000000007bffffffffffffffffffffffffffffffffffffffffffffffffffffffff1916827bffffffffffffffffffffffffffffffffffffffffffffffffffffffff1916149050919050565b6000612a00610abe565b905060006001600b54612a13919061472c565b90506000600183612a24919061472c565b905060106040518060600160405280848152602001838152602001868152509080600181540180825580915050600190039060005260206000209060030201600090919091909150600082015181600001556020820151816001015560408201518160020155505082600b8190555042600e819055506000600f60006101000a81548160ff0219169083151502179055507fa39d9410abe7578bfbf71501989f175c50a6950b6595718dd8092474541c889b8282604051612ae6929190614602565b60405180910390a150505050565b612aff838383613136565b600073ffffffffffffffffffffffffffffffffffffffff168373ffffffffffffffffffffffffffffffffffffffff161415612b4257612b3d8161313b565b612b81565b8173ffffffffffffffffffffffffffffffffffffffff168373ffffffffffffffffffffffffffffffffffffffff1614612b8057612b7f8382613184565b5b5b600073ffffffffffffffffffffffffffffffffffffffff168273ffffffffffffffffffffffffffffffffffffffff161415612bc457612bbf816132f1565b612c03565b8273ffffffffffffffffffffffffffffffffffffffff168273ffffffffffffffffffffffffffffffffffffffff1614612c0257612c018282613434565b5b5b505050565b505050565b612c1783836134b3565b612c246000848484612c68565b612c63576040517f08c379a0000000000000000000000000000000000000000000000000000000008152600401612c5a90614427565b60405180910390fd5b505050565b6000612c898473ffffffffffffffffffffffffffffffffffffffff1661368d565b15612df2578373ffffffffffffffffffffffffffffffffffffffff1663150b7a02612cb261197f565b8786866040518563ffffffff1660e01b8152600401612cd494939291906142fb565b602060405180830381600087803b158015612cee57600080fd5b505af1925050508015612d1f57506040513d601f19601f82011682018060405250810190612d1c9190613afc565b60015b612da2573d8060008114612d4f576040519150601f19603f3d011682016040523d82523d6000602084013e612d54565b606091505b50600081511415612d9a576040517f08c379a0000000000000000000000000000000000000000000000000000000008152600401612d9190614427565b60405180910390fd5b805181602001fd5b63150b7a0260e01b7bffffffffffffffffffffffffffffffffffffffffffffffffffffffff1916817bffffffffffffffffffffffffffffffffffffffffffffffffffffffff191614915050612df7565b600190505b949350505050565b60606000821415612e47576040518060400160405280600181526020017f30000000000000000000000000000000000000000000000000000000000000008152509050612fa7565b600082905060005b60008214612e79578080612e6290614a15565b915050600a82612e7291906147b9565b9150612e4f565b60008167ffffffffffffffff811115612ebb577f4e487b7100000000000000000000000000000000000000000000000000000000600052604160045260246000fd5b6040519080825280601f01601f191660200182016040528015612eed5781602001600182028036833780820191505090505b5090505b60008514612fa057600182612f06919061487f565b9150600a85612f159190614a88565b6030612f21919061472c565b60f81b818381518110612f5d577f4e487b7100000000000000000000000000000000000000000000000000000000600052603260045260246000fd5b60200101907effffffffffffffffffffffffffffffffffffffffffffffffffffffffffffff1916908160001a905350600a85612f9991906147b9565b9450612ef1565b8093505050505b919050565b6060600082511415612fcf57604051806020016040528060008152509050613131565b60006040518060600160405280604081526020016151eb6040913990506000600360028551612ffe919061472c565b61300891906147b9565b600461301491906147ea565b67ffffffffffffffff811115613053577f4e487b7100000000000000000000000000000000000000000000000000000000600052604160045260246000fd5b6040519080825280601f01601f1916602001820160405280156130855781602001600182028036833780820191505090505b509050600182016020820185865187015b808210156130f1576003820191508151603f8160121c168501518453600184019350603f81600c1c168501518453600184019350603f8160061c168501518453600184019350603f8116850151845360018401935050613096565b505060038651066001811461310d576002811461312057613128565b603d6001830353603d6002830353613128565b603d60018303535b50505080925050505b919050565b505050565b600980549050600a600083815260200190815260200160002081905550600981908060018154018082558091505060019003906000526020600020016000909190919091505550565b6000600161319184610fb4565b61319b919061487f565b9050600060086000848152602001908152602001600020549050818114613280576000600760008673ffffffffffffffffffffffffffffffffffffffff1673ffffffffffffffffffffffffffffffffffffffff168152602001908152602001600020600084815260200190815260200160002054905080600760008773ffffffffffffffffffffffffffffffffffffffff1673ffffffffffffffffffffffffffffffffffffffff168152602001908152602001600020600084815260200190815260200160002081905550816008600083815260200190815260200160002081905550505b6008600084815260200190815260200160002060009055600760008573ffffffffffffffffffffffffffffffffffffffff1673ffffffffffffffffffffffffffffffffffffffff16815260200190815260200160002060008381526020019081526020016000206000905550505050565b60006001600980549050613305919061487f565b90506000600a600084815260200190815260200160002054905060006009838154811061335b577f4e487b7100000000000000000000000000000000000000000000000000000000600052603260045260246000fd5b9060005260206000200154905080600983815481106133a3577f4e487b7100000000000000000000000000000000000000000000000000000000600052603260045260246000fd5b906000526020600020018190555081600a600083815260200190815260200160002081905550600a6000858152602001908152602001600020600090556009805480613418577f4e487b7100000000000000000000000000000000000000000000000000000000600052603160045260246000fd5b6001900381819060005260206000200160009055905550505050565b600061343f83610fb4565b905081600760008573ffffffffffffffffffffffffffffffffffffffff1673ffffffffffffffffffffffffffffffffffffffff168152602001908152602001600020600083815260200190815260200160002081905550806008600084815260200190815260200160002081905550505050565b600073ffffffffffffffffffffffffffffffffffffffff168273ffffffffffffffffffffffffffffffffffffffff161415613523576040517f08c379a000000000000000000000000000000000000000000000000000000000815260040161351a90614527565b60405180910390fd5b61352c816120b3565b1561356c576040517f08c379a000000000000000000000000000000000000000000000000000000000815260040161356390614487565b60405180910390fd5b61357860008383612af4565b6001600460008473ffffffffffffffffffffffffffffffffffffffff1673ffffffffffffffffffffffffffffffffffffffff16815260200190815260200160002060008282546135c8919061472c565b92505081905550816003600083815260200190815260200160002060006101000a81548173ffffffffffffffffffffffffffffffffffffffff021916908373ffffffffffffffffffffffffffffffffffffffff160217905550808273ffffffffffffffffffffffffffffffffffffffff16600073ffffffffffffffffffffffffffffffffffffffff167fddf252ad1be2c89b69c2b068fc378daa952ba7f163c4a11628f55a4df523b3ef60405160405180910390a461368960008383612c08565b5050565b6000808273ffffffffffffffffffffffffffffffffffffffff163b119050919050565b60405180608001604052806004905b60608152602001906001900390816136bf5790505090565b6040518060e001604052806007905b60608152602001906001900390816136e65790505090565b600061371161370c84614650565b61462b565b9050808382526020820190508285602086028201111561373057600080fd5b60005b8581101561376057816137468882613902565b845260208401935060208301925050600181019050613733565b5050509392505050565b600061377d6137788461467c565b61462b565b90508281526020810184848401111561379557600080fd5b6137a0848285614970565b509392505050565b60006137bb6137b6846146ad565b61462b565b9050828152602081018484840111156137d357600080fd5b6137de848285614970565b509392505050565b6000813590506137f58161512c565b92915050565b600082601f83011261380c57600080fd5b813561381c8482602086016136fe565b91505092915050565b60008135905061383481615143565b92915050565b6000813590506138498161515a565b92915050565b60008151905061385e8161515a565b92915050565b60008083601f84011261387657600080fd5b8235905067ffffffffffffffff81111561388f57600080fd5b6020830191508360018202830111156138a757600080fd5b9250929050565b600082601f8301126138bf57600080fd5b81356138cf84826020860161376a565b91505092915050565b600082601f8301126138e957600080fd5b81356138f98482602086016137a8565b91505092915050565b60008135905061391181615171565b92915050565b60008151905061392681615171565b92915050565b60006020828403121561393e57600080fd5b600061394c848285016137e6565b91505092915050565b6000806040838503121561396857600080fd5b6000613976858286016137e6565b9250506020613987858286016137e6565b9150509250929050565b6000806000606084860312156139a657600080fd5b60006139b4868287016137e6565b93505060206139c5868287016137e6565b92505060406139d686828701613902565b9150509250925092565b600080600080608085870312156139f657600080fd5b6000613a04878288016137e6565b9450506020613a15878288016137e6565b9350506040613a2687828801613902565b925050606085013567ffffffffffffffff811115613a4357600080fd5b613a4f878288016138ae565b91505092959194509250565b60008060408385031215613a6e57600080fd5b6000613a7c858286016137e6565b9250506020613a8d85828601613825565b9150509250929050565b60008060408385031215613aaa57600080fd5b6000613ab8858286016137e6565b9250506020613ac985828601613902565b9150509250929050565b600060208284031215613ae557600080fd5b6000613af38482850161383a565b91505092915050565b600060208284031215613b0e57600080fd5b6000613b1c8482850161384f565b91505092915050565b60008060208385031215613b3857600080fd5b600083013567ffffffffffffffff811115613b5257600080fd5b613b5e85828601613864565b92509250509250929050565b600080600060608486031215613b7f57600080fd5b600084013567ffffffffffffffff811115613b9957600080fd5b613ba5868287016138d8565b9350506020613bb686828701613902565b9250506040613bc786828701613902565b9150509250925092565b600060208284031215613be357600080fd5b6000613bf184828501613902565b91505092915050565b600060208284031215613c0c57600080fd5b6000613c1a84828501613917565b91505092915050565b60008060408385031215613c3657600080fd5b6000613c4485828601613902565b925050602083013567ffffffffffffffff811115613c6157600080fd5b613c6d858286016137fb565b9150509250929050565b613c80816148b3565b82525050565b613c8f816148c5565b82525050565b613c9e816148d1565b82525050565b6000613caf826146de565b613cb981856146f4565b9350613cc981856020860161497f565b613cd281614b75565b840191505092915050565b6000613ce8826146e9565b613cf28185614710565b9350613d0281856020860161497f565b613d0b81614b75565b840191505092915050565b6000613d21826146e9565b613d2b8185614721565b9350613d3b81856020860161497f565b80840191505092915050565b6000613d54602b83614710565b9150613d5f82614b86565b604082019050919050565b6000613d77603283614710565b9150613d8282614bd5565b604082019050919050565b6000613d9a602683614710565b9150613da582614c24565b604082019050919050565b6000613dbd602583614710565b9150613dc882614c73565b604082019050919050565b6000613de0601c83614710565b9150613deb82614cc2565b602082019050919050565b6000613e03600883614721565b9150613e0e82614ceb565b600882019050919050565b6000613e26600e83614721565b9150613e3182614d14565b600e82019050919050565b6000613e49602483614710565b9150613e5482614d3d565b604082019050919050565b6000613e6c601983614710565b9150613e7782614d8c565b602082019050919050565b6000613e8f601183614721565b9150613e9a82614db5565b601182019050919050565b6000613eb2602983614710565b9150613ebd82614dde565b604082019050919050565b6000613ed5600183614721565b9150613ee082614e2d565b600182019050919050565b6000613ef8602583614721565b9150613f0382614e56565b602582019050919050565b6000613f1b600983614721565b9150613f2682614ea5565b600982019050919050565b6000613f3e603e83614710565b9150613f4982614ece565b604082019050919050565b6000613f61602083614710565b9150613f6c82614f1d565b602082019050919050565b6000613f84600183614721565b9150613f8f82614f46565b600182019050919050565b6000613fa7601683614721565b9150613fb282614f6f565b601682019050919050565b6000613fca602083614710565b9150613fd582614f98565b602082019050919050565b6000613fed600183614721565b9150613ff882614fc1565b600182019050919050565b6000614010601883614710565b915061401b82614fea565b602082019050919050565b6000614033602183614710565b915061403e82615013565b604082019050919050565b6000614056601d83614721565b915061406182615062565b601d82019050919050565b6000614079600083614705565b91506140848261508b565b600082019050919050565b600061409c602c83614710565b91506140a78261508e565b604082019050919050565b60006140bf602e83614710565b91506140ca826150dd565b604082019050919050565b6140de81614907565b82525050565b6140ed81614935565b82525050565b6140fc8161493f565b82525050565b61410b8161494f565b82525050565b600061411d8284613d16565b915081905092915050565b60006141348285613d16565b91506141408284613d16565b91508190509392505050565b60006141588287613d16565b91506141648286613d16565b91506141708285613d16565b915061417c8284613d16565b915081905095945050505050565b6000614196828a613d16565b91506141a28289613d16565b91506141ae8288613d16565b91506141ba8287613d16565b91506141c68286613d16565b91506141d28285613d16565b91506141de8284613d16565b915081905098975050505050505050565b60006141fa82613f9a565b91506142068284613d16565b915061421182613df6565b915081905092915050565b600061422782613fe0565b915061423282613e19565b915061423d82613eeb565b915061424882613e82565b915061425382613f0e565b915061425f8284613d16565b915061426a82613ec8565b915061427582613f77565b915081905092915050565b600061428b82614049565b91506142978284613d16565b915081905092915050565b60006142ad8261406c565b9150819050919050565b60006020820190506142cc6000830184613c77565b92915050565b60006040820190506142e76000830185613c77565b6142f46020830184613c77565b9392505050565b60006080820190506143106000830187613c77565b61431d6020830186613c77565b61432a60408301856140e4565b818103606083015261433c8184613ca4565b905095945050505050565b600060208201905061435c6000830184613c86565b92915050565b60006040820190506143776000830185613c86565b81810360208301526143898184613ca4565b90509392505050565b600060a0820190506143a76000830188613c95565b6143b46020830187614102565b6143c160408301866140d5565b6143ce60608301856140f3565b6143db60808301846140f3565b9695505050505050565b600060208201905081810360008301526143ff8184613cdd565b905092915050565b6000602082019050818103600083015261442081613d47565b9050919050565b6000602082019050818103600083015261444081613d6a565b9050919050565b6000602082019050818103600083015261446081613d8d565b9050919050565b6000602082019050818103600083015261448081613db0565b9050919050565b600060208201905081810360008301526144a081613dd3565b9050919050565b600060208201905081810360008301526144c081613e3c565b9050919050565b600060208201905081810360008301526144e081613e5f565b9050919050565b6000602082019050818103600083015261450081613ea5565b9050919050565b6000602082019050818103600083015261452081613f31565b9050919050565b6000602082019050818103600083015261454081613f54565b9050919050565b6000602082019050818103600083015261456081613fbd565b9050919050565b6000602082019050818103600083015261458081614003565b9050919050565b600060208201905081810360008301526145a081614026565b9050919050565b600060208201905081810360008301526145c08161408f565b9050919050565b600060208201905081810360008301526145e0816140b2565b9050919050565b60006020820190506145fc60008301846140e4565b92915050565b600060408201905061461760008301856140e4565b61462460208301846140e4565b9392505050565b6000614635614646565b905061464182826149e4565b919050565b6000604051905090565b600067ffffffffffffffff82111561466b5761466a614b46565b5b602082029050602081019050919050565b600067ffffffffffffffff82111561469757614696614b46565b5b6146a082614b75565b9050602081019050919050565b600067ffffffffffffffff8211156146c8576146c7614b46565b5b6146d182614b75565b9050602081019050919050565b600081519050919050565b600081519050919050565b600082825260208201905092915050565b600081905092915050565b600082825260208201905092915050565b600081905092915050565b600061473782614935565b915061474283614935565b9250827fffffffffffffffffffffffffffffffffffffffffffffffffffffffffffffffff0382111561477757614776614ab9565b5b828201905092915050565b600061478d82614963565b915061479883614963565b92508260ff038211156147ae576147ad614ab9565b5b828201905092915050565b60006147c482614935565b91506147cf83614935565b9250826147df576147de614ae8565b5b828204905092915050565b60006147f582614935565b915061480083614935565b9250817fffffffffffffffffffffffffffffffffffffffffffffffffffffffffffffffff048311821515161561483957614838614ab9565b5b828202905092915050565b600061484f82614963565b915061485a83614963565b92508160ff048311821515161561487457614873614ab9565b5b828202905092915050565b600061488a82614935565b915061489583614935565b9250828210156148a8576148a7614ab9565b5b828203905092915050565b60006148be82614915565b9050919050565b60008115159050919050565b6000819050919050565b60007fffffffff0000000000000000000000000000000000000000000000000000000082169050919050565b600061ffff82169050919050565b600073ffffffffffffffffffffffffffffffffffffffff82169050919050565b6000819050919050565b600063ffffffff82169050919050565b600067ffffffffffffffff82169050919050565b600060ff82169050919050565b82818337600083830152505050565b60005b8381101561499d578082015181840152602081019050614982565b838111156149ac576000848401525b50505050565b600060028204905060018216806149ca57607f821691505b602082108114156149de576149dd614b17565b5b50919050565b6149ed82614b75565b810181811067ffffffffffffffff82111715614a0c57614a0b614b46565b5b80604052505050565b6000614a2082614935565b91507fffffffffffffffffffffffffffffffffffffffffffffffffffffffffffffffff821415614a5357614a52614ab9565b5b600182019050919050565b6000614a6982614963565b915060ff821415614a7d57614a7c614ab9565b5b600182019050919050565b6000614a9382614935565b9150614a9e83614935565b925082614aae57614aad614ae8565b5b828206905092915050565b7f4e487b7100000000000000000000000000000000000000000000000000000000600052601160045260246000fd5b7f4e487b7100000000000000000000000000000000000000000000000000000000600052601260045260246000fd5b7f4e487b7100000000000000000000000000000000000000000000000000000000600052602260045260246000fd5b7f4e487b7100000000000000000000000000000000000000000000000000000000600052604160045260246000fd5b6000601f19601f8301169050919050565b7f455243373231456e756d657261626c653a206f776e657220696e646578206f7560008201527f74206f6620626f756e6473000000000000000000000000000000000000000000602082015250565b7f4552433732313a207472616e7366657220746f206e6f6e20455243373231526560008201527f63656976657220696d706c656d656e7465720000000000000000000000000000602082015250565b7f4f776e61626c653a206e6577206f776e657220697320746865207a65726f206160008201527f6464726573730000000000000000000000000000000000000000000000000000602082015250565b7f4552433732313a207472616e736665722066726f6d20696e636f72726563742060008201527f6f776e6572000000000000000000000000000000000000000000000000000000602082015250565b7f4552433732313a20746f6b656e20616c7265616479206d696e74656400000000600082015250565b7f3c2f747370616e3e000000000000000000000000000000000000000000000000600082015250565b7f226e616d65223a224e4654222c20000000000000000000000000000000000000600082015250565b7f4552433732313a207472616e7366657220746f20746865207a65726f2061646460008201527f7265737300000000000000000000000000000000000000000000000000000000602082015250565b7f4552433732313a20617070726f766520746f2063616c6c657200000000000000600082015250565b7f2261747472696275746573223a22222c20000000000000000000000000000000600082015250565b7f4552433732313a2061646472657373207a65726f206973206e6f74206120766160008201527f6c6964206f776e65720000000000000000000000000000000000000000000000602082015250565b7f2200000000000000000000000000000000000000000000000000000000000000600082015250565b7f226465736372697074696f6e223a2242617463682d72657665616c6564204e4660008201527f5421222c20000000000000000000000000000000000000000000000000000000602082015250565b7f22696d616765223a220000000000000000000000000000000000000000000000600082015250565b7f4552433732313a20617070726f76652063616c6c6572206973206e6f7420746f60008201527f6b656e206f776e6572206e6f7220617070726f76656420666f7220616c6c0000602082015250565b7f4552433732313a206d696e7420746f20746865207a65726f2061646472657373600082015250565b7f7d00000000000000000000000000000000000000000000000000000000000000600082015250565b7f3c747370616e20783d223132222064793d223438223e00000000000000000000600082015250565b7f4f776e61626c653a2063616c6c6572206973206e6f7420746865206f776e6572600082015250565b7f7b00000000000000000000000000000000000000000000000000000000000000600082015250565b7f4552433732313a20696e76616c696420746f6b656e2049440000000000000000600082015250565b7f4552433732313a20617070726f76616c20746f2063757272656e74206f776e6560008201527f7200000000000000000000000000000000000000000000000000000000000000602082015250565b7f646174613a6170706c69636174696f6e2f6a736f6e3b6261736536342c000000600082015250565b50565b7f455243373231456e756d657261626c653a20676c6f62616c20696e646578206f60008201527f7574206f6620626f756e64730000000000000000000000000000000000000000602082015250565b7f4552433732313a2063616c6c6572206973206e6f7420746f6b656e206f776e6560008201527f72206e6f7220617070726f766564000000000000000000000000000000000000602082015250565b615135816148b3565b811461514057600080fd5b50565b61514c816148c5565b811461515757600080fd5b50565b615163816148db565b811461516e57600080fd5b50565b61517a81614935565b811461518557600080fd5b5056fe3c73766720786d6c6e733d22687474703a2f2f7777772e77332e6f72672f323030302f73766722207072657365727665417370656374526174696f3d22784d696e594d696e206d656574222076696577426f783d223020302033353020333530223e4142434445464748494a4b4c4d4e4f505152535455565758595a6162636465666768696a6b6c6d6e6f707172737475767778797a303132333435363738392b2f3c7374796c653e2e62617365207b2066696c6c3a2077686974653b20666f6e742d66616d696c793a2073657269663b20666f6e742d73697a653a2033353070783b207d3c2f7374796c653e3c726563742077696474683d223130302522206865696768743d2231303025222066696c6c3d22626c61636b22202f3e3c7465787420783d2239302220793d223239352220636c6173733d2262617365223e3c7374796c653e2e62617365207b2066696c6c3a2077686974653b20666f6e742d66616d696c793a2073657269663b20666f6e742d73697a653a20353970783b207d3c2f7374796c653e3c726563742077696474683d223130302522206865696768743d2231303025222066696c6c3d22626c61636b22202f3e3c7465787420636c6173733d2262617365223ea2646970667358221220c411173975a315c7cc62795d38c14d77a51e2c65b78c3423f7716d69a5c15aff64736f6c63430008040033",
  "linkReferences": {},
  "deployedLinkReferences": {}
}