{
  "_format": "hh-sol-artifact-1",
  "contractName": "NFTCollection",
  "sourceName": "contracts/NFTCollection.sol",
  "abi": [
    {
      "inputs": [
        {
          "internalType": "string",
          "name": "_name",
          "type": "string"
        },
        {
          "internalType": "string",
          "name": "_symbol",
          "type": "string"
        },
        {
          "internalType": "uint256",
          "name": "_maxSupply",
          "type": "uint256"
        },
        {
          "internalType": "uint256",
          "name": "_mintCost",
          "type": "uint256"
        },
        {
          "internalType": "uint256",
          "name": "_revealBatchSize",
          "type": "uint256"
        },
        {
          "internalType": "uint256",
          "name": "_revealInterval",
          "type": "uint256"
        },
        {
          "internalType": "address",
          "name": "_vrfCoordinatorV2",
          "type": "address"
        },
        {
          "internalType": "uint64",
          "name": "_vrfSubscriptionId",
          "type": "uint64"
        },
        {
          "internalType": "bytes32",
          "name": "_vrfGasLane",
          "type": "bytes32"
        },
        {
          "internalType": "uint32",
          "name": "_vrfCallbackGasLimit",
          "type": "uint32"
        }
      ],
      "stateMutability": "nonpayable",
      "type": "constructor"
    },
    {
      "inputs": [],
      "name": "InsufficientFunds",
      "type": "error"
    },
    {
      "inputs": [],
      "name": "InsufficientLINK",
      "type": "error"
    },
    {
      "inputs": [],
      "name": "InvalidAmount",
      "type": "error"
    },
    {
      "inputs": [],
      "name": "MaxSupplyReached",
      "type": "error"
    },
    {
      "inputs": [
        {
          "internalType": "address",
          "name": "have",
          "type": "address"
        },
        {
          "internalType": "address",
          "name": "want",
          "type": "address"
        }
      ],
      "name": "OnlyCoordinatorCanFulfill",
      "type": "error"
    },
    {
      "inputs": [],
      "name": "RevealCriteriaNotMet",
      "type": "error"
    },
    {
      "inputs": [],
      "name": "WithdrawProceedsFailed",
      "type": "error"
    },
    {
      "anonymous": false,
      "inputs": [
        {
          "indexed": true,
          "internalType": "address",
          "name": "owner",
          "type": "address"
        },
        {
          "indexed": true,
          "internalType": "address",
          "name": "approved",
          "type": "address"
        },
        {
          "indexed": true,
          "internalType": "uint256",
          "name": "tokenId",
          "type": "uint256"
        }
      ],
      "name": "Approval",
      "type": "event"
    },
    {
      "anonymous": false,
      "inputs": [
        {
          "indexed": true,
          "internalType": "address",
          "name": "owner",
          "type": "address"
        },
        {
          "indexed": true,
          "internalType": "address",
          "name": "operator",
          "type": "address"
        },
        {
          "indexed": false,
          "internalType": "bool",
          "name": "approved",
          "type": "bool"
        }
      ],
      "name": "ApprovalForAll",
      "type": "event"
    },
    {
      "anonymous": false,
      "inputs": [
        {
          "indexed": false,
          "internalType": "uint256",
          "name": "startIndex",
          "type": "uint256"
        },
        {
          "indexed": false,
          "internalType": "uint256",
          "name": "endIndex",
          "type": "uint256"
        }
      ],
      "name": "BatchRevealFinished",
      "type": "event"
    },
    {
      "anonymous": false,
      "inputs": [
        {
          "indexed": false,
          "internalType": "uint256",
          "name": "requestId",
          "type": "uint256"
        }
      ],
      "name": "BatchRevealRequested",
      "type": "event"
    },
    {
      "anonymous": false,
      "inputs": [
        {
          "indexed": true,
          "internalType": "address",
          "name": "previousOwner",
          "type": "address"
        },
        {
          "indexed": true,
          "internalType": "address",
          "name": "newOwner",
          "type": "address"
        }
      ],
      "name": "OwnershipTransferred",
      "type": "event"
    },
    {
      "anonymous": false,
      "inputs": [
        {
          "indexed": true,
          "internalType": "address",
          "name": "from",
          "type": "address"
        },
        {
          "indexed": true,
          "internalType": "address",
          "name": "to",
          "type": "address"
        },
        {
          "indexed": true,
          "internalType": "uint256",
          "name": "tokenId",
          "type": "uint256"
        }
      ],
      "name": "Transfer",
      "type": "event"
    },
    {
      "inputs": [
        {
          "internalType": "address",
          "name": "to",
          "type": "address"
        },
        {
          "internalType": "uint256",
          "name": "tokenId",
          "type": "uint256"
        }
      ],
      "name": "approve",
      "outputs": [],
      "stateMutability": "nonpayable",
      "type": "function"
    },
    {
      "inputs": [
        {
          "internalType": "address",
          "name": "owner",
          "type": "address"
        }
      ],
      "name": "balanceOf",
      "outputs": [
        {
          "internalType": "uint256",
          "name": "",
          "type": "uint256"
        }
      ],
      "stateMutability": "view",
      "type": "function"
    },
    {
      "inputs": [],
      "name": "batchSize",
      "outputs": [
        {
          "internalType": "uint256",
          "name": "",
          "type": "uint256"
        }
      ],
      "stateMutability": "view",
      "type": "function"
    },
    {
      "inputs": [
        {
          "internalType": "bytes",
          "name": "",
          "type": "bytes"
        }
      ],
      "name": "checkUpkeep",
      "outputs": [
        {
          "internalType": "bool",
          "name": "upkeepNeeded",
          "type": "bool"
        },
        {
          "internalType": "bytes",
          "name": "",
          "type": "bytes"
        }
      ],
      "stateMutability": "view",
      "type": "function"
    },
    {
      "inputs": [
        {
          "internalType": "uint256",
          "name": "tokenId",
          "type": "uint256"
        }
      ],
      "name": "getApproved",
      "outputs": [
        {
          "internalType": "address",
          "name": "",
          "type": "address"
        }
      ],
      "stateMutability": "view",
      "type": "function"
    },
    {
      "inputs": [
        {
          "internalType": "address",
          "name": "owner",
          "type": "address"
        },
        {
          "internalType": "address",
          "name": "operator",
          "type": "address"
        }
      ],
      "name": "isApprovedForAll",
      "outputs": [
        {
          "internalType": "bool",
          "name": "",
          "type": "bool"
        }
      ],
      "stateMutability": "view",
      "type": "function"
    },
    {
      "inputs": [],
      "name": "lastRevealed",
      "outputs": [
        {
          "internalType": "uint256",
          "name": "",
          "type": "uint256"
        }
      ],
      "stateMutability": "view",
      "type": "function"
    },
    {
      "inputs": [],
      "name": "maxSupply",
      "outputs": [
        {
          "internalType": "uint256",
          "name": "",
          "type": "uint256"
        }
      ],
      "stateMutability": "view",
      "type": "function"
    },
    {
      "inputs": [
        {
          "internalType": "uint256",
          "name": "_amount",
          "type": "uint256"
        }
      ],
      "name": "mint",
      "outputs": [],
      "stateMutability": "payable",
      "type": "function"
    },
    {
      "inputs": [],
      "name": "mintCost",
      "outputs": [
        {
          "internalType": "uint256",
          "name": "",
          "type": "uint256"
        }
      ],
      "stateMutability": "view",
      "type": "function"
    },
    {
      "inputs": [],
      "name": "name",
      "outputs": [
        {
          "internalType": "string",
          "name": "",
          "type": "string"
        }
      ],
      "stateMutability": "view",
      "type": "function"
    },
    {
      "inputs": [],
      "name": "owner",
      "outputs": [
        {
          "internalType": "address",
          "name": "",
          "type": "address"
        }
      ],
      "stateMutability": "view",
      "type": "function"
    },
    {
      "inputs": [
        {
          "internalType": "uint256",
          "name": "tokenId",
          "type": "uint256"
        }
      ],
      "name": "ownerOf",
      "outputs": [
        {
          "internalType": "address",
          "name": "",
          "type": "address"
        }
      ],
      "stateMutability": "view",
      "type": "function"
    },
    {
      "inputs": [],
      "name": "pendingReveal",
      "outputs": [
        {
          "internalType": "bool",
          "name": "",
          "type": "bool"
        }
      ],
      "stateMutability": "view",
      "type": "function"
    },
    {
      "inputs": [
        {
          "internalType": "bytes",
          "name": "",
          "type": "bytes"
        }
      ],
      "name": "performUpkeep",
      "outputs": [],
      "stateMutability": "nonpayable",
      "type": "function"
    },
    {
      "inputs": [
        {
          "internalType": "uint256",
          "name": "requestId",
          "type": "uint256"
        },
        {
          "internalType": "uint256[]",
          "name": "randomWords",
          "type": "uint256[]"
        }
      ],
      "name": "rawFulfillRandomWords",
      "outputs": [],
      "stateMutability": "nonpayable",
      "type": "function"
    },
    {
      "inputs": [],
      "name": "renounceOwnership",
      "outputs": [],
      "stateMutability": "nonpayable",
      "type": "function"
    },
    {
      "inputs": [],
      "name": "revealCriteriaMatched",
      "outputs": [
        {
          "internalType": "bool",
          "name": "",
          "type": "bool"
        }
      ],
      "stateMutability": "view",
      "type": "function"
    },
    {
      "inputs": [],
      "name": "revealPendingMetadata",
      "outputs": [
        {
          "internalType": "uint256",
          "name": "requestId",
          "type": "uint256"
        }
      ],
      "stateMutability": "nonpayable",
      "type": "function"
    },
    {
      "inputs": [],
      "name": "revealedCount",
      "outputs": [
        {
          "internalType": "uint256",
          "name": "",
          "type": "uint256"
        }
      ],
      "stateMutability": "view",
      "type": "function"
    },
    {
      "inputs": [],
      "name": "revealedInterval",
      "outputs": [
        {
          "internalType": "uint256",
          "name": "",
          "type": "uint256"
        }
      ],
      "stateMutability": "view",
      "type": "function"
    },
    {
      "inputs": [
        {
          "internalType": "address",
          "name": "from",
          "type": "address"
        },
        {
          "internalType": "address",
          "name": "to",
          "type": "address"
        },
        {
          "internalType": "uint256",
          "name": "tokenId",
          "type": "uint256"
        }
      ],
      "name": "safeTransferFrom",
      "outputs": [],
      "stateMutability": "nonpayable",
      "type": "function"
    },
    {
      "inputs": [
        {
          "internalType": "address",
          "name": "from",
          "type": "address"
        },
        {
          "internalType": "address",
          "name": "to",
          "type": "address"
        },
        {
          "internalType": "uint256",
          "name": "tokenId",
          "type": "uint256"
        },
        {
          "internalType": "bytes",
          "name": "_data",
          "type": "bytes"
        }
      ],
      "name": "safeTransferFrom",
      "outputs": [],
      "stateMutability": "nonpayable",
      "type": "function"
    },
    {
      "inputs": [
        {
          "internalType": "address",
          "name": "operator",
          "type": "address"
        },
        {
          "internalType": "bool",
          "name": "approved",
          "type": "bool"
        }
      ],
      "name": "setApprovalForAll",
      "outputs": [],
      "stateMutability": "nonpayable",
      "type": "function"
    },
    {
      "inputs": [
        {
          "internalType": "uint256",
          "name": "_revealBatchSize",
          "type": "uint256"
        }
      ],
      "name": "setRevealBatchSize",
      "outputs": [],
      "stateMutability": "nonpayable",
      "type": "function"
    },
    {
      "inputs": [
        {
          "internalType": "uint256",
          "name": "_revealInterval",
          "type": "uint256"
        }
      ],
      "name": "setRevealInterval",
      "outputs": [],
      "stateMutability": "nonpayable",
      "type": "function"
    },
    {
      "inputs": [
        {
          "internalType": "string",
          "name": "str",
          "type": "string"
        },
        {
          "internalType": "uint256",
          "name": "startIndex",
          "type": "uint256"
        },
        {
          "internalType": "uint256",
          "name": "endIndex",
          "type": "uint256"
        }
      ],
      "name": "substring",
      "outputs": [
        {
          "internalType": "string",
          "name": "",
          "type": "string"
        }
      ],
      "stateMutability": "pure",
      "type": "function"
    },
    {
      "inputs": [
        {
          "internalType": "bytes4",
          "name": "interfaceId",
          "type": "bytes4"
        }
      ],
      "name": "supportsInterface",
      "outputs": [
        {
          "internalType": "bool",
          "name": "",
          "type": "bool"
        }
      ],
      "stateMutability": "view",
      "type": "function"
    },
    {
      "inputs": [],
      "name": "symbol",
      "outputs": [
        {
          "internalType": "string",
          "name": "",
          "type": "string"
        }
      ],
      "stateMutability": "view",
      "type": "function"
    },
    {
      "inputs": [
        {
          "internalType": "uint256",
          "name": "index",
          "type": "uint256"
        }
      ],
      "name": "tokenByIndex",
      "outputs": [
        {
          "internalType": "uint256",
          "name": "",
          "type": "uint256"
        }
      ],
      "stateMutability": "view",
      "type": "function"
    },
    {
      "inputs": [
        {
          "internalType": "address",
          "name": "owner",
          "type": "address"
        },
        {
          "internalType": "uint256",
          "name": "index",
          "type": "uint256"
        }
      ],
      "name": "tokenOfOwnerByIndex",
      "outputs": [
        {
          "internalType": "uint256",
          "name": "",
          "type": "uint256"
        }
      ],
      "stateMutability": "view",
      "type": "function"
    },
    {
      "inputs": [
        {
          "internalType": "uint256",
          "name": "tokenId",
          "type": "uint256"
        }
      ],
      "name": "tokenURI",
      "outputs": [
        {
          "internalType": "string",
          "name": "",
          "type": "string"
        }
      ],
      "stateMutability": "view",
      "type": "function"
    },
    {
      "inputs": [],
      "name": "totalSupply",
      "outputs": [
        {
          "internalType": "uint256",
          "name": "",
          "type": "uint256"
        }
      ],
      "stateMutability": "view",
      "type": "function"
    },
    {
      "inputs": [
        {
          "internalType": "address",
          "name": "from",
          "type": "address"
        },
        {
          "internalType": "address",
          "name": "to",
          "type": "address"
        },
        {
          "internalType": "uint256",
          "name": "tokenId",
          "type": "uint256"
        }
      ],
      "name": "transferFrom",
      "outputs": [],
      "stateMutability": "nonpayable",
      "type": "function"
    },
    {
      "inputs": [
        {
          "internalType": "address",
          "name": "newOwner",
          "type": "address"
        }
      ],
      "name": "transferOwnership",
      "outputs": [],
      "stateMutability": "nonpayable",
      "type": "function"
    },
    {
      "inputs": [],
      "name": "withdrawProceeds",
      "outputs": [],
      "stateMutability": "nonpayable",
      "type": "function"
    }
  ],
  "bytecode": "0x61016060405242600e553480156200001657600080fd5b5060405162005e8138038062005e8183398181016040528101906200003c9190620003d2565b838a8a6200005f620000536200017160201b60201c565b6200017960201b60201c565b8160019080519060200190620000779291906200023d565b508060029080519060200190620000909291906200023d565b5050508073ffffffffffffffffffffffffffffffffffffffff1660808173ffffffffffffffffffffffffffffffffffffffff1660601b81525050508760a081815250508660c081815250508373ffffffffffffffffffffffffffffffffffffffff1660e08173ffffffffffffffffffffffffffffffffffffffff1660601b815250508267ffffffffffffffff166101008167ffffffffffffffff1660c01b815250508161012081815250508063ffffffff166101408163ffffffff1660e01b8152505085600c8190555084600d819055505050505050505050505062000752565b600033905090565b60008060009054906101000a900473ffffffffffffffffffffffffffffffffffffffff169050816000806101000a81548173ffffffffffffffffffffffffffffffffffffffff021916908373ffffffffffffffffffffffffffffffffffffffff1602179055508173ffffffffffffffffffffffffffffffffffffffff168173ffffffffffffffffffffffffffffffffffffffff167f8be0079c531659141344cd1fd0a4f28419497f9722a3daafe3b4186f6b6457e060405160405180910390a35050565b8280546200024b90620005f5565b90600052602060002090601f0160209004810192826200026f5760008555620002bb565b82601f106200028a57805160ff1916838001178555620002bb565b82800160010185558215620002bb579182015b82811115620002ba5782518255916020019190600101906200029d565b5b509050620002ca9190620002ce565b5090565b5b80821115620002e9576000816000905550600101620002cf565b5090565b600062000304620002fe846200051d565b620004f4565b9050828152602081018484840111156200031d57600080fd5b6200032a848285620005bf565b509392505050565b6000815190506200034381620006d0565b92915050565b6000815190506200035a81620006ea565b92915050565b600082601f8301126200037257600080fd5b815162000384848260208601620002ed565b91505092915050565b6000815190506200039e8162000704565b92915050565b600081519050620003b5816200071e565b92915050565b600081519050620003cc8162000738565b92915050565b6000806000806000806000806000806101408b8d031215620003f357600080fd5b60008b015167ffffffffffffffff8111156200040e57600080fd5b6200041c8d828e0162000360565b9a505060208b015167ffffffffffffffff8111156200043a57600080fd5b620004488d828e0162000360565b99505060406200045b8d828e016200038d565b98505060606200046e8d828e016200038d565b9750506080620004818d828e016200038d565b96505060a0620004948d828e016200038d565b95505060c0620004a78d828e0162000332565b94505060e0620004ba8d828e01620003bb565b935050610100620004ce8d828e0162000349565b925050610120620004e28d828e01620003a4565b9150509295989b9194979a5092959850565b60006200050062000513565b90506200050e82826200062b565b919050565b6000604051905090565b600067ffffffffffffffff8211156200053b576200053a62000690565b5b6200054682620006bf565b9050602081019050919050565b6000620005608262000571565b9050919050565b6000819050919050565b600073ffffffffffffffffffffffffffffffffffffffff82169050919050565b6000819050919050565b600063ffffffff82169050919050565b600067ffffffffffffffff82169050919050565b60005b83811015620005df578082015181840152602081019050620005c2565b83811115620005ef576000848401525b50505050565b600060028204905060018216806200060e57607f821691505b6020821081141562000625576200062462000661565b5b50919050565b6200063682620006bf565b810181811067ffffffffffffffff8211171562000658576200065762000690565b5b80604052505050565b7f4e487b7100000000000000000000000000000000000000000000000000000000600052602260045260246000fd5b7f4e487b7100000000000000000000000000000000000000000000000000000000600052604160045260246000fd5b6000601f19601f8301169050919050565b620006db8162000553565b8114620006e757600080fd5b50565b620006f58162000567565b81146200070157600080fd5b50565b6200070f8162000591565b81146200071b57600080fd5b50565b62000729816200059b565b81146200073557600080fd5b50565b6200074381620005ab565b81146200074f57600080fd5b50565b60805160601c60a05160c05160e05160601c6101005160c01c610120516101405160e01c6156b3620007ce600039600061151e015260006114da015260006114fb0152600061149e0152600081816116b7015261186001526000818161165101526118c9015260008181610cb00152610d0401526156b36000f3fe60806040526004361061020f5760003560e01c8063777accbb11610118578063aaae4e23116100a0578063c87b56dd1161006f578063c87b56dd14610791578063d5abeb01146107ce578063e985e9c5146107f9578063f2fde38b14610836578063f4daaba11461085f5761020f565b8063aaae4e23146106e9578063b88d4fde14610712578063bbd78e931461073b578063bdb4b848146107665761020f565b80639038e693116100e75780639038e6931461063757806395d89b411461064e57806396634a4014610679578063a0712d68146106a4578063a22cb465146106c05761020f565b8063777accbb1461058b5780637b4fab5a146105b65780637e054ec5146105e15780638da5cb5b1461060c5761020f565b806336bee6d61161019b5780635c65d81f1161016a5780635c65d81f146104935780636352211e146104bc5780636e04ff0d146104f957806370a0823114610537578063715018a6146105745761020f565b806336bee6d6146103d957806342842e0e146104045780634585e33b1461042d5780634f6ccce7146104565761020f565b806318160ddd116101e257806318160ddd146102e25780631dcd9b551461030d5780631fe543e31461034a57806323b872dd146103735780632f745c591461039c5761020f565b806301ffc9a71461021457806306fdde0314610251578063081812fc1461027c578063095ea7b3146102b9575b600080fd5b34801561022057600080fd5b5061023b60048036038101906102369190613cb2565b61088a565b604051610248919061456c565b60405180910390f35b34801561025d57600080fd5b50610266610904565b604051610273919061460a565b60405180910390f35b34801561028857600080fd5b506102a3600480360381019061029e9190613db0565b610996565b6040516102b091906144dc565b60405180910390f35b3480156102c557600080fd5b506102e060048036038101906102db9190613c76565b610a1b565b005b3480156102ee57600080fd5b506102f7610b33565b604051610304919061484c565b60405180910390f35b34801561031957600080fd5b50610334600480360381019061032f9190613d49565b610b40565b604051610341919061460a565b60405180910390f35b34801561035657600080fd5b50610371600480360381019061036c9190613e02565b610cae565b005b34801561037f57600080fd5b5061039a60048036038101906103959190613b70565b610d6e565b005b3480156103a857600080fd5b506103c360048036038101906103be9190613c76565b610dce565b6040516103d0919061484c565b60405180910390f35b3480156103e557600080fd5b506103ee610e73565b6040516103fb919061456c565b60405180910390f35b34801561041057600080fd5b5061042b60048036038101906104269190613b70565b610e8a565b005b34801561043957600080fd5b50610454600480360381019061044f9190613d04565b610eaa565b005b34801561046257600080fd5b5061047d60048036038101906104789190613db0565b610eb7565b60405161048a919061484c565b60405180910390f35b34801561049f57600080fd5b506104ba60048036038101906104b59190613db0565b610f4e565b005b3480156104c857600080fd5b506104e360048036038101906104de9190613db0565b610fd4565b6040516104f091906144dc565b60405180910390f35b34801561050557600080fd5b50610520600480360381019061051b9190613d04565b611086565b60405161052e929190614587565b60405180910390f35b34801561054357600080fd5b5061055e60048036038101906105599190613b0b565b61109b565b60405161056b919061484c565b60405180910390f35b34801561058057600080fd5b50610589611153565b005b34801561059757600080fd5b506105a06111db565b6040516105ad919061484c565b60405180910390f35b3480156105c257600080fd5b506105cb6111e5565b6040516105d8919061484c565b60405180910390f35b3480156105ed57600080fd5b506105f66111ef565b604051610603919061456c565b60405180910390f35b34801561061857600080fd5b50610621611278565b60405161062e91906144dc565b60405180910390f35b34801561064357600080fd5b5061064c6112a1565b005b34801561065a57600080fd5b506106636113ca565b604051610670919061460a565b60405180910390f35b34801561068557600080fd5b5061068e61145c565b60405161069b919061484c565b60405180910390f35b6106be60048036038101906106b99190613db0565b611608565b005b3480156106cc57600080fd5b506106e760048036038101906106e29190613c3a565b611754565b005b3480156106f557600080fd5b50610710600480360381019061070b9190613db0565b61176a565b005b34801561071e57600080fd5b5061073960048036038101906107349190613bbf565b6117f0565b005b34801561074757600080fd5b50610750611852565b60405161075d919061484c565b60405180910390f35b34801561077257600080fd5b5061077b61185c565b604051610788919061484c565b60405180910390f35b34801561079d57600080fd5b506107b860048036038101906107b39190613db0565b611884565b6040516107c5919061460a565b60405180910390f35b3480156107da57600080fd5b506107e36118c5565b6040516107f0919061484c565b60405180910390f35b34801561080557600080fd5b50610820600480360381019061081b9190613b34565b6118ed565b60405161082d919061456c565b60405180910390f35b34801561084257600080fd5b5061085d60048036038101906108589190613b0b565b611981565b005b34801561086b57600080fd5b50610874611a79565b604051610881919061484c565b60405180910390f35b60007f780e9d63000000000000000000000000000000000000000000000000000000007bffffffffffffffffffffffffffffffffffffffffffffffffffffffff1916827bffffffffffffffffffffffffffffffffffffffffffffffffffffffff191614806108fd57506108fc82611a83565b5b9050919050565b60606001805461091390614c17565b80601f016020809104026020016040519081016040528092919081815260200182805461093f90614c17565b801561098c5780601f106109615761010080835404028352916020019161098c565b820191906000526020600020905b81548152906001019060200180831161096f57829003601f168201915b5050505050905090565b60006109a182611b65565b6109e0576040517f08c379a00000000000000000000000000000000000000000000000000000000081526004016109d7906147ac565b60405180910390fd5b6005600083815260200190815260200160002060009054906101000a900473ffffffffffffffffffffffffffffffffffffffff169050919050565b6000610a2682610fd4565b90508073ffffffffffffffffffffffffffffffffffffffff168373ffffffffffffffffffffffffffffffffffffffff161415610a97576040517f08c379a0000000000000000000000000000000000000000000000000000000008152600401610a8e906147ec565b60405180910390fd5b8073ffffffffffffffffffffffffffffffffffffffff16610ab6611bd1565b73ffffffffffffffffffffffffffffffffffffffff161480610ae55750610ae481610adf611bd1565b6118ed565b5b610b24576040517f08c379a0000000000000000000000000000000000000000000000000000000008152600401610b1b9061472c565b60405180910390fd5b610b2e8383611bd9565b505050565b6000600980549050905090565b6060600084905060008484610b559190614ae4565b67ffffffffffffffff811115610b94577f4e487b7100000000000000000000000000000000000000000000000000000000600052604160045260246000fd5b6040519080825280601f01601f191660200182016040528015610bc65781602001600182028036833780820191505090505b50905060008590505b84811015610ca157828181518110610c10577f4e487b7100000000000000000000000000000000000000000000000000000000600052603260045260246000fd5b602001015160f81c60f81b828783610c289190614ae4565b81518110610c5f577f4e487b7100000000000000000000000000000000000000000000000000000000600052603260045260246000fd5b60200101907effffffffffffffffffffffffffffffffffffffffffffffffffffffffffffff1916908160001a9053508080610c9990614c7a565b915050610bcf565b5080925050509392505050565b7f000000000000000000000000000000000000000000000000000000000000000073ffffffffffffffffffffffffffffffffffffffff163373ffffffffffffffffffffffffffffffffffffffff1614610d6057337f00000000000000000000000000000000000000000000000000000000000000006040517f1cf993f4000000000000000000000000000000000000000000000000000000008152600401610d579291906144f7565b60405180910390fd5b610d6a8282611c92565b5050565b610d7f610d79611bd1565b82611ce0565b610dbe576040517f08c379a0000000000000000000000000000000000000000000000000000000008152600401610db59061480c565b60405180910390fd5b610dc9838383611dbe565b505050565b6000610dd98361109b565b8210610e1a576040517f08c379a0000000000000000000000000000000000000000000000000000000008152600401610e119061462c565b60405180910390fd5b600760008473ffffffffffffffffffffffffffffffffffffffff1673ffffffffffffffffffffffffffffffffffffffff168152602001908152602001600020600083815260200190815260200160002054905092915050565b6000600f60009054906101000a900460ff16905090565b610ea5838383604051806020016040528060008152506117f0565b505050565b610eb261145c565b505050565b6000610ec1610b33565b8210610f02576040517f08c379a0000000000000000000000000000000000000000000000000000000008152600401610ef99061482c565b60405180910390fd5b60098281548110610f3c577f4e487b7100000000000000000000000000000000000000000000000000000000600052603260045260246000fd5b90600052602060002001549050919050565b610f56611bd1565b73ffffffffffffffffffffffffffffffffffffffff16610f74611278565b73ffffffffffffffffffffffffffffffffffffffff1614610fca576040517f08c379a0000000000000000000000000000000000000000000000000000000008152600401610fc1906147cc565b60405180910390fd5b80600d8190555050565b6000806003600084815260200190815260200160002060009054906101000a900473ffffffffffffffffffffffffffffffffffffffff169050600073ffffffffffffffffffffffffffffffffffffffff168173ffffffffffffffffffffffffffffffffffffffff16141561107d576040517f08c379a00000000000000000000000000000000000000000000000000000000081526004016110749061476c565b60405180910390fd5b80915050919050565b60006060611092612025565b91509250929050565b60008073ffffffffffffffffffffffffffffffffffffffff168273ffffffffffffffffffffffffffffffffffffffff16141561110c576040517f08c379a00000000000000000000000000000000000000000000000000000000081526004016111039061474c565b60405180910390fd5b600460008373ffffffffffffffffffffffffffffffffffffffff1673ffffffffffffffffffffffffffffffffffffffff168152602001908152602001600020549050919050565b61115b611bd1565b73ffffffffffffffffffffffffffffffffffffffff16611179611278565b73ffffffffffffffffffffffffffffffffffffffff16146111cf576040517f08c379a00000000000000000000000000000000000000000000000000000000081526004016111c6906147cc565b60405180910390fd5b6111d96000612053565b565b6000600d54905090565b6000600e54905090565b600080600b546111fd610b33565b6112079190614ae4565b9050600081141561121c576000915050611275565b600080600c541180156112315750600c548210155b1561123b57600190505b600080600d5411801561125c5750600d54600e544261125a9190614ae4565b115b1561126657600190505b818061126f5750805b93505050505b90565b60008060009054906101000a900473ffffffffffffffffffffffffffffffffffffffff16905090565b6112a9611bd1565b73ffffffffffffffffffffffffffffffffffffffff166112c7611278565b73ffffffffffffffffffffffffffffffffffffffff161461131d576040517f08c379a0000000000000000000000000000000000000000000000000000000008152600401611314906147cc565b60405180910390fd5b6000611327611278565b73ffffffffffffffffffffffffffffffffffffffff164760405161134a906144c7565b60006040518083038185875af1925050503d8060008114611387576040519150601f19603f3d011682016040523d82523d6000602084013e61138c565b606091505b50509050806113c7576040517f0ca5b23000000000000000000000000000000000000000000000000000000000815260040160405180910390fd5b50565b6060600280546113d990614c17565b80601f016020809104026020016040519081016040528092919081815260200182805461140590614c17565b80156114525780601f1061142757610100808354040283529160200191611452565b820191906000526020600020905b81548152906001019060200180831161143557829003601f168201915b5050505050905090565b6000611466612025565b61149c576040517f4e628ebc00000000000000000000000000000000000000000000000000000000815260040160405180910390fd5b7f000000000000000000000000000000000000000000000000000000000000000073ffffffffffffffffffffffffffffffffffffffff16635d3b1d307f00000000000000000000000000000000000000000000000000000000000000007f000000000000000000000000000000000000000000000000000000000000000060037f000000000000000000000000000000000000000000000000000000000000000060016040518663ffffffff1660e01b815260040161155f9594939291906145b7565b602060405180830381600087803b15801561157957600080fd5b505af115801561158d573d6000803e3d6000fd5b505050506040513d601f19601f820116820180604052508101906115b19190613dd9565b90506001600f60006101000a81548160ff0219169083151502179055507f8d83bdd6db199ff596cec09ea8e4f4e50da2dcb4020bc2a1cf072c507056b1ea816040516115fd919061484c565b60405180910390a190565b6000611612610b33565b9050600082141561164f576040517f2c5211c600000000000000000000000000000000000000000000000000000000815260040160405180910390fd5b7f0000000000000000000000000000000000000000000000000000000000000000828261167c9190614991565b11156116b4576040517fd05cb60900000000000000000000000000000000000000000000000000000000815260040160405180910390fd5b817f00000000000000000000000000000000000000000000000000000000000000006116e09190614a4f565b341015611719576040517f356680b700000000000000000000000000000000000000000000000000000000815260040160405180910390fd5b6000600190505b82811161174f5761173c3382846117379190614991565b612117565b808061174790614c7a565b915050611720565b505050565b61176661175f611bd1565b8383612135565b5050565b611772611bd1565b73ffffffffffffffffffffffffffffffffffffffff16611790611278565b73ffffffffffffffffffffffffffffffffffffffff16146117e6576040517f08c379a00000000000000000000000000000000000000000000000000000000081526004016117dd906147cc565b60405180910390fd5b80600c8190555050565b6118016117fb611bd1565b83611ce0565b611840576040517f08c379a00000000000000000000000000000000000000000000000000000000081526004016118379061480c565b60405180910390fd5b61184c848484846122a2565b50505050565b6000600b54905090565b60007f0000000000000000000000000000000000000000000000000000000000000000905090565b6060600080611892846122fe565b9150915060006118a28383612452565b905060006118af82612a88565b90506118ba81612b1b565b945050505050919050565b60007f0000000000000000000000000000000000000000000000000000000000000000905090565b6000600660008473ffffffffffffffffffffffffffffffffffffffff1673ffffffffffffffffffffffffffffffffffffffff16815260200190815260200160002060008373ffffffffffffffffffffffffffffffffffffffff1673ffffffffffffffffffffffffffffffffffffffff16815260200190815260200160002060009054906101000a900460ff16905092915050565b611989611bd1565b73ffffffffffffffffffffffffffffffffffffffff166119a7611278565b73ffffffffffffffffffffffffffffffffffffffff16146119fd576040517f08c379a00000000000000000000000000000000000000000000000000000000081526004016119f4906147cc565b60405180910390fd5b600073ffffffffffffffffffffffffffffffffffffffff168173ffffffffffffffffffffffffffffffffffffffff161415611a6d576040517f08c379a0000000000000000000000000000000000000000000000000000000008152600401611a649061466c565b60405180910390fd5b611a7681612053565b50565b6000600c54905090565b60007f80ac58cd000000000000000000000000000000000000000000000000000000007bffffffffffffffffffffffffffffffffffffffffffffffffffffffff1916827bffffffffffffffffffffffffffffffffffffffffffffffffffffffff19161480611b4e57507f5b5e139f000000000000000000000000000000000000000000000000000000007bffffffffffffffffffffffffffffffffffffffffffffffffffffffff1916827bffffffffffffffffffffffffffffffffffffffffffffffffffffffff1916145b80611b5e5750611b5d82612b6b565b5b9050919050565b60008073ffffffffffffffffffffffffffffffffffffffff166003600084815260200190815260200160002060009054906101000a900473ffffffffffffffffffffffffffffffffffffffff1673ffffffffffffffffffffffffffffffffffffffff1614159050919050565b600033905090565b816005600083815260200190815260200160002060006101000a81548173ffffffffffffffffffffffffffffffffffffffff021916908373ffffffffffffffffffffffffffffffffffffffff160217905550808273ffffffffffffffffffffffffffffffffffffffff16611c4c83610fd4565b73ffffffffffffffffffffffffffffffffffffffff167f8c5be1e5ebec7d5bd14f71427d1e84f3dd0314c0f7b2291e5b200ac8c7c3b92560405160405180910390a45050565b611cdc81600081518110611ccf577f4e487b7100000000000000000000000000000000000000000000000000000000600052603260045260246000fd5b6020026020010151612bd5565b5050565b6000611ceb82611b65565b611d2a576040517f08c379a0000000000000000000000000000000000000000000000000000000008152600401611d219061470c565b60405180910390fd5b6000611d3583610fd4565b90508073ffffffffffffffffffffffffffffffffffffffff168473ffffffffffffffffffffffffffffffffffffffff161480611d775750611d7681856118ed565b5b80611db557508373ffffffffffffffffffffffffffffffffffffffff16611d9d84610996565b73ffffffffffffffffffffffffffffffffffffffff16145b91505092915050565b8273ffffffffffffffffffffffffffffffffffffffff16611dde82610fd4565b73ffffffffffffffffffffffffffffffffffffffff1614611e34576040517f08c379a0000000000000000000000000000000000000000000000000000000008152600401611e2b9061468c565b60405180910390fd5b600073ffffffffffffffffffffffffffffffffffffffff168273ffffffffffffffffffffffffffffffffffffffff161415611ea4576040517f08c379a0000000000000000000000000000000000000000000000000000000008152600401611e9b906146cc565b60405180910390fd5b611eaf838383612cd3565b611eba600082611bd9565b6001600460008573ffffffffffffffffffffffffffffffffffffffff1673ffffffffffffffffffffffffffffffffffffffff1681526020019081526020016000206000828254611f0a9190614ae4565b925050819055506001600460008473ffffffffffffffffffffffffffffffffffffffff1673ffffffffffffffffffffffffffffffffffffffff1681526020019081526020016000206000828254611f619190614991565b92505081905550816003600083815260200190815260200160002060006101000a81548173ffffffffffffffffffffffffffffffffffffffff021916908373ffffffffffffffffffffffffffffffffffffffff160217905550808273ffffffffffffffffffffffffffffffffffffffff168473ffffffffffffffffffffffffffffffffffffffff167fddf252ad1be2c89b69c2b068fc378daa952ba7f163c4a11628f55a4df523b3ef60405160405180910390a4612020838383612de7565b505050565b6000600f60009054906101000a900460ff16156120455760009050612050565b61204d6111ef565b90505b90565b60008060009054906101000a900473ffffffffffffffffffffffffffffffffffffffff169050816000806101000a81548173ffffffffffffffffffffffffffffffffffffffff021916908373ffffffffffffffffffffffffffffffffffffffff1602179055508173ffffffffffffffffffffffffffffffffffffffff168173ffffffffffffffffffffffffffffffffffffffff167f8be0079c531659141344cd1fd0a4f28419497f9722a3daafe3b4186f6b6457e060405160405180910390a35050565b612131828260405180602001604052806000815250612dec565b5050565b8173ffffffffffffffffffffffffffffffffffffffff168373ffffffffffffffffffffffffffffffffffffffff1614156121a4576040517f08c379a000000000000000000000000000000000000000000000000000000000815260040161219b906146ec565b60405180910390fd5b80600660008573ffffffffffffffffffffffffffffffffffffffff1673ffffffffffffffffffffffffffffffffffffffff16815260200190815260200160002060008473ffffffffffffffffffffffffffffffffffffffff1673ffffffffffffffffffffffffffffffffffffffff16815260200190815260200160002060006101000a81548160ff0219169083151502179055508173ffffffffffffffffffffffffffffffffffffffff168373ffffffffffffffffffffffffffffffffffffffff167f17307eab39ab6107e8899845ad3d59bd9653f200f220920489ca2b5937696c3183604051612295919061456c565b60405180910390a3505050565b6122ad848484611dbe565b6122b984848484612e47565b6122f8576040517f08c379a00000000000000000000000000000000000000000000000000000000081526004016122ef9061464c565b60405180910390fd5b50505050565b60008060005b60108054905081101561244c576010818154811061234b577f4e487b7100000000000000000000000000000000000000000000000000000000600052603260045260246000fd5b90600052602060002090600302016000015484101580156123b65750601081815481106123a1577f4e487b7100000000000000000000000000000000000000000000000000000000600052603260045260246000fd5b90600052602060002090600302016001015484105b1561243957601081815481106123f5577f4e487b7100000000000000000000000000000000000000000000000000000000600052603260045260246000fd5b90600052602060002090600302016002015484604051602001612419929190614867565b6040516020818303038152906040528051906020012060001c9250600191505b808061244490614c7a565b915050612304565b50915091565b606061245c61388f565b6040518060a001604052806062815260200161553f60629139816000600481106124af577f4e487b7100000000000000000000000000000000000000000000000000000000600052603260045260246000fd5b60200201819052508215612815576040518060c00160405280608d81526020016154b2608d913981600160048110612510577f4e487b7100000000000000000000000000000000000000000000000000000000600052603260045260246000fd5b60200201819052506125206138b6565b600061252b86612fde565b905060005b60078160ff1610156125ed57600061257383600b8461254f9190614aa9565b60ff16600b60018661256191906149e7565b61256b9190614aa9565b60ff16610b40565b9050806040516020016125869190614414565b604051602081830303815290604052848360ff16600781106125d1577f4e487b7100000000000000000000000000000000000000000000000000000000600052603260045260246000fd5b60200201819052505080806125e590614cc3565b915050612530565b5081600060078110612628577f4e487b7100000000000000000000000000000000000000000000000000000000600052603260045260246000fd5b602002015182600160078110612667577f4e487b7100000000000000000000000000000000000000000000000000000000600052603260045260246000fd5b6020020151836002600781106126a6577f4e487b7100000000000000000000000000000000000000000000000000000000600052603260045260246000fd5b6020020151846003600781106126e5577f4e487b7100000000000000000000000000000000000000000000000000000000600052603260045260246000fd5b602002015185600460078110612724577f4e487b7100000000000000000000000000000000000000000000000000000000600052603260045260246000fd5b602002015186600560078110612763577f4e487b7100000000000000000000000000000000000000000000000000000000600052603260045260246000fd5b6020020151876006600781106127a2577f4e487b7100000000000000000000000000000000000000000000000000000000600052603260045260246000fd5b60200201516040516020016127bd97969594939291906143af565b60405160208183030381529060405283600260048110612806577f4e487b7100000000000000000000000000000000000000000000000000000000600052603260045260246000fd5b602002018190525050506128e9565b6040518060c00160405280609d81526020016155e1609d913981600160048110612868577f4e487b7100000000000000000000000000000000000000000000000000000000600052603260045260246000fd5b60200201819052506040518060400160405280600181526020017f3f00000000000000000000000000000000000000000000000000000000000000815250816002600481106128e0577f4e487b7100000000000000000000000000000000000000000000000000000000600052603260045260246000fd5b60200201819052505b6040518060400160405280600d81526020017f3c2f746578743e3c2f7376673e0000000000000000000000000000000000000081525081600360048110612959577f4e487b7100000000000000000000000000000000000000000000000000000000600052603260045260246000fd5b60200201819052508060006004811061299b577f4e487b7100000000000000000000000000000000000000000000000000000000600052603260045260246000fd5b6020020151816001600481106129da577f4e487b7100000000000000000000000000000000000000000000000000000000600052603260045260246000fd5b602002015182600260048110612a19577f4e487b7100000000000000000000000000000000000000000000000000000000600052603260045260246000fd5b602002015183600360048110612a58577f4e487b7100000000000000000000000000000000000000000000000000000000600052603260045260246000fd5b6020020151604051602001612a709493929190614371565b60405160208183030381529060405291505092915050565b606060006040518060400160405280601a81526020017f646174613a696d6167652f7376672b786d6c3b6261736536342c00000000000081525090506000612aee84604051602001612ada9190614336565b60405160208183030381529060405261318b565b90508181604051602001612b0392919061434d565b60405160208183030381529060405292505050919050565b6060612b4582604051602001612b319190614441565b60405160208183030381529060405261318b565b604051602001612b5591906144a5565b6040516020818303038152906040529050919050565b60007f01ffc9a7000000000000000000000000000000000000000000000000000000007bffffffffffffffffffffffffffffffffffffffffffffffffffffffff1916827bffffffffffffffffffffffffffffffffffffffffffffffffffffffff1916149050919050565b6000612bdf610b33565b905060006001600b54612bf29190614991565b90506000600183612c039190614991565b905060106040518060600160405280848152602001838152602001868152509080600181540180825580915050600190039060005260206000209060030201600090919091909150600082015181600001556020820151816001015560408201518160020155505082600b8190555042600e819055506000600f60006101000a81548160ff0219169083151502179055507fa39d9410abe7578bfbf71501989f175c50a6950b6595718dd8092474541c889b8282604051612cc5929190614867565b60405180910390a150505050565b612cde838383613315565b600073ffffffffffffffffffffffffffffffffffffffff168373ffffffffffffffffffffffffffffffffffffffff161415612d2157612d1c8161331a565b612d60565b8173ffffffffffffffffffffffffffffffffffffffff168373ffffffffffffffffffffffffffffffffffffffff1614612d5f57612d5e8382613363565b5b5b600073ffffffffffffffffffffffffffffffffffffffff168273ffffffffffffffffffffffffffffffffffffffff161415612da357612d9e816134d0565b612de2565b8273ffffffffffffffffffffffffffffffffffffffff168273ffffffffffffffffffffffffffffffffffffffff1614612de157612de08282613613565b5b5b505050565b505050565b612df68383613692565b612e036000848484612e47565b612e42576040517f08c379a0000000000000000000000000000000000000000000000000000000008152600401612e399061464c565b60405180910390fd5b505050565b6000612e688473ffffffffffffffffffffffffffffffffffffffff1661386c565b15612fd1578373ffffffffffffffffffffffffffffffffffffffff1663150b7a02612e91611bd1565b8786866040518563ffffffff1660e01b8152600401612eb39493929190614520565b602060405180830381600087803b158015612ecd57600080fd5b505af1925050508015612efe57506040513d601f19601f82011682018060405250810190612efb9190613cdb565b60015b612f81573d8060008114612f2e576040519150601f19603f3d011682016040523d82523d6000602084013e612f33565b606091505b50600081511415612f79576040517f08c379a0000000000000000000000000000000000000000000000000000000008152600401612f709061464c565b60405180910390fd5b805181602001fd5b63150b7a0260e01b7bffffffffffffffffffffffffffffffffffffffffffffffffffffffff1916817bffffffffffffffffffffffffffffffffffffffffffffffffffffffff191614915050612fd6565b600190505b949350505050565b60606000821415613026576040518060400160405280600181526020017f30000000000000000000000000000000000000000000000000000000000000008152509050613186565b600082905060005b6000821461305857808061304190614c7a565b915050600a826130519190614a1e565b915061302e565b60008167ffffffffffffffff81111561309a577f4e487b7100000000000000000000000000000000000000000000000000000000600052604160045260246000fd5b6040519080825280601f01601f1916602001820160405280156130cc5781602001600182028036833780820191505090505b5090505b6000851461317f576001826130e59190614ae4565b9150600a856130f49190614ced565b60306131009190614991565b60f81b81838151811061313c577f4e487b7100000000000000000000000000000000000000000000000000000000600052603260045260246000fd5b60200101907effffffffffffffffffffffffffffffffffffffffffffffffffffffffffffff1916908160001a905350600a856131789190614a1e565b94506130d0565b8093505050505b919050565b60606000825114156131ae57604051806020016040528060008152509050613310565b60006040518060600160405280604081526020016155a160409139905060006003600285516131dd9190614991565b6131e79190614a1e565b60046131f39190614a4f565b67ffffffffffffffff811115613232577f4e487b7100000000000000000000000000000000000000000000000000000000600052604160045260246000fd5b6040519080825280601f01601f1916602001820160405280156132645781602001600182028036833780820191505090505b509050600182016020820185865187015b808210156132d0576003820191508151603f8160121c168501518453600184019350603f81600c1c168501518453600184019350603f8160061c168501518453600184019350603f8116850151845360018401935050613275565b50506003865106600181146132ec57600281146132ff57613307565b603d6001830353603d6002830353613307565b603d60018303535b50505080925050505b919050565b505050565b600980549050600a600083815260200190815260200160002081905550600981908060018154018082558091505060019003906000526020600020016000909190919091505550565b600060016133708461109b565b61337a9190614ae4565b905060006008600084815260200190815260200160002054905081811461345f576000600760008673ffffffffffffffffffffffffffffffffffffffff1673ffffffffffffffffffffffffffffffffffffffff168152602001908152602001600020600084815260200190815260200160002054905080600760008773ffffffffffffffffffffffffffffffffffffffff1673ffffffffffffffffffffffffffffffffffffffff168152602001908152602001600020600084815260200190815260200160002081905550816008600083815260200190815260200160002081905550505b6008600084815260200190815260200160002060009055600760008573ffffffffffffffffffffffffffffffffffffffff1673ffffffffffffffffffffffffffffffffffffffff16815260200190815260200160002060008381526020019081526020016000206000905550505050565b600060016009805490506134e49190614ae4565b90506000600a600084815260200190815260200160002054905060006009838154811061353a577f4e487b7100000000000000000000000000000000000000000000000000000000600052603260045260246000fd5b906000526020600020015490508060098381548110613582577f4e487b7100000000000000000000000000000000000000000000000000000000600052603260045260246000fd5b906000526020600020018190555081600a600083815260200190815260200160002081905550600a60008581526020019081526020016000206000905560098054806135f7577f4e487b7100000000000000000000000000000000000000000000000000000000600052603160045260246000fd5b6001900381819060005260206000200160009055905550505050565b600061361e8361109b565b905081600760008573ffffffffffffffffffffffffffffffffffffffff1673ffffffffffffffffffffffffffffffffffffffff168152602001908152602001600020600083815260200190815260200160002081905550806008600084815260200190815260200160002081905550505050565b600073ffffffffffffffffffffffffffffffffffffffff168273ffffffffffffffffffffffffffffffffffffffff161415613702576040517f08c379a00000000000000000000000000000000000000000000000000000000081526004016136f99061478c565b60405180910390fd5b61370b81611b65565b1561374b576040517f08c379a0000000000000000000000000000000000000000000000000000000008152600401613742906146ac565b60405180910390fd5b61375760008383612cd3565b6001600460008473ffffffffffffffffffffffffffffffffffffffff1673ffffffffffffffffffffffffffffffffffffffff16815260200190815260200160002060008282546137a79190614991565b92505081905550816003600083815260200190815260200160002060006101000a81548173ffffffffffffffffffffffffffffffffffffffff021916908373ffffffffffffffffffffffffffffffffffffffff160217905550808273ffffffffffffffffffffffffffffffffffffffff16600073ffffffffffffffffffffffffffffffffffffffff167fddf252ad1be2c89b69c2b068fc378daa952ba7f163c4a11628f55a4df523b3ef60405160405180910390a461386860008383612de7565b5050565b6000808273ffffffffffffffffffffffffffffffffffffffff163b119050919050565b60405180608001604052806004905b606081526020019060019003908161389e5790505090565b6040518060e001604052806007905b60608152602001906001900390816138c55790505090565b60006138f06138eb846148b5565b614890565b9050808382526020820190508285602086028201111561390f57600080fd5b60005b8581101561393f57816139258882613ae1565b845260208401935060208301925050600181019050613912565b5050509392505050565b600061395c613957846148e1565b614890565b90508281526020810184848401111561397457600080fd5b61397f848285614bd5565b509392505050565b600061399a61399584614912565b614890565b9050828152602081018484840111156139b257600080fd5b6139bd848285614bd5565b509392505050565b6000813590506139d481615455565b92915050565b600082601f8301126139eb57600080fd5b81356139fb8482602086016138dd565b91505092915050565b600081359050613a138161546c565b92915050565b600081359050613a2881615483565b92915050565b600081519050613a3d81615483565b92915050565b60008083601f840112613a5557600080fd5b8235905067ffffffffffffffff811115613a6e57600080fd5b602083019150836001820283011115613a8657600080fd5b9250929050565b600082601f830112613a9e57600080fd5b8135613aae848260208601613949565b91505092915050565b600082601f830112613ac857600080fd5b8135613ad8848260208601613987565b91505092915050565b600081359050613af08161549a565b92915050565b600081519050613b058161549a565b92915050565b600060208284031215613b1d57600080fd5b6000613b2b848285016139c5565b91505092915050565b60008060408385031215613b4757600080fd5b6000613b55858286016139c5565b9250506020613b66858286016139c5565b9150509250929050565b600080600060608486031215613b8557600080fd5b6000613b93868287016139c5565b9350506020613ba4868287016139c5565b9250506040613bb586828701613ae1565b9150509250925092565b60008060008060808587031215613bd557600080fd5b6000613be3878288016139c5565b9450506020613bf4878288016139c5565b9350506040613c0587828801613ae1565b925050606085013567ffffffffffffffff811115613c2257600080fd5b613c2e87828801613a8d565b91505092959194509250565b60008060408385031215613c4d57600080fd5b6000613c5b858286016139c5565b9250506020613c6c85828601613a04565b9150509250929050565b60008060408385031215613c8957600080fd5b6000613c97858286016139c5565b9250506020613ca885828601613ae1565b9150509250929050565b600060208284031215613cc457600080fd5b6000613cd284828501613a19565b91505092915050565b600060208284031215613ced57600080fd5b6000613cfb84828501613a2e565b91505092915050565b60008060208385031215613d1757600080fd5b600083013567ffffffffffffffff811115613d3157600080fd5b613d3d85828601613a43565b92509250509250929050565b600080600060608486031215613d5e57600080fd5b600084013567ffffffffffffffff811115613d7857600080fd5b613d8486828701613ab7565b9350506020613d9586828701613ae1565b9250506040613da686828701613ae1565b9150509250925092565b600060208284031215613dc257600080fd5b6000613dd084828501613ae1565b91505092915050565b600060208284031215613deb57600080fd5b6000613df984828501613af6565b91505092915050565b60008060408385031215613e1557600080fd5b6000613e2385828601613ae1565b925050602083013567ffffffffffffffff811115613e4057600080fd5b613e4c858286016139da565b9150509250929050565b613e5f81614b18565b82525050565b613e6e81614b2a565b82525050565b613e7d81614b36565b82525050565b6000613e8e82614943565b613e988185614959565b9350613ea8818560208601614be4565b613eb181614dda565b840191505092915050565b6000613ec78261494e565b613ed18185614975565b9350613ee1818560208601614be4565b613eea81614dda565b840191505092915050565b6000613f008261494e565b613f0a8185614986565b9350613f1a818560208601614be4565b80840191505092915050565b6000613f33602b83614975565b9150613f3e82614deb565b604082019050919050565b6000613f56603283614975565b9150613f6182614e3a565b604082019050919050565b6000613f79602683614975565b9150613f8482614e89565b604082019050919050565b6000613f9c602583614975565b9150613fa782614ed8565b604082019050919050565b6000613fbf601c83614975565b9150613fca82614f27565b602082019050919050565b6000613fe2600883614986565b9150613fed82614f50565b600882019050919050565b6000614005600e83614986565b915061401082614f79565b600e82019050919050565b6000614028602483614975565b915061403382614fa2565b604082019050919050565b600061404b601983614975565b915061405682614ff1565b602082019050919050565b600061406e602c83614975565b91506140798261501a565b604082019050919050565b6000614091601183614986565b915061409c82615069565b601182019050919050565b60006140b4603883614975565b91506140bf82615092565b604082019050919050565b60006140d7600183614986565b91506140e2826150e1565b600182019050919050565b60006140fa602a83614975565b91506141058261510a565b604082019050919050565b600061411d602983614975565b915061412882615159565b604082019050919050565b6000614140602583614986565b915061414b826151a8565b602582019050919050565b6000614163600983614986565b915061416e826151f7565b600982019050919050565b6000614186602083614975565b915061419182615220565b602082019050919050565b60006141a9600183614986565b91506141b482615249565b600182019050919050565b60006141cc602c83614975565b91506141d782615272565b604082019050919050565b60006141ef601683614986565b91506141fa826152c1565b601682019050919050565b6000614212602083614975565b915061421d826152ea565b602082019050919050565b6000614235600183614986565b915061424082615313565b600182019050919050565b6000614258602183614975565b91506142638261533c565b604082019050919050565b600061427b601d83614986565b91506142868261538b565b601d82019050919050565b600061429e60008361496a565b91506142a9826153b4565b600082019050919050565b60006142c1603183614975565b91506142cc826153b7565b604082019050919050565b60006142e4602c83614975565b91506142ef82615406565b604082019050919050565b61430381614b6c565b82525050565b61431281614b9a565b82525050565b61432181614ba4565b82525050565b61433081614bb4565b82525050565b60006143428284613ef5565b915081905092915050565b60006143598285613ef5565b91506143658284613ef5565b91508190509392505050565b600061437d8287613ef5565b91506143898286613ef5565b91506143958285613ef5565b91506143a18284613ef5565b915081905095945050505050565b60006143bb828a613ef5565b91506143c78289613ef5565b91506143d38288613ef5565b91506143df8287613ef5565b91506143eb8286613ef5565b91506143f78285613ef5565b91506144038284613ef5565b915081905098975050505050505050565b600061441f826141e2565b915061442b8284613ef5565b915061443682613fd5565b915081905092915050565b600061444c82614228565b915061445782613ff8565b915061446282614133565b915061446d82614084565b915061447882614156565b91506144848284613ef5565b915061448f826140ca565b915061449a8261419c565b915081905092915050565b60006144b08261426e565b91506144bc8284613ef5565b915081905092915050565b60006144d282614291565b9150819050919050565b60006020820190506144f16000830184613e56565b92915050565b600060408201905061450c6000830185613e56565b6145196020830184613e56565b9392505050565b60006080820190506145356000830187613e56565b6145426020830186613e56565b61454f6040830185614309565b81810360608301526145618184613e83565b905095945050505050565b60006020820190506145816000830184613e65565b92915050565b600060408201905061459c6000830185613e65565b81810360208301526145ae8184613e83565b90509392505050565b600060a0820190506145cc6000830188613e74565b6145d96020830187614327565b6145e660408301866142fa565b6145f36060830185614318565b6146006080830184614318565b9695505050505050565b600060208201905081810360008301526146248184613ebc565b905092915050565b6000602082019050818103600083015261464581613f26565b9050919050565b6000602082019050818103600083015261466581613f49565b9050919050565b6000602082019050818103600083015261468581613f6c565b9050919050565b600060208201905081810360008301526146a581613f8f565b9050919050565b600060208201905081810360008301526146c581613fb2565b9050919050565b600060208201905081810360008301526146e58161401b565b9050919050565b600060208201905081810360008301526147058161403e565b9050919050565b6000602082019050818103600083015261472581614061565b9050919050565b60006020820190508181036000830152614745816140a7565b9050919050565b60006020820190508181036000830152614765816140ed565b9050919050565b6000602082019050818103600083015261478581614110565b9050919050565b600060208201905081810360008301526147a581614179565b9050919050565b600060208201905081810360008301526147c5816141bf565b9050919050565b600060208201905081810360008301526147e581614205565b9050919050565b600060208201905081810360008301526148058161424b565b9050919050565b60006020820190508181036000830152614825816142b4565b9050919050565b60006020820190508181036000830152614845816142d7565b9050919050565b60006020820190506148616000830184614309565b92915050565b600060408201905061487c6000830185614309565b6148896020830184614309565b9392505050565b600061489a6148ab565b90506148a68282614c49565b919050565b6000604051905090565b600067ffffffffffffffff8211156148d0576148cf614dab565b5b602082029050602081019050919050565b600067ffffffffffffffff8211156148fc576148fb614dab565b5b61490582614dda565b9050602081019050919050565b600067ffffffffffffffff82111561492d5761492c614dab565b5b61493682614dda565b9050602081019050919050565b600081519050919050565b600081519050919050565b600082825260208201905092915050565b600081905092915050565b600082825260208201905092915050565b600081905092915050565b600061499c82614b9a565b91506149a783614b9a565b9250827fffffffffffffffffffffffffffffffffffffffffffffffffffffffffffffffff038211156149dc576149db614d1e565b5b828201905092915050565b60006149f282614bc8565b91506149fd83614bc8565b92508260ff03821115614a1357614a12614d1e565b5b828201905092915050565b6000614a2982614b9a565b9150614a3483614b9a565b925082614a4457614a43614d4d565b5b828204905092915050565b6000614a5a82614b9a565b9150614a6583614b9a565b9250817fffffffffffffffffffffffffffffffffffffffffffffffffffffffffffffffff0483118215151615614a9e57614a9d614d1e565b5b828202905092915050565b6000614ab482614bc8565b9150614abf83614bc8565b92508160ff0483118215151615614ad957614ad8614d1e565b5b828202905092915050565b6000614aef82614b9a565b9150614afa83614b9a565b925082821015614b0d57614b0c614d1e565b5b828203905092915050565b6000614b2382614b7a565b9050919050565b60008115159050919050565b6000819050919050565b60007fffffffff0000000000000000000000000000000000000000000000000000000082169050919050565b600061ffff82169050919050565b600073ffffffffffffffffffffffffffffffffffffffff82169050919050565b6000819050919050565b600063ffffffff82169050919050565b600067ffffffffffffffff82169050919050565b600060ff82169050919050565b82818337600083830152505050565b60005b83811015614c02578082015181840152602081019050614be7565b83811115614c11576000848401525b50505050565b60006002820490506001821680614c2f57607f821691505b60208210811415614c4357614c42614d7c565b5b50919050565b614c5282614dda565b810181811067ffffffffffffffff82111715614c7157614c70614dab565b5b80604052505050565b6000614c8582614b9a565b91507fffffffffffffffffffffffffffffffffffffffffffffffffffffffffffffffff821415614cb857614cb7614d1e565b5b600182019050919050565b6000614cce82614bc8565b915060ff821415614ce257614ce1614d1e565b5b600182019050919050565b6000614cf882614b9a565b9150614d0383614b9a565b925082614d1357614d12614d4d565b5b828206905092915050565b7f4e487b7100000000000000000000000000000000000000000000000000000000600052601160045260246000fd5b7f4e487b7100000000000000000000000000000000000000000000000000000000600052601260045260246000fd5b7f4e487b7100000000000000000000000000000000000000000000000000000000600052602260045260246000fd5b7f4e487b7100000000000000000000000000000000000000000000000000000000600052604160045260246000fd5b6000601f19601f8301169050919050565b7f455243373231456e756d657261626c653a206f776e657220696e646578206f7560008201527f74206f6620626f756e6473000000000000000000000000000000000000000000602082015250565b7f4552433732313a207472616e7366657220746f206e6f6e20455243373231526560008201527f63656976657220696d706c656d656e7465720000000000000000000000000000602082015250565b7f4f776e61626c653a206e6577206f776e657220697320746865207a65726f206160008201527f6464726573730000000000000000000000000000000000000000000000000000602082015250565b7f4552433732313a207472616e736665722066726f6d20696e636f72726563742060008201527f6f776e6572000000000000000000000000000000000000000000000000000000602082015250565b7f4552433732313a20746f6b656e20616c7265616479206d696e74656400000000600082015250565b7f3c2f747370616e3e000000000000000000000000000000000000000000000000600082015250565b7f226e616d65223a224e4654222c20000000000000000000000000000000000000600082015250565b7f4552433732313a207472616e7366657220746f20746865207a65726f2061646460008201527f7265737300000000000000000000000000000000000000000000000000000000602082015250565b7f4552433732313a20617070726f766520746f2063616c6c657200000000000000600082015250565b7f4552433732313a206f70657261746f7220717565727920666f72206e6f6e657860008201527f697374656e7420746f6b656e0000000000000000000000000000000000000000602082015250565b7f2261747472696275746573223a22222c20000000000000000000000000000000600082015250565b7f4552433732313a20617070726f76652063616c6c6572206973206e6f74206f7760008201527f6e6572206e6f7220617070726f76656420666f7220616c6c0000000000000000602082015250565b7f2200000000000000000000000000000000000000000000000000000000000000600082015250565b7f4552433732313a2062616c616e636520717565727920666f7220746865207a6560008201527f726f206164647265737300000000000000000000000000000000000000000000602082015250565b7f4552433732313a206f776e657220717565727920666f72206e6f6e657869737460008201527f656e7420746f6b656e0000000000000000000000000000000000000000000000602082015250565b7f226465736372697074696f6e223a2242617463682d72657665616c6564204e4660008201527f5421222c20000000000000000000000000000000000000000000000000000000602082015250565b7f22696d616765223a220000000000000000000000000000000000000000000000600082015250565b7f4552433732313a206d696e7420746f20746865207a65726f2061646472657373600082015250565b7f7d00000000000000000000000000000000000000000000000000000000000000600082015250565b7f4552433732313a20617070726f76656420717565727920666f72206e6f6e657860008201527f697374656e7420746f6b656e0000000000000000000000000000000000000000602082015250565b7f3c747370616e20783d223132222064793d223438223e00000000000000000000600082015250565b7f4f776e61626c653a2063616c6c6572206973206e6f7420746865206f776e6572600082015250565b7f7b00000000000000000000000000000000000000000000000000000000000000600082015250565b7f4552433732313a20617070726f76616c20746f2063757272656e74206f776e6560008201527f7200000000000000000000000000000000000000000000000000000000000000602082015250565b7f646174613a6170706c69636174696f6e2f6a736f6e3b6261736536342c000000600082015250565b50565b7f4552433732313a207472616e736665722063616c6c6572206973206e6f74206f60008201527f776e6572206e6f7220617070726f766564000000000000000000000000000000602082015250565b7f455243373231456e756d657261626c653a20676c6f62616c20696e646578206f60008201527f7574206f6620626f756e64730000000000000000000000000000000000000000602082015250565b61545e81614b18565b811461546957600080fd5b50565b61547581614b2a565b811461548057600080fd5b50565b61548c81614b40565b811461549757600080fd5b50565b6154a381614b9a565b81146154ae57600080fd5b5056fe3c7374796c653e2e62617365207b2066696c6c3a2077686974653b20666f6e742d66616d696c793a2073657269663b20666f6e742d73697a653a20353470783b207d3c2f7374796c653e3c726563742077696474683d223130302522206865696768743d2231303025222066696c6c3d22626c61636b22202f3e3c7465787420636c6173733d2262617365223e3c73766720786d6c6e733d22687474703a2f2f7777772e77332e6f72672f323030302f73766722207072657365727665417370656374526174696f3d22784d696e594d696e206d656574222076696577426f783d223020302033353020333530223e4142434445464748494a4b4c4d4e4f505152535455565758595a6162636465666768696a6b6c6d6e6f707172737475767778797a303132333435363738392b2f3c7374796c653e2e62617365207b2066696c6c3a2077686974653b20666f6e742d66616d696c793a2073657269663b20666f6e742d73697a653a2033353070783b207d3c2f7374796c653e3c726563742077696474683d223130302522206865696768743d2231303025222066696c6c3d22626c61636b22202f3e3c7465787420783d2239302220793d223239352220636c6173733d2262617365223ea2646970667358221220b7d9345ea0acfa21637d1ef96d8041895c8bce7d4e3d9e9d8a8838374c7efc9f64736f6c63430008040033",
  "linkReferences": {},
  "deployedLinkReferences": {}
}