{
  "_format": "hh-sol-artifact-1",
  "contractName": "NFTCollection",
  "sourceName": "contracts/NFTCollection.sol",
  "abi": [
    {
      "inputs": [
        {
          "internalType": "string",
          "name": "_name",
          "type": "string"
        },
        {
          "internalType": "string",
          "name": "_symbol",
          "type": "string"
        },
        {
          "internalType": "uint256",
          "name": "_maxSupply",
          "type": "uint256"
        },
        {
          "internalType": "uint256",
          "name": "_mintCost",
          "type": "uint256"
        },
        {
          "internalType": "uint256",
          "name": "_revealBatchSize",
          "type": "uint256"
        },
        {
          "internalType": "uint256",
          "name": "_revealInterval",
          "type": "uint256"
        },
        {
          "internalType": "address",
          "name": "_vrfCoordinatorV2",
          "type": "address"
        },
        {
          "internalType": "uint64",
          "name": "_vrfSubscriptionId",
          "type": "uint64"
        },
        {
          "internalType": "bytes32",
          "name": "_vrfGasLane",
          "type": "bytes32"
        },
        {
          "internalType": "uint32",
          "name": "_vrfCallbackGasLimit",
          "type": "uint32"
        }
      ],
      "stateMutability": "nonpayable",
      "type": "constructor"
    },
    {
      "inputs": [],
      "name": "InsufficientFunds",
      "type": "error"
    },
    {
      "inputs": [],
      "name": "InsufficientLINK",
      "type": "error"
    },
    {
      "inputs": [],
      "name": "InvalidAmount",
      "type": "error"
    },
    {
      "inputs": [],
      "name": "MaxSupplyReached",
      "type": "error"
    },
    {
      "inputs": [],
      "name": "NonExistentToken",
      "type": "error"
    },
    {
      "inputs": [
        {
          "internalType": "address",
          "name": "have",
          "type": "address"
        },
        {
          "internalType": "address",
          "name": "want",
          "type": "address"
        }
      ],
      "name": "OnlyCoordinatorCanFulfill",
      "type": "error"
    },
    {
      "inputs": [],
      "name": "RevealCriteriaNotMet",
      "type": "error"
    },
    {
      "inputs": [],
      "name": "RevealInProgress",
      "type": "error"
    },
    {
      "inputs": [],
      "name": "WithdrawProceedsFailed",
      "type": "error"
    },
    {
      "anonymous": false,
      "inputs": [
        {
          "indexed": true,
          "internalType": "address",
          "name": "owner",
          "type": "address"
        },
        {
          "indexed": true,
          "internalType": "address",
          "name": "approved",
          "type": "address"
        },
        {
          "indexed": true,
          "internalType": "uint256",
          "name": "tokenId",
          "type": "uint256"
        }
      ],
      "name": "Approval",
      "type": "event"
    },
    {
      "anonymous": false,
      "inputs": [
        {
          "indexed": true,
          "internalType": "address",
          "name": "owner",
          "type": "address"
        },
        {
          "indexed": true,
          "internalType": "address",
          "name": "operator",
          "type": "address"
        },
        {
          "indexed": false,
          "internalType": "bool",
          "name": "approved",
          "type": "bool"
        }
      ],
      "name": "ApprovalForAll",
      "type": "event"
    },
    {
      "anonymous": false,
      "inputs": [
        {
          "indexed": false,
          "internalType": "uint256",
          "name": "startIndex",
          "type": "uint256"
        },
        {
          "indexed": false,
          "internalType": "uint256",
          "name": "endIndex",
          "type": "uint256"
        }
      ],
      "name": "BatchRevealFinished",
      "type": "event"
    },
    {
      "anonymous": false,
      "inputs": [
        {
          "indexed": false,
          "internalType": "uint256",
          "name": "requestId",
          "type": "uint256"
        }
      ],
      "name": "BatchRevealRequested",
      "type": "event"
    },
    {
      "anonymous": false,
      "inputs": [
        {
          "indexed": true,
          "internalType": "address",
          "name": "previousOwner",
          "type": "address"
        },
        {
          "indexed": true,
          "internalType": "address",
          "name": "newOwner",
          "type": "address"
        }
      ],
      "name": "OwnershipTransferred",
      "type": "event"
    },
    {
      "anonymous": false,
      "inputs": [
        {
          "indexed": true,
          "internalType": "address",
          "name": "from",
          "type": "address"
        },
        {
          "indexed": true,
          "internalType": "address",
          "name": "to",
          "type": "address"
        },
        {
          "indexed": true,
          "internalType": "uint256",
          "name": "tokenId",
          "type": "uint256"
        }
      ],
      "name": "Transfer",
      "type": "event"
    },
    {
      "inputs": [
        {
          "internalType": "address",
          "name": "to",
          "type": "address"
        },
        {
          "internalType": "uint256",
          "name": "tokenId",
          "type": "uint256"
        }
      ],
      "name": "approve",
      "outputs": [],
      "stateMutability": "nonpayable",
      "type": "function"
    },
    {
      "inputs": [
        {
          "internalType": "address",
          "name": "owner",
          "type": "address"
        }
      ],
      "name": "balanceOf",
      "outputs": [
        {
          "internalType": "uint256",
          "name": "",
          "type": "uint256"
        }
      ],
      "stateMutability": "view",
      "type": "function"
    },
    {
      "inputs": [],
      "name": "batchCount",
      "outputs": [
        {
          "internalType": "uint256",
          "name": "",
          "type": "uint256"
        }
      ],
      "stateMutability": "view",
      "type": "function"
    },
    {
      "inputs": [
        {
          "internalType": "uint256",
          "name": "index",
          "type": "uint256"
        }
      ],
      "name": "batchDetails",
      "outputs": [
        {
          "internalType": "uint256",
          "name": "",
          "type": "uint256"
        },
        {
          "internalType": "uint256",
          "name": "",
          "type": "uint256"
        },
        {
          "internalType": "uint256",
          "name": "",
          "type": "uint256"
        }
      ],
      "stateMutability": "view",
      "type": "function"
    },
    {
      "inputs": [],
      "name": "batchSize",
      "outputs": [
        {
          "internalType": "uint256",
          "name": "",
          "type": "uint256"
        }
      ],
      "stateMutability": "view",
      "type": "function"
    },
    {
      "inputs": [
        {
          "internalType": "bytes",
          "name": "",
          "type": "bytes"
        }
      ],
      "name": "checkUpkeep",
      "outputs": [
        {
          "internalType": "bool",
          "name": "upkeepNeeded",
          "type": "bool"
        },
        {
          "internalType": "bytes",
          "name": "",
          "type": "bytes"
        }
      ],
      "stateMutability": "view",
      "type": "function"
    },
    {
      "inputs": [
        {
          "internalType": "uint256",
          "name": "tokenId",
          "type": "uint256"
        }
      ],
      "name": "getApproved",
      "outputs": [
        {
          "internalType": "address",
          "name": "",
          "type": "address"
        }
      ],
      "stateMutability": "view",
      "type": "function"
    },
    {
      "inputs": [
        {
          "internalType": "address",
          "name": "owner",
          "type": "address"
        },
        {
          "internalType": "address",
          "name": "operator",
          "type": "address"
        }
      ],
      "name": "isApprovedForAll",
      "outputs": [
        {
          "internalType": "bool",
          "name": "",
          "type": "bool"
        }
      ],
      "stateMutability": "view",
      "type": "function"
    },
    {
      "inputs": [],
      "name": "lastRevealed",
      "outputs": [
        {
          "internalType": "uint256",
          "name": "",
          "type": "uint256"
        }
      ],
      "stateMutability": "view",
      "type": "function"
    },
    {
      "inputs": [],
      "name": "maxSupply",
      "outputs": [
        {
          "internalType": "uint256",
          "name": "",
          "type": "uint256"
        }
      ],
      "stateMutability": "view",
      "type": "function"
    },
    {
      "inputs": [
        {
          "internalType": "uint256",
          "name": "_amount",
          "type": "uint256"
        }
      ],
      "name": "mint",
      "outputs": [],
      "stateMutability": "payable",
      "type": "function"
    },
    {
      "inputs": [],
      "name": "mintCost",
      "outputs": [
        {
          "internalType": "uint256",
          "name": "",
          "type": "uint256"
        }
      ],
      "stateMutability": "view",
      "type": "function"
    },
    {
      "inputs": [],
      "name": "name",
      "outputs": [
        {
          "internalType": "string",
          "name": "",
          "type": "string"
        }
      ],
      "stateMutability": "view",
      "type": "function"
    },
    {
      "inputs": [],
      "name": "owner",
      "outputs": [
        {
          "internalType": "address",
          "name": "",
          "type": "address"
        }
      ],
      "stateMutability": "view",
      "type": "function"
    },
    {
      "inputs": [
        {
          "internalType": "uint256",
          "name": "tokenId",
          "type": "uint256"
        }
      ],
      "name": "ownerOf",
      "outputs": [
        {
          "internalType": "address",
          "name": "",
          "type": "address"
        }
      ],
      "stateMutability": "view",
      "type": "function"
    },
    {
      "inputs": [
        {
          "internalType": "bytes",
          "name": "",
          "type": "bytes"
        }
      ],
      "name": "performUpkeep",
      "outputs": [],
      "stateMutability": "nonpayable",
      "type": "function"
    },
    {
      "inputs": [
        {
          "internalType": "uint256",
          "name": "requestId",
          "type": "uint256"
        },
        {
          "internalType": "uint256[]",
          "name": "randomWords",
          "type": "uint256[]"
        }
      ],
      "name": "rawFulfillRandomWords",
      "outputs": [],
      "stateMutability": "nonpayable",
      "type": "function"
    },
    {
      "inputs": [],
      "name": "renounceOwnership",
      "outputs": [],
      "stateMutability": "nonpayable",
      "type": "function"
    },
    {
      "inputs": [],
      "name": "revealInterval",
      "outputs": [
        {
          "internalType": "uint256",
          "name": "",
          "type": "uint256"
        }
      ],
      "stateMutability": "view",
      "type": "function"
    },
    {
      "inputs": [],
      "name": "revealPendingMetadata",
      "outputs": [
        {
          "internalType": "uint256",
          "name": "requestId",
          "type": "uint256"
        }
      ],
      "stateMutability": "nonpayable",
      "type": "function"
    },
    {
      "inputs": [],
      "name": "revealedCount",
      "outputs": [
        {
          "internalType": "uint256",
          "name": "",
          "type": "uint256"
        }
      ],
      "stateMutability": "view",
      "type": "function"
    },
    {
      "inputs": [
        {
          "internalType": "address",
          "name": "from",
          "type": "address"
        },
        {
          "internalType": "address",
          "name": "to",
          "type": "address"
        },
        {
          "internalType": "uint256",
          "name": "tokenId",
          "type": "uint256"
        }
      ],
      "name": "safeTransferFrom",
      "outputs": [],
      "stateMutability": "nonpayable",
      "type": "function"
    },
    {
      "inputs": [
        {
          "internalType": "address",
          "name": "from",
          "type": "address"
        },
        {
          "internalType": "address",
          "name": "to",
          "type": "address"
        },
        {
          "internalType": "uint256",
          "name": "tokenId",
          "type": "uint256"
        },
        {
          "internalType": "bytes",
          "name": "data",
          "type": "bytes"
        }
      ],
      "name": "safeTransferFrom",
      "outputs": [],
      "stateMutability": "nonpayable",
      "type": "function"
    },
    {
      "inputs": [
        {
          "internalType": "address",
          "name": "operator",
          "type": "address"
        },
        {
          "internalType": "bool",
          "name": "approved",
          "type": "bool"
        }
      ],
      "name": "setApprovalForAll",
      "outputs": [],
      "stateMutability": "nonpayable",
      "type": "function"
    },
    {
      "inputs": [
        {
          "internalType": "uint256",
          "name": "_revealBatchSize",
          "type": "uint256"
        }
      ],
      "name": "setRevealBatchSize",
      "outputs": [],
      "stateMutability": "nonpayable",
      "type": "function"
    },
    {
      "inputs": [
        {
          "internalType": "uint256",
          "name": "_revealInterval",
          "type": "uint256"
        }
      ],
      "name": "setRevealInterval",
      "outputs": [],
      "stateMutability": "nonpayable",
      "type": "function"
    },
    {
      "inputs": [],
      "name": "shouldReveal",
      "outputs": [
        {
          "internalType": "bool",
          "name": "",
          "type": "bool"
        }
      ],
      "stateMutability": "view",
      "type": "function"
    },
    {
      "inputs": [
        {
          "internalType": "bytes4",
          "name": "interfaceId",
          "type": "bytes4"
        }
      ],
      "name": "supportsInterface",
      "outputs": [
        {
          "internalType": "bool",
          "name": "",
          "type": "bool"
        }
      ],
      "stateMutability": "view",
      "type": "function"
    },
    {
      "inputs": [],
      "name": "symbol",
      "outputs": [
        {
          "internalType": "string",
          "name": "",
          "type": "string"
        }
      ],
      "stateMutability": "view",
      "type": "function"
    },
    {
      "inputs": [
        {
          "internalType": "uint256",
          "name": "index",
          "type": "uint256"
        }
      ],
      "name": "tokenByIndex",
      "outputs": [
        {
          "internalType": "uint256",
          "name": "",
          "type": "uint256"
        }
      ],
      "stateMutability": "view",
      "type": "function"
    },
    {
      "inputs": [
        {
          "internalType": "address",
          "name": "owner",
          "type": "address"
        },
        {
          "internalType": "uint256",
          "name": "index",
          "type": "uint256"
        }
      ],
      "name": "tokenOfOwnerByIndex",
      "outputs": [
        {
          "internalType": "uint256",
          "name": "",
          "type": "uint256"
        }
      ],
      "stateMutability": "view",
      "type": "function"
    },
    {
      "inputs": [
        {
          "internalType": "uint256",
          "name": "tokenId",
          "type": "uint256"
        }
      ],
      "name": "tokenURI",
      "outputs": [
        {
          "internalType": "string",
          "name": "",
          "type": "string"
        }
      ],
      "stateMutability": "view",
      "type": "function"
    },
    {
      "inputs": [],
      "name": "totalSupply",
      "outputs": [
        {
          "internalType": "uint256",
          "name": "",
          "type": "uint256"
        }
      ],
      "stateMutability": "view",
      "type": "function"
    },
    {
      "inputs": [
        {
          "internalType": "address",
          "name": "from",
          "type": "address"
        },
        {
          "internalType": "address",
          "name": "to",
          "type": "address"
        },
        {
          "internalType": "uint256",
          "name": "tokenId",
          "type": "uint256"
        }
      ],
      "name": "transferFrom",
      "outputs": [],
      "stateMutability": "nonpayable",
      "type": "function"
    },
    {
      "inputs": [
        {
          "internalType": "address",
          "name": "newOwner",
          "type": "address"
        }
      ],
      "name": "transferOwnership",
      "outputs": [],
      "stateMutability": "nonpayable",
      "type": "function"
    },
    {
      "inputs": [],
      "name": "withdrawProceeds",
      "outputs": [],
      "stateMutability": "nonpayable",
      "type": "function"
    }
  ],
  "bytecode": "0x61016060405242600e553480156200001657600080fd5b5060405162005d4b38038062005d4b83398181016040528101906200003c9190620003d2565b838a8a6200005f620000536200017160201b60201c565b6200017960201b60201c565b8160019080519060200190620000779291906200023d565b508060029080519060200190620000909291906200023d565b5050508073ffffffffffffffffffffffffffffffffffffffff1660808173ffffffffffffffffffffffffffffffffffffffff1660601b81525050508760a081815250508660c081815250508373ffffffffffffffffffffffffffffffffffffffff1660e08173ffffffffffffffffffffffffffffffffffffffff1660601b815250508267ffffffffffffffff166101008167ffffffffffffffff1660c01b815250508161012081815250508063ffffffff166101408163ffffffff1660e01b8152505085600c8190555084600d819055505050505050505050505062000752565b600033905090565b60008060009054906101000a900473ffffffffffffffffffffffffffffffffffffffff169050816000806101000a81548173ffffffffffffffffffffffffffffffffffffffff021916908373ffffffffffffffffffffffffffffffffffffffff1602179055508173ffffffffffffffffffffffffffffffffffffffff168173ffffffffffffffffffffffffffffffffffffffff167f8be0079c531659141344cd1fd0a4f28419497f9722a3daafe3b4186f6b6457e060405160405180910390a35050565b8280546200024b90620005f5565b90600052602060002090601f0160209004810192826200026f5760008555620002bb565b82601f106200028a57805160ff1916838001178555620002bb565b82800160010185558215620002bb579182015b82811115620002ba5782518255916020019190600101906200029d565b5b509050620002ca9190620002ce565b5090565b5b80821115620002e9576000816000905550600101620002cf565b5090565b600062000304620002fe846200051d565b620004f4565b9050828152602081018484840111156200031d57600080fd5b6200032a848285620005bf565b509392505050565b6000815190506200034381620006d0565b92915050565b6000815190506200035a81620006ea565b92915050565b600082601f8301126200037257600080fd5b815162000384848260208601620002ed565b91505092915050565b6000815190506200039e8162000704565b92915050565b600081519050620003b5816200071e565b92915050565b600081519050620003cc8162000738565b92915050565b6000806000806000806000806000806101408b8d031215620003f357600080fd5b60008b015167ffffffffffffffff8111156200040e57600080fd5b6200041c8d828e0162000360565b9a505060208b015167ffffffffffffffff8111156200043a57600080fd5b620004488d828e0162000360565b99505060406200045b8d828e016200038d565b98505060606200046e8d828e016200038d565b9750506080620004818d828e016200038d565b96505060a0620004948d828e016200038d565b95505060c0620004a78d828e0162000332565b94505060e0620004ba8d828e01620003bb565b935050610100620004ce8d828e0162000349565b925050610120620004e28d828e01620003a4565b9150509295989b9194979a5092959850565b60006200050062000513565b90506200050e82826200062b565b919050565b6000604051905090565b600067ffffffffffffffff8211156200053b576200053a62000690565b5b6200054682620006bf565b9050602081019050919050565b6000620005608262000571565b9050919050565b6000819050919050565b600073ffffffffffffffffffffffffffffffffffffffff82169050919050565b6000819050919050565b600063ffffffff82169050919050565b600067ffffffffffffffff82169050919050565b60005b83811015620005df578082015181840152602081019050620005c2565b83811115620005ef576000848401525b50505050565b600060028204905060018216806200060e57607f821691505b6020821081141562000625576200062462000661565b5b50919050565b6200063682620006bf565b810181811067ffffffffffffffff8211171562000658576200065762000690565b5b80604052505050565b7f4e487b7100000000000000000000000000000000000000000000000000000000600052602260045260246000fd5b7f4e487b7100000000000000000000000000000000000000000000000000000000600052604160045260246000fd5b6000601f19601f8301169050919050565b620006db8162000553565b8114620006e757600080fd5b50565b620006f58162000567565b81146200070157600080fd5b50565b6200070f8162000591565b81146200071b57600080fd5b50565b62000729816200059b565b81146200073557600080fd5b50565b6200074381620005ab565b81146200074f57600080fd5b50565b60805160601c60a05160c05160e05160601c6101005160c01c610120516101405160e01c61557d620007ce60003960006111e4015260006111a0015260006111c10152600061116401526000818161137d01526114b201526000818161131701526115e3015260008181610b120152610b66015261557d6000f3fe60806040526004361061020f5760003560e01c80637b4fab5a11610118578063bbd78e93116100a0578063d5abeb011161006f578063d5abeb0114610791578063e985e9c5146107bc578063f2fde38b146107f9578063f4daaba114610822578063f81909661461084d5761020f565b8063bbd78e93146106d3578063bdb4b848146106fe578063c87b56dd14610729578063cf3b94cd146107665761020f565b806396634a40116100e757806396634a4014610611578063a0712d681461063c578063a22cb46514610658578063aaae4e2314610681578063b88d4fde146106aa5761020f565b80637b4fab5a146105795780638da5cb5b146105a45780639038e693146105cf57806395d89b41146105e65761020f565b80632f745c591161019b5780635c65d81f1161016a5780635c65d81f146104815780636352211e146104aa5780636e04ff0d146104e757806370a0823114610525578063715018a6146105625761020f565b80632f745c59146103b557806342842e0e146103f25780634585e33b1461041b5780634f6ccce7146104445761020f565b8063095ea7b3116101e2578063095ea7b3146102e457806318160ddd1461030d5780631fe543e31461033857806323b872dd14610361578063247cd8ad1461038a5761020f565b806301ffc9a71461021457806306f130561461025157806306fdde031461027c578063081812fc146102a7575b600080fd5b34801561022057600080fd5b5061023b60048036038101906102369190613ccf565b61088c565b60405161024891906144f2565b60405180910390f35b34801561025d57600080fd5b50610266610906565b60405161027391906147b2565b60405180910390f35b34801561028857600080fd5b50610291610913565b60405161029e9190614590565b60405180910390f35b3480156102b357600080fd5b506102ce60048036038101906102c99190613d66565b6109a5565b6040516102db9190614462565b60405180910390f35b3480156102f057600080fd5b5061030b60048036038101906103069190613c93565b6109eb565b005b34801561031957600080fd5b50610322610b03565b60405161032f91906147b2565b60405180910390f35b34801561034457600080fd5b5061035f600480360381019061035a9190613db8565b610b10565b005b34801561036d57600080fd5b5061038860048036038101906103839190613b8d565b610bd0565b005b34801561039657600080fd5b5061039f610c30565b6040516103ac91906147b2565b60405180910390f35b3480156103c157600080fd5b506103dc60048036038101906103d79190613c93565b610c3a565b6040516103e991906147b2565b60405180910390f35b3480156103fe57600080fd5b5061041960048036038101906104149190613b8d565b610cdf565b005b34801561042757600080fd5b50610442600480360381019061043d9190613d21565b610cff565b005b34801561045057600080fd5b5061046b60048036038101906104669190613d66565b610d0c565b60405161047891906147b2565b60405180910390f35b34801561048d57600080fd5b506104a860048036038101906104a39190613d66565b610da3565b005b3480156104b657600080fd5b506104d160048036038101906104cc9190613d66565b610db5565b6040516104de9190614462565b60405180910390f35b3480156104f357600080fd5b5061050e60048036038101906105099190613d21565b610e67565b60405161051c92919061450d565b60405180910390f35b34801561053157600080fd5b5061054c60048036038101906105479190613b28565b610e95565b60405161055991906147b2565b60405180910390f35b34801561056e57600080fd5b50610577610f4d565b005b34801561058557600080fd5b5061058e610f61565b60405161059b91906147b2565b60405180910390f35b3480156105b057600080fd5b506105b9610f6b565b6040516105c69190614462565b60405180910390f35b3480156105db57600080fd5b506105e4610f94565b005b3480156105f257600080fd5b506105fb611049565b6040516106089190614590565b60405180910390f35b34801561061d57600080fd5b506106266110db565b60405161063391906147b2565b60405180910390f35b61065660048036038101906106519190613d66565b6112ce565b005b34801561066457600080fd5b5061067f600480360381019061067a9190613c57565b61141a565b005b34801561068d57600080fd5b506106a860048036038101906106a39190613d66565b611430565b005b3480156106b657600080fd5b506106d160048036038101906106cc9190613bdc565b611442565b005b3480156106df57600080fd5b506106e86114a4565b6040516106f591906147b2565b60405180910390f35b34801561070a57600080fd5b506107136114ae565b60405161072091906147b2565b60405180910390f35b34801561073557600080fd5b50610750600480360381019061074b9190613d66565b6114d6565b60405161075d9190614590565b60405180910390f35b34801561077257600080fd5b5061077b611556565b60405161078891906144f2565b60405180910390f35b34801561079d57600080fd5b506107a66115df565b6040516107b391906147b2565b60405180910390f35b3480156107c857600080fd5b506107e360048036038101906107de9190613b51565b611607565b6040516107f091906144f2565b60405180910390f35b34801561080557600080fd5b50610820600480360381019061081b9190613b28565b61169b565b005b34801561082e57600080fd5b5061083761171f565b60405161084491906147b2565b60405180910390f35b34801561085957600080fd5b50610874600480360381019061086f9190613d66565b611729565b604051610883939291906147f6565b60405180910390f35b6000610897826117bf565b806108ff57507fe7fb86c6000000000000000000000000000000000000000000000000000000007bffffffffffffffffffffffffffffffffffffffffffffffffffffffff1916827bffffffffffffffffffffffffffffffffffffffffffffffffffffffff1916145b9050919050565b6000601080549050905090565b60606001805461092290614bad565b80601f016020809104026020016040519081016040528092919081815260200182805461094e90614bad565b801561099b5780601f106109705761010080835404028352916020019161099b565b820191906000526020600020905b81548152906001019060200180831161097e57829003601f168201915b5050505050905090565b60006109b082611839565b6005600083815260200190815260200160002060009054906101000a900473ffffffffffffffffffffffffffffffffffffffff169050919050565b60006109f682610db5565b90508073ffffffffffffffffffffffffffffffffffffffff168373ffffffffffffffffffffffffffffffffffffffff161415610a67576040517f08c379a0000000000000000000000000000000000000000000000000000000008152600401610a5e90614752565b60405180910390fd5b8073ffffffffffffffffffffffffffffffffffffffff16610a86611884565b73ffffffffffffffffffffffffffffffffffffffff161480610ab55750610ab481610aaf611884565b611607565b5b610af4576040517f08c379a0000000000000000000000000000000000000000000000000000000008152600401610aeb906146d2565b60405180910390fd5b610afe838361188c565b505050565b6000600980549050905090565b7f000000000000000000000000000000000000000000000000000000000000000073ffffffffffffffffffffffffffffffffffffffff163373ffffffffffffffffffffffffffffffffffffffff1614610bc257337f00000000000000000000000000000000000000000000000000000000000000006040517f1cf993f4000000000000000000000000000000000000000000000000000000008152600401610bb992919061447d565b60405180910390fd5b610bcc8282611945565b5050565b610be1610bdb611884565b82611993565b610c20576040517f08c379a0000000000000000000000000000000000000000000000000000000008152600401610c1790614792565b60405180910390fd5b610c2b838383611a28565b505050565b6000600d54905090565b6000610c4583610e95565b8210610c86576040517f08c379a0000000000000000000000000000000000000000000000000000000008152600401610c7d906145d2565b60405180910390fd5b600760008473ffffffffffffffffffffffffffffffffffffffff1673ffffffffffffffffffffffffffffffffffffffff168152602001908152602001600020600083815260200190815260200160002054905092915050565b610cfa83838360405180602001604052806000815250611442565b505050565b610d076110db565b505050565b6000610d16610b03565b8210610d57576040517f08c379a0000000000000000000000000000000000000000000000000000000008152600401610d4e90614772565b60405180910390fd5b60098281548110610d91577f4e487b7100000000000000000000000000000000000000000000000000000000600052603260045260246000fd5b90600052602060002001549050919050565b610dab611c8f565b80600d8190555050565b6000806003600084815260200190815260200160002060009054906101000a900473ffffffffffffffffffffffffffffffffffffffff169050600073ffffffffffffffffffffffffffffffffffffffff168173ffffffffffffffffffffffffffffffffffffffff161415610e5e576040517f08c379a0000000000000000000000000000000000000000000000000000000008152600401610e5590614732565b60405180910390fd5b80915050919050565b60006060600f60009054906101000a900460ff16158015610e8c5750610e8b611556565b5b91509250929050565b60008073ffffffffffffffffffffffffffffffffffffffff168273ffffffffffffffffffffffffffffffffffffffff161415610f06576040517f08c379a0000000000000000000000000000000000000000000000000000000008152600401610efd906146b2565b60405180910390fd5b600460008373ffffffffffffffffffffffffffffffffffffffff1673ffffffffffffffffffffffffffffffffffffffff168152602001908152602001600020549050919050565b610f55611c8f565b610f5f6000611d0d565b565b6000600e54905090565b60008060009054906101000a900473ffffffffffffffffffffffffffffffffffffffff16905090565b610f9c611c8f565b6000610fa6610f6b565b73ffffffffffffffffffffffffffffffffffffffff1647604051610fc990614420565b60006040518083038185875af1925050503d8060008114611006576040519150601f19603f3d011682016040523d82523d6000602084013e61100b565b606091505b5050905080611046576040517f0ca5b23000000000000000000000000000000000000000000000000000000000815260040160405180910390fd5b50565b60606002805461105890614bad565b80601f016020809104026020016040519081016040528092919081815260200182805461108490614bad565b80156110d15780601f106110a6576101008083540402835291602001916110d1565b820191906000526020600020905b8154815290600101906020018083116110b457829003601f168201915b5050505050905090565b6000600f60009054906101000a900460ff1615611124576040517fd0cf055400000000000000000000000000000000000000000000000000000000815260040160405180910390fd5b61112c611556565b611162576040517f4e628ebc00000000000000000000000000000000000000000000000000000000815260040160405180910390fd5b7f000000000000000000000000000000000000000000000000000000000000000073ffffffffffffffffffffffffffffffffffffffff16635d3b1d307f00000000000000000000000000000000000000000000000000000000000000007f000000000000000000000000000000000000000000000000000000000000000060037f000000000000000000000000000000000000000000000000000000000000000060016040518663ffffffff1660e01b815260040161122595949392919061453d565b602060405180830381600087803b15801561123f57600080fd5b505af1158015611253573d6000803e3d6000fd5b505050506040513d601f19601f820116820180604052508101906112779190613d8f565b90506001600f60006101000a81548160ff0219169083151502179055507f8d83bdd6db199ff596cec09ea8e4f4e50da2dcb4020bc2a1cf072c507056b1ea816040516112c391906147b2565b60405180910390a190565b60006112d8610b03565b90506000821415611315576040517f2c5211c600000000000000000000000000000000000000000000000000000000815260040160405180910390fd5b7f0000000000000000000000000000000000000000000000000000000000000000828261134291906148fd565b111561137a576040517fd05cb60900000000000000000000000000000000000000000000000000000000815260040160405180910390fd5b817f00000000000000000000000000000000000000000000000000000000000000006113a691906149bb565b3410156113df576040517f356680b700000000000000000000000000000000000000000000000000000000815260040160405180910390fd5b6000600190505b828111611415576114023382846113fd91906148fd565b611dd1565b808061140d90614c10565b9150506113e6565b505050565b61142c611425611884565b8383611def565b5050565b611438611c8f565b80600c8190555050565b61145361144d611884565b83611993565b611492576040517f08c379a000000000000000000000000000000000000000000000000000000000815260040161148990614792565b60405180910390fd5b61149e84848484611f5c565b50505050565b6000600b54905090565b60007f0000000000000000000000000000000000000000000000000000000000000000905090565b60606114e182611fb8565b611517576040517f9430a17e00000000000000000000000000000000000000000000000000000000815260040160405180910390fd5b60008061152384612024565b9150915060006115338383612178565b9050600061154082612770565b905061154b81612803565b945050505050919050565b600080600b54611564610b03565b61156e9190614a50565b905060008114156115835760009150506115dc565b600080600c541180156115985750600c548210155b156115a257600190505b600080600d541180156115c35750600d54600e54426115c19190614a50565b115b156115cd57600190505b81806115d65750805b93505050505b90565b60007f0000000000000000000000000000000000000000000000000000000000000000905090565b6000600660008473ffffffffffffffffffffffffffffffffffffffff1673ffffffffffffffffffffffffffffffffffffffff16815260200190815260200160002060008373ffffffffffffffffffffffffffffffffffffffff1673ffffffffffffffffffffffffffffffffffffffff16815260200190815260200160002060009054906101000a900460ff16905092915050565b6116a3611c8f565b600073ffffffffffffffffffffffffffffffffffffffff168173ffffffffffffffffffffffffffffffffffffffff161415611713576040517f08c379a000000000000000000000000000000000000000000000000000000000815260040161170a90614612565b60405180910390fd5b61171c81611d0d565b50565b6000600c54905090565b60008060008060108581548110611769577f4e487b7100000000000000000000000000000000000000000000000000000000600052603260045260246000fd5b906000526020600020906003020160405180606001604052908160008201548152602001600182015481526020016002820154815250509050806000015181602001518260400151935093509350509193909250565b60007f780e9d63000000000000000000000000000000000000000000000000000000007bffffffffffffffffffffffffffffffffffffffffffffffffffffffff1916827bffffffffffffffffffffffffffffffffffffffffffffffffffffffff19161480611832575061183182612853565b5b9050919050565b61184281611fb8565b611881576040517f08c379a000000000000000000000000000000000000000000000000000000000815260040161187890614732565b60405180910390fd5b50565b600033905090565b816005600083815260200190815260200160002060006101000a81548173ffffffffffffffffffffffffffffffffffffffff021916908373ffffffffffffffffffffffffffffffffffffffff160217905550808273ffffffffffffffffffffffffffffffffffffffff166118ff83610db5565b73ffffffffffffffffffffffffffffffffffffffff167f8c5be1e5ebec7d5bd14f71427d1e84f3dd0314c0f7b2291e5b200ac8c7c3b92560405160405180910390a45050565b61198f81600081518110611982577f4e487b7100000000000000000000000000000000000000000000000000000000600052603260045260246000fd5b6020026020010151612935565b5050565b60008061199f83610db5565b90508073ffffffffffffffffffffffffffffffffffffffff168473ffffffffffffffffffffffffffffffffffffffff1614806119e157506119e08185611607565b5b80611a1f57508373ffffffffffffffffffffffffffffffffffffffff16611a07846109a5565b73ffffffffffffffffffffffffffffffffffffffff16145b91505092915050565b8273ffffffffffffffffffffffffffffffffffffffff16611a4882610db5565b73ffffffffffffffffffffffffffffffffffffffff1614611a9e576040517f08c379a0000000000000000000000000000000000000000000000000000000008152600401611a9590614632565b60405180910390fd5b600073ffffffffffffffffffffffffffffffffffffffff168273ffffffffffffffffffffffffffffffffffffffff161415611b0e576040517f08c379a0000000000000000000000000000000000000000000000000000000008152600401611b0590614672565b60405180910390fd5b611b19838383612a33565b611b2460008261188c565b6001600460008573ffffffffffffffffffffffffffffffffffffffff1673ffffffffffffffffffffffffffffffffffffffff1681526020019081526020016000206000828254611b749190614a50565b925050819055506001600460008473ffffffffffffffffffffffffffffffffffffffff1673ffffffffffffffffffffffffffffffffffffffff1681526020019081526020016000206000828254611bcb91906148fd565b92505081905550816003600083815260200190815260200160002060006101000a81548173ffffffffffffffffffffffffffffffffffffffff021916908373ffffffffffffffffffffffffffffffffffffffff160217905550808273ffffffffffffffffffffffffffffffffffffffff168473ffffffffffffffffffffffffffffffffffffffff167fddf252ad1be2c89b69c2b068fc378daa952ba7f163c4a11628f55a4df523b3ef60405160405180910390a4611c8a838383612b47565b505050565b611c97611884565b73ffffffffffffffffffffffffffffffffffffffff16611cb5610f6b565b73ffffffffffffffffffffffffffffffffffffffff1614611d0b576040517f08c379a0000000000000000000000000000000000000000000000000000000008152600401611d0290614712565b60405180910390fd5b565b60008060009054906101000a900473ffffffffffffffffffffffffffffffffffffffff169050816000806101000a81548173ffffffffffffffffffffffffffffffffffffffff021916908373ffffffffffffffffffffffffffffffffffffffff1602179055508173ffffffffffffffffffffffffffffffffffffffff168173ffffffffffffffffffffffffffffffffffffffff167f8be0079c531659141344cd1fd0a4f28419497f9722a3daafe3b4186f6b6457e060405160405180910390a35050565b611deb828260405180602001604052806000815250612b4c565b5050565b8173ffffffffffffffffffffffffffffffffffffffff168373ffffffffffffffffffffffffffffffffffffffff161415611e5e576040517f08c379a0000000000000000000000000000000000000000000000000000000008152600401611e5590614692565b60405180910390fd5b80600660008573ffffffffffffffffffffffffffffffffffffffff1673ffffffffffffffffffffffffffffffffffffffff16815260200190815260200160002060008473ffffffffffffffffffffffffffffffffffffffff1673ffffffffffffffffffffffffffffffffffffffff16815260200190815260200160002060006101000a81548160ff0219169083151502179055508173ffffffffffffffffffffffffffffffffffffffff168373ffffffffffffffffffffffffffffffffffffffff167f17307eab39ab6107e8899845ad3d59bd9653f200f220920489ca2b5937696c3183604051611f4f91906144f2565b60405180910390a3505050565b611f67848484611a28565b611f7384848484612ba7565b611fb2576040517f08c379a0000000000000000000000000000000000000000000000000000000008152600401611fa9906145f2565b60405180910390fd5b50505050565b60008073ffffffffffffffffffffffffffffffffffffffff166003600084815260200190815260200160002060009054906101000a900473ffffffffffffffffffffffffffffffffffffffff1673ffffffffffffffffffffffffffffffffffffffff1614159050919050565b60008060005b6010805490508110156121725760108181548110612071577f4e487b7100000000000000000000000000000000000000000000000000000000600052603260045260246000fd5b90600052602060002090600302016000015484101580156120dc5750601081815481106120c7577f4e487b7100000000000000000000000000000000000000000000000000000000600052603260045260246000fd5b90600052602060002090600302016001015484105b1561215f576010818154811061211b577f4e487b7100000000000000000000000000000000000000000000000000000000600052603260045260246000fd5b9060005260206000209060030201600201548460405160200161213f9291906147cd565b6040516020818303038152906040528051906020012060001c9250600191505b808061216a90614c10565b91505061202a565b50915091565b6060612182613914565b6040518060a001604052806062815260200161537c60629139816000600481106121d5577f4e487b7100000000000000000000000000000000000000000000000000000000600052603260045260246000fd5b602002018190525082156124fd576040518060c00160405280608d81526020016154bb608d913981600160048110612236577f4e487b7100000000000000000000000000000000000000000000000000000000600052603260045260246000fd5b602002018190525061224661393b565b6000612253866020612d3e565b905060005b60068160ff16101561231557600061229b83600b846122779190614a15565b60ff16600b6001866122899190614953565b6122939190614a15565b60ff16613038565b9050806040516020016122ae9190614435565b604051602081830303815290604052848360ff16600681106122f9577f4e487b7100000000000000000000000000000000000000000000000000000000600052603260045260246000fd5b602002018190525050808061230d90614c59565b915050612258565b5081600060068110612350577f4e487b7100000000000000000000000000000000000000000000000000000000600052603260045260246000fd5b60200201518260016006811061238f577f4e487b7100000000000000000000000000000000000000000000000000000000600052603260045260246000fd5b6020020151836002600681106123ce577f4e487b7100000000000000000000000000000000000000000000000000000000600052603260045260246000fd5b60200201518460036006811061240d577f4e487b7100000000000000000000000000000000000000000000000000000000600052603260045260246000fd5b60200201518560046006811061244c577f4e487b7100000000000000000000000000000000000000000000000000000000600052603260045260246000fd5b60200201518660056006811061248b577f4e487b7100000000000000000000000000000000000000000000000000000000600052603260045260246000fd5b60200201516040516020016124a596959493929190614342565b604051602081830303815290604052836002600481106124ee577f4e487b7100000000000000000000000000000000000000000000000000000000600052603260045260246000fd5b602002018190525050506125d1565b6040518060c00160405280609d815260200161541e609d913981600160048110612550577f4e487b7100000000000000000000000000000000000000000000000000000000600052603260045260246000fd5b60200201819052506040518060400160405280600181526020017f3f00000000000000000000000000000000000000000000000000000000000000815250816002600481106125c8577f4e487b7100000000000000000000000000000000000000000000000000000000600052603260045260246000fd5b60200201819052505b6040518060400160405280600d81526020017f3c2f746578743e3c2f7376673e0000000000000000000000000000000000000081525081600360048110612641577f4e487b7100000000000000000000000000000000000000000000000000000000600052603260045260246000fd5b602002018190525080600060048110612683577f4e487b7100000000000000000000000000000000000000000000000000000000600052603260045260246000fd5b6020020151816001600481106126c2577f4e487b7100000000000000000000000000000000000000000000000000000000600052603260045260246000fd5b602002015182600260048110612701577f4e487b7100000000000000000000000000000000000000000000000000000000600052603260045260246000fd5b602002015183600360048110612740577f4e487b7100000000000000000000000000000000000000000000000000000000600052603260045260246000fd5b60200201516040516020016127589493929190614304565b60405160208183030381529060405291505092915050565b606060006040518060400160405280601a81526020017f646174613a696d6167652f7376672b786d6c3b6261736536342c000000000000815250905060006127d6846040516020016127c291906142c9565b6040516020818303038152906040526131a6565b905081816040516020016127eb9291906142e0565b60405160208183030381529060405292505050919050565b606061282d82604051602001612819919061439a565b6040516020818303038152906040526131a6565b60405160200161283d91906143fe565b6040516020818303038152906040529050919050565b60007f80ac58cd000000000000000000000000000000000000000000000000000000007bffffffffffffffffffffffffffffffffffffffffffffffffffffffff1916827bffffffffffffffffffffffffffffffffffffffffffffffffffffffff1916148061291e57507f5b5e139f000000000000000000000000000000000000000000000000000000007bffffffffffffffffffffffffffffffffffffffffffffffffffffffff1916827bffffffffffffffffffffffffffffffffffffffffffffffffffffffff1916145b8061292e575061292d82613330565b5b9050919050565b600061293f610b03565b905060006001600b5461295291906148fd565b9050600060018361296391906148fd565b905060106040518060600160405280848152602001838152602001868152509080600181540180825580915050600190039060005260206000209060030201600090919091909150600082015181600001556020820151816001015560408201518160020155505082600b8190555042600e819055506000600f60006101000a81548160ff0219169083151502179055507fa39d9410abe7578bfbf71501989f175c50a6950b6595718dd8092474541c889b8282604051612a259291906147cd565b60405180910390a150505050565b612a3e83838361339a565b600073ffffffffffffffffffffffffffffffffffffffff168373ffffffffffffffffffffffffffffffffffffffff161415612a8157612a7c8161339f565b612ac0565b8173ffffffffffffffffffffffffffffffffffffffff168373ffffffffffffffffffffffffffffffffffffffff1614612abf57612abe83826133e8565b5b5b600073ffffffffffffffffffffffffffffffffffffffff168273ffffffffffffffffffffffffffffffffffffffff161415612b0357612afe81613555565b612b42565b8273ffffffffffffffffffffffffffffffffffffffff168273ffffffffffffffffffffffffffffffffffffffff1614612b4157612b408282613698565b5b5b505050565b505050565b612b568383613717565b612b636000848484612ba7565b612ba2576040517f08c379a0000000000000000000000000000000000000000000000000000000008152600401612b99906145f2565b60405180910390fd5b505050565b6000612bc88473ffffffffffffffffffffffffffffffffffffffff166138f1565b15612d31578373ffffffffffffffffffffffffffffffffffffffff1663150b7a02612bf1611884565b8786866040518563ffffffff1660e01b8152600401612c1394939291906144a6565b602060405180830381600087803b158015612c2d57600080fd5b505af1925050508015612c5e57506040513d601f19601f82011682018060405250810190612c5b9190613cf8565b60015b612ce1573d8060008114612c8e576040519150601f19603f3d011682016040523d82523d6000602084013e612c93565b606091505b50600081511415612cd9576040517f08c379a0000000000000000000000000000000000000000000000000000000008152600401612cd0906145f2565b60405180910390fd5b805181602001fd5b63150b7a0260e01b7bffffffffffffffffffffffffffffffffffffffffffffffffffffffff1916817bffffffffffffffffffffffffffffffffffffffffffffffffffffffff191614915050612d36565b600190505b949350505050565b606060006002836002612d5191906149bb565b612d5b91906148fd565b67ffffffffffffffff811115612d9a577f4e487b7100000000000000000000000000000000000000000000000000000000600052604160045260246000fd5b6040519080825280601f01601f191660200182016040528015612dcc5781602001600182028036833780820191505090505b5090507f300000000000000000000000000000000000000000000000000000000000000081600081518110612e2a577f4e487b7100000000000000000000000000000000000000000000000000000000600052603260045260246000fd5b60200101907effffffffffffffffffffffffffffffffffffffffffffffffffffffffffffff1916908160001a9053507f780000000000000000000000000000000000000000000000000000000000000081600181518110612eb4577f4e487b7100000000000000000000000000000000000000000000000000000000600052603260045260246000fd5b60200101907effffffffffffffffffffffffffffffffffffffffffffffffffffffffffffff1916908160001a90535060006001846002612ef491906149bb565b612efe91906148fd565b90505b6001811115612fea577f3031323334353637383961626364656600000000000000000000000000000000600f861660108110612f66577f4e487b7100000000000000000000000000000000000000000000000000000000600052603260045260246000fd5b1a60f81b828281518110612fa3577f4e487b7100000000000000000000000000000000000000000000000000000000600052603260045260246000fd5b60200101907effffffffffffffffffffffffffffffffffffffffffffffffffffffffffffff1916908160001a905350600485901c945080612fe390614b83565b9050612f01565b506000841461302e576040517f08c379a0000000000000000000000000000000000000000000000000000000008152600401613025906145b2565b60405180910390fd5b8091505092915050565b606060008490506000848461304d9190614a50565b67ffffffffffffffff81111561308c577f4e487b7100000000000000000000000000000000000000000000000000000000600052604160045260246000fd5b6040519080825280601f01601f1916602001820160405280156130be5781602001600182028036833780820191505090505b50905060008590505b8481101561319957828181518110613108577f4e487b7100000000000000000000000000000000000000000000000000000000600052603260045260246000fd5b602001015160f81c60f81b8287836131209190614a50565b81518110613157577f4e487b7100000000000000000000000000000000000000000000000000000000600052603260045260246000fd5b60200101907effffffffffffffffffffffffffffffffffffffffffffffffffffffffffffff1916908160001a905350808061319190614c10565b9150506130c7565b5080925050509392505050565b60606000825114156131c95760405180602001604052806000815250905061332b565b60006040518060600160405280604081526020016153de60409139905060006003600285516131f891906148fd565b613202919061498a565b600461320e91906149bb565b67ffffffffffffffff81111561324d577f4e487b7100000000000000000000000000000000000000000000000000000000600052604160045260246000fd5b6040519080825280601f01601f19166020018201604052801561327f5781602001600182028036833780820191505090505b509050600182016020820185865187015b808210156132eb576003820191508151603f8160121c168501518453600184019350603f81600c1c168501518453600184019350603f8160061c168501518453600184019350603f8116850151845360018401935050613290565b5050600386510660018114613307576002811461331a57613322565b603d6001830353603d6002830353613322565b603d60018303535b50505080925050505b919050565b60007f01ffc9a7000000000000000000000000000000000000000000000000000000007bffffffffffffffffffffffffffffffffffffffffffffffffffffffff1916827bffffffffffffffffffffffffffffffffffffffffffffffffffffffff1916149050919050565b505050565b600980549050600a600083815260200190815260200160002081905550600981908060018154018082558091505060019003906000526020600020016000909190919091505550565b600060016133f584610e95565b6133ff9190614a50565b90506000600860008481526020019081526020016000205490508181146134e4576000600760008673ffffffffffffffffffffffffffffffffffffffff1673ffffffffffffffffffffffffffffffffffffffff168152602001908152602001600020600084815260200190815260200160002054905080600760008773ffffffffffffffffffffffffffffffffffffffff1673ffffffffffffffffffffffffffffffffffffffff168152602001908152602001600020600084815260200190815260200160002081905550816008600083815260200190815260200160002081905550505b6008600084815260200190815260200160002060009055600760008573ffffffffffffffffffffffffffffffffffffffff1673ffffffffffffffffffffffffffffffffffffffff16815260200190815260200160002060008381526020019081526020016000206000905550505050565b600060016009805490506135699190614a50565b90506000600a60008481526020019081526020016000205490506000600983815481106135bf577f4e487b7100000000000000000000000000000000000000000000000000000000600052603260045260246000fd5b906000526020600020015490508060098381548110613607577f4e487b7100000000000000000000000000000000000000000000000000000000600052603260045260246000fd5b906000526020600020018190555081600a600083815260200190815260200160002081905550600a600085815260200190815260200160002060009055600980548061367c577f4e487b7100000000000000000000000000000000000000000000000000000000600052603160045260246000fd5b6001900381819060005260206000200160009055905550505050565b60006136a383610e95565b905081600760008573ffffffffffffffffffffffffffffffffffffffff1673ffffffffffffffffffffffffffffffffffffffff168152602001908152602001600020600083815260200190815260200160002081905550806008600084815260200190815260200160002081905550505050565b600073ffffffffffffffffffffffffffffffffffffffff168273ffffffffffffffffffffffffffffffffffffffff161415613787576040517f08c379a000000000000000000000000000000000000000000000000000000000815260040161377e906146f2565b60405180910390fd5b61379081611fb8565b156137d0576040517f08c379a00000000000000000000000000000000000000000000000000000000081526004016137c790614652565b60405180910390fd5b6137dc60008383612a33565b6001600460008473ffffffffffffffffffffffffffffffffffffffff1673ffffffffffffffffffffffffffffffffffffffff168152602001908152602001600020600082825461382c91906148fd565b92505081905550816003600083815260200190815260200160002060006101000a81548173ffffffffffffffffffffffffffffffffffffffff021916908373ffffffffffffffffffffffffffffffffffffffff160217905550808273ffffffffffffffffffffffffffffffffffffffff16600073ffffffffffffffffffffffffffffffffffffffff167fddf252ad1be2c89b69c2b068fc378daa952ba7f163c4a11628f55a4df523b3ef60405160405180910390a46138ed60008383612b47565b5050565b6000808273ffffffffffffffffffffffffffffffffffffffff163b119050919050565b60405180608001604052806004905b60608152602001906001900390816139235790505090565b6040518060c001604052806006905b606081526020019060019003908161394a5790505090565b600061397561397084614852565b61482d565b9050808382526020820190508285602086028201111561399457600080fd5b60005b858110156139c457816139aa8882613afe565b845260208401935060208301925050600181019050613997565b5050509392505050565b60006139e16139dc8461487e565b61482d565b9050828152602081018484840111156139f957600080fd5b613a04848285614b41565b509392505050565b600081359050613a1b8161531f565b92915050565b600082601f830112613a3257600080fd5b8135613a42848260208601613962565b91505092915050565b600081359050613a5a81615336565b92915050565b600081359050613a6f8161534d565b92915050565b600081519050613a848161534d565b92915050565b60008083601f840112613a9c57600080fd5b8235905067ffffffffffffffff811115613ab557600080fd5b602083019150836001820283011115613acd57600080fd5b9250929050565b600082601f830112613ae557600080fd5b8135613af58482602086016139ce565b91505092915050565b600081359050613b0d81615364565b92915050565b600081519050613b2281615364565b92915050565b600060208284031215613b3a57600080fd5b6000613b4884828501613a0c565b91505092915050565b60008060408385031215613b6457600080fd5b6000613b7285828601613a0c565b9250506020613b8385828601613a0c565b9150509250929050565b600080600060608486031215613ba257600080fd5b6000613bb086828701613a0c565b9350506020613bc186828701613a0c565b9250506040613bd286828701613afe565b9150509250925092565b60008060008060808587031215613bf257600080fd5b6000613c0087828801613a0c565b9450506020613c1187828801613a0c565b9350506040613c2287828801613afe565b925050606085013567ffffffffffffffff811115613c3f57600080fd5b613c4b87828801613ad4565b91505092959194509250565b60008060408385031215613c6a57600080fd5b6000613c7885828601613a0c565b9250506020613c8985828601613a4b565b9150509250929050565b60008060408385031215613ca657600080fd5b6000613cb485828601613a0c565b9250506020613cc585828601613afe565b9150509250929050565b600060208284031215613ce157600080fd5b6000613cef84828501613a60565b91505092915050565b600060208284031215613d0a57600080fd5b6000613d1884828501613a75565b91505092915050565b60008060208385031215613d3457600080fd5b600083013567ffffffffffffffff811115613d4e57600080fd5b613d5a85828601613a8a565b92509250509250929050565b600060208284031215613d7857600080fd5b6000613d8684828501613afe565b91505092915050565b600060208284031215613da157600080fd5b6000613daf84828501613b13565b91505092915050565b60008060408385031215613dcb57600080fd5b6000613dd985828601613afe565b925050602083013567ffffffffffffffff811115613df657600080fd5b613e0285828601613a21565b9150509250929050565b613e1581614a84565b82525050565b613e2481614a96565b82525050565b613e3381614aa2565b82525050565b6000613e44826148af565b613e4e81856148c5565b9350613e5e818560208601614b50565b613e6781614d3f565b840191505092915050565b6000613e7d826148ba565b613e8781856148e1565b9350613e97818560208601614b50565b613ea081614d3f565b840191505092915050565b6000613eb6826148ba565b613ec081856148f2565b9350613ed0818560208601614b50565b80840191505092915050565b6000613ee96020836148e1565b9150613ef482614d50565b602082019050919050565b6000613f0c602b836148e1565b9150613f1782614d79565b604082019050919050565b6000613f2f6032836148e1565b9150613f3a82614dc8565b604082019050919050565b6000613f526026836148e1565b9150613f5d82614e17565b604082019050919050565b6000613f756025836148e1565b9150613f8082614e66565b604082019050919050565b6000613f98601c836148e1565b9150613fa382614eb5565b602082019050919050565b6000613fbb6008836148f2565b9150613fc682614ede565b600882019050919050565b6000613fde600e836148f2565b9150613fe982614f07565b600e82019050919050565b60006140016024836148e1565b915061400c82614f30565b604082019050919050565b60006140246019836148e1565b915061402f82614f7f565b602082019050919050565b60006140476011836148f2565b915061405282614fa8565b601182019050919050565b600061406a6029836148e1565b915061407582614fd1565b604082019050919050565b600061408d6001836148f2565b915061409882615020565b600182019050919050565b60006140b06025836148f2565b91506140bb82615049565b602582019050919050565b60006140d36009836148f2565b91506140de82615098565b600982019050919050565b60006140f6603e836148e1565b9150614101826150c1565b604082019050919050565b60006141196020836148e1565b915061412482615110565b602082019050919050565b600061413c6001836148f2565b915061414782615139565b600182019050919050565b600061415f6020836148e1565b915061416a82615162565b602082019050919050565b60006141826001836148f2565b915061418d8261518b565b600182019050919050565b60006141a56018836148e1565b91506141b0826151b4565b602082019050919050565b60006141c86021836148e1565b91506141d3826151dd565b604082019050919050565b60006141eb601d836148f2565b91506141f68261522c565b601d82019050919050565b600061420e6000836148d6565b915061421982615255565b600082019050919050565b6000614231602c836148e1565b915061423c82615258565b604082019050919050565b6000614254602e836148e1565b915061425f826152a7565b604082019050919050565b60006142776016836148f2565b9150614282826152f6565b601682019050919050565b61429681614ad8565b82525050565b6142a581614b06565b82525050565b6142b481614b10565b82525050565b6142c381614b20565b82525050565b60006142d58284613eab565b915081905092915050565b60006142ec8285613eab565b91506142f88284613eab565b91508190509392505050565b60006143108287613eab565b915061431c8286613eab565b91506143288285613eab565b91506143348284613eab565b915081905095945050505050565b600061434e8289613eab565b915061435a8288613eab565b91506143668287613eab565b91506143728286613eab565b915061437e8285613eab565b915061438a8284613eab565b9150819050979650505050505050565b60006143a582614175565b91506143b082613fd1565b91506143bb826140a3565b91506143c68261403a565b91506143d1826140c6565b91506143dd8284613eab565b91506143e882614080565b91506143f38261412f565b915081905092915050565b6000614409826141de565b91506144158284613eab565b915081905092915050565b600061442b82614201565b9150819050919050565b60006144408261426a565b915061444c8284613eab565b915061445782613fae565b915081905092915050565b60006020820190506144776000830184613e0c565b92915050565b60006040820190506144926000830185613e0c565b61449f6020830184613e0c565b9392505050565b60006080820190506144bb6000830187613e0c565b6144c86020830186613e0c565b6144d5604083018561429c565b81810360608301526144e78184613e39565b905095945050505050565b60006020820190506145076000830184613e1b565b92915050565b60006040820190506145226000830185613e1b565b81810360208301526145348184613e39565b90509392505050565b600060a0820190506145526000830188613e2a565b61455f60208301876142ba565b61456c604083018661428d565b61457960608301856142ab565b61458660808301846142ab565b9695505050505050565b600060208201905081810360008301526145aa8184613e72565b905092915050565b600060208201905081810360008301526145cb81613edc565b9050919050565b600060208201905081810360008301526145eb81613eff565b9050919050565b6000602082019050818103600083015261460b81613f22565b9050919050565b6000602082019050818103600083015261462b81613f45565b9050919050565b6000602082019050818103600083015261464b81613f68565b9050919050565b6000602082019050818103600083015261466b81613f8b565b9050919050565b6000602082019050818103600083015261468b81613ff4565b9050919050565b600060208201905081810360008301526146ab81614017565b9050919050565b600060208201905081810360008301526146cb8161405d565b9050919050565b600060208201905081810360008301526146eb816140e9565b9050919050565b6000602082019050818103600083015261470b8161410c565b9050919050565b6000602082019050818103600083015261472b81614152565b9050919050565b6000602082019050818103600083015261474b81614198565b9050919050565b6000602082019050818103600083015261476b816141bb565b9050919050565b6000602082019050818103600083015261478b81614224565b9050919050565b600060208201905081810360008301526147ab81614247565b9050919050565b60006020820190506147c7600083018461429c565b92915050565b60006040820190506147e2600083018561429c565b6147ef602083018461429c565b9392505050565b600060608201905061480b600083018661429c565b614818602083018561429c565b614825604083018461429c565b949350505050565b6000614837614848565b90506148438282614bdf565b919050565b6000604051905090565b600067ffffffffffffffff82111561486d5761486c614d10565b5b602082029050602081019050919050565b600067ffffffffffffffff82111561489957614898614d10565b5b6148a282614d3f565b9050602081019050919050565b600081519050919050565b600081519050919050565b600082825260208201905092915050565b600081905092915050565b600082825260208201905092915050565b600081905092915050565b600061490882614b06565b915061491383614b06565b9250827fffffffffffffffffffffffffffffffffffffffffffffffffffffffffffffffff0382111561494857614947614c83565b5b828201905092915050565b600061495e82614b34565b915061496983614b34565b92508260ff0382111561497f5761497e614c83565b5b828201905092915050565b600061499582614b06565b91506149a083614b06565b9250826149b0576149af614cb2565b5b828204905092915050565b60006149c682614b06565b91506149d183614b06565b9250817fffffffffffffffffffffffffffffffffffffffffffffffffffffffffffffffff0483118215151615614a0a57614a09614c83565b5b828202905092915050565b6000614a2082614b34565b9150614a2b83614b34565b92508160ff0483118215151615614a4557614a44614c83565b5b828202905092915050565b6000614a5b82614b06565b9150614a6683614b06565b925082821015614a7957614a78614c83565b5b828203905092915050565b6000614a8f82614ae6565b9050919050565b60008115159050919050565b6000819050919050565b60007fffffffff0000000000000000000000000000000000000000000000000000000082169050919050565b600061ffff82169050919050565b600073ffffffffffffffffffffffffffffffffffffffff82169050919050565b6000819050919050565b600063ffffffff82169050919050565b600067ffffffffffffffff82169050919050565b600060ff82169050919050565b82818337600083830152505050565b60005b83811015614b6e578082015181840152602081019050614b53565b83811115614b7d576000848401525b50505050565b6000614b8e82614b06565b91506000821415614ba257614ba1614c83565b5b600182039050919050565b60006002820490506001821680614bc557607f821691505b60208210811415614bd957614bd8614ce1565b5b50919050565b614be882614d3f565b810181811067ffffffffffffffff82111715614c0757614c06614d10565b5b80604052505050565b6000614c1b82614b06565b91507fffffffffffffffffffffffffffffffffffffffffffffffffffffffffffffffff821415614c4e57614c4d614c83565b5b600182019050919050565b6000614c6482614b34565b915060ff821415614c7857614c77614c83565b5b600182019050919050565b7f4e487b7100000000000000000000000000000000000000000000000000000000600052601160045260246000fd5b7f4e487b7100000000000000000000000000000000000000000000000000000000600052601260045260246000fd5b7f4e487b7100000000000000000000000000000000000000000000000000000000600052602260045260246000fd5b7f4e487b7100000000000000000000000000000000000000000000000000000000600052604160045260246000fd5b6000601f19601f8301169050919050565b7f537472696e67733a20686578206c656e67746820696e73756666696369656e74600082015250565b7f455243373231456e756d657261626c653a206f776e657220696e646578206f7560008201527f74206f6620626f756e6473000000000000000000000000000000000000000000602082015250565b7f4552433732313a207472616e7366657220746f206e6f6e20455243373231526560008201527f63656976657220696d706c656d656e7465720000000000000000000000000000602082015250565b7f4f776e61626c653a206e6577206f776e657220697320746865207a65726f206160008201527f6464726573730000000000000000000000000000000000000000000000000000602082015250565b7f4552433732313a207472616e736665722066726f6d20696e636f72726563742060008201527f6f776e6572000000000000000000000000000000000000000000000000000000602082015250565b7f4552433732313a20746f6b656e20616c7265616479206d696e74656400000000600082015250565b7f3c2f747370616e3e000000000000000000000000000000000000000000000000600082015250565b7f226e616d65223a224e4654222c20000000000000000000000000000000000000600082015250565b7f4552433732313a207472616e7366657220746f20746865207a65726f2061646460008201527f7265737300000000000000000000000000000000000000000000000000000000602082015250565b7f4552433732313a20617070726f766520746f2063616c6c657200000000000000600082015250565b7f2261747472696275746573223a22222c20000000000000000000000000000000600082015250565b7f4552433732313a2061646472657373207a65726f206973206e6f74206120766160008201527f6c6964206f776e65720000000000000000000000000000000000000000000000602082015250565b7f2200000000000000000000000000000000000000000000000000000000000000600082015250565b7f226465736372697074696f6e223a2242617463682d72657665616c6564204e4660008201527f5421222c20000000000000000000000000000000000000000000000000000000602082015250565b7f22696d616765223a220000000000000000000000000000000000000000000000600082015250565b7f4552433732313a20617070726f76652063616c6c6572206973206e6f7420746f60008201527f6b656e206f776e6572206e6f7220617070726f76656420666f7220616c6c0000602082015250565b7f4552433732313a206d696e7420746f20746865207a65726f2061646472657373600082015250565b7f7d00000000000000000000000000000000000000000000000000000000000000600082015250565b7f4f776e61626c653a2063616c6c6572206973206e6f7420746865206f776e6572600082015250565b7f7b00000000000000000000000000000000000000000000000000000000000000600082015250565b7f4552433732313a20696e76616c696420746f6b656e2049440000000000000000600082015250565b7f4552433732313a20617070726f76616c20746f2063757272656e74206f776e6560008201527f7200000000000000000000000000000000000000000000000000000000000000602082015250565b7f646174613a6170706c69636174696f6e2f6a736f6e3b6261736536342c000000600082015250565b50565b7f455243373231456e756d657261626c653a20676c6f62616c20696e646578206f60008201527f7574206f6620626f756e64730000000000000000000000000000000000000000602082015250565b7f4552433732313a2063616c6c6572206973206e6f7420746f6b656e206f776e6560008201527f72206e6f7220617070726f766564000000000000000000000000000000000000602082015250565b7f3c747370616e20783d223136222064793d223536223e00000000000000000000600082015250565b61532881614a84565b811461533357600080fd5b50565b61533f81614a96565b811461534a57600080fd5b50565b61535681614aac565b811461536157600080fd5b50565b61536d81614b06565b811461537857600080fd5b5056fe3c73766720786d6c6e733d22687474703a2f2f7777772e77332e6f72672f323030302f73766722207072657365727665417370656374526174696f3d22784d696e594d696e206d656574222076696577426f783d223020302033353020333530223e4142434445464748494a4b4c4d4e4f505152535455565758595a6162636465666768696a6b6c6d6e6f707172737475767778797a303132333435363738392b2f3c7374796c653e2e62617365207b2066696c6c3a2077686974653b20666f6e742d66616d696c793a2073657269663b20666f6e742d73697a653a2033353070783b207d3c2f7374796c653e3c726563742077696474683d223130302522206865696768743d2231303025222066696c6c3d22626c61636b22202f3e3c7465787420783d2239302220793d223239352220636c6173733d2262617365223e3c7374796c653e2e62617365207b2066696c6c3a2077686974653b20666f6e742d66616d696c793a2073657269663b20666f6e742d73697a653a20353970783b207d3c2f7374796c653e3c726563742077696474683d223130302522206865696768743d2231303025222066696c6c3d22626c61636b22202f3e3c7465787420636c6173733d2262617365223ea264697066735822122007b9aa726c47c574fcca79070496365ead9237214c8c799611974748d795e0ff64736f6c63430008040033",
  "linkReferences": {},
  "deployedLinkReferences": {}
}