{
  "_format": "hh-sol-artifact-1",
  "contractName": "NFTCollection",
  "sourceName": "contracts/NFTCollection.sol",
  "abi": [
    {
      "inputs": [
        {
          "internalType": "string",
          "name": "_name",
          "type": "string"
        },
        {
          "internalType": "string",
          "name": "_symbol",
          "type": "string"
        },
        {
          "internalType": "uint256",
          "name": "_maxSupply",
          "type": "uint256"
        },
        {
          "internalType": "uint256",
          "name": "_mintCost",
          "type": "uint256"
        },
        {
          "internalType": "uint256",
          "name": "_revealBatchSize",
          "type": "uint256"
        },
        {
          "internalType": "uint256",
          "name": "_revealInterval",
          "type": "uint256"
        },
        {
          "internalType": "address",
          "name": "_vrfCoordinatorV2",
          "type": "address"
        },
        {
          "internalType": "uint64",
          "name": "_vrfSubscriptionId",
          "type": "uint64"
        },
        {
          "internalType": "bytes32",
          "name": "_vrfGasLane",
          "type": "bytes32"
        },
        {
          "internalType": "uint32",
          "name": "_vrfCallbackGasLimit",
          "type": "uint32"
        }
      ],
      "stateMutability": "nonpayable",
      "type": "constructor"
    },
    {
      "inputs": [],
      "name": "InsufficientFunds",
      "type": "error"
    },
    {
      "inputs": [],
      "name": "InsufficientLINK",
      "type": "error"
    },
    {
      "inputs": [],
      "name": "InvalidAmount",
      "type": "error"
    },
    {
      "inputs": [],
      "name": "MaxSupplyReached",
      "type": "error"
    },
    {
      "inputs": [
        {
          "internalType": "address",
          "name": "have",
          "type": "address"
        },
        {
          "internalType": "address",
          "name": "want",
          "type": "address"
        }
      ],
      "name": "OnlyCoordinatorCanFulfill",
      "type": "error"
    },
    {
      "inputs": [],
      "name": "RevealCriteriaNotMet",
      "type": "error"
    },
    {
      "inputs": [],
      "name": "WithdrawProceedsFailed",
      "type": "error"
    },
    {
      "anonymous": false,
      "inputs": [
        {
          "indexed": true,
          "internalType": "address",
          "name": "owner",
          "type": "address"
        },
        {
          "indexed": true,
          "internalType": "address",
          "name": "approved",
          "type": "address"
        },
        {
          "indexed": true,
          "internalType": "uint256",
          "name": "tokenId",
          "type": "uint256"
        }
      ],
      "name": "Approval",
      "type": "event"
    },
    {
      "anonymous": false,
      "inputs": [
        {
          "indexed": true,
          "internalType": "address",
          "name": "owner",
          "type": "address"
        },
        {
          "indexed": true,
          "internalType": "address",
          "name": "operator",
          "type": "address"
        },
        {
          "indexed": false,
          "internalType": "bool",
          "name": "approved",
          "type": "bool"
        }
      ],
      "name": "ApprovalForAll",
      "type": "event"
    },
    {
      "anonymous": false,
      "inputs": [
        {
          "indexed": false,
          "internalType": "uint256",
          "name": "startIndex",
          "type": "uint256"
        },
        {
          "indexed": false,
          "internalType": "uint256",
          "name": "endIndex",
          "type": "uint256"
        }
      ],
      "name": "BatchRevealFinished",
      "type": "event"
    },
    {
      "anonymous": false,
      "inputs": [
        {
          "indexed": false,
          "internalType": "uint256",
          "name": "requestId",
          "type": "uint256"
        }
      ],
      "name": "BatchRevealRequested",
      "type": "event"
    },
    {
      "anonymous": false,
      "inputs": [
        {
          "indexed": true,
          "internalType": "address",
          "name": "previousOwner",
          "type": "address"
        },
        {
          "indexed": true,
          "internalType": "address",
          "name": "newOwner",
          "type": "address"
        }
      ],
      "name": "OwnershipTransferred",
      "type": "event"
    },
    {
      "anonymous": false,
      "inputs": [
        {
          "indexed": true,
          "internalType": "address",
          "name": "from",
          "type": "address"
        },
        {
          "indexed": true,
          "internalType": "address",
          "name": "to",
          "type": "address"
        },
        {
          "indexed": true,
          "internalType": "uint256",
          "name": "tokenId",
          "type": "uint256"
        }
      ],
      "name": "Transfer",
      "type": "event"
    },
    {
      "inputs": [
        {
          "internalType": "address",
          "name": "to",
          "type": "address"
        },
        {
          "internalType": "uint256",
          "name": "tokenId",
          "type": "uint256"
        }
      ],
      "name": "approve",
      "outputs": [],
      "stateMutability": "nonpayable",
      "type": "function"
    },
    {
      "inputs": [
        {
          "internalType": "address",
          "name": "owner",
          "type": "address"
        }
      ],
      "name": "balanceOf",
      "outputs": [
        {
          "internalType": "uint256",
          "name": "",
          "type": "uint256"
        }
      ],
      "stateMutability": "view",
      "type": "function"
    },
    {
      "inputs": [],
      "name": "batchSize",
      "outputs": [
        {
          "internalType": "uint256",
          "name": "",
          "type": "uint256"
        }
      ],
      "stateMutability": "view",
      "type": "function"
    },
    {
      "inputs": [
        {
          "internalType": "bytes",
          "name": "",
          "type": "bytes"
        }
      ],
      "name": "checkUpkeep",
      "outputs": [
        {
          "internalType": "bool",
          "name": "upkeepNeeded",
          "type": "bool"
        },
        {
          "internalType": "bytes",
          "name": "",
          "type": "bytes"
        }
      ],
      "stateMutability": "view",
      "type": "function"
    },
    {
      "inputs": [
        {
          "internalType": "uint256",
          "name": "tokenId",
          "type": "uint256"
        }
      ],
      "name": "getApproved",
      "outputs": [
        {
          "internalType": "address",
          "name": "",
          "type": "address"
        }
      ],
      "stateMutability": "view",
      "type": "function"
    },
    {
      "inputs": [
        {
          "internalType": "address",
          "name": "owner",
          "type": "address"
        },
        {
          "internalType": "address",
          "name": "operator",
          "type": "address"
        }
      ],
      "name": "isApprovedForAll",
      "outputs": [
        {
          "internalType": "bool",
          "name": "",
          "type": "bool"
        }
      ],
      "stateMutability": "view",
      "type": "function"
    },
    {
      "inputs": [],
      "name": "lastRevealed",
      "outputs": [
        {
          "internalType": "uint256",
          "name": "",
          "type": "uint256"
        }
      ],
      "stateMutability": "view",
      "type": "function"
    },
    {
      "inputs": [],
      "name": "maxSupply",
      "outputs": [
        {
          "internalType": "uint256",
          "name": "",
          "type": "uint256"
        }
      ],
      "stateMutability": "view",
      "type": "function"
    },
    {
      "inputs": [
        {
          "internalType": "uint256",
          "name": "_amount",
          "type": "uint256"
        }
      ],
      "name": "mint",
      "outputs": [],
      "stateMutability": "payable",
      "type": "function"
    },
    {
      "inputs": [],
      "name": "mintCost",
      "outputs": [
        {
          "internalType": "uint256",
          "name": "",
          "type": "uint256"
        }
      ],
      "stateMutability": "view",
      "type": "function"
    },
    {
      "inputs": [],
      "name": "name",
      "outputs": [
        {
          "internalType": "string",
          "name": "",
          "type": "string"
        }
      ],
      "stateMutability": "view",
      "type": "function"
    },
    {
      "inputs": [],
      "name": "owner",
      "outputs": [
        {
          "internalType": "address",
          "name": "",
          "type": "address"
        }
      ],
      "stateMutability": "view",
      "type": "function"
    },
    {
      "inputs": [
        {
          "internalType": "uint256",
          "name": "tokenId",
          "type": "uint256"
        }
      ],
      "name": "ownerOf",
      "outputs": [
        {
          "internalType": "address",
          "name": "",
          "type": "address"
        }
      ],
      "stateMutability": "view",
      "type": "function"
    },
    {
      "inputs": [],
      "name": "pendingReveal",
      "outputs": [
        {
          "internalType": "bool",
          "name": "",
          "type": "bool"
        }
      ],
      "stateMutability": "view",
      "type": "function"
    },
    {
      "inputs": [
        {
          "internalType": "bytes",
          "name": "",
          "type": "bytes"
        }
      ],
      "name": "performUpkeep",
      "outputs": [],
      "stateMutability": "nonpayable",
      "type": "function"
    },
    {
      "inputs": [
        {
          "internalType": "uint256",
          "name": "requestId",
          "type": "uint256"
        },
        {
          "internalType": "uint256[]",
          "name": "randomWords",
          "type": "uint256[]"
        }
      ],
      "name": "rawFulfillRandomWords",
      "outputs": [],
      "stateMutability": "nonpayable",
      "type": "function"
    },
    {
      "inputs": [],
      "name": "renounceOwnership",
      "outputs": [],
      "stateMutability": "nonpayable",
      "type": "function"
    },
    {
      "inputs": [],
      "name": "revealPendingMetadata",
      "outputs": [
        {
          "internalType": "uint256",
          "name": "requestId",
          "type": "uint256"
        }
      ],
      "stateMutability": "nonpayable",
      "type": "function"
    },
    {
      "inputs": [],
      "name": "revealedCount",
      "outputs": [
        {
          "internalType": "uint256",
          "name": "",
          "type": "uint256"
        }
      ],
      "stateMutability": "view",
      "type": "function"
    },
    {
      "inputs": [],
      "name": "revealedInterval",
      "outputs": [
        {
          "internalType": "uint256",
          "name": "",
          "type": "uint256"
        }
      ],
      "stateMutability": "view",
      "type": "function"
    },
    {
      "inputs": [
        {
          "internalType": "address",
          "name": "from",
          "type": "address"
        },
        {
          "internalType": "address",
          "name": "to",
          "type": "address"
        },
        {
          "internalType": "uint256",
          "name": "tokenId",
          "type": "uint256"
        }
      ],
      "name": "safeTransferFrom",
      "outputs": [],
      "stateMutability": "nonpayable",
      "type": "function"
    },
    {
      "inputs": [
        {
          "internalType": "address",
          "name": "from",
          "type": "address"
        },
        {
          "internalType": "address",
          "name": "to",
          "type": "address"
        },
        {
          "internalType": "uint256",
          "name": "tokenId",
          "type": "uint256"
        },
        {
          "internalType": "bytes",
          "name": "_data",
          "type": "bytes"
        }
      ],
      "name": "safeTransferFrom",
      "outputs": [],
      "stateMutability": "nonpayable",
      "type": "function"
    },
    {
      "inputs": [
        {
          "internalType": "address",
          "name": "operator",
          "type": "address"
        },
        {
          "internalType": "bool",
          "name": "approved",
          "type": "bool"
        }
      ],
      "name": "setApprovalForAll",
      "outputs": [],
      "stateMutability": "nonpayable",
      "type": "function"
    },
    {
      "inputs": [
        {
          "internalType": "uint256",
          "name": "_revealBatchSize",
          "type": "uint256"
        }
      ],
      "name": "setRevealBatchSize",
      "outputs": [],
      "stateMutability": "nonpayable",
      "type": "function"
    },
    {
      "inputs": [
        {
          "internalType": "uint256",
          "name": "_revealInterval",
          "type": "uint256"
        }
      ],
      "name": "setRevealInterval",
      "outputs": [],
      "stateMutability": "nonpayable",
      "type": "function"
    },
    {
      "inputs": [
        {
          "internalType": "string",
          "name": "str",
          "type": "string"
        },
        {
          "internalType": "uint256",
          "name": "startIndex",
          "type": "uint256"
        },
        {
          "internalType": "uint256",
          "name": "endIndex",
          "type": "uint256"
        }
      ],
      "name": "substring",
      "outputs": [
        {
          "internalType": "string",
          "name": "",
          "type": "string"
        }
      ],
      "stateMutability": "pure",
      "type": "function"
    },
    {
      "inputs": [
        {
          "internalType": "bytes4",
          "name": "interfaceId",
          "type": "bytes4"
        }
      ],
      "name": "supportsInterface",
      "outputs": [
        {
          "internalType": "bool",
          "name": "",
          "type": "bool"
        }
      ],
      "stateMutability": "view",
      "type": "function"
    },
    {
      "inputs": [],
      "name": "symbol",
      "outputs": [
        {
          "internalType": "string",
          "name": "",
          "type": "string"
        }
      ],
      "stateMutability": "view",
      "type": "function"
    },
    {
      "inputs": [
        {
          "internalType": "uint256",
          "name": "index",
          "type": "uint256"
        }
      ],
      "name": "tokenByIndex",
      "outputs": [
        {
          "internalType": "uint256",
          "name": "",
          "type": "uint256"
        }
      ],
      "stateMutability": "view",
      "type": "function"
    },
    {
      "inputs": [
        {
          "internalType": "address",
          "name": "owner",
          "type": "address"
        },
        {
          "internalType": "uint256",
          "name": "index",
          "type": "uint256"
        }
      ],
      "name": "tokenOfOwnerByIndex",
      "outputs": [
        {
          "internalType": "uint256",
          "name": "",
          "type": "uint256"
        }
      ],
      "stateMutability": "view",
      "type": "function"
    },
    {
      "inputs": [
        {
          "internalType": "uint256",
          "name": "tokenId",
          "type": "uint256"
        }
      ],
      "name": "tokenURI",
      "outputs": [
        {
          "internalType": "string",
          "name": "",
          "type": "string"
        }
      ],
      "stateMutability": "view",
      "type": "function"
    },
    {
      "inputs": [],
      "name": "totalSupply",
      "outputs": [
        {
          "internalType": "uint256",
          "name": "",
          "type": "uint256"
        }
      ],
      "stateMutability": "view",
      "type": "function"
    },
    {
      "inputs": [
        {
          "internalType": "address",
          "name": "from",
          "type": "address"
        },
        {
          "internalType": "address",
          "name": "to",
          "type": "address"
        },
        {
          "internalType": "uint256",
          "name": "tokenId",
          "type": "uint256"
        }
      ],
      "name": "transferFrom",
      "outputs": [],
      "stateMutability": "nonpayable",
      "type": "function"
    },
    {
      "inputs": [
        {
          "internalType": "address",
          "name": "newOwner",
          "type": "address"
        }
      ],
      "name": "transferOwnership",
      "outputs": [],
      "stateMutability": "nonpayable",
      "type": "function"
    },
    {
      "inputs": [],
      "name": "withdrawProceeds",
      "outputs": [],
      "stateMutability": "nonpayable",
      "type": "function"
    }
  ],
  "bytecode": "0x61016060405242600e553480156200001657600080fd5b5060405162005e3c38038062005e3c83398181016040528101906200003c9190620003d2565b838a8a6200005f620000536200017160201b60201c565b6200017960201b60201c565b8160019080519060200190620000779291906200023d565b508060029080519060200190620000909291906200023d565b5050508073ffffffffffffffffffffffffffffffffffffffff1660808173ffffffffffffffffffffffffffffffffffffffff1660601b81525050508760a081815250508660c081815250508373ffffffffffffffffffffffffffffffffffffffff1660e08173ffffffffffffffffffffffffffffffffffffffff1660601b815250508267ffffffffffffffff166101008167ffffffffffffffff1660c01b815250508161012081815250508063ffffffff166101408163ffffffff1660e01b8152505085600c8190555084600d819055505050505050505050505062000752565b600033905090565b60008060009054906101000a900473ffffffffffffffffffffffffffffffffffffffff169050816000806101000a81548173ffffffffffffffffffffffffffffffffffffffff021916908373ffffffffffffffffffffffffffffffffffffffff1602179055508173ffffffffffffffffffffffffffffffffffffffff168173ffffffffffffffffffffffffffffffffffffffff167f8be0079c531659141344cd1fd0a4f28419497f9722a3daafe3b4186f6b6457e060405160405180910390a35050565b8280546200024b90620005f5565b90600052602060002090601f0160209004810192826200026f5760008555620002bb565b82601f106200028a57805160ff1916838001178555620002bb565b82800160010185558215620002bb579182015b82811115620002ba5782518255916020019190600101906200029d565b5b509050620002ca9190620002ce565b5090565b5b80821115620002e9576000816000905550600101620002cf565b5090565b600062000304620002fe846200051d565b620004f4565b9050828152602081018484840111156200031d57600080fd5b6200032a848285620005bf565b509392505050565b6000815190506200034381620006d0565b92915050565b6000815190506200035a81620006ea565b92915050565b600082601f8301126200037257600080fd5b815162000384848260208601620002ed565b91505092915050565b6000815190506200039e8162000704565b92915050565b600081519050620003b5816200071e565b92915050565b600081519050620003cc8162000738565b92915050565b6000806000806000806000806000806101408b8d031215620003f357600080fd5b60008b015167ffffffffffffffff8111156200040e57600080fd5b6200041c8d828e0162000360565b9a505060208b015167ffffffffffffffff8111156200043a57600080fd5b620004488d828e0162000360565b99505060406200045b8d828e016200038d565b98505060606200046e8d828e016200038d565b9750506080620004818d828e016200038d565b96505060a0620004948d828e016200038d565b95505060c0620004a78d828e0162000332565b94505060e0620004ba8d828e01620003bb565b935050610100620004ce8d828e0162000349565b925050610120620004e28d828e01620003a4565b9150509295989b9194979a5092959850565b60006200050062000513565b90506200050e82826200062b565b919050565b6000604051905090565b600067ffffffffffffffff8211156200053b576200053a62000690565b5b6200054682620006bf565b9050602081019050919050565b6000620005608262000571565b9050919050565b6000819050919050565b600073ffffffffffffffffffffffffffffffffffffffff82169050919050565b6000819050919050565b600063ffffffff82169050919050565b600067ffffffffffffffff82169050919050565b60005b83811015620005df578082015181840152602081019050620005c2565b83811115620005ef576000848401525b50505050565b600060028204905060018216806200060e57607f821691505b6020821081141562000625576200062462000661565b5b50919050565b6200063682620006bf565b810181811067ffffffffffffffff8211171562000658576200065762000690565b5b80604052505050565b7f4e487b7100000000000000000000000000000000000000000000000000000000600052602260045260246000fd5b7f4e487b7100000000000000000000000000000000000000000000000000000000600052604160045260246000fd5b6000601f19601f8301169050919050565b620006db8162000553565b8114620006e757600080fd5b50565b620006f58162000567565b81146200070157600080fd5b50565b6200070f8162000591565b81146200071b57600080fd5b50565b62000729816200059b565b81146200073557600080fd5b50565b6200074381620005ab565b81146200074f57600080fd5b50565b60805160601c60a05160c05160e05160601c6101005160c01c610120516101405160e01c61566e620007ce600039600061145f0152600061141b0152600061143c015260006113df0152600081816115f801526117a1015260008181611592015261180a015260008181610c7a0152610cce015261566e6000f3fe6080604052600436106102045760003560e01c8063715018a611610118578063aaae4e23116100a0578063c87b56dd1161006f578063c87b56dd1461075b578063d5abeb0114610798578063e985e9c5146107c3578063f2fde38b14610800578063f4daaba11461082957610204565b8063aaae4e23146106b3578063b88d4fde146106dc578063bbd78e9314610705578063bdb4b8481461073057610204565b80639038e693116100e75780639038e6931461060157806395d89b411461061857806396634a4014610643578063a0712d681461066e578063a22cb4651461068a57610204565b8063715018a614610569578063777accbb146105805780637b4fab5a146105ab5780638da5cb5b146105d657610204565b80632f745c591161019b5780634f6ccce71161016a5780634f6ccce71461044b5780635c65d81f146104885780636352211e146104b15780636e04ff0d146104ee57806370a082311461052c57610204565b80632f745c591461039157806336bee6d6146103ce57806342842e0e146103f95780634585e33b1461042257610204565b806318160ddd116101d757806318160ddd146102d75780631dcd9b55146103025780631fe543e31461033f57806323b872dd1461036857610204565b806301ffc9a71461020957806306fdde0314610246578063081812fc14610271578063095ea7b3146102ae575b600080fd5b34801561021557600080fd5b50610230600480360381019061022b9190613c6d565b610854565b60405161023d9190614527565b60405180910390f35b34801561025257600080fd5b5061025b6108ce565b60405161026891906145c5565b60405180910390f35b34801561027d57600080fd5b5061029860048036038101906102939190613d6b565b610960565b6040516102a59190614497565b60405180910390f35b3480156102ba57600080fd5b506102d560048036038101906102d09190613c31565b6109e5565b005b3480156102e357600080fd5b506102ec610afd565b6040516102f99190614807565b60405180910390f35b34801561030e57600080fd5b5061032960048036038101906103249190613d04565b610b0a565b60405161033691906145c5565b60405180910390f35b34801561034b57600080fd5b5061036660048036038101906103619190613dbd565b610c78565b005b34801561037457600080fd5b5061038f600480360381019061038a9190613b2b565b610d38565b005b34801561039d57600080fd5b506103b860048036038101906103b39190613c31565b610d98565b6040516103c59190614807565b60405180910390f35b3480156103da57600080fd5b506103e3610e3d565b6040516103f09190614527565b60405180910390f35b34801561040557600080fd5b50610420600480360381019061041b9190613b2b565b610e54565b005b34801561042e57600080fd5b5061044960048036038101906104449190613cbf565b610e74565b005b34801561045757600080fd5b50610472600480360381019061046d9190613d6b565b610e81565b60405161047f9190614807565b60405180910390f35b34801561049457600080fd5b506104af60048036038101906104aa9190613d6b565b610f18565b005b3480156104bd57600080fd5b506104d860048036038101906104d39190613d6b565b610f9e565b6040516104e59190614497565b60405180910390f35b3480156104fa57600080fd5b5061051560048036038101906105109190613cbf565b611050565b604051610523929190614542565b60405180910390f35b34801561053857600080fd5b50610553600480360381019061054e9190613ac6565b611065565b6040516105609190614807565b60405180910390f35b34801561057557600080fd5b5061057e61111d565b005b34801561058c57600080fd5b506105956111a5565b6040516105a29190614807565b60405180910390f35b3480156105b757600080fd5b506105c06111af565b6040516105cd9190614807565b60405180910390f35b3480156105e257600080fd5b506105eb6111b9565b6040516105f89190614497565b60405180910390f35b34801561060d57600080fd5b506106166111e2565b005b34801561062457600080fd5b5061062d61130b565b60405161063a91906145c5565b60405180910390f35b34801561064f57600080fd5b5061065861139d565b6040516106659190614807565b60405180910390f35b61068860048036038101906106839190613d6b565b611549565b005b34801561069657600080fd5b506106b160048036038101906106ac9190613bf5565b611695565b005b3480156106bf57600080fd5b506106da60048036038101906106d59190613d6b565b6116ab565b005b3480156106e857600080fd5b5061070360048036038101906106fe9190613b7a565b611731565b005b34801561071157600080fd5b5061071a611793565b6040516107279190614807565b60405180910390f35b34801561073c57600080fd5b5061074561179d565b6040516107529190614807565b60405180910390f35b34801561076757600080fd5b50610782600480360381019061077d9190613d6b565b6117c5565b60405161078f91906145c5565b60405180910390f35b3480156107a457600080fd5b506107ad611806565b6040516107ba9190614807565b60405180910390f35b3480156107cf57600080fd5b506107ea60048036038101906107e59190613aef565b61182e565b6040516107f79190614527565b60405180910390f35b34801561080c57600080fd5b5061082760048036038101906108229190613ac6565b6118c2565b005b34801561083557600080fd5b5061083e6119ba565b60405161084b9190614807565b60405180910390f35b60007f780e9d63000000000000000000000000000000000000000000000000000000007bffffffffffffffffffffffffffffffffffffffffffffffffffffffff1916827bffffffffffffffffffffffffffffffffffffffffffffffffffffffff191614806108c757506108c6826119c4565b5b9050919050565b6060600180546108dd90614bd2565b80601f016020809104026020016040519081016040528092919081815260200182805461090990614bd2565b80156109565780601f1061092b57610100808354040283529160200191610956565b820191906000526020600020905b81548152906001019060200180831161093957829003601f168201915b5050505050905090565b600061096b82611aa6565b6109aa576040517f08c379a00000000000000000000000000000000000000000000000000000000081526004016109a190614767565b60405180910390fd5b6005600083815260200190815260200160002060009054906101000a900473ffffffffffffffffffffffffffffffffffffffff169050919050565b60006109f082610f9e565b90508073ffffffffffffffffffffffffffffffffffffffff168373ffffffffffffffffffffffffffffffffffffffff161415610a61576040517f08c379a0000000000000000000000000000000000000000000000000000000008152600401610a58906147a7565b60405180910390fd5b8073ffffffffffffffffffffffffffffffffffffffff16610a80611b12565b73ffffffffffffffffffffffffffffffffffffffff161480610aaf5750610aae81610aa9611b12565b61182e565b5b610aee576040517f08c379a0000000000000000000000000000000000000000000000000000000008152600401610ae5906146e7565b60405180910390fd5b610af88383611b1a565b505050565b6000600980549050905090565b6060600084905060008484610b1f9190614a9f565b67ffffffffffffffff811115610b5e577f4e487b7100000000000000000000000000000000000000000000000000000000600052604160045260246000fd5b6040519080825280601f01601f191660200182016040528015610b905781602001600182028036833780820191505090505b50905060008590505b84811015610c6b57828181518110610bda577f4e487b7100000000000000000000000000000000000000000000000000000000600052603260045260246000fd5b602001015160f81c60f81b828783610bf29190614a9f565b81518110610c29577f4e487b7100000000000000000000000000000000000000000000000000000000600052603260045260246000fd5b60200101907effffffffffffffffffffffffffffffffffffffffffffffffffffffffffffff1916908160001a9053508080610c6390614c35565b915050610b99565b5080925050509392505050565b7f000000000000000000000000000000000000000000000000000000000000000073ffffffffffffffffffffffffffffffffffffffff163373ffffffffffffffffffffffffffffffffffffffff1614610d2a57337f00000000000000000000000000000000000000000000000000000000000000006040517f1cf993f4000000000000000000000000000000000000000000000000000000008152600401610d219291906144b2565b60405180910390fd5b610d348282611bd3565b5050565b610d49610d43611b12565b82611c21565b610d88576040517f08c379a0000000000000000000000000000000000000000000000000000000008152600401610d7f906147c7565b60405180910390fd5b610d93838383611cff565b505050565b6000610da383611065565b8210610de4576040517f08c379a0000000000000000000000000000000000000000000000000000000008152600401610ddb906145e7565b60405180910390fd5b600760008473ffffffffffffffffffffffffffffffffffffffff1673ffffffffffffffffffffffffffffffffffffffff168152602001908152602001600020600083815260200190815260200160002054905092915050565b6000600f60009054906101000a900460ff16905090565b610e6f83838360405180602001604052806000815250611731565b505050565b610e7c61139d565b505050565b6000610e8b610afd565b8210610ecc576040517f08c379a0000000000000000000000000000000000000000000000000000000008152600401610ec3906147e7565b60405180910390fd5b60098281548110610f06577f4e487b7100000000000000000000000000000000000000000000000000000000600052603260045260246000fd5b90600052602060002001549050919050565b610f20611b12565b73ffffffffffffffffffffffffffffffffffffffff16610f3e6111b9565b73ffffffffffffffffffffffffffffffffffffffff1614610f94576040517f08c379a0000000000000000000000000000000000000000000000000000000008152600401610f8b90614787565b60405180910390fd5b80600d8190555050565b6000806003600084815260200190815260200160002060009054906101000a900473ffffffffffffffffffffffffffffffffffffffff169050600073ffffffffffffffffffffffffffffffffffffffff168173ffffffffffffffffffffffffffffffffffffffff161415611047576040517f08c379a000000000000000000000000000000000000000000000000000000000815260040161103e90614727565b60405180910390fd5b80915050919050565b6000606061105c611f66565b91509250929050565b60008073ffffffffffffffffffffffffffffffffffffffff168273ffffffffffffffffffffffffffffffffffffffff1614156110d6576040517f08c379a00000000000000000000000000000000000000000000000000000000081526004016110cd90614707565b60405180910390fd5b600460008373ffffffffffffffffffffffffffffffffffffffff1673ffffffffffffffffffffffffffffffffffffffff168152602001908152602001600020549050919050565b611125611b12565b73ffffffffffffffffffffffffffffffffffffffff166111436111b9565b73ffffffffffffffffffffffffffffffffffffffff1614611199576040517f08c379a000000000000000000000000000000000000000000000000000000000815260040161119090614787565b60405180910390fd5b6111a3600061200e565b565b6000600d54905090565b6000600e54905090565b60008060009054906101000a900473ffffffffffffffffffffffffffffffffffffffff16905090565b6111ea611b12565b73ffffffffffffffffffffffffffffffffffffffff166112086111b9565b73ffffffffffffffffffffffffffffffffffffffff161461125e576040517f08c379a000000000000000000000000000000000000000000000000000000000815260040161125590614787565b60405180910390fd5b60006112686111b9565b73ffffffffffffffffffffffffffffffffffffffff164760405161128b90614482565b60006040518083038185875af1925050503d80600081146112c8576040519150601f19603f3d011682016040523d82523d6000602084013e6112cd565b606091505b5050905080611308576040517f0ca5b23000000000000000000000000000000000000000000000000000000000815260040160405180910390fd5b50565b60606002805461131a90614bd2565b80601f016020809104026020016040519081016040528092919081815260200182805461134690614bd2565b80156113935780601f1061136857610100808354040283529160200191611393565b820191906000526020600020905b81548152906001019060200180831161137657829003601f168201915b5050505050905090565b60006113a7611f66565b6113dd576040517f4e628ebc00000000000000000000000000000000000000000000000000000000815260040160405180910390fd5b7f000000000000000000000000000000000000000000000000000000000000000073ffffffffffffffffffffffffffffffffffffffff16635d3b1d307f00000000000000000000000000000000000000000000000000000000000000007f000000000000000000000000000000000000000000000000000000000000000060037f000000000000000000000000000000000000000000000000000000000000000060016040518663ffffffff1660e01b81526004016114a0959493929190614572565b602060405180830381600087803b1580156114ba57600080fd5b505af11580156114ce573d6000803e3d6000fd5b505050506040513d601f19601f820116820180604052508101906114f29190613d94565b90506001600f60006101000a81548160ff0219169083151502179055507f8d83bdd6db199ff596cec09ea8e4f4e50da2dcb4020bc2a1cf072c507056b1ea8160405161153e9190614807565b60405180910390a190565b6000611553610afd565b90506000821415611590576040517f2c5211c600000000000000000000000000000000000000000000000000000000815260040160405180910390fd5b7f000000000000000000000000000000000000000000000000000000000000000082826115bd919061494c565b11156115f5576040517fd05cb60900000000000000000000000000000000000000000000000000000000815260040160405180910390fd5b817f00000000000000000000000000000000000000000000000000000000000000006116219190614a0a565b34101561165a576040517f356680b700000000000000000000000000000000000000000000000000000000815260040160405180910390fd5b6000600190505b8281116116905761167d338284611678919061494c565b6120d2565b808061168890614c35565b915050611661565b505050565b6116a76116a0611b12565b83836120f0565b5050565b6116b3611b12565b73ffffffffffffffffffffffffffffffffffffffff166116d16111b9565b73ffffffffffffffffffffffffffffffffffffffff1614611727576040517f08c379a000000000000000000000000000000000000000000000000000000000815260040161171e90614787565b60405180910390fd5b80600c8190555050565b61174261173c611b12565b83611c21565b611781576040517f08c379a0000000000000000000000000000000000000000000000000000000008152600401611778906147c7565b60405180910390fd5b61178d8484848461225d565b50505050565b6000600b54905090565b60007f0000000000000000000000000000000000000000000000000000000000000000905090565b60606000806117d3846122b9565b9150915060006117e3838361240d565b905060006117f082612a43565b90506117fb81612ad6565b945050505050919050565b60007f0000000000000000000000000000000000000000000000000000000000000000905090565b6000600660008473ffffffffffffffffffffffffffffffffffffffff1673ffffffffffffffffffffffffffffffffffffffff16815260200190815260200160002060008373ffffffffffffffffffffffffffffffffffffffff1673ffffffffffffffffffffffffffffffffffffffff16815260200190815260200160002060009054906101000a900460ff16905092915050565b6118ca611b12565b73ffffffffffffffffffffffffffffffffffffffff166118e86111b9565b73ffffffffffffffffffffffffffffffffffffffff161461193e576040517f08c379a000000000000000000000000000000000000000000000000000000000815260040161193590614787565b60405180910390fd5b600073ffffffffffffffffffffffffffffffffffffffff168173ffffffffffffffffffffffffffffffffffffffff1614156119ae576040517f08c379a00000000000000000000000000000000000000000000000000000000081526004016119a590614627565b60405180910390fd5b6119b78161200e565b50565b6000600c54905090565b60007f80ac58cd000000000000000000000000000000000000000000000000000000007bffffffffffffffffffffffffffffffffffffffffffffffffffffffff1916827bffffffffffffffffffffffffffffffffffffffffffffffffffffffff19161480611a8f57507f5b5e139f000000000000000000000000000000000000000000000000000000007bffffffffffffffffffffffffffffffffffffffffffffffffffffffff1916827bffffffffffffffffffffffffffffffffffffffffffffffffffffffff1916145b80611a9f5750611a9e82612b26565b5b9050919050565b60008073ffffffffffffffffffffffffffffffffffffffff166003600084815260200190815260200160002060009054906101000a900473ffffffffffffffffffffffffffffffffffffffff1673ffffffffffffffffffffffffffffffffffffffff1614159050919050565b600033905090565b816005600083815260200190815260200160002060006101000a81548173ffffffffffffffffffffffffffffffffffffffff021916908373ffffffffffffffffffffffffffffffffffffffff160217905550808273ffffffffffffffffffffffffffffffffffffffff16611b8d83610f9e565b73ffffffffffffffffffffffffffffffffffffffff167f8c5be1e5ebec7d5bd14f71427d1e84f3dd0314c0f7b2291e5b200ac8c7c3b92560405160405180910390a45050565b611c1d81600081518110611c10577f4e487b7100000000000000000000000000000000000000000000000000000000600052603260045260246000fd5b6020026020010151612b90565b5050565b6000611c2c82611aa6565b611c6b576040517f08c379a0000000000000000000000000000000000000000000000000000000008152600401611c62906146c7565b60405180910390fd5b6000611c7683610f9e565b90508073ffffffffffffffffffffffffffffffffffffffff168473ffffffffffffffffffffffffffffffffffffffff161480611cb85750611cb7818561182e565b5b80611cf657508373ffffffffffffffffffffffffffffffffffffffff16611cde84610960565b73ffffffffffffffffffffffffffffffffffffffff16145b91505092915050565b8273ffffffffffffffffffffffffffffffffffffffff16611d1f82610f9e565b73ffffffffffffffffffffffffffffffffffffffff1614611d75576040517f08c379a0000000000000000000000000000000000000000000000000000000008152600401611d6c90614647565b60405180910390fd5b600073ffffffffffffffffffffffffffffffffffffffff168273ffffffffffffffffffffffffffffffffffffffff161415611de5576040517f08c379a0000000000000000000000000000000000000000000000000000000008152600401611ddc90614687565b60405180910390fd5b611df0838383612c8e565b611dfb600082611b1a565b6001600460008573ffffffffffffffffffffffffffffffffffffffff1673ffffffffffffffffffffffffffffffffffffffff1681526020019081526020016000206000828254611e4b9190614a9f565b925050819055506001600460008473ffffffffffffffffffffffffffffffffffffffff1673ffffffffffffffffffffffffffffffffffffffff1681526020019081526020016000206000828254611ea2919061494c565b92505081905550816003600083815260200190815260200160002060006101000a81548173ffffffffffffffffffffffffffffffffffffffff021916908373ffffffffffffffffffffffffffffffffffffffff160217905550808273ffffffffffffffffffffffffffffffffffffffff168473ffffffffffffffffffffffffffffffffffffffff167fddf252ad1be2c89b69c2b068fc378daa952ba7f163c4a11628f55a4df523b3ef60405160405180910390a4611f61838383612da2565b505050565b6000600f60009054906101000a900460ff1615611f86576000905061200b565b6000600b54611f93610afd565b611f9d9190614a9f565b90506000811415611fb257600091505061200b565b600080600c54118015611fc75750600c548210155b15611fd157600190505b600080600d54118015611ff25750600d54600e5442611ff09190614a9f565b115b15611ffc57600190505b81806120055750805b93505050505b90565b60008060009054906101000a900473ffffffffffffffffffffffffffffffffffffffff169050816000806101000a81548173ffffffffffffffffffffffffffffffffffffffff021916908373ffffffffffffffffffffffffffffffffffffffff1602179055508173ffffffffffffffffffffffffffffffffffffffff168173ffffffffffffffffffffffffffffffffffffffff167f8be0079c531659141344cd1fd0a4f28419497f9722a3daafe3b4186f6b6457e060405160405180910390a35050565b6120ec828260405180602001604052806000815250612da7565b5050565b8173ffffffffffffffffffffffffffffffffffffffff168373ffffffffffffffffffffffffffffffffffffffff16141561215f576040517f08c379a0000000000000000000000000000000000000000000000000000000008152600401612156906146a7565b60405180910390fd5b80600660008573ffffffffffffffffffffffffffffffffffffffff1673ffffffffffffffffffffffffffffffffffffffff16815260200190815260200160002060008473ffffffffffffffffffffffffffffffffffffffff1673ffffffffffffffffffffffffffffffffffffffff16815260200190815260200160002060006101000a81548160ff0219169083151502179055508173ffffffffffffffffffffffffffffffffffffffff168373ffffffffffffffffffffffffffffffffffffffff167f17307eab39ab6107e8899845ad3d59bd9653f200f220920489ca2b5937696c31836040516122509190614527565b60405180910390a3505050565b612268848484611cff565b61227484848484612e02565b6122b3576040517f08c379a00000000000000000000000000000000000000000000000000000000081526004016122aa90614607565b60405180910390fd5b50505050565b60008060005b6010805490508110156124075760108181548110612306577f4e487b7100000000000000000000000000000000000000000000000000000000600052603260045260246000fd5b906000526020600020906003020160000154841015801561237157506010818154811061235c577f4e487b7100000000000000000000000000000000000000000000000000000000600052603260045260246000fd5b90600052602060002090600302016001015484105b156123f457601081815481106123b0577f4e487b7100000000000000000000000000000000000000000000000000000000600052603260045260246000fd5b906000526020600020906003020160020154846040516020016123d4929190614822565b6040516020818303038152906040528051906020012060001c9250600191505b80806123ff90614c35565b9150506122bf565b50915091565b606061241761384a565b6040518060a00160405280606281526020016154fa606291398160006004811061246a577f4e487b7100000000000000000000000000000000000000000000000000000000600052603260045260246000fd5b602002018190525082156127d0576040518060c00160405280608d815260200161546d608d9139816001600481106124cb577f4e487b7100000000000000000000000000000000000000000000000000000000600052603260045260246000fd5b60200201819052506124db613871565b60006124e686612f99565b905060005b60078160ff1610156125a857600061252e83600b8461250a9190614a64565b60ff16600b60018661251c91906149a2565b6125269190614a64565b60ff16610b0a565b90508060405160200161254191906143cf565b604051602081830303815290604052848360ff166007811061258c577f4e487b7100000000000000000000000000000000000000000000000000000000600052603260045260246000fd5b60200201819052505080806125a090614c7e565b9150506124eb565b50816000600781106125e3577f4e487b7100000000000000000000000000000000000000000000000000000000600052603260045260246000fd5b602002015182600160078110612622577f4e487b7100000000000000000000000000000000000000000000000000000000600052603260045260246000fd5b602002015183600260078110612661577f4e487b7100000000000000000000000000000000000000000000000000000000600052603260045260246000fd5b6020020151846003600781106126a0577f4e487b7100000000000000000000000000000000000000000000000000000000600052603260045260246000fd5b6020020151856004600781106126df577f4e487b7100000000000000000000000000000000000000000000000000000000600052603260045260246000fd5b60200201518660056007811061271e577f4e487b7100000000000000000000000000000000000000000000000000000000600052603260045260246000fd5b60200201518760066007811061275d577f4e487b7100000000000000000000000000000000000000000000000000000000600052603260045260246000fd5b6020020151604051602001612778979695949392919061436a565b604051602081830303815290604052836002600481106127c1577f4e487b7100000000000000000000000000000000000000000000000000000000600052603260045260246000fd5b602002018190525050506128a4565b6040518060c00160405280609d815260200161559c609d913981600160048110612823577f4e487b7100000000000000000000000000000000000000000000000000000000600052603260045260246000fd5b60200201819052506040518060400160405280600181526020017f3f000000000000000000000000000000000000000000000000000000000000008152508160026004811061289b577f4e487b7100000000000000000000000000000000000000000000000000000000600052603260045260246000fd5b60200201819052505b6040518060400160405280600d81526020017f3c2f746578743e3c2f7376673e0000000000000000000000000000000000000081525081600360048110612914577f4e487b7100000000000000000000000000000000000000000000000000000000600052603260045260246000fd5b602002018190525080600060048110612956577f4e487b7100000000000000000000000000000000000000000000000000000000600052603260045260246000fd5b602002015181600160048110612995577f4e487b7100000000000000000000000000000000000000000000000000000000600052603260045260246000fd5b6020020151826002600481106129d4577f4e487b7100000000000000000000000000000000000000000000000000000000600052603260045260246000fd5b602002015183600360048110612a13577f4e487b7100000000000000000000000000000000000000000000000000000000600052603260045260246000fd5b6020020151604051602001612a2b949392919061432c565b60405160208183030381529060405291505092915050565b606060006040518060400160405280601a81526020017f646174613a696d6167652f7376672b786d6c3b6261736536342c00000000000081525090506000612aa984604051602001612a9591906142f1565b604051602081830303815290604052613146565b90508181604051602001612abe929190614308565b60405160208183030381529060405292505050919050565b6060612b0082604051602001612aec91906143fc565b604051602081830303815290604052613146565b604051602001612b109190614460565b6040516020818303038152906040529050919050565b60007f01ffc9a7000000000000000000000000000000000000000000000000000000007bffffffffffffffffffffffffffffffffffffffffffffffffffffffff1916827bffffffffffffffffffffffffffffffffffffffffffffffffffffffff1916149050919050565b6000612b9a610afd565b905060006001600b54612bad919061494c565b90506000600183612bbe919061494c565b905060106040518060600160405280848152602001838152602001868152509080600181540180825580915050600190039060005260206000209060030201600090919091909150600082015181600001556020820151816001015560408201518160020155505082600b8190555042600e819055506000600f60006101000a81548160ff0219169083151502179055507fa39d9410abe7578bfbf71501989f175c50a6950b6595718dd8092474541c889b8282604051612c80929190614822565b60405180910390a150505050565b612c998383836132d0565b600073ffffffffffffffffffffffffffffffffffffffff168373ffffffffffffffffffffffffffffffffffffffff161415612cdc57612cd7816132d5565b612d1b565b8173ffffffffffffffffffffffffffffffffffffffff168373ffffffffffffffffffffffffffffffffffffffff1614612d1a57612d19838261331e565b5b5b600073ffffffffffffffffffffffffffffffffffffffff168273ffffffffffffffffffffffffffffffffffffffff161415612d5e57612d598161348b565b612d9d565b8273ffffffffffffffffffffffffffffffffffffffff168273ffffffffffffffffffffffffffffffffffffffff1614612d9c57612d9b82826135ce565b5b5b505050565b505050565b612db1838361364d565b612dbe6000848484612e02565b612dfd576040517f08c379a0000000000000000000000000000000000000000000000000000000008152600401612df490614607565b60405180910390fd5b505050565b6000612e238473ffffffffffffffffffffffffffffffffffffffff16613827565b15612f8c578373ffffffffffffffffffffffffffffffffffffffff1663150b7a02612e4c611b12565b8786866040518563ffffffff1660e01b8152600401612e6e94939291906144db565b602060405180830381600087803b158015612e8857600080fd5b505af1925050508015612eb957506040513d601f19601f82011682018060405250810190612eb69190613c96565b60015b612f3c573d8060008114612ee9576040519150601f19603f3d011682016040523d82523d6000602084013e612eee565b606091505b50600081511415612f34576040517f08c379a0000000000000000000000000000000000000000000000000000000008152600401612f2b90614607565b60405180910390fd5b805181602001fd5b63150b7a0260e01b7bffffffffffffffffffffffffffffffffffffffffffffffffffffffff1916817bffffffffffffffffffffffffffffffffffffffffffffffffffffffff191614915050612f91565b600190505b949350505050565b60606000821415612fe1576040518060400160405280600181526020017f30000000000000000000000000000000000000000000000000000000000000008152509050613141565b600082905060005b60008214613013578080612ffc90614c35565b915050600a8261300c91906149d9565b9150612fe9565b60008167ffffffffffffffff811115613055577f4e487b7100000000000000000000000000000000000000000000000000000000600052604160045260246000fd5b6040519080825280601f01601f1916602001820160405280156130875781602001600182028036833780820191505090505b5090505b6000851461313a576001826130a09190614a9f565b9150600a856130af9190614ca8565b60306130bb919061494c565b60f81b8183815181106130f7577f4e487b7100000000000000000000000000000000000000000000000000000000600052603260045260246000fd5b60200101907effffffffffffffffffffffffffffffffffffffffffffffffffffffffffffff1916908160001a905350600a8561313391906149d9565b945061308b565b8093505050505b919050565b6060600082511415613169576040518060200160405280600081525090506132cb565b600060405180606001604052806040815260200161555c6040913990506000600360028551613198919061494c565b6131a291906149d9565b60046131ae9190614a0a565b67ffffffffffffffff8111156131ed577f4e487b7100000000000000000000000000000000000000000000000000000000600052604160045260246000fd5b6040519080825280601f01601f19166020018201604052801561321f5781602001600182028036833780820191505090505b509050600182016020820185865187015b8082101561328b576003820191508151603f8160121c168501518453600184019350603f81600c1c168501518453600184019350603f8160061c168501518453600184019350603f8116850151845360018401935050613230565b50506003865106600181146132a757600281146132ba576132c2565b603d6001830353603d60028303536132c2565b603d60018303535b50505080925050505b919050565b505050565b600980549050600a600083815260200190815260200160002081905550600981908060018154018082558091505060019003906000526020600020016000909190919091505550565b6000600161332b84611065565b6133359190614a9f565b905060006008600084815260200190815260200160002054905081811461341a576000600760008673ffffffffffffffffffffffffffffffffffffffff1673ffffffffffffffffffffffffffffffffffffffff168152602001908152602001600020600084815260200190815260200160002054905080600760008773ffffffffffffffffffffffffffffffffffffffff1673ffffffffffffffffffffffffffffffffffffffff168152602001908152602001600020600084815260200190815260200160002081905550816008600083815260200190815260200160002081905550505b6008600084815260200190815260200160002060009055600760008573ffffffffffffffffffffffffffffffffffffffff1673ffffffffffffffffffffffffffffffffffffffff16815260200190815260200160002060008381526020019081526020016000206000905550505050565b6000600160098054905061349f9190614a9f565b90506000600a60008481526020019081526020016000205490506000600983815481106134f5577f4e487b7100000000000000000000000000000000000000000000000000000000600052603260045260246000fd5b90600052602060002001549050806009838154811061353d577f4e487b7100000000000000000000000000000000000000000000000000000000600052603260045260246000fd5b906000526020600020018190555081600a600083815260200190815260200160002081905550600a60008581526020019081526020016000206000905560098054806135b2577f4e487b7100000000000000000000000000000000000000000000000000000000600052603160045260246000fd5b6001900381819060005260206000200160009055905550505050565b60006135d983611065565b905081600760008573ffffffffffffffffffffffffffffffffffffffff1673ffffffffffffffffffffffffffffffffffffffff168152602001908152602001600020600083815260200190815260200160002081905550806008600084815260200190815260200160002081905550505050565b600073ffffffffffffffffffffffffffffffffffffffff168273ffffffffffffffffffffffffffffffffffffffff1614156136bd576040517f08c379a00000000000000000000000000000000000000000000000000000000081526004016136b490614747565b60405180910390fd5b6136c681611aa6565b15613706576040517f08c379a00000000000000000000000000000000000000000000000000000000081526004016136fd90614667565b60405180910390fd5b61371260008383612c8e565b6001600460008473ffffffffffffffffffffffffffffffffffffffff1673ffffffffffffffffffffffffffffffffffffffff1681526020019081526020016000206000828254613762919061494c565b92505081905550816003600083815260200190815260200160002060006101000a81548173ffffffffffffffffffffffffffffffffffffffff021916908373ffffffffffffffffffffffffffffffffffffffff160217905550808273ffffffffffffffffffffffffffffffffffffffff16600073ffffffffffffffffffffffffffffffffffffffff167fddf252ad1be2c89b69c2b068fc378daa952ba7f163c4a11628f55a4df523b3ef60405160405180910390a461382360008383612da2565b5050565b6000808273ffffffffffffffffffffffffffffffffffffffff163b119050919050565b60405180608001604052806004905b60608152602001906001900390816138595790505090565b6040518060e001604052806007905b60608152602001906001900390816138805790505090565b60006138ab6138a684614870565b61484b565b905080838252602082019050828560208602820111156138ca57600080fd5b60005b858110156138fa57816138e08882613a9c565b8452602084019350602083019250506001810190506138cd565b5050509392505050565b60006139176139128461489c565b61484b565b90508281526020810184848401111561392f57600080fd5b61393a848285614b90565b509392505050565b6000613955613950846148cd565b61484b565b90508281526020810184848401111561396d57600080fd5b613978848285614b90565b509392505050565b60008135905061398f81615410565b92915050565b600082601f8301126139a657600080fd5b81356139b6848260208601613898565b91505092915050565b6000813590506139ce81615427565b92915050565b6000813590506139e38161543e565b92915050565b6000815190506139f88161543e565b92915050565b60008083601f840112613a1057600080fd5b8235905067ffffffffffffffff811115613a2957600080fd5b602083019150836001820283011115613a4157600080fd5b9250929050565b600082601f830112613a5957600080fd5b8135613a69848260208601613904565b91505092915050565b600082601f830112613a8357600080fd5b8135613a93848260208601613942565b91505092915050565b600081359050613aab81615455565b92915050565b600081519050613ac081615455565b92915050565b600060208284031215613ad857600080fd5b6000613ae684828501613980565b91505092915050565b60008060408385031215613b0257600080fd5b6000613b1085828601613980565b9250506020613b2185828601613980565b9150509250929050565b600080600060608486031215613b4057600080fd5b6000613b4e86828701613980565b9350506020613b5f86828701613980565b9250506040613b7086828701613a9c565b9150509250925092565b60008060008060808587031215613b9057600080fd5b6000613b9e87828801613980565b9450506020613baf87828801613980565b9350506040613bc087828801613a9c565b925050606085013567ffffffffffffffff811115613bdd57600080fd5b613be987828801613a48565b91505092959194509250565b60008060408385031215613c0857600080fd5b6000613c1685828601613980565b9250506020613c27858286016139bf565b9150509250929050565b60008060408385031215613c4457600080fd5b6000613c5285828601613980565b9250506020613c6385828601613a9c565b9150509250929050565b600060208284031215613c7f57600080fd5b6000613c8d848285016139d4565b91505092915050565b600060208284031215613ca857600080fd5b6000613cb6848285016139e9565b91505092915050565b60008060208385031215613cd257600080fd5b600083013567ffffffffffffffff811115613cec57600080fd5b613cf8858286016139fe565b92509250509250929050565b600080600060608486031215613d1957600080fd5b600084013567ffffffffffffffff811115613d3357600080fd5b613d3f86828701613a72565b9350506020613d5086828701613a9c565b9250506040613d6186828701613a9c565b9150509250925092565b600060208284031215613d7d57600080fd5b6000613d8b84828501613a9c565b91505092915050565b600060208284031215613da657600080fd5b6000613db484828501613ab1565b91505092915050565b60008060408385031215613dd057600080fd5b6000613dde85828601613a9c565b925050602083013567ffffffffffffffff811115613dfb57600080fd5b613e0785828601613995565b9150509250929050565b613e1a81614ad3565b82525050565b613e2981614ae5565b82525050565b613e3881614af1565b82525050565b6000613e49826148fe565b613e538185614914565b9350613e63818560208601614b9f565b613e6c81614d95565b840191505092915050565b6000613e8282614909565b613e8c8185614930565b9350613e9c818560208601614b9f565b613ea581614d95565b840191505092915050565b6000613ebb82614909565b613ec58185614941565b9350613ed5818560208601614b9f565b80840191505092915050565b6000613eee602b83614930565b9150613ef982614da6565b604082019050919050565b6000613f11603283614930565b9150613f1c82614df5565b604082019050919050565b6000613f34602683614930565b9150613f3f82614e44565b604082019050919050565b6000613f57602583614930565b9150613f6282614e93565b604082019050919050565b6000613f7a601c83614930565b9150613f8582614ee2565b602082019050919050565b6000613f9d600883614941565b9150613fa882614f0b565b600882019050919050565b6000613fc0600e83614941565b9150613fcb82614f34565b600e82019050919050565b6000613fe3602483614930565b9150613fee82614f5d565b604082019050919050565b6000614006601983614930565b915061401182614fac565b602082019050919050565b6000614029602c83614930565b915061403482614fd5565b604082019050919050565b600061404c601183614941565b915061405782615024565b601182019050919050565b600061406f603883614930565b915061407a8261504d565b604082019050919050565b6000614092600183614941565b915061409d8261509c565b600182019050919050565b60006140b5602a83614930565b91506140c0826150c5565b604082019050919050565b60006140d8602983614930565b91506140e382615114565b604082019050919050565b60006140fb602583614941565b915061410682615163565b602582019050919050565b600061411e600983614941565b9150614129826151b2565b600982019050919050565b6000614141602083614930565b915061414c826151db565b602082019050919050565b6000614164600183614941565b915061416f82615204565b600182019050919050565b6000614187602c83614930565b91506141928261522d565b604082019050919050565b60006141aa601683614941565b91506141b58261527c565b601682019050919050565b60006141cd602083614930565b91506141d8826152a5565b602082019050919050565b60006141f0600183614941565b91506141fb826152ce565b600182019050919050565b6000614213602183614930565b915061421e826152f7565b604082019050919050565b6000614236601d83614941565b915061424182615346565b601d82019050919050565b6000614259600083614925565b91506142648261536f565b600082019050919050565b600061427c603183614930565b915061428782615372565b604082019050919050565b600061429f602c83614930565b91506142aa826153c1565b604082019050919050565b6142be81614b27565b82525050565b6142cd81614b55565b82525050565b6142dc81614b5f565b82525050565b6142eb81614b6f565b82525050565b60006142fd8284613eb0565b915081905092915050565b60006143148285613eb0565b91506143208284613eb0565b91508190509392505050565b60006143388287613eb0565b91506143448286613eb0565b91506143508285613eb0565b915061435c8284613eb0565b915081905095945050505050565b6000614376828a613eb0565b91506143828289613eb0565b915061438e8288613eb0565b915061439a8287613eb0565b91506143a68286613eb0565b91506143b28285613eb0565b91506143be8284613eb0565b915081905098975050505050505050565b60006143da8261419d565b91506143e68284613eb0565b91506143f182613f90565b915081905092915050565b6000614407826141e3565b915061441282613fb3565b915061441d826140ee565b91506144288261403f565b915061443382614111565b915061443f8284613eb0565b915061444a82614085565b915061445582614157565b915081905092915050565b600061446b82614229565b91506144778284613eb0565b915081905092915050565b600061448d8261424c565b9150819050919050565b60006020820190506144ac6000830184613e11565b92915050565b60006040820190506144c76000830185613e11565b6144d46020830184613e11565b9392505050565b60006080820190506144f06000830187613e11565b6144fd6020830186613e11565b61450a60408301856142c4565b818103606083015261451c8184613e3e565b905095945050505050565b600060208201905061453c6000830184613e20565b92915050565b60006040820190506145576000830185613e20565b81810360208301526145698184613e3e565b90509392505050565b600060a0820190506145876000830188613e2f565b61459460208301876142e2565b6145a160408301866142b5565b6145ae60608301856142d3565b6145bb60808301846142d3565b9695505050505050565b600060208201905081810360008301526145df8184613e77565b905092915050565b6000602082019050818103600083015261460081613ee1565b9050919050565b6000602082019050818103600083015261462081613f04565b9050919050565b6000602082019050818103600083015261464081613f27565b9050919050565b6000602082019050818103600083015261466081613f4a565b9050919050565b6000602082019050818103600083015261468081613f6d565b9050919050565b600060208201905081810360008301526146a081613fd6565b9050919050565b600060208201905081810360008301526146c081613ff9565b9050919050565b600060208201905081810360008301526146e08161401c565b9050919050565b6000602082019050818103600083015261470081614062565b9050919050565b60006020820190508181036000830152614720816140a8565b9050919050565b60006020820190508181036000830152614740816140cb565b9050919050565b6000602082019050818103600083015261476081614134565b9050919050565b600060208201905081810360008301526147808161417a565b9050919050565b600060208201905081810360008301526147a0816141c0565b9050919050565b600060208201905081810360008301526147c081614206565b9050919050565b600060208201905081810360008301526147e08161426f565b9050919050565b6000602082019050818103600083015261480081614292565b9050919050565b600060208201905061481c60008301846142c4565b92915050565b600060408201905061483760008301856142c4565b61484460208301846142c4565b9392505050565b6000614855614866565b90506148618282614c04565b919050565b6000604051905090565b600067ffffffffffffffff82111561488b5761488a614d66565b5b602082029050602081019050919050565b600067ffffffffffffffff8211156148b7576148b6614d66565b5b6148c082614d95565b9050602081019050919050565b600067ffffffffffffffff8211156148e8576148e7614d66565b5b6148f182614d95565b9050602081019050919050565b600081519050919050565b600081519050919050565b600082825260208201905092915050565b600081905092915050565b600082825260208201905092915050565b600081905092915050565b600061495782614b55565b915061496283614b55565b9250827fffffffffffffffffffffffffffffffffffffffffffffffffffffffffffffffff0382111561499757614996614cd9565b5b828201905092915050565b60006149ad82614b83565b91506149b883614b83565b92508260ff038211156149ce576149cd614cd9565b5b828201905092915050565b60006149e482614b55565b91506149ef83614b55565b9250826149ff576149fe614d08565b5b828204905092915050565b6000614a1582614b55565b9150614a2083614b55565b9250817fffffffffffffffffffffffffffffffffffffffffffffffffffffffffffffffff0483118215151615614a5957614a58614cd9565b5b828202905092915050565b6000614a6f82614b83565b9150614a7a83614b83565b92508160ff0483118215151615614a9457614a93614cd9565b5b828202905092915050565b6000614aaa82614b55565b9150614ab583614b55565b925082821015614ac857614ac7614cd9565b5b828203905092915050565b6000614ade82614b35565b9050919050565b60008115159050919050565b6000819050919050565b60007fffffffff0000000000000000000000000000000000000000000000000000000082169050919050565b600061ffff82169050919050565b600073ffffffffffffffffffffffffffffffffffffffff82169050919050565b6000819050919050565b600063ffffffff82169050919050565b600067ffffffffffffffff82169050919050565b600060ff82169050919050565b82818337600083830152505050565b60005b83811015614bbd578082015181840152602081019050614ba2565b83811115614bcc576000848401525b50505050565b60006002820490506001821680614bea57607f821691505b60208210811415614bfe57614bfd614d37565b5b50919050565b614c0d82614d95565b810181811067ffffffffffffffff82111715614c2c57614c2b614d66565b5b80604052505050565b6000614c4082614b55565b91507fffffffffffffffffffffffffffffffffffffffffffffffffffffffffffffffff821415614c7357614c72614cd9565b5b600182019050919050565b6000614c8982614b83565b915060ff821415614c9d57614c9c614cd9565b5b600182019050919050565b6000614cb382614b55565b9150614cbe83614b55565b925082614cce57614ccd614d08565b5b828206905092915050565b7f4e487b7100000000000000000000000000000000000000000000000000000000600052601160045260246000fd5b7f4e487b7100000000000000000000000000000000000000000000000000000000600052601260045260246000fd5b7f4e487b7100000000000000000000000000000000000000000000000000000000600052602260045260246000fd5b7f4e487b7100000000000000000000000000000000000000000000000000000000600052604160045260246000fd5b6000601f19601f8301169050919050565b7f455243373231456e756d657261626c653a206f776e657220696e646578206f7560008201527f74206f6620626f756e6473000000000000000000000000000000000000000000602082015250565b7f4552433732313a207472616e7366657220746f206e6f6e20455243373231526560008201527f63656976657220696d706c656d656e7465720000000000000000000000000000602082015250565b7f4f776e61626c653a206e6577206f776e657220697320746865207a65726f206160008201527f6464726573730000000000000000000000000000000000000000000000000000602082015250565b7f4552433732313a207472616e736665722066726f6d20696e636f72726563742060008201527f6f776e6572000000000000000000000000000000000000000000000000000000602082015250565b7f4552433732313a20746f6b656e20616c7265616479206d696e74656400000000600082015250565b7f3c2f747370616e3e000000000000000000000000000000000000000000000000600082015250565b7f226e616d65223a224e4654222c20000000000000000000000000000000000000600082015250565b7f4552433732313a207472616e7366657220746f20746865207a65726f2061646460008201527f7265737300000000000000000000000000000000000000000000000000000000602082015250565b7f4552433732313a20617070726f766520746f2063616c6c657200000000000000600082015250565b7f4552433732313a206f70657261746f7220717565727920666f72206e6f6e657860008201527f697374656e7420746f6b656e0000000000000000000000000000000000000000602082015250565b7f2261747472696275746573223a22222c20000000000000000000000000000000600082015250565b7f4552433732313a20617070726f76652063616c6c6572206973206e6f74206f7760008201527f6e6572206e6f7220617070726f76656420666f7220616c6c0000000000000000602082015250565b7f2200000000000000000000000000000000000000000000000000000000000000600082015250565b7f4552433732313a2062616c616e636520717565727920666f7220746865207a6560008201527f726f206164647265737300000000000000000000000000000000000000000000602082015250565b7f4552433732313a206f776e657220717565727920666f72206e6f6e657869737460008201527f656e7420746f6b656e0000000000000000000000000000000000000000000000602082015250565b7f226465736372697074696f6e223a2242617463682d72657665616c6564204e4660008201527f5421222c20000000000000000000000000000000000000000000000000000000602082015250565b7f22696d616765223a220000000000000000000000000000000000000000000000600082015250565b7f4552433732313a206d696e7420746f20746865207a65726f2061646472657373600082015250565b7f7d00000000000000000000000000000000000000000000000000000000000000600082015250565b7f4552433732313a20617070726f76656420717565727920666f72206e6f6e657860008201527f697374656e7420746f6b656e0000000000000000000000000000000000000000602082015250565b7f3c747370616e20783d223132222064793d223438223e00000000000000000000600082015250565b7f4f776e61626c653a2063616c6c6572206973206e6f7420746865206f776e6572600082015250565b7f7b00000000000000000000000000000000000000000000000000000000000000600082015250565b7f4552433732313a20617070726f76616c20746f2063757272656e74206f776e6560008201527f7200000000000000000000000000000000000000000000000000000000000000602082015250565b7f646174613a6170706c69636174696f6e2f6a736f6e3b6261736536342c000000600082015250565b50565b7f4552433732313a207472616e736665722063616c6c6572206973206e6f74206f60008201527f776e6572206e6f7220617070726f766564000000000000000000000000000000602082015250565b7f455243373231456e756d657261626c653a20676c6f62616c20696e646578206f60008201527f7574206f6620626f756e64730000000000000000000000000000000000000000602082015250565b61541981614ad3565b811461542457600080fd5b50565b61543081614ae5565b811461543b57600080fd5b50565b61544781614afb565b811461545257600080fd5b50565b61545e81614b55565b811461546957600080fd5b5056fe3c7374796c653e2e62617365207b2066696c6c3a2077686974653b20666f6e742d66616d696c793a2073657269663b20666f6e742d73697a653a20353470783b207d3c2f7374796c653e3c726563742077696474683d223130302522206865696768743d2231303025222066696c6c3d22626c61636b22202f3e3c7465787420636c6173733d2262617365223e3c73766720786d6c6e733d22687474703a2f2f7777772e77332e6f72672f323030302f73766722207072657365727665417370656374526174696f3d22784d696e594d696e206d656574222076696577426f783d223020302033353020333530223e4142434445464748494a4b4c4d4e4f505152535455565758595a6162636465666768696a6b6c6d6e6f707172737475767778797a303132333435363738392b2f3c7374796c653e2e62617365207b2066696c6c3a2077686974653b20666f6e742d66616d696c793a2073657269663b20666f6e742d73697a653a2033353070783b207d3c2f7374796c653e3c726563742077696474683d223130302522206865696768743d2231303025222066696c6c3d22626c61636b22202f3e3c7465787420783d2239302220793d223239352220636c6173733d2262617365223ea26469706673582212205426c88f04693323ae9a155ac5657631ac813c8de9c06675240501a672987b1864736f6c63430008040033",
  "linkReferences": {},
  "deployedLinkReferences": {}
}