{
  "_format": "hh-sol-artifact-1",
  "contractName": "NFTCollection",
  "sourceName": "contracts/NFTCollection.sol",
  "abi": [
    {
      "inputs": [
        {
          "internalType": "string",
          "name": "_name",
          "type": "string"
        },
        {
          "internalType": "string",
          "name": "_symbol",
          "type": "string"
        },
        {
          "internalType": "uint256",
          "name": "_maxSupply",
          "type": "uint256"
        },
        {
          "internalType": "uint256",
          "name": "_mintCost",
          "type": "uint256"
        },
        {
          "internalType": "uint256",
          "name": "_revealBatchSize",
          "type": "uint256"
        },
        {
          "internalType": "uint256",
          "name": "_revealInterval",
          "type": "uint256"
        },
        {
          "internalType": "address",
          "name": "_vrfCoordinatorV2",
          "type": "address"
        },
        {
          "internalType": "uint64",
          "name": "_vrfSubscriptionId",
          "type": "uint64"
        },
        {
          "internalType": "bytes32",
          "name": "_vrfGasLane",
          "type": "bytes32"
        },
        {
          "internalType": "uint32",
          "name": "_vrfCallbackGasLimit",
          "type": "uint32"
        }
      ],
      "stateMutability": "nonpayable",
      "type": "constructor"
    },
    {
      "inputs": [],
      "name": "InsufficientFunds",
      "type": "error"
    },
    {
      "inputs": [],
      "name": "InsufficientLINK",
      "type": "error"
    },
    {
      "inputs": [],
      "name": "InvalidAmount",
      "type": "error"
    },
    {
      "inputs": [],
      "name": "MaxSupplyReached",
      "type": "error"
    },
    {
      "inputs": [
        {
          "internalType": "address",
          "name": "have",
          "type": "address"
        },
        {
          "internalType": "address",
          "name": "want",
          "type": "address"
        }
      ],
      "name": "OnlyCoordinatorCanFulfill",
      "type": "error"
    },
    {
      "inputs": [],
      "name": "RevealCriteriaNotMet",
      "type": "error"
    },
    {
      "inputs": [],
      "name": "WithdrawProceedsFailed",
      "type": "error"
    },
    {
      "anonymous": false,
      "inputs": [
        {
          "indexed": true,
          "internalType": "address",
          "name": "owner",
          "type": "address"
        },
        {
          "indexed": true,
          "internalType": "address",
          "name": "approved",
          "type": "address"
        },
        {
          "indexed": true,
          "internalType": "uint256",
          "name": "tokenId",
          "type": "uint256"
        }
      ],
      "name": "Approval",
      "type": "event"
    },
    {
      "anonymous": false,
      "inputs": [
        {
          "indexed": true,
          "internalType": "address",
          "name": "owner",
          "type": "address"
        },
        {
          "indexed": true,
          "internalType": "address",
          "name": "operator",
          "type": "address"
        },
        {
          "indexed": false,
          "internalType": "bool",
          "name": "approved",
          "type": "bool"
        }
      ],
      "name": "ApprovalForAll",
      "type": "event"
    },
    {
      "anonymous": false,
      "inputs": [
        {
          "indexed": false,
          "internalType": "uint256",
          "name": "startIndex",
          "type": "uint256"
        },
        {
          "indexed": false,
          "internalType": "uint256",
          "name": "endIndex",
          "type": "uint256"
        }
      ],
      "name": "BatchRevealFinished",
      "type": "event"
    },
    {
      "anonymous": false,
      "inputs": [
        {
          "indexed": false,
          "internalType": "uint256",
          "name": "requestId",
          "type": "uint256"
        }
      ],
      "name": "BatchRevealRequested",
      "type": "event"
    },
    {
      "anonymous": false,
      "inputs": [
        {
          "indexed": true,
          "internalType": "address",
          "name": "previousOwner",
          "type": "address"
        },
        {
          "indexed": true,
          "internalType": "address",
          "name": "newOwner",
          "type": "address"
        }
      ],
      "name": "OwnershipTransferred",
      "type": "event"
    },
    {
      "anonymous": false,
      "inputs": [
        {
          "indexed": true,
          "internalType": "address",
          "name": "from",
          "type": "address"
        },
        {
          "indexed": true,
          "internalType": "address",
          "name": "to",
          "type": "address"
        },
        {
          "indexed": true,
          "internalType": "uint256",
          "name": "tokenId",
          "type": "uint256"
        }
      ],
      "name": "Transfer",
      "type": "event"
    },
    {
      "inputs": [
        {
          "internalType": "address",
          "name": "to",
          "type": "address"
        },
        {
          "internalType": "uint256",
          "name": "tokenId",
          "type": "uint256"
        }
      ],
      "name": "approve",
      "outputs": [],
      "stateMutability": "nonpayable",
      "type": "function"
    },
    {
      "inputs": [
        {
          "internalType": "address",
          "name": "owner",
          "type": "address"
        }
      ],
      "name": "balanceOf",
      "outputs": [
        {
          "internalType": "uint256",
          "name": "",
          "type": "uint256"
        }
      ],
      "stateMutability": "view",
      "type": "function"
    },
    {
      "inputs": [],
      "name": "batchSize",
      "outputs": [
        {
          "internalType": "uint256",
          "name": "",
          "type": "uint256"
        }
      ],
      "stateMutability": "view",
      "type": "function"
    },
    {
      "inputs": [
        {
          "internalType": "bytes",
          "name": "",
          "type": "bytes"
        }
      ],
      "name": "checkUpkeep",
      "outputs": [
        {
          "internalType": "bool",
          "name": "upkeepNeeded",
          "type": "bool"
        },
        {
          "internalType": "bytes",
          "name": "",
          "type": "bytes"
        }
      ],
      "stateMutability": "view",
      "type": "function"
    },
    {
      "inputs": [
        {
          "internalType": "uint256",
          "name": "tokenId",
          "type": "uint256"
        }
      ],
      "name": "getApproved",
      "outputs": [
        {
          "internalType": "address",
          "name": "",
          "type": "address"
        }
      ],
      "stateMutability": "view",
      "type": "function"
    },
    {
      "inputs": [
        {
          "internalType": "address",
          "name": "owner",
          "type": "address"
        },
        {
          "internalType": "address",
          "name": "operator",
          "type": "address"
        }
      ],
      "name": "isApprovedForAll",
      "outputs": [
        {
          "internalType": "bool",
          "name": "",
          "type": "bool"
        }
      ],
      "stateMutability": "view",
      "type": "function"
    },
    {
      "inputs": [],
      "name": "lastRevealed",
      "outputs": [
        {
          "internalType": "uint256",
          "name": "",
          "type": "uint256"
        }
      ],
      "stateMutability": "view",
      "type": "function"
    },
    {
      "inputs": [],
      "name": "maxSupply",
      "outputs": [
        {
          "internalType": "uint256",
          "name": "",
          "type": "uint256"
        }
      ],
      "stateMutability": "view",
      "type": "function"
    },
    {
      "inputs": [
        {
          "internalType": "uint256",
          "name": "_amount",
          "type": "uint256"
        }
      ],
      "name": "mint",
      "outputs": [],
      "stateMutability": "payable",
      "type": "function"
    },
    {
      "inputs": [],
      "name": "mintCost",
      "outputs": [
        {
          "internalType": "uint256",
          "name": "",
          "type": "uint256"
        }
      ],
      "stateMutability": "view",
      "type": "function"
    },
    {
      "inputs": [],
      "name": "name",
      "outputs": [
        {
          "internalType": "string",
          "name": "",
          "type": "string"
        }
      ],
      "stateMutability": "view",
      "type": "function"
    },
    {
      "inputs": [],
      "name": "owner",
      "outputs": [
        {
          "internalType": "address",
          "name": "",
          "type": "address"
        }
      ],
      "stateMutability": "view",
      "type": "function"
    },
    {
      "inputs": [
        {
          "internalType": "uint256",
          "name": "tokenId",
          "type": "uint256"
        }
      ],
      "name": "ownerOf",
      "outputs": [
        {
          "internalType": "address",
          "name": "",
          "type": "address"
        }
      ],
      "stateMutability": "view",
      "type": "function"
    },
    {
      "inputs": [],
      "name": "pendingReveal",
      "outputs": [
        {
          "internalType": "bool",
          "name": "",
          "type": "bool"
        }
      ],
      "stateMutability": "view",
      "type": "function"
    },
    {
      "inputs": [
        {
          "internalType": "bytes",
          "name": "",
          "type": "bytes"
        }
      ],
      "name": "performUpkeep",
      "outputs": [],
      "stateMutability": "nonpayable",
      "type": "function"
    },
    {
      "inputs": [
        {
          "internalType": "uint256",
          "name": "requestId",
          "type": "uint256"
        },
        {
          "internalType": "uint256[]",
          "name": "randomWords",
          "type": "uint256[]"
        }
      ],
      "name": "rawFulfillRandomWords",
      "outputs": [],
      "stateMutability": "nonpayable",
      "type": "function"
    },
    {
      "inputs": [],
      "name": "renounceOwnership",
      "outputs": [],
      "stateMutability": "nonpayable",
      "type": "function"
    },
    {
      "inputs": [],
      "name": "revealPendingMetadata",
      "outputs": [
        {
          "internalType": "uint256",
          "name": "requestId",
          "type": "uint256"
        }
      ],
      "stateMutability": "nonpayable",
      "type": "function"
    },
    {
      "inputs": [],
      "name": "revealedCount",
      "outputs": [
        {
          "internalType": "uint256",
          "name": "",
          "type": "uint256"
        }
      ],
      "stateMutability": "view",
      "type": "function"
    },
    {
      "inputs": [],
      "name": "revealedInterval",
      "outputs": [
        {
          "internalType": "uint256",
          "name": "",
          "type": "uint256"
        }
      ],
      "stateMutability": "view",
      "type": "function"
    },
    {
      "inputs": [
        {
          "internalType": "address",
          "name": "from",
          "type": "address"
        },
        {
          "internalType": "address",
          "name": "to",
          "type": "address"
        },
        {
          "internalType": "uint256",
          "name": "tokenId",
          "type": "uint256"
        }
      ],
      "name": "safeTransferFrom",
      "outputs": [],
      "stateMutability": "nonpayable",
      "type": "function"
    },
    {
      "inputs": [
        {
          "internalType": "address",
          "name": "from",
          "type": "address"
        },
        {
          "internalType": "address",
          "name": "to",
          "type": "address"
        },
        {
          "internalType": "uint256",
          "name": "tokenId",
          "type": "uint256"
        },
        {
          "internalType": "bytes",
          "name": "_data",
          "type": "bytes"
        }
      ],
      "name": "safeTransferFrom",
      "outputs": [],
      "stateMutability": "nonpayable",
      "type": "function"
    },
    {
      "inputs": [
        {
          "internalType": "address",
          "name": "operator",
          "type": "address"
        },
        {
          "internalType": "bool",
          "name": "approved",
          "type": "bool"
        }
      ],
      "name": "setApprovalForAll",
      "outputs": [],
      "stateMutability": "nonpayable",
      "type": "function"
    },
    {
      "inputs": [
        {
          "internalType": "uint256",
          "name": "_revealBatchSize",
          "type": "uint256"
        }
      ],
      "name": "setRevealBatchSize",
      "outputs": [],
      "stateMutability": "nonpayable",
      "type": "function"
    },
    {
      "inputs": [
        {
          "internalType": "uint256",
          "name": "_revealInterval",
          "type": "uint256"
        }
      ],
      "name": "setRevealInterval",
      "outputs": [],
      "stateMutability": "nonpayable",
      "type": "function"
    },
    {
      "inputs": [
        {
          "internalType": "bytes4",
          "name": "interfaceId",
          "type": "bytes4"
        }
      ],
      "name": "supportsInterface",
      "outputs": [
        {
          "internalType": "bool",
          "name": "",
          "type": "bool"
        }
      ],
      "stateMutability": "view",
      "type": "function"
    },
    {
      "inputs": [],
      "name": "symbol",
      "outputs": [
        {
          "internalType": "string",
          "name": "",
          "type": "string"
        }
      ],
      "stateMutability": "view",
      "type": "function"
    },
    {
      "inputs": [
        {
          "internalType": "uint256",
          "name": "index",
          "type": "uint256"
        }
      ],
      "name": "tokenByIndex",
      "outputs": [
        {
          "internalType": "uint256",
          "name": "",
          "type": "uint256"
        }
      ],
      "stateMutability": "view",
      "type": "function"
    },
    {
      "inputs": [
        {
          "internalType": "address",
          "name": "owner",
          "type": "address"
        },
        {
          "internalType": "uint256",
          "name": "index",
          "type": "uint256"
        }
      ],
      "name": "tokenOfOwnerByIndex",
      "outputs": [
        {
          "internalType": "uint256",
          "name": "",
          "type": "uint256"
        }
      ],
      "stateMutability": "view",
      "type": "function"
    },
    {
      "inputs": [
        {
          "internalType": "uint256",
          "name": "tokenId",
          "type": "uint256"
        }
      ],
      "name": "tokenURI",
      "outputs": [
        {
          "internalType": "string",
          "name": "",
          "type": "string"
        }
      ],
      "stateMutability": "view",
      "type": "function"
    },
    {
      "inputs": [],
      "name": "totalSupply",
      "outputs": [
        {
          "internalType": "uint256",
          "name": "",
          "type": "uint256"
        }
      ],
      "stateMutability": "view",
      "type": "function"
    },
    {
      "inputs": [
        {
          "internalType": "address",
          "name": "from",
          "type": "address"
        },
        {
          "internalType": "address",
          "name": "to",
          "type": "address"
        },
        {
          "internalType": "uint256",
          "name": "tokenId",
          "type": "uint256"
        }
      ],
      "name": "transferFrom",
      "outputs": [],
      "stateMutability": "nonpayable",
      "type": "function"
    },
    {
      "inputs": [
        {
          "internalType": "address",
          "name": "newOwner",
          "type": "address"
        }
      ],
      "name": "transferOwnership",
      "outputs": [],
      "stateMutability": "nonpayable",
      "type": "function"
    },
    {
      "inputs": [],
      "name": "withdrawProceeds",
      "outputs": [],
      "stateMutability": "nonpayable",
      "type": "function"
    }
  ],
  "bytecode": "0x61016060405242600e553480156200001657600080fd5b506040516200554d3803806200554d83398181016040528101906200003c9190620003d2565b838a8a6200005f620000536200017160201b60201c565b6200017960201b60201c565b8160019080519060200190620000779291906200023d565b508060029080519060200190620000909291906200023d565b5050508073ffffffffffffffffffffffffffffffffffffffff1660808173ffffffffffffffffffffffffffffffffffffffff1660601b81525050508760a081815250508660c081815250508373ffffffffffffffffffffffffffffffffffffffff1660e08173ffffffffffffffffffffffffffffffffffffffff1660601b815250508267ffffffffffffffff166101008167ffffffffffffffff1660c01b815250508161012081815250508063ffffffff166101408163ffffffff1660e01b8152505085600c8190555084600d819055505050505050505050505062000752565b600033905090565b60008060009054906101000a900473ffffffffffffffffffffffffffffffffffffffff169050816000806101000a81548173ffffffffffffffffffffffffffffffffffffffff021916908373ffffffffffffffffffffffffffffffffffffffff1602179055508173ffffffffffffffffffffffffffffffffffffffff168173ffffffffffffffffffffffffffffffffffffffff167f8be0079c531659141344cd1fd0a4f28419497f9722a3daafe3b4186f6b6457e060405160405180910390a35050565b8280546200024b90620005f5565b90600052602060002090601f0160209004810192826200026f5760008555620002bb565b82601f106200028a57805160ff1916838001178555620002bb565b82800160010185558215620002bb579182015b82811115620002ba5782518255916020019190600101906200029d565b5b509050620002ca9190620002ce565b5090565b5b80821115620002e9576000816000905550600101620002cf565b5090565b600062000304620002fe846200051d565b620004f4565b9050828152602081018484840111156200031d57600080fd5b6200032a848285620005bf565b509392505050565b6000815190506200034381620006d0565b92915050565b6000815190506200035a81620006ea565b92915050565b600082601f8301126200037257600080fd5b815162000384848260208601620002ed565b91505092915050565b6000815190506200039e8162000704565b92915050565b600081519050620003b5816200071e565b92915050565b600081519050620003cc8162000738565b92915050565b6000806000806000806000806000806101408b8d031215620003f357600080fd5b60008b015167ffffffffffffffff8111156200040e57600080fd5b6200041c8d828e0162000360565b9a505060208b015167ffffffffffffffff8111156200043a57600080fd5b620004488d828e0162000360565b99505060406200045b8d828e016200038d565b98505060606200046e8d828e016200038d565b9750506080620004818d828e016200038d565b96505060a0620004948d828e016200038d565b95505060c0620004a78d828e0162000332565b94505060e0620004ba8d828e01620003bb565b935050610100620004ce8d828e0162000349565b925050610120620004e28d828e01620003a4565b9150509295989b9194979a5092959850565b60006200050062000513565b90506200050e82826200062b565b919050565b6000604051905090565b600067ffffffffffffffff8211156200053b576200053a62000690565b5b6200054682620006bf565b9050602081019050919050565b6000620005608262000571565b9050919050565b6000819050919050565b600073ffffffffffffffffffffffffffffffffffffffff82169050919050565b6000819050919050565b600063ffffffff82169050919050565b600067ffffffffffffffff82169050919050565b60005b83811015620005df578082015181840152602081019050620005c2565b83811115620005ef576000848401525b50505050565b600060028204905060018216806200060e57607f821691505b6020821081141562000625576200062462000661565b5b50919050565b6200063682620006bf565b810181811067ffffffffffffffff8211171562000658576200065762000690565b5b80604052505050565b7f4e487b7100000000000000000000000000000000000000000000000000000000600052602260045260246000fd5b7f4e487b7100000000000000000000000000000000000000000000000000000000600052604160045260246000fd5b6000601f19601f8301169050919050565b620006db8162000553565b8114620006e757600080fd5b50565b620006f58162000567565b81146200070157600080fd5b50565b6200070f8162000591565b81146200071b57600080fd5b50565b62000729816200059b565b81146200073557600080fd5b50565b6200074381620005ab565b81146200074f57600080fd5b50565b60805160601c60a05160c05160e05160601c6101005160c01c610120516101405160e01c614d7f620007ce60003960006112a901526000611265015260006112860152600061122901526000818161144201526115eb0152600081816113dc0152611654015260008181610ac40152610b180152614d7f6000f3fe6080604052600436106101f95760003560e01c8063777accbb1161010d578063aaae4e23116100a0578063c87b56dd1161006f578063c87b56dd14610713578063d5abeb0114610750578063e985e9c51461077b578063f2fde38b146107b8578063f4daaba1146107e1576101f9565b8063aaae4e231461066b578063b88d4fde14610694578063bbd78e93146106bd578063bdb4b848146106e8576101f9565b806395d89b41116100dc57806395d89b41146105d057806396634a40146105fb578063a0712d6814610626578063a22cb46514610642576101f9565b8063777accbb146105385780637b4fab5a146105635780638da5cb5b1461058e5780639038e693146105b9576101f9565b806336bee6d6116101905780635c65d81f1161015f5780635c65d81f146104405780636352211e146104695780636e04ff0d146104a657806370a08231146104e4578063715018a614610521576101f9565b806336bee6d61461038657806342842e0e146103b15780634585e33b146103da5780634f6ccce714610403576101f9565b806318160ddd116101cc57806318160ddd146102cc5780631fe543e3146102f757806323b872dd146103205780632f745c5914610349576101f9565b806301ffc9a7146101fe57806306fdde031461023b578063081812fc14610266578063095ea7b3146102a3575b600080fd5b34801561020a57600080fd5b5061022560048036038101906102209190613686565b61080c565b6040516102329190613df4565b60405180910390f35b34801561024757600080fd5b50610250610886565b60405161025d9190613e92565b60405180910390f35b34801561027257600080fd5b5061028d6004803603810190610288919061371d565b610918565b60405161029a9190613d64565b60405180910390f35b3480156102af57600080fd5b506102ca60048036038101906102c5919061364a565b61099d565b005b3480156102d857600080fd5b506102e1610ab5565b6040516102ee91906140d4565b60405180910390f35b34801561030357600080fd5b5061031e6004803603810190610319919061376f565b610ac2565b005b34801561032c57600080fd5b5061034760048036038101906103429190613544565b610b82565b005b34801561035557600080fd5b50610370600480360381019061036b919061364a565b610be2565b60405161037d91906140d4565b60405180910390f35b34801561039257600080fd5b5061039b610c87565b6040516103a89190613df4565b60405180910390f35b3480156103bd57600080fd5b506103d860048036038101906103d39190613544565b610c9e565b005b3480156103e657600080fd5b5061040160048036038101906103fc91906136d8565b610cbe565b005b34801561040f57600080fd5b5061042a6004803603810190610425919061371d565b610ccb565b60405161043791906140d4565b60405180910390f35b34801561044c57600080fd5b506104676004803603810190610462919061371d565b610d62565b005b34801561047557600080fd5b50610490600480360381019061048b919061371d565b610de8565b60405161049d9190613d64565b60405180910390f35b3480156104b257600080fd5b506104cd60048036038101906104c891906136d8565b610e9a565b6040516104db929190613e0f565b60405180910390f35b3480156104f057600080fd5b5061050b600480360381019061050691906134df565b610eaf565b60405161051891906140d4565b60405180910390f35b34801561052d57600080fd5b50610536610f67565b005b34801561054457600080fd5b5061054d610fef565b60405161055a91906140d4565b60405180910390f35b34801561056f57600080fd5b50610578610ff9565b60405161058591906140d4565b60405180910390f35b34801561059a57600080fd5b506105a3611003565b6040516105b09190613d64565b60405180910390f35b3480156105c557600080fd5b506105ce61102c565b005b3480156105dc57600080fd5b506105e5611155565b6040516105f29190613e92565b60405180910390f35b34801561060757600080fd5b506106106111e7565b60405161061d91906140d4565b60405180910390f35b610640600480360381019061063b919061371d565b611393565b005b34801561064e57600080fd5b506106696004803603810190610664919061360e565b6114df565b005b34801561067757600080fd5b50610692600480360381019061068d919061371d565b6114f5565b005b3480156106a057600080fd5b506106bb60048036038101906106b69190613593565b61157b565b005b3480156106c957600080fd5b506106d26115dd565b6040516106df91906140d4565b60405180910390f35b3480156106f457600080fd5b506106fd6115e7565b60405161070a91906140d4565b60405180910390f35b34801561071f57600080fd5b5061073a6004803603810190610735919061371d565b61160f565b6040516107479190613e92565b60405180910390f35b34801561075c57600080fd5b50610765611650565b60405161077291906140d4565b60405180910390f35b34801561078757600080fd5b506107a2600480360381019061079d9190613508565b611678565b6040516107af9190613df4565b60405180910390f35b3480156107c457600080fd5b506107df60048036038101906107da91906134df565b61170c565b005b3480156107ed57600080fd5b506107f6611804565b60405161080391906140d4565b60405180910390f35b60007f780e9d63000000000000000000000000000000000000000000000000000000007bffffffffffffffffffffffffffffffffffffffffffffffffffffffff1916827bffffffffffffffffffffffffffffffffffffffffffffffffffffffff1916148061087f575061087e8261180e565b5b9050919050565b606060018054610895906143ef565b80601f01602080910402602001604051908101604052809291908181526020018280546108c1906143ef565b801561090e5780601f106108e35761010080835404028352916020019161090e565b820191906000526020600020905b8154815290600101906020018083116108f157829003601f168201915b5050505050905090565b6000610923826118f0565b610962576040517f08c379a000000000000000000000000000000000000000000000000000000000815260040161095990614034565b60405180910390fd5b6005600083815260200190815260200160002060009054906101000a900473ffffffffffffffffffffffffffffffffffffffff169050919050565b60006109a882610de8565b90508073ffffffffffffffffffffffffffffffffffffffff168373ffffffffffffffffffffffffffffffffffffffff161415610a19576040517f08c379a0000000000000000000000000000000000000000000000000000000008152600401610a1090614074565b60405180910390fd5b8073ffffffffffffffffffffffffffffffffffffffff16610a3861195c565b73ffffffffffffffffffffffffffffffffffffffff161480610a675750610a6681610a6161195c565b611678565b5b610aa6576040517f08c379a0000000000000000000000000000000000000000000000000000000008152600401610a9d90613fb4565b60405180910390fd5b610ab08383611964565b505050565b6000600980549050905090565b7f000000000000000000000000000000000000000000000000000000000000000073ffffffffffffffffffffffffffffffffffffffff163373ffffffffffffffffffffffffffffffffffffffff1614610b7457337f00000000000000000000000000000000000000000000000000000000000000006040517f1cf993f4000000000000000000000000000000000000000000000000000000008152600401610b6b929190613d7f565b60405180910390fd5b610b7e8282611a1d565b5050565b610b93610b8d61195c565b82611a6b565b610bd2576040517f08c379a0000000000000000000000000000000000000000000000000000000008152600401610bc990614094565b60405180910390fd5b610bdd838383611b49565b505050565b6000610bed83610eaf565b8210610c2e576040517f08c379a0000000000000000000000000000000000000000000000000000000008152600401610c2590613eb4565b60405180910390fd5b600760008473ffffffffffffffffffffffffffffffffffffffff1673ffffffffffffffffffffffffffffffffffffffff168152602001908152602001600020600083815260200190815260200160002054905092915050565b6000600f60009054906101000a900460ff16905090565b610cb98383836040518060200160405280600081525061157b565b505050565b610cc66111e7565b505050565b6000610cd5610ab5565b8210610d16576040517f08c379a0000000000000000000000000000000000000000000000000000000008152600401610d0d906140b4565b60405180910390fd5b60098281548110610d50577f4e487b7100000000000000000000000000000000000000000000000000000000600052603260045260246000fd5b90600052602060002001549050919050565b610d6a61195c565b73ffffffffffffffffffffffffffffffffffffffff16610d88611003565b73ffffffffffffffffffffffffffffffffffffffff1614610dde576040517f08c379a0000000000000000000000000000000000000000000000000000000008152600401610dd590614054565b60405180910390fd5b80600d8190555050565b6000806003600084815260200190815260200160002060009054906101000a900473ffffffffffffffffffffffffffffffffffffffff169050600073ffffffffffffffffffffffffffffffffffffffff168173ffffffffffffffffffffffffffffffffffffffff161415610e91576040517f08c379a0000000000000000000000000000000000000000000000000000000008152600401610e8890613ff4565b60405180910390fd5b80915050919050565b60006060610ea6611db0565b91509250929050565b60008073ffffffffffffffffffffffffffffffffffffffff168273ffffffffffffffffffffffffffffffffffffffff161415610f20576040517f08c379a0000000000000000000000000000000000000000000000000000000008152600401610f1790613fd4565b60405180910390fd5b600460008373ffffffffffffffffffffffffffffffffffffffff1673ffffffffffffffffffffffffffffffffffffffff168152602001908152602001600020549050919050565b610f6f61195c565b73ffffffffffffffffffffffffffffffffffffffff16610f8d611003565b73ffffffffffffffffffffffffffffffffffffffff1614610fe3576040517f08c379a0000000000000000000000000000000000000000000000000000000008152600401610fda90614054565b60405180910390fd5b610fed6000611e58565b565b6000600d54905090565b6000600e54905090565b60008060009054906101000a900473ffffffffffffffffffffffffffffffffffffffff16905090565b61103461195c565b73ffffffffffffffffffffffffffffffffffffffff16611052611003565b73ffffffffffffffffffffffffffffffffffffffff16146110a8576040517f08c379a000000000000000000000000000000000000000000000000000000000815260040161109f90614054565b60405180910390fd5b60006110b2611003565b73ffffffffffffffffffffffffffffffffffffffff16476040516110d590613d4f565b60006040518083038185875af1925050503d8060008114611112576040519150601f19603f3d011682016040523d82523d6000602084013e611117565b606091505b5050905080611152576040517f0ca5b23000000000000000000000000000000000000000000000000000000000815260040160405180910390fd5b50565b606060028054611164906143ef565b80601f0160208091040260200160405190810160405280929190818152602001828054611190906143ef565b80156111dd5780601f106111b2576101008083540402835291602001916111dd565b820191906000526020600020905b8154815290600101906020018083116111c057829003601f168201915b5050505050905090565b60006111f1611db0565b611227576040517f4e628ebc00000000000000000000000000000000000000000000000000000000815260040160405180910390fd5b7f000000000000000000000000000000000000000000000000000000000000000073ffffffffffffffffffffffffffffffffffffffff16635d3b1d307f00000000000000000000000000000000000000000000000000000000000000007f000000000000000000000000000000000000000000000000000000000000000060037f000000000000000000000000000000000000000000000000000000000000000060016040518663ffffffff1660e01b81526004016112ea959493929190613e3f565b602060405180830381600087803b15801561130457600080fd5b505af1158015611318573d6000803e3d6000fd5b505050506040513d601f19601f8201168201806040525081019061133c9190613746565b90506001600f60006101000a81548160ff0219169083151502179055507f8d83bdd6db199ff596cec09ea8e4f4e50da2dcb4020bc2a1cf072c507056b1ea8160405161138891906140d4565b60405180910390a190565b600061139d610ab5565b905060008214156113da576040517f2c5211c600000000000000000000000000000000000000000000000000000000815260040160405180910390fd5b7f0000000000000000000000000000000000000000000000000000000000000000828261140791906141e8565b111561143f576040517fd05cb60900000000000000000000000000000000000000000000000000000000815260040160405180910390fd5b817f000000000000000000000000000000000000000000000000000000000000000061146b919061426f565b3410156114a4576040517f356680b700000000000000000000000000000000000000000000000000000000815260040160405180910390fd5b6000600190505b8281116114da576114c73382846114c291906141e8565b611f1c565b80806114d290614452565b9150506114ab565b505050565b6114f16114ea61195c565b8383611f3a565b5050565b6114fd61195c565b73ffffffffffffffffffffffffffffffffffffffff1661151b611003565b73ffffffffffffffffffffffffffffffffffffffff1614611571576040517f08c379a000000000000000000000000000000000000000000000000000000000815260040161156890614054565b60405180910390fd5b80600c8190555050565b61158c61158661195c565b83611a6b565b6115cb576040517f08c379a00000000000000000000000000000000000000000000000000000000081526004016115c290614094565b60405180910390fd5b6115d7848484846120a7565b50505050565b6000600b54905090565b60007f0000000000000000000000000000000000000000000000000000000000000000905090565b606060008061161d84612103565b91509150600061162d8383612257565b9050600061163a826124eb565b90506116458161257e565b945050505050919050565b60007f0000000000000000000000000000000000000000000000000000000000000000905090565b6000600660008473ffffffffffffffffffffffffffffffffffffffff1673ffffffffffffffffffffffffffffffffffffffff16815260200190815260200160002060008373ffffffffffffffffffffffffffffffffffffffff1673ffffffffffffffffffffffffffffffffffffffff16815260200190815260200160002060009054906101000a900460ff16905092915050565b61171461195c565b73ffffffffffffffffffffffffffffffffffffffff16611732611003565b73ffffffffffffffffffffffffffffffffffffffff1614611788576040517f08c379a000000000000000000000000000000000000000000000000000000000815260040161177f90614054565b60405180910390fd5b600073ffffffffffffffffffffffffffffffffffffffff168173ffffffffffffffffffffffffffffffffffffffff1614156117f8576040517f08c379a00000000000000000000000000000000000000000000000000000000081526004016117ef90613ef4565b60405180910390fd5b61180181611e58565b50565b6000600c54905090565b60007f80ac58cd000000000000000000000000000000000000000000000000000000007bffffffffffffffffffffffffffffffffffffffffffffffffffffffff1916827bffffffffffffffffffffffffffffffffffffffffffffffffffffffff191614806118d957507f5b5e139f000000000000000000000000000000000000000000000000000000007bffffffffffffffffffffffffffffffffffffffffffffffffffffffff1916827bffffffffffffffffffffffffffffffffffffffffffffffffffffffff1916145b806118e957506118e8826125ce565b5b9050919050565b60008073ffffffffffffffffffffffffffffffffffffffff166003600084815260200190815260200160002060009054906101000a900473ffffffffffffffffffffffffffffffffffffffff1673ffffffffffffffffffffffffffffffffffffffff1614159050919050565b600033905090565b816005600083815260200190815260200160002060006101000a81548173ffffffffffffffffffffffffffffffffffffffff021916908373ffffffffffffffffffffffffffffffffffffffff160217905550808273ffffffffffffffffffffffffffffffffffffffff166119d783610de8565b73ffffffffffffffffffffffffffffffffffffffff167f8c5be1e5ebec7d5bd14f71427d1e84f3dd0314c0f7b2291e5b200ac8c7c3b92560405160405180910390a45050565b611a6781600081518110611a5a577f4e487b7100000000000000000000000000000000000000000000000000000000600052603260045260246000fd5b6020026020010151612638565b5050565b6000611a76826118f0565b611ab5576040517f08c379a0000000000000000000000000000000000000000000000000000000008152600401611aac90613f94565b60405180910390fd5b6000611ac083610de8565b90508073ffffffffffffffffffffffffffffffffffffffff168473ffffffffffffffffffffffffffffffffffffffff161480611b025750611b018185611678565b5b80611b4057508373ffffffffffffffffffffffffffffffffffffffff16611b2884610918565b73ffffffffffffffffffffffffffffffffffffffff16145b91505092915050565b8273ffffffffffffffffffffffffffffffffffffffff16611b6982610de8565b73ffffffffffffffffffffffffffffffffffffffff1614611bbf576040517f08c379a0000000000000000000000000000000000000000000000000000000008152600401611bb690613f14565b60405180910390fd5b600073ffffffffffffffffffffffffffffffffffffffff168273ffffffffffffffffffffffffffffffffffffffff161415611c2f576040517f08c379a0000000000000000000000000000000000000000000000000000000008152600401611c2690613f54565b60405180910390fd5b611c3a838383612736565b611c45600082611964565b6001600460008573ffffffffffffffffffffffffffffffffffffffff1673ffffffffffffffffffffffffffffffffffffffff1681526020019081526020016000206000828254611c9591906142c9565b925050819055506001600460008473ffffffffffffffffffffffffffffffffffffffff1673ffffffffffffffffffffffffffffffffffffffff1681526020019081526020016000206000828254611cec91906141e8565b92505081905550816003600083815260200190815260200160002060006101000a81548173ffffffffffffffffffffffffffffffffffffffff021916908373ffffffffffffffffffffffffffffffffffffffff160217905550808273ffffffffffffffffffffffffffffffffffffffff168473ffffffffffffffffffffffffffffffffffffffff167fddf252ad1be2c89b69c2b068fc378daa952ba7f163c4a11628f55a4df523b3ef60405160405180910390a4611dab83838361284a565b505050565b6000600f60009054906101000a900460ff1615611dd05760009050611e55565b6000600b54611ddd610ab5565b611de791906142c9565b90506000811415611dfc576000915050611e55565b600080600c54118015611e115750600c548210155b15611e1b57600190505b600080600d54118015611e3c5750600d54600e5442611e3a91906142c9565b115b15611e4657600190505b8180611e4f5750805b93505050505b90565b60008060009054906101000a900473ffffffffffffffffffffffffffffffffffffffff169050816000806101000a81548173ffffffffffffffffffffffffffffffffffffffff021916908373ffffffffffffffffffffffffffffffffffffffff1602179055508173ffffffffffffffffffffffffffffffffffffffff168173ffffffffffffffffffffffffffffffffffffffff167f8be0079c531659141344cd1fd0a4f28419497f9722a3daafe3b4186f6b6457e060405160405180910390a35050565b611f3682826040518060200160405280600081525061284f565b5050565b8173ffffffffffffffffffffffffffffffffffffffff168373ffffffffffffffffffffffffffffffffffffffff161415611fa9576040517f08c379a0000000000000000000000000000000000000000000000000000000008152600401611fa090613f74565b60405180910390fd5b80600660008573ffffffffffffffffffffffffffffffffffffffff1673ffffffffffffffffffffffffffffffffffffffff16815260200190815260200160002060008473ffffffffffffffffffffffffffffffffffffffff1673ffffffffffffffffffffffffffffffffffffffff16815260200190815260200160002060006101000a81548160ff0219169083151502179055508173ffffffffffffffffffffffffffffffffffffffff168373ffffffffffffffffffffffffffffffffffffffff167f17307eab39ab6107e8899845ad3d59bd9653f200f220920489ca2b5937696c318360405161209a9190613df4565b60405180910390a3505050565b6120b2848484611b49565b6120be848484846128aa565b6120fd576040517f08c379a00000000000000000000000000000000000000000000000000000000081526004016120f490613ed4565b60405180910390fd5b50505050565b60008060005b6010805490508110156122515760108181548110612150577f4e487b7100000000000000000000000000000000000000000000000000000000600052603260045260246000fd5b90600052602060002090600302016000015484101580156121bb5750601081815481106121a6577f4e487b7100000000000000000000000000000000000000000000000000000000600052603260045260246000fd5b90600052602060002090600302016001015484105b1561223e57601081815481106121fa577f4e487b7100000000000000000000000000000000000000000000000000000000600052603260045260246000fd5b9060005260206000209060030201600201548460405160200161221e9291906140ef565b6040516020818303038152906040528051906020012060001c9250600191505b808061224990614452565b915050612109565b50915091565b60606122616132f2565b60405180610120016040528060fc8152602001614c4e60fc9139816000600381106122b5577f4e487b7100000000000000000000000000000000000000000000000000000000600052603260045260246000fd5b60200201819052508215612313576122cc84612a41565b81600160038110612306577f4e487b7100000000000000000000000000000000000000000000000000000000600052603260045260246000fd5b602002018190525061238c565b6040518060400160405280601681526020017f4e6f2072616e646f6d6e6573732061737369676e65640000000000000000000081525081600160038110612383577f4e487b7100000000000000000000000000000000000000000000000000000000600052603260045260246000fd5b60200201819052505b6040518060400160405280600d81526020017f3c2f746578743e3c2f7376673e00000000000000000000000000000000000000815250816002600381106123fc577f4e487b7100000000000000000000000000000000000000000000000000000000600052603260045260246000fd5b60200201819052508060006003811061243e577f4e487b7100000000000000000000000000000000000000000000000000000000600052603260045260246000fd5b60200201518160016003811061247d577f4e487b7100000000000000000000000000000000000000000000000000000000600052603260045260246000fd5b6020020151826002600381106124bc577f4e487b7100000000000000000000000000000000000000000000000000000000600052603260045260246000fd5b60200201516040516020016124d393929190613c98565b60405160208183030381529060405291505092915050565b606060006040518060400160405280601a81526020017f646174613a696d6167652f7376672b786d6c3b6261736536342c000000000000815250905060006125518460405160200161253d9190613c5d565b604051602081830303815290604052612bee565b90508181604051602001612566929190613c74565b60405160208183030381529060405292505050919050565b60606125a8826040516020016125949190613cc9565b604051602081830303815290604052612bee565b6040516020016125b89190613d2d565b6040516020818303038152906040529050919050565b60007f01ffc9a7000000000000000000000000000000000000000000000000000000007bffffffffffffffffffffffffffffffffffffffffffffffffffffffff1916827bffffffffffffffffffffffffffffffffffffffffffffffffffffffff1916149050919050565b6000612642610ab5565b905060006001600b5461265591906141e8565b9050600060018361266691906141e8565b905060106040518060600160405280848152602001838152602001868152509080600181540180825580915050600190039060005260206000209060030201600090919091909150600082015181600001556020820151816001015560408201518160020155505082600b8190555042600e819055506000600f60006101000a81548160ff0219169083151502179055507fa39d9410abe7578bfbf71501989f175c50a6950b6595718dd8092474541c889b82826040516127289291906140ef565b60405180910390a150505050565b612741838383612d78565b600073ffffffffffffffffffffffffffffffffffffffff168373ffffffffffffffffffffffffffffffffffffffff1614156127845761277f81612d7d565b6127c3565b8173ffffffffffffffffffffffffffffffffffffffff168373ffffffffffffffffffffffffffffffffffffffff16146127c2576127c18382612dc6565b5b5b600073ffffffffffffffffffffffffffffffffffffffff168273ffffffffffffffffffffffffffffffffffffffff1614156128065761280181612f33565b612845565b8273ffffffffffffffffffffffffffffffffffffffff168273ffffffffffffffffffffffffffffffffffffffff1614612844576128438282613076565b5b5b505050565b505050565b61285983836130f5565b61286660008484846128aa565b6128a5576040517f08c379a000000000000000000000000000000000000000000000000000000000815260040161289c90613ed4565b60405180910390fd5b505050565b60006128cb8473ffffffffffffffffffffffffffffffffffffffff166132cf565b15612a34578373ffffffffffffffffffffffffffffffffffffffff1663150b7a026128f461195c565b8786866040518563ffffffff1660e01b81526004016129169493929190613da8565b602060405180830381600087803b15801561293057600080fd5b505af192505050801561296157506040513d601f19601f8201168201806040525081019061295e91906136af565b60015b6129e4573d8060008114612991576040519150601f19603f3d011682016040523d82523d6000602084013e612996565b606091505b506000815114156129dc576040517f08c379a00000000000000000000000000000000000000000000000000000000081526004016129d390613ed4565b60405180910390fd5b805181602001fd5b63150b7a0260e01b7bffffffffffffffffffffffffffffffffffffffffffffffffffffffff1916817bffffffffffffffffffffffffffffffffffffffffffffffffffffffff191614915050612a39565b600190505b949350505050565b60606000821415612a89576040518060400160405280600181526020017f30000000000000000000000000000000000000000000000000000000000000008152509050612be9565b600082905060005b60008214612abb578080612aa490614452565b915050600a82612ab4919061423e565b9150612a91565b60008167ffffffffffffffff811115612afd577f4e487b7100000000000000000000000000000000000000000000000000000000600052604160045260246000fd5b6040519080825280601f01601f191660200182016040528015612b2f5781602001600182028036833780820191505090505b5090505b60008514612be257600182612b4891906142c9565b9150600a85612b57919061449b565b6030612b6391906141e8565b60f81b818381518110612b9f577f4e487b7100000000000000000000000000000000000000000000000000000000600052603260045260246000fd5b60200101907effffffffffffffffffffffffffffffffffffffffffffffffffffffffffffff1916908160001a905350600a85612bdb919061423e565b9450612b33565b8093505050505b919050565b6060600082511415612c1157604051806020016040528060008152509050612d73565b6000604051806060016040528060408152602001614c0e6040913990506000600360028551612c4091906141e8565b612c4a919061423e565b6004612c56919061426f565b67ffffffffffffffff811115612c95577f4e487b7100000000000000000000000000000000000000000000000000000000600052604160045260246000fd5b6040519080825280601f01601f191660200182016040528015612cc75781602001600182028036833780820191505090505b509050600182016020820185865187015b80821015612d33576003820191508151603f8160121c168501518453600184019350603f81600c1c168501518453600184019350603f8160061c168501518453600184019350603f8116850151845360018401935050612cd8565b5050600386510660018114612d4f5760028114612d6257612d6a565b603d6001830353603d6002830353612d6a565b603d60018303535b50505080925050505b919050565b505050565b600980549050600a600083815260200190815260200160002081905550600981908060018154018082558091505060019003906000526020600020016000909190919091505550565b60006001612dd384610eaf565b612ddd91906142c9565b9050600060086000848152602001908152602001600020549050818114612ec2576000600760008673ffffffffffffffffffffffffffffffffffffffff1673ffffffffffffffffffffffffffffffffffffffff168152602001908152602001600020600084815260200190815260200160002054905080600760008773ffffffffffffffffffffffffffffffffffffffff1673ffffffffffffffffffffffffffffffffffffffff168152602001908152602001600020600084815260200190815260200160002081905550816008600083815260200190815260200160002081905550505b6008600084815260200190815260200160002060009055600760008573ffffffffffffffffffffffffffffffffffffffff1673ffffffffffffffffffffffffffffffffffffffff16815260200190815260200160002060008381526020019081526020016000206000905550505050565b60006001600980549050612f4791906142c9565b90506000600a6000848152602001908152602001600020549050600060098381548110612f9d577f4e487b7100000000000000000000000000000000000000000000000000000000600052603260045260246000fd5b906000526020600020015490508060098381548110612fe5577f4e487b7100000000000000000000000000000000000000000000000000000000600052603260045260246000fd5b906000526020600020018190555081600a600083815260200190815260200160002081905550600a600085815260200190815260200160002060009055600980548061305a577f4e487b7100000000000000000000000000000000000000000000000000000000600052603160045260246000fd5b6001900381819060005260206000200160009055905550505050565b600061308183610eaf565b905081600760008573ffffffffffffffffffffffffffffffffffffffff1673ffffffffffffffffffffffffffffffffffffffff168152602001908152602001600020600083815260200190815260200160002081905550806008600084815260200190815260200160002081905550505050565b600073ffffffffffffffffffffffffffffffffffffffff168273ffffffffffffffffffffffffffffffffffffffff161415613165576040517f08c379a000000000000000000000000000000000000000000000000000000000815260040161315c90614014565b60405180910390fd5b61316e816118f0565b156131ae576040517f08c379a00000000000000000000000000000000000000000000000000000000081526004016131a590613f34565b60405180910390fd5b6131ba60008383612736565b6001600460008473ffffffffffffffffffffffffffffffffffffffff1673ffffffffffffffffffffffffffffffffffffffff168152602001908152602001600020600082825461320a91906141e8565b92505081905550816003600083815260200190815260200160002060006101000a81548173ffffffffffffffffffffffffffffffffffffffff021916908373ffffffffffffffffffffffffffffffffffffffff160217905550808273ffffffffffffffffffffffffffffffffffffffff16600073ffffffffffffffffffffffffffffffffffffffff167fddf252ad1be2c89b69c2b068fc378daa952ba7f163c4a11628f55a4df523b3ef60405160405180910390a46132cb6000838361284a565b5050565b6000808273ffffffffffffffffffffffffffffffffffffffff163b119050919050565b60405180606001604052806003905b60608152602001906001900390816133015790505090565b600061332c6133278461413d565b614118565b9050808382526020820190508285602086028201111561334b57600080fd5b60005b8581101561337b578161336188826134b5565b84526020840193506020830192505060018101905061334e565b5050509392505050565b600061339861339384614169565b614118565b9050828152602081018484840111156133b057600080fd5b6133bb8482856143ad565b509392505050565b6000813590506133d281614bb1565b92915050565b600082601f8301126133e957600080fd5b81356133f9848260208601613319565b91505092915050565b60008135905061341181614bc8565b92915050565b60008135905061342681614bdf565b92915050565b60008151905061343b81614bdf565b92915050565b60008083601f84011261345357600080fd5b8235905067ffffffffffffffff81111561346c57600080fd5b60208301915083600182028301111561348457600080fd5b9250929050565b600082601f83011261349c57600080fd5b81356134ac848260208601613385565b91505092915050565b6000813590506134c481614bf6565b92915050565b6000815190506134d981614bf6565b92915050565b6000602082840312156134f157600080fd5b60006134ff848285016133c3565b91505092915050565b6000806040838503121561351b57600080fd5b6000613529858286016133c3565b925050602061353a858286016133c3565b9150509250929050565b60008060006060848603121561355957600080fd5b6000613567868287016133c3565b9350506020613578868287016133c3565b9250506040613589868287016134b5565b9150509250925092565b600080600080608085870312156135a957600080fd5b60006135b7878288016133c3565b94505060206135c8878288016133c3565b93505060406135d9878288016134b5565b925050606085013567ffffffffffffffff8111156135f657600080fd5b6136028782880161348b565b91505092959194509250565b6000806040838503121561362157600080fd5b600061362f858286016133c3565b925050602061364085828601613402565b9150509250929050565b6000806040838503121561365d57600080fd5b600061366b858286016133c3565b925050602061367c858286016134b5565b9150509250929050565b60006020828403121561369857600080fd5b60006136a684828501613417565b91505092915050565b6000602082840312156136c157600080fd5b60006136cf8482850161342c565b91505092915050565b600080602083850312156136eb57600080fd5b600083013567ffffffffffffffff81111561370557600080fd5b61371185828601613441565b92509250509250929050565b60006020828403121561372f57600080fd5b600061373d848285016134b5565b91505092915050565b60006020828403121561375857600080fd5b6000613766848285016134ca565b91505092915050565b6000806040838503121561378257600080fd5b6000613790858286016134b5565b925050602083013567ffffffffffffffff8111156137ad57600080fd5b6137b9858286016133d8565b9150509250929050565b6137cc816142fd565b82525050565b6137db8161430f565b82525050565b6137ea8161431b565b82525050565b60006137fb8261419a565b61380581856141b0565b93506138158185602086016143bc565b61381e81614588565b840191505092915050565b6000613834826141a5565b61383e81856141cc565b935061384e8185602086016143bc565b61385781614588565b840191505092915050565b600061386d826141a5565b61387781856141dd565b93506138878185602086016143bc565b80840191505092915050565b60006138a0602b836141cc565b91506138ab82614599565b604082019050919050565b60006138c36032836141cc565b91506138ce826145e8565b604082019050919050565b60006138e66026836141cc565b91506138f182614637565b604082019050919050565b60006139096025836141cc565b915061391482614686565b604082019050919050565b600061392c601c836141cc565b9150613937826146d5565b602082019050919050565b600061394f600e836141dd565b915061395a826146fe565b600e82019050919050565b60006139726024836141cc565b915061397d82614727565b604082019050919050565b60006139956019836141cc565b91506139a082614776565b602082019050919050565b60006139b8602c836141cc565b91506139c38261479f565b604082019050919050565b60006139db6011836141dd565b91506139e6826147ee565b601182019050919050565b60006139fe6038836141cc565b9150613a0982614817565b604082019050919050565b6000613a216001836141dd565b9150613a2c82614866565b600182019050919050565b6000613a44602a836141cc565b9150613a4f8261488f565b604082019050919050565b6000613a676029836141cc565b9150613a72826148de565b604082019050919050565b6000613a8a6025836141dd565b9150613a958261492d565b602582019050919050565b6000613aad6009836141dd565b9150613ab88261497c565b600982019050919050565b6000613ad06020836141cc565b9150613adb826149a5565b602082019050919050565b6000613af36001836141dd565b9150613afe826149ce565b600182019050919050565b6000613b16602c836141cc565b9150613b21826149f7565b604082019050919050565b6000613b396020836141cc565b9150613b4482614a46565b602082019050919050565b6000613b5c6001836141dd565b9150613b6782614a6f565b600182019050919050565b6000613b7f6021836141cc565b9150613b8a82614a98565b604082019050919050565b6000613ba2601d836141dd565b9150613bad82614ae7565b601d82019050919050565b6000613bc56000836141c1565b9150613bd082614b10565b600082019050919050565b6000613be86031836141cc565b9150613bf382614b13565b604082019050919050565b6000613c0b602c836141cc565b9150613c1682614b62565b604082019050919050565b613c2a81614351565b82525050565b613c398161437f565b82525050565b613c4881614389565b82525050565b613c5781614399565b82525050565b6000613c698284613862565b915081905092915050565b6000613c808285613862565b9150613c8c8284613862565b91508190509392505050565b6000613ca48286613862565b9150613cb08285613862565b9150613cbc8284613862565b9150819050949350505050565b6000613cd482613b4f565b9150613cdf82613942565b9150613cea82613a7d565b9150613cf5826139ce565b9150613d0082613aa0565b9150613d0c8284613862565b9150613d1782613a14565b9150613d2282613ae6565b915081905092915050565b6000613d3882613b95565b9150613d448284613862565b915081905092915050565b6000613d5a82613bb8565b9150819050919050565b6000602082019050613d7960008301846137c3565b92915050565b6000604082019050613d9460008301856137c3565b613da160208301846137c3565b9392505050565b6000608082019050613dbd60008301876137c3565b613dca60208301866137c3565b613dd76040830185613c30565b8181036060830152613de981846137f0565b905095945050505050565b6000602082019050613e0960008301846137d2565b92915050565b6000604082019050613e2460008301856137d2565b8181036020830152613e3681846137f0565b90509392505050565b600060a082019050613e5460008301886137e1565b613e616020830187613c4e565b613e6e6040830186613c21565b613e7b6060830185613c3f565b613e886080830184613c3f565b9695505050505050565b60006020820190508181036000830152613eac8184613829565b905092915050565b60006020820190508181036000830152613ecd81613893565b9050919050565b60006020820190508181036000830152613eed816138b6565b9050919050565b60006020820190508181036000830152613f0d816138d9565b9050919050565b60006020820190508181036000830152613f2d816138fc565b9050919050565b60006020820190508181036000830152613f4d8161391f565b9050919050565b60006020820190508181036000830152613f6d81613965565b9050919050565b60006020820190508181036000830152613f8d81613988565b9050919050565b60006020820190508181036000830152613fad816139ab565b9050919050565b60006020820190508181036000830152613fcd816139f1565b9050919050565b60006020820190508181036000830152613fed81613a37565b9050919050565b6000602082019050818103600083015261400d81613a5a565b9050919050565b6000602082019050818103600083015261402d81613ac3565b9050919050565b6000602082019050818103600083015261404d81613b09565b9050919050565b6000602082019050818103600083015261406d81613b2c565b9050919050565b6000602082019050818103600083015261408d81613b72565b9050919050565b600060208201905081810360008301526140ad81613bdb565b9050919050565b600060208201905081810360008301526140cd81613bfe565b9050919050565b60006020820190506140e96000830184613c30565b92915050565b60006040820190506141046000830185613c30565b6141116020830184613c30565b9392505050565b6000614122614133565b905061412e8282614421565b919050565b6000604051905090565b600067ffffffffffffffff82111561415857614157614559565b5b602082029050602081019050919050565b600067ffffffffffffffff82111561418457614183614559565b5b61418d82614588565b9050602081019050919050565b600081519050919050565b600081519050919050565b600082825260208201905092915050565b600081905092915050565b600082825260208201905092915050565b600081905092915050565b60006141f38261437f565b91506141fe8361437f565b9250827fffffffffffffffffffffffffffffffffffffffffffffffffffffffffffffffff03821115614233576142326144cc565b5b828201905092915050565b60006142498261437f565b91506142548361437f565b925082614264576142636144fb565b5b828204905092915050565b600061427a8261437f565b91506142858361437f565b9250817fffffffffffffffffffffffffffffffffffffffffffffffffffffffffffffffff04831182151516156142be576142bd6144cc565b5b828202905092915050565b60006142d48261437f565b91506142df8361437f565b9250828210156142f2576142f16144cc565b5b828203905092915050565b60006143088261435f565b9050919050565b60008115159050919050565b6000819050919050565b60007fffffffff0000000000000000000000000000000000000000000000000000000082169050919050565b600061ffff82169050919050565b600073ffffffffffffffffffffffffffffffffffffffff82169050919050565b6000819050919050565b600063ffffffff82169050919050565b600067ffffffffffffffff82169050919050565b82818337600083830152505050565b60005b838110156143da5780820151818401526020810190506143bf565b838111156143e9576000848401525b50505050565b6000600282049050600182168061440757607f821691505b6020821081141561441b5761441a61452a565b5b50919050565b61442a82614588565b810181811067ffffffffffffffff8211171561444957614448614559565b5b80604052505050565b600061445d8261437f565b91507fffffffffffffffffffffffffffffffffffffffffffffffffffffffffffffffff8214156144905761448f6144cc565b5b600182019050919050565b60006144a68261437f565b91506144b18361437f565b9250826144c1576144c06144fb565b5b828206905092915050565b7f4e487b7100000000000000000000000000000000000000000000000000000000600052601160045260246000fd5b7f4e487b7100000000000000000000000000000000000000000000000000000000600052601260045260246000fd5b7f4e487b7100000000000000000000000000000000000000000000000000000000600052602260045260246000fd5b7f4e487b7100000000000000000000000000000000000000000000000000000000600052604160045260246000fd5b6000601f19601f8301169050919050565b7f455243373231456e756d657261626c653a206f776e657220696e646578206f7560008201527f74206f6620626f756e6473000000000000000000000000000000000000000000602082015250565b7f4552433732313a207472616e7366657220746f206e6f6e20455243373231526560008201527f63656976657220696d706c656d656e7465720000000000000000000000000000602082015250565b7f4f776e61626c653a206e6577206f776e657220697320746865207a65726f206160008201527f6464726573730000000000000000000000000000000000000000000000000000602082015250565b7f4552433732313a207472616e736665722066726f6d20696e636f72726563742060008201527f6f776e6572000000000000000000000000000000000000000000000000000000602082015250565b7f4552433732313a20746f6b656e20616c7265616479206d696e74656400000000600082015250565b7f226e616d65223a224e4654222c20000000000000000000000000000000000000600082015250565b7f4552433732313a207472616e7366657220746f20746865207a65726f2061646460008201527f7265737300000000000000000000000000000000000000000000000000000000602082015250565b7f4552433732313a20617070726f766520746f2063616c6c657200000000000000600082015250565b7f4552433732313a206f70657261746f7220717565727920666f72206e6f6e657860008201527f697374656e7420746f6b656e0000000000000000000000000000000000000000602082015250565b7f2261747472696275746573223a22222c20000000000000000000000000000000600082015250565b7f4552433732313a20617070726f76652063616c6c6572206973206e6f74206f7760008201527f6e6572206e6f7220617070726f76656420666f7220616c6c0000000000000000602082015250565b7f2200000000000000000000000000000000000000000000000000000000000000600082015250565b7f4552433732313a2062616c616e636520717565727920666f7220746865207a6560008201527f726f206164647265737300000000000000000000000000000000000000000000602082015250565b7f4552433732313a206f776e657220717565727920666f72206e6f6e657869737460008201527f656e7420746f6b656e0000000000000000000000000000000000000000000000602082015250565b7f226465736372697074696f6e223a2242617463682d72657665616c6564204e4660008201527f5421222c20000000000000000000000000000000000000000000000000000000602082015250565b7f22696d616765223a220000000000000000000000000000000000000000000000600082015250565b7f4552433732313a206d696e7420746f20746865207a65726f2061646472657373600082015250565b7f7d00000000000000000000000000000000000000000000000000000000000000600082015250565b7f4552433732313a20617070726f76656420717565727920666f72206e6f6e657860008201527f697374656e7420746f6b656e0000000000000000000000000000000000000000602082015250565b7f4f776e61626c653a2063616c6c6572206973206e6f7420746865206f776e6572600082015250565b7f7b00000000000000000000000000000000000000000000000000000000000000600082015250565b7f4552433732313a20617070726f76616c20746f2063757272656e74206f776e6560008201527f7200000000000000000000000000000000000000000000000000000000000000602082015250565b7f646174613a6170706c69636174696f6e2f6a736f6e3b6261736536342c000000600082015250565b50565b7f4552433732313a207472616e736665722063616c6c6572206973206e6f74206f60008201527f776e6572206e6f7220617070726f766564000000000000000000000000000000602082015250565b7f455243373231456e756d657261626c653a20676c6f62616c20696e646578206f60008201527f7574206f6620626f756e64730000000000000000000000000000000000000000602082015250565b614bba816142fd565b8114614bc557600080fd5b50565b614bd18161430f565b8114614bdc57600080fd5b50565b614be881614325565b8114614bf357600080fd5b50565b614bff8161437f565b8114614c0a57600080fd5b5056fe4142434445464748494a4b4c4d4e4f505152535455565758595a6162636465666768696a6b6c6d6e6f707172737475767778797a303132333435363738392b2f3c73766720786d6c6e733d22687474703a2f2f7777772e77332e6f72672f323030302f73766722207072657365727665417370656374526174696f3d22784d696e594d696e206d656574222076696577426f783d223020302033353020333530223e3c7374796c653e2e62617365207b2066696c6c3a2077686974653b20666f6e742d66616d696c793a2073657269663b20666f6e742d73697a653a203870783b207d3c2f7374796c653e3c726563742077696474683d223130302522206865696768743d2231303025222066696c6c3d22626c61636b22202f3e3c7465787420783d2231302220793d2232302220636c6173733d2262617365223ea2646970667358221220c9825c6d0367625508d8c4ccc39a34a13a550d5d3f9a9d4d8a07d77f73df954f64736f6c63430008040033",
  "linkReferences": {},
  "deployedLinkReferences": {}
}