{
  "_format": "hh-sol-artifact-1",
  "contractName": "NFTCollection",
  "sourceName": "contracts/NFTCollection.sol",
  "abi": [
    {
      "inputs": [
        {
          "internalType": "string",
          "name": "_name",
          "type": "string"
        },
        {
          "internalType": "string",
          "name": "_symbol",
          "type": "string"
        },
        {
          "internalType": "uint256",
          "name": "_maxSupply",
          "type": "uint256"
        },
        {
          "internalType": "uint256",
          "name": "_mintCost",
          "type": "uint256"
        },
        {
          "internalType": "uint256",
          "name": "_revealBatchSize",
          "type": "uint256"
        },
        {
          "internalType": "uint256",
          "name": "_revealInterval",
          "type": "uint256"
        },
        {
          "internalType": "address",
          "name": "_vrfCoordinatorV2",
          "type": "address"
        },
        {
          "internalType": "uint64",
          "name": "_vrfSubscriptionId",
          "type": "uint64"
        },
        {
          "internalType": "bytes32",
          "name": "_vrfGasLane",
          "type": "bytes32"
        },
        {
          "internalType": "uint32",
          "name": "_vrfCallbackGasLimit",
          "type": "uint32"
        }
      ],
      "stateMutability": "nonpayable",
      "type": "constructor"
    },
    {
      "inputs": [],
      "name": "InsufficientFunds",
      "type": "error"
    },
    {
      "inputs": [],
      "name": "InsufficientLINK",
      "type": "error"
    },
    {
      "inputs": [],
      "name": "InvalidAmount",
      "type": "error"
    },
    {
      "inputs": [],
      "name": "MaxSupplyReached",
      "type": "error"
    },
    {
      "inputs": [],
      "name": "NonExistentToken",
      "type": "error"
    },
    {
      "inputs": [
        {
          "internalType": "address",
          "name": "have",
          "type": "address"
        },
        {
          "internalType": "address",
          "name": "want",
          "type": "address"
        }
      ],
      "name": "OnlyCoordinatorCanFulfill",
      "type": "error"
    },
    {
      "inputs": [],
      "name": "RevealCriteriaNotMet",
      "type": "error"
    },
    {
      "inputs": [],
      "name": "RevealInProgress",
      "type": "error"
    },
    {
      "inputs": [],
      "name": "WithdrawProceedsFailed",
      "type": "error"
    },
    {
      "anonymous": false,
      "inputs": [
        {
          "indexed": true,
          "internalType": "address",
          "name": "owner",
          "type": "address"
        },
        {
          "indexed": true,
          "internalType": "address",
          "name": "approved",
          "type": "address"
        },
        {
          "indexed": true,
          "internalType": "uint256",
          "name": "tokenId",
          "type": "uint256"
        }
      ],
      "name": "Approval",
      "type": "event"
    },
    {
      "anonymous": false,
      "inputs": [
        {
          "indexed": true,
          "internalType": "address",
          "name": "owner",
          "type": "address"
        },
        {
          "indexed": true,
          "internalType": "address",
          "name": "operator",
          "type": "address"
        },
        {
          "indexed": false,
          "internalType": "bool",
          "name": "approved",
          "type": "bool"
        }
      ],
      "name": "ApprovalForAll",
      "type": "event"
    },
    {
      "anonymous": false,
      "inputs": [
        {
          "indexed": false,
          "internalType": "uint256",
          "name": "startIndex",
          "type": "uint256"
        },
        {
          "indexed": false,
          "internalType": "uint256",
          "name": "endIndex",
          "type": "uint256"
        }
      ],
      "name": "BatchRevealFinished",
      "type": "event"
    },
    {
      "anonymous": false,
      "inputs": [
        {
          "indexed": false,
          "internalType": "uint256",
          "name": "requestId",
          "type": "uint256"
        }
      ],
      "name": "BatchRevealRequested",
      "type": "event"
    },
    {
      "anonymous": false,
      "inputs": [
        {
          "indexed": true,
          "internalType": "address",
          "name": "previousOwner",
          "type": "address"
        },
        {
          "indexed": true,
          "internalType": "address",
          "name": "newOwner",
          "type": "address"
        }
      ],
      "name": "OwnershipTransferred",
      "type": "event"
    },
    {
      "anonymous": false,
      "inputs": [
        {
          "indexed": true,
          "internalType": "address",
          "name": "from",
          "type": "address"
        },
        {
          "indexed": true,
          "internalType": "address",
          "name": "to",
          "type": "address"
        },
        {
          "indexed": true,
          "internalType": "uint256",
          "name": "tokenId",
          "type": "uint256"
        }
      ],
      "name": "Transfer",
      "type": "event"
    },
    {
      "inputs": [
        {
          "internalType": "string",
          "name": "str",
          "type": "string"
        },
        {
          "internalType": "uint256",
          "name": "startIndex",
          "type": "uint256"
        },
        {
          "internalType": "uint256",
          "name": "endIndex",
          "type": "uint256"
        }
      ],
      "name": "_substring",
      "outputs": [
        {
          "internalType": "string",
          "name": "",
          "type": "string"
        }
      ],
      "stateMutability": "pure",
      "type": "function"
    },
    {
      "inputs": [
        {
          "internalType": "address",
          "name": "to",
          "type": "address"
        },
        {
          "internalType": "uint256",
          "name": "tokenId",
          "type": "uint256"
        }
      ],
      "name": "approve",
      "outputs": [],
      "stateMutability": "nonpayable",
      "type": "function"
    },
    {
      "inputs": [
        {
          "internalType": "address",
          "name": "owner",
          "type": "address"
        }
      ],
      "name": "balanceOf",
      "outputs": [
        {
          "internalType": "uint256",
          "name": "",
          "type": "uint256"
        }
      ],
      "stateMutability": "view",
      "type": "function"
    },
    {
      "inputs": [],
      "name": "batchSize",
      "outputs": [
        {
          "internalType": "uint256",
          "name": "",
          "type": "uint256"
        }
      ],
      "stateMutability": "view",
      "type": "function"
    },
    {
      "inputs": [
        {
          "internalType": "bytes",
          "name": "",
          "type": "bytes"
        }
      ],
      "name": "checkUpkeep",
      "outputs": [
        {
          "internalType": "bool",
          "name": "upkeepNeeded",
          "type": "bool"
        },
        {
          "internalType": "bytes",
          "name": "",
          "type": "bytes"
        }
      ],
      "stateMutability": "view",
      "type": "function"
    },
    {
      "inputs": [
        {
          "internalType": "uint256",
          "name": "tokenId",
          "type": "uint256"
        }
      ],
      "name": "getApproved",
      "outputs": [
        {
          "internalType": "address",
          "name": "",
          "type": "address"
        }
      ],
      "stateMutability": "view",
      "type": "function"
    },
    {
      "inputs": [
        {
          "internalType": "address",
          "name": "owner",
          "type": "address"
        },
        {
          "internalType": "address",
          "name": "operator",
          "type": "address"
        }
      ],
      "name": "isApprovedForAll",
      "outputs": [
        {
          "internalType": "bool",
          "name": "",
          "type": "bool"
        }
      ],
      "stateMutability": "view",
      "type": "function"
    },
    {
      "inputs": [],
      "name": "lastRevealed",
      "outputs": [
        {
          "internalType": "uint256",
          "name": "",
          "type": "uint256"
        }
      ],
      "stateMutability": "view",
      "type": "function"
    },
    {
      "inputs": [],
      "name": "maxSupply",
      "outputs": [
        {
          "internalType": "uint256",
          "name": "",
          "type": "uint256"
        }
      ],
      "stateMutability": "view",
      "type": "function"
    },
    {
      "inputs": [
        {
          "internalType": "uint256",
          "name": "_amount",
          "type": "uint256"
        }
      ],
      "name": "mint",
      "outputs": [],
      "stateMutability": "payable",
      "type": "function"
    },
    {
      "inputs": [],
      "name": "mintCost",
      "outputs": [
        {
          "internalType": "uint256",
          "name": "",
          "type": "uint256"
        }
      ],
      "stateMutability": "view",
      "type": "function"
    },
    {
      "inputs": [],
      "name": "name",
      "outputs": [
        {
          "internalType": "string",
          "name": "",
          "type": "string"
        }
      ],
      "stateMutability": "view",
      "type": "function"
    },
    {
      "inputs": [],
      "name": "owner",
      "outputs": [
        {
          "internalType": "address",
          "name": "",
          "type": "address"
        }
      ],
      "stateMutability": "view",
      "type": "function"
    },
    {
      "inputs": [
        {
          "internalType": "uint256",
          "name": "tokenId",
          "type": "uint256"
        }
      ],
      "name": "ownerOf",
      "outputs": [
        {
          "internalType": "address",
          "name": "",
          "type": "address"
        }
      ],
      "stateMutability": "view",
      "type": "function"
    },
    {
      "inputs": [
        {
          "internalType": "bytes",
          "name": "",
          "type": "bytes"
        }
      ],
      "name": "performUpkeep",
      "outputs": [],
      "stateMutability": "nonpayable",
      "type": "function"
    },
    {
      "inputs": [
        {
          "internalType": "uint256",
          "name": "requestId",
          "type": "uint256"
        },
        {
          "internalType": "uint256[]",
          "name": "randomWords",
          "type": "uint256[]"
        }
      ],
      "name": "rawFulfillRandomWords",
      "outputs": [],
      "stateMutability": "nonpayable",
      "type": "function"
    },
    {
      "inputs": [],
      "name": "renounceOwnership",
      "outputs": [],
      "stateMutability": "nonpayable",
      "type": "function"
    },
    {
      "inputs": [],
      "name": "revealInterval",
      "outputs": [
        {
          "internalType": "uint256",
          "name": "",
          "type": "uint256"
        }
      ],
      "stateMutability": "view",
      "type": "function"
    },
    {
      "inputs": [],
      "name": "revealPendingMetadata",
      "outputs": [
        {
          "internalType": "uint256",
          "name": "requestId",
          "type": "uint256"
        }
      ],
      "stateMutability": "nonpayable",
      "type": "function"
    },
    {
      "inputs": [],
      "name": "revealedCount",
      "outputs": [
        {
          "internalType": "uint256",
          "name": "",
          "type": "uint256"
        }
      ],
      "stateMutability": "view",
      "type": "function"
    },
    {
      "inputs": [
        {
          "internalType": "address",
          "name": "from",
          "type": "address"
        },
        {
          "internalType": "address",
          "name": "to",
          "type": "address"
        },
        {
          "internalType": "uint256",
          "name": "tokenId",
          "type": "uint256"
        }
      ],
      "name": "safeTransferFrom",
      "outputs": [],
      "stateMutability": "nonpayable",
      "type": "function"
    },
    {
      "inputs": [
        {
          "internalType": "address",
          "name": "from",
          "type": "address"
        },
        {
          "internalType": "address",
          "name": "to",
          "type": "address"
        },
        {
          "internalType": "uint256",
          "name": "tokenId",
          "type": "uint256"
        },
        {
          "internalType": "bytes",
          "name": "data",
          "type": "bytes"
        }
      ],
      "name": "safeTransferFrom",
      "outputs": [],
      "stateMutability": "nonpayable",
      "type": "function"
    },
    {
      "inputs": [
        {
          "internalType": "address",
          "name": "operator",
          "type": "address"
        },
        {
          "internalType": "bool",
          "name": "approved",
          "type": "bool"
        }
      ],
      "name": "setApprovalForAll",
      "outputs": [],
      "stateMutability": "nonpayable",
      "type": "function"
    },
    {
      "inputs": [
        {
          "internalType": "uint256",
          "name": "_revealBatchSize",
          "type": "uint256"
        }
      ],
      "name": "setRevealBatchSize",
      "outputs": [],
      "stateMutability": "nonpayable",
      "type": "function"
    },
    {
      "inputs": [
        {
          "internalType": "uint256",
          "name": "_revealInterval",
          "type": "uint256"
        }
      ],
      "name": "setRevealInterval",
      "outputs": [],
      "stateMutability": "nonpayable",
      "type": "function"
    },
    {
      "inputs": [],
      "name": "shouldReveal",
      "outputs": [
        {
          "internalType": "bool",
          "name": "",
          "type": "bool"
        }
      ],
      "stateMutability": "view",
      "type": "function"
    },
    {
      "inputs": [
        {
          "internalType": "bytes4",
          "name": "interfaceId",
          "type": "bytes4"
        }
      ],
      "name": "supportsInterface",
      "outputs": [
        {
          "internalType": "bool",
          "name": "",
          "type": "bool"
        }
      ],
      "stateMutability": "view",
      "type": "function"
    },
    {
      "inputs": [],
      "name": "symbol",
      "outputs": [
        {
          "internalType": "string",
          "name": "",
          "type": "string"
        }
      ],
      "stateMutability": "view",
      "type": "function"
    },
    {
      "inputs": [
        {
          "internalType": "uint256",
          "name": "index",
          "type": "uint256"
        }
      ],
      "name": "tokenByIndex",
      "outputs": [
        {
          "internalType": "uint256",
          "name": "",
          "type": "uint256"
        }
      ],
      "stateMutability": "view",
      "type": "function"
    },
    {
      "inputs": [
        {
          "internalType": "address",
          "name": "owner",
          "type": "address"
        },
        {
          "internalType": "uint256",
          "name": "index",
          "type": "uint256"
        }
      ],
      "name": "tokenOfOwnerByIndex",
      "outputs": [
        {
          "internalType": "uint256",
          "name": "",
          "type": "uint256"
        }
      ],
      "stateMutability": "view",
      "type": "function"
    },
    {
      "inputs": [
        {
          "internalType": "uint256",
          "name": "tokenId",
          "type": "uint256"
        }
      ],
      "name": "tokenURI",
      "outputs": [
        {
          "internalType": "string",
          "name": "",
          "type": "string"
        }
      ],
      "stateMutability": "view",
      "type": "function"
    },
    {
      "inputs": [],
      "name": "totalSupply",
      "outputs": [
        {
          "internalType": "uint256",
          "name": "",
          "type": "uint256"
        }
      ],
      "stateMutability": "view",
      "type": "function"
    },
    {
      "inputs": [
        {
          "internalType": "address",
          "name": "from",
          "type": "address"
        },
        {
          "internalType": "address",
          "name": "to",
          "type": "address"
        },
        {
          "internalType": "uint256",
          "name": "tokenId",
          "type": "uint256"
        }
      ],
      "name": "transferFrom",
      "outputs": [],
      "stateMutability": "nonpayable",
      "type": "function"
    },
    {
      "inputs": [
        {
          "internalType": "address",
          "name": "newOwner",
          "type": "address"
        }
      ],
      "name": "transferOwnership",
      "outputs": [],
      "stateMutability": "nonpayable",
      "type": "function"
    },
    {
      "inputs": [],
      "name": "withdrawProceeds",
      "outputs": [],
      "stateMutability": "nonpayable",
      "type": "function"
    }
  ],
  "bytecode": "0x61016060405242600e553480156200001657600080fd5b5060405162005bd238038062005bd283398181016040528101906200003c9190620003d2565b838a8a6200005f620000536200017160201b60201c565b6200017960201b60201c565b8160019080519060200190620000779291906200023d565b508060029080519060200190620000909291906200023d565b5050508073ffffffffffffffffffffffffffffffffffffffff1660808173ffffffffffffffffffffffffffffffffffffffff1660601b81525050508760a081815250508660c081815250508373ffffffffffffffffffffffffffffffffffffffff1660e08173ffffffffffffffffffffffffffffffffffffffff1660601b815250508267ffffffffffffffff166101008167ffffffffffffffff1660c01b815250508161012081815250508063ffffffff166101408163ffffffff1660e01b8152505085600c8190555084600d819055505050505050505050505062000752565b600033905090565b60008060009054906101000a900473ffffffffffffffffffffffffffffffffffffffff169050816000806101000a81548173ffffffffffffffffffffffffffffffffffffffff021916908373ffffffffffffffffffffffffffffffffffffffff1602179055508173ffffffffffffffffffffffffffffffffffffffff168173ffffffffffffffffffffffffffffffffffffffff167f8be0079c531659141344cd1fd0a4f28419497f9722a3daafe3b4186f6b6457e060405160405180910390a35050565b8280546200024b90620005f5565b90600052602060002090601f0160209004810192826200026f5760008555620002bb565b82601f106200028a57805160ff1916838001178555620002bb565b82800160010185558215620002bb579182015b82811115620002ba5782518255916020019190600101906200029d565b5b509050620002ca9190620002ce565b5090565b5b80821115620002e9576000816000905550600101620002cf565b5090565b600062000304620002fe846200051d565b620004f4565b9050828152602081018484840111156200031d57600080fd5b6200032a848285620005bf565b509392505050565b6000815190506200034381620006d0565b92915050565b6000815190506200035a81620006ea565b92915050565b600082601f8301126200037257600080fd5b815162000384848260208601620002ed565b91505092915050565b6000815190506200039e8162000704565b92915050565b600081519050620003b5816200071e565b92915050565b600081519050620003cc8162000738565b92915050565b6000806000806000806000806000806101408b8d031215620003f357600080fd5b60008b015167ffffffffffffffff8111156200040e57600080fd5b6200041c8d828e0162000360565b9a505060208b015167ffffffffffffffff8111156200043a57600080fd5b620004488d828e0162000360565b99505060406200045b8d828e016200038d565b98505060606200046e8d828e016200038d565b9750506080620004818d828e016200038d565b96505060a0620004948d828e016200038d565b95505060c0620004a78d828e0162000332565b94505060e0620004ba8d828e01620003bb565b935050610100620004ce8d828e0162000349565b925050610120620004e28d828e01620003a4565b9150509295989b9194979a5092959850565b60006200050062000513565b90506200050e82826200062b565b919050565b6000604051905090565b600067ffffffffffffffff8211156200053b576200053a62000690565b5b6200054682620006bf565b9050602081019050919050565b6000620005608262000571565b9050919050565b6000819050919050565b600073ffffffffffffffffffffffffffffffffffffffff82169050919050565b6000819050919050565b600063ffffffff82169050919050565b600067ffffffffffffffff82169050919050565b60005b83811015620005df578082015181840152602081019050620005c2565b83811115620005ef576000848401525b50505050565b600060028204905060018216806200060e57607f821691505b6020821081141562000625576200062462000661565b5b50919050565b6200063682620006bf565b810181811067ffffffffffffffff8211171562000658576200065762000690565b5b80604052505050565b7f4e487b7100000000000000000000000000000000000000000000000000000000600052602260045260246000fd5b7f4e487b7100000000000000000000000000000000000000000000000000000000600052604160045260246000fd5b6000601f19601f8301169050919050565b620006db8162000553565b8114620006e757600080fd5b50565b620006f58162000567565b81146200070157600080fd5b50565b6200070f8162000591565b81146200071b57600080fd5b50565b62000729816200059b565b81146200073557600080fd5b50565b6200074381620005ab565b81146200074f57600080fd5b50565b60805160601c60a05160c05160e05160601c6101005160c01c610120516101405160e01c615404620007ce600039600061119f0152600061115b0152600061117c0152600061111f015260008181611338015261146d0152600081816112d2015261159e015260008181610acd0152610b2101526154046000f3fe6080604052600436106102045760003560e01c80637b4fab5a11610118578063bbd78e93116100a0578063d5abeb011161006f578063d5abeb011461075b578063e985e9c514610786578063f00ed965146107c3578063f2fde38b14610800578063f4daaba11461082957610204565b8063bbd78e931461069d578063bdb4b848146106c8578063c87b56dd146106f3578063cf3b94cd1461073057610204565b806396634a40116100e757806396634a40146105db578063a0712d6814610606578063a22cb46514610622578063aaae4e231461064b578063b88d4fde1461067457610204565b80637b4fab5a146105435780638da5cb5b1461056e5780639038e6931461059957806395d89b41146105b057610204565b80632f745c591161019b5780635c65d81f1161016a5780635c65d81f1461044b5780636352211e146104745780636e04ff0d146104b157806370a08231146104ef578063715018a61461052c57610204565b80632f745c591461037f57806342842e0e146103bc5780634585e33b146103e55780634f6ccce71461040e57610204565b806318160ddd116101d757806318160ddd146102d75780631fe543e31461030257806323b872dd1461032b578063247cd8ad1461035457610204565b806301ffc9a71461020957806306fdde0314610246578063081812fc14610271578063095ea7b3146102ae575b600080fd5b34801561021557600080fd5b50610230600480360381019061022b9190613b4d565b610854565b60405161023d91906143c1565b60405180910390f35b34801561025257600080fd5b5061025b6108ce565b604051610268919061445f565b60405180910390f35b34801561027d57600080fd5b5061029860048036038101906102939190613c4b565b610960565b6040516102a59190614331565b60405180910390f35b3480156102ba57600080fd5b506102d560048036038101906102d09190613b11565b6109a6565b005b3480156102e357600080fd5b506102ec610abe565b6040516102f99190614661565b60405180910390f35b34801561030e57600080fd5b5061032960048036038101906103249190613c9d565b610acb565b005b34801561033757600080fd5b50610352600480360381019061034d9190613a0b565b610b8b565b005b34801561036057600080fd5b50610369610beb565b6040516103769190614661565b60405180910390f35b34801561038b57600080fd5b506103a660048036038101906103a19190613b11565b610bf5565b6040516103b39190614661565b60405180910390f35b3480156103c857600080fd5b506103e360048036038101906103de9190613a0b565b610c9a565b005b3480156103f157600080fd5b5061040c60048036038101906104079190613b9f565b610cba565b005b34801561041a57600080fd5b5061043560048036038101906104309190613c4b565b610cc7565b6040516104429190614661565b60405180910390f35b34801561045757600080fd5b50610472600480360381019061046d9190613c4b565b610d5e565b005b34801561048057600080fd5b5061049b60048036038101906104969190613c4b565b610d70565b6040516104a89190614331565b60405180910390f35b3480156104bd57600080fd5b506104d860048036038101906104d39190613b9f565b610e22565b6040516104e69291906143dc565b60405180910390f35b3480156104fb57600080fd5b50610516600480360381019061051191906139a6565b610e50565b6040516105239190614661565b60405180910390f35b34801561053857600080fd5b50610541610f08565b005b34801561054f57600080fd5b50610558610f1c565b6040516105659190614661565b60405180910390f35b34801561057a57600080fd5b50610583610f26565b6040516105909190614331565b60405180910390f35b3480156105a557600080fd5b506105ae610f4f565b005b3480156105bc57600080fd5b506105c5611004565b6040516105d2919061445f565b60405180910390f35b3480156105e757600080fd5b506105f0611096565b6040516105fd9190614661565b60405180910390f35b610620600480360381019061061b9190613c4b565b611289565b005b34801561062e57600080fd5b5061064960048036038101906106449190613ad5565b6113d5565b005b34801561065757600080fd5b50610672600480360381019061066d9190613c4b565b6113eb565b005b34801561068057600080fd5b5061069b60048036038101906106969190613a5a565b6113fd565b005b3480156106a957600080fd5b506106b261145f565b6040516106bf9190614661565b60405180910390f35b3480156106d457600080fd5b506106dd611469565b6040516106ea9190614661565b60405180910390f35b3480156106ff57600080fd5b5061071a60048036038101906107159190613c4b565b611491565b604051610727919061445f565b60405180910390f35b34801561073c57600080fd5b50610745611511565b60405161075291906143c1565b60405180910390f35b34801561076757600080fd5b5061077061159a565b60405161077d9190614661565b60405180910390f35b34801561079257600080fd5b506107ad60048036038101906107a891906139cf565b6115c2565b6040516107ba91906143c1565b60405180910390f35b3480156107cf57600080fd5b506107ea60048036038101906107e59190613be4565b611656565b6040516107f7919061445f565b60405180910390f35b34801561080c57600080fd5b50610827600480360381019061082291906139a6565b6117c4565b005b34801561083557600080fd5b5061083e611848565b60405161084b9190614661565b60405180910390f35b600061085f82611852565b806108c757507fe7fb86c6000000000000000000000000000000000000000000000000000000007bffffffffffffffffffffffffffffffffffffffffffffffffffffffff1916827bffffffffffffffffffffffffffffffffffffffffffffffffffffffff1916145b9050919050565b6060600180546108dd90614a2c565b80601f016020809104026020016040519081016040528092919081815260200182805461090990614a2c565b80156109565780601f1061092b57610100808354040283529160200191610956565b820191906000526020600020905b81548152906001019060200180831161093957829003601f168201915b5050505050905090565b600061096b826118cc565b6005600083815260200190815260200160002060009054906101000a900473ffffffffffffffffffffffffffffffffffffffff169050919050565b60006109b182610d70565b90508073ffffffffffffffffffffffffffffffffffffffff168373ffffffffffffffffffffffffffffffffffffffff161415610a22576040517f08c379a0000000000000000000000000000000000000000000000000000000008152600401610a1990614601565b60405180910390fd5b8073ffffffffffffffffffffffffffffffffffffffff16610a41611917565b73ffffffffffffffffffffffffffffffffffffffff161480610a705750610a6f81610a6a611917565b6115c2565b5b610aaf576040517f08c379a0000000000000000000000000000000000000000000000000000000008152600401610aa690614581565b60405180910390fd5b610ab9838361191f565b505050565b6000600980549050905090565b7f000000000000000000000000000000000000000000000000000000000000000073ffffffffffffffffffffffffffffffffffffffff163373ffffffffffffffffffffffffffffffffffffffff1614610b7d57337f00000000000000000000000000000000000000000000000000000000000000006040517f1cf993f4000000000000000000000000000000000000000000000000000000008152600401610b7492919061434c565b60405180910390fd5b610b8782826119d8565b5050565b610b9c610b96611917565b82611a26565b610bdb576040517f08c379a0000000000000000000000000000000000000000000000000000000008152600401610bd290614641565b60405180910390fd5b610be6838383611abb565b505050565b6000600d54905090565b6000610c0083610e50565b8210610c41576040517f08c379a0000000000000000000000000000000000000000000000000000000008152600401610c3890614481565b60405180910390fd5b600760008473ffffffffffffffffffffffffffffffffffffffff1673ffffffffffffffffffffffffffffffffffffffff168152602001908152602001600020600083815260200190815260200160002054905092915050565b610cb5838383604051806020016040528060008152506113fd565b505050565b610cc2611096565b505050565b6000610cd1610abe565b8210610d12576040517f08c379a0000000000000000000000000000000000000000000000000000000008152600401610d0990614621565b60405180910390fd5b60098281548110610d4c577f4e487b7100000000000000000000000000000000000000000000000000000000600052603260045260246000fd5b90600052602060002001549050919050565b610d66611d22565b80600d8190555050565b6000806003600084815260200190815260200160002060009054906101000a900473ffffffffffffffffffffffffffffffffffffffff169050600073ffffffffffffffffffffffffffffffffffffffff168173ffffffffffffffffffffffffffffffffffffffff161415610e19576040517f08c379a0000000000000000000000000000000000000000000000000000000008152600401610e10906145e1565b60405180910390fd5b80915050919050565b60006060600f60009054906101000a900460ff16158015610e475750610e46611511565b5b91509250929050565b60008073ffffffffffffffffffffffffffffffffffffffff168273ffffffffffffffffffffffffffffffffffffffff161415610ec1576040517f08c379a0000000000000000000000000000000000000000000000000000000008152600401610eb890614561565b60405180910390fd5b600460008373ffffffffffffffffffffffffffffffffffffffff1673ffffffffffffffffffffffffffffffffffffffff168152602001908152602001600020549050919050565b610f10611d22565b610f1a6000611da0565b565b6000600e54905090565b60008060009054906101000a900473ffffffffffffffffffffffffffffffffffffffff16905090565b610f57611d22565b6000610f61610f26565b73ffffffffffffffffffffffffffffffffffffffff1647604051610f849061431c565b60006040518083038185875af1925050503d8060008114610fc1576040519150601f19603f3d011682016040523d82523d6000602084013e610fc6565b606091505b5050905080611001576040517f0ca5b23000000000000000000000000000000000000000000000000000000000815260040160405180910390fd5b50565b60606002805461101390614a2c565b80601f016020809104026020016040519081016040528092919081815260200182805461103f90614a2c565b801561108c5780601f106110615761010080835404028352916020019161108c565b820191906000526020600020905b81548152906001019060200180831161106f57829003601f168201915b5050505050905090565b6000600f60009054906101000a900460ff16156110df576040517fd0cf055400000000000000000000000000000000000000000000000000000000815260040160405180910390fd5b6110e7611511565b61111d576040517f4e628ebc00000000000000000000000000000000000000000000000000000000815260040160405180910390fd5b7f000000000000000000000000000000000000000000000000000000000000000073ffffffffffffffffffffffffffffffffffffffff16635d3b1d307f00000000000000000000000000000000000000000000000000000000000000007f000000000000000000000000000000000000000000000000000000000000000060037f000000000000000000000000000000000000000000000000000000000000000060016040518663ffffffff1660e01b81526004016111e095949392919061440c565b602060405180830381600087803b1580156111fa57600080fd5b505af115801561120e573d6000803e3d6000fd5b505050506040513d601f19601f820116820180604052508101906112329190613c74565b90506001600f60006101000a81548160ff0219169083151502179055507f8d83bdd6db199ff596cec09ea8e4f4e50da2dcb4020bc2a1cf072c507056b1ea8160405161127e9190614661565b60405180910390a190565b6000611293610abe565b905060008214156112d0576040517f2c5211c600000000000000000000000000000000000000000000000000000000815260040160405180910390fd5b7f000000000000000000000000000000000000000000000000000000000000000082826112fd91906147a6565b1115611335576040517fd05cb60900000000000000000000000000000000000000000000000000000000815260040160405180910390fd5b817f00000000000000000000000000000000000000000000000000000000000000006113619190614864565b34101561139a576040517f356680b700000000000000000000000000000000000000000000000000000000815260040160405180910390fd5b6000600190505b8281116113d0576113bd3382846113b891906147a6565b611e64565b80806113c890614a8f565b9150506113a1565b505050565b6113e76113e0611917565b8383611e82565b5050565b6113f3611d22565b80600c8190555050565b61140e611408611917565b83611a26565b61144d576040517f08c379a000000000000000000000000000000000000000000000000000000000815260040161144490614641565b60405180910390fd5b61145984848484611fef565b50505050565b6000600b54905090565b60007f0000000000000000000000000000000000000000000000000000000000000000905090565b606061149c8261204b565b6114d2576040517f9430a17e00000000000000000000000000000000000000000000000000000000815260040160405180910390fd5b6000806114de846120b7565b9150915060006114ee838361220b565b905060006114fb82612841565b9050611506816128d4565b945050505050919050565b600080600b5461151f610abe565b61152991906148f9565b9050600081141561153e576000915050611597565b600080600c541180156115535750600c548210155b1561155d57600190505b600080600d5411801561157e5750600d54600e544261157c91906148f9565b115b1561158857600190505b81806115915750805b93505050505b90565b60007f0000000000000000000000000000000000000000000000000000000000000000905090565b6000600660008473ffffffffffffffffffffffffffffffffffffffff1673ffffffffffffffffffffffffffffffffffffffff16815260200190815260200160002060008373ffffffffffffffffffffffffffffffffffffffff1673ffffffffffffffffffffffffffffffffffffffff16815260200190815260200160002060009054906101000a900460ff16905092915050565b606060008490506000848461166b91906148f9565b67ffffffffffffffff8111156116aa577f4e487b7100000000000000000000000000000000000000000000000000000000600052604160045260246000fd5b6040519080825280601f01601f1916602001820160405280156116dc5781602001600182028036833780820191505090505b50905060008590505b848110156117b757828181518110611726577f4e487b7100000000000000000000000000000000000000000000000000000000600052603260045260246000fd5b602001015160f81c60f81b82878361173e91906148f9565b81518110611775577f4e487b7100000000000000000000000000000000000000000000000000000000600052603260045260246000fd5b60200101907effffffffffffffffffffffffffffffffffffffffffffffffffffffffffffff1916908160001a90535080806117af90614a8f565b9150506116e5565b5080925050509392505050565b6117cc611d22565b600073ffffffffffffffffffffffffffffffffffffffff168173ffffffffffffffffffffffffffffffffffffffff16141561183c576040517f08c379a0000000000000000000000000000000000000000000000000000000008152600401611833906144c1565b60405180910390fd5b61184581611da0565b50565b6000600c54905090565b60007f780e9d63000000000000000000000000000000000000000000000000000000007bffffffffffffffffffffffffffffffffffffffffffffffffffffffff1916827bffffffffffffffffffffffffffffffffffffffffffffffffffffffff191614806118c557506118c482612924565b5b9050919050565b6118d58161204b565b611914576040517f08c379a000000000000000000000000000000000000000000000000000000000815260040161190b906145e1565b60405180910390fd5b50565b600033905090565b816005600083815260200190815260200160002060006101000a81548173ffffffffffffffffffffffffffffffffffffffff021916908373ffffffffffffffffffffffffffffffffffffffff160217905550808273ffffffffffffffffffffffffffffffffffffffff1661199283610d70565b73ffffffffffffffffffffffffffffffffffffffff167f8c5be1e5ebec7d5bd14f71427d1e84f3dd0314c0f7b2291e5b200ac8c7c3b92560405160405180910390a45050565b611a2281600081518110611a15577f4e487b7100000000000000000000000000000000000000000000000000000000600052603260045260246000fd5b6020026020010151612a06565b5050565b600080611a3283610d70565b90508073ffffffffffffffffffffffffffffffffffffffff168473ffffffffffffffffffffffffffffffffffffffff161480611a745750611a7381856115c2565b5b80611ab257508373ffffffffffffffffffffffffffffffffffffffff16611a9a84610960565b73ffffffffffffffffffffffffffffffffffffffff16145b91505092915050565b8273ffffffffffffffffffffffffffffffffffffffff16611adb82610d70565b73ffffffffffffffffffffffffffffffffffffffff1614611b31576040517f08c379a0000000000000000000000000000000000000000000000000000000008152600401611b28906144e1565b60405180910390fd5b600073ffffffffffffffffffffffffffffffffffffffff168273ffffffffffffffffffffffffffffffffffffffff161415611ba1576040517f08c379a0000000000000000000000000000000000000000000000000000000008152600401611b9890614521565b60405180910390fd5b611bac838383612b04565b611bb760008261191f565b6001600460008573ffffffffffffffffffffffffffffffffffffffff1673ffffffffffffffffffffffffffffffffffffffff1681526020019081526020016000206000828254611c0791906148f9565b925050819055506001600460008473ffffffffffffffffffffffffffffffffffffffff1673ffffffffffffffffffffffffffffffffffffffff1681526020019081526020016000206000828254611c5e91906147a6565b92505081905550816003600083815260200190815260200160002060006101000a81548173ffffffffffffffffffffffffffffffffffffffff021916908373ffffffffffffffffffffffffffffffffffffffff160217905550808273ffffffffffffffffffffffffffffffffffffffff168473ffffffffffffffffffffffffffffffffffffffff167fddf252ad1be2c89b69c2b068fc378daa952ba7f163c4a11628f55a4df523b3ef60405160405180910390a4611d1d838383612c18565b505050565b611d2a611917565b73ffffffffffffffffffffffffffffffffffffffff16611d48610f26565b73ffffffffffffffffffffffffffffffffffffffff1614611d9e576040517f08c379a0000000000000000000000000000000000000000000000000000000008152600401611d95906145c1565b60405180910390fd5b565b60008060009054906101000a900473ffffffffffffffffffffffffffffffffffffffff169050816000806101000a81548173ffffffffffffffffffffffffffffffffffffffff021916908373ffffffffffffffffffffffffffffffffffffffff1602179055508173ffffffffffffffffffffffffffffffffffffffff168173ffffffffffffffffffffffffffffffffffffffff167f8be0079c531659141344cd1fd0a4f28419497f9722a3daafe3b4186f6b6457e060405160405180910390a35050565b611e7e828260405180602001604052806000815250612c1d565b5050565b8173ffffffffffffffffffffffffffffffffffffffff168373ffffffffffffffffffffffffffffffffffffffff161415611ef1576040517f08c379a0000000000000000000000000000000000000000000000000000000008152600401611ee890614541565b60405180910390fd5b80600660008573ffffffffffffffffffffffffffffffffffffffff1673ffffffffffffffffffffffffffffffffffffffff16815260200190815260200160002060008473ffffffffffffffffffffffffffffffffffffffff1673ffffffffffffffffffffffffffffffffffffffff16815260200190815260200160002060006101000a81548160ff0219169083151502179055508173ffffffffffffffffffffffffffffffffffffffff168373ffffffffffffffffffffffffffffffffffffffff167f17307eab39ab6107e8899845ad3d59bd9653f200f220920489ca2b5937696c3183604051611fe291906143c1565b60405180910390a3505050565b611ffa848484611abb565b61200684848484612c78565b612045576040517f08c379a000000000000000000000000000000000000000000000000000000000815260040161203c906144a1565b60405180910390fd5b50505050565b60008073ffffffffffffffffffffffffffffffffffffffff166003600084815260200190815260200160002060009054906101000a900473ffffffffffffffffffffffffffffffffffffffff1673ffffffffffffffffffffffffffffffffffffffff1614159050919050565b60008060005b6010805490508110156122055760108181548110612104577f4e487b7100000000000000000000000000000000000000000000000000000000600052603260045260246000fd5b906000526020600020906003020160000154841015801561216f57506010818154811061215a577f4e487b7100000000000000000000000000000000000000000000000000000000600052603260045260246000fd5b90600052602060002090600302016001015484105b156121f257601081815481106121ae577f4e487b7100000000000000000000000000000000000000000000000000000000600052603260045260246000fd5b906000526020600020906003020160020154846040516020016121d292919061467c565b6040516020818303038152906040528051906020012060001c9250600191505b80806121fd90614a8f565b9150506120bd565b50915091565b606061221561372a565b6040518060a00160405280606281526020016152036062913981600060048110612268577f4e487b7100000000000000000000000000000000000000000000000000000000600052603260045260246000fd5b602002018190525082156125ce576040518060c00160405280608d8152602001615342608d9139816001600481106122c9577f4e487b7100000000000000000000000000000000000000000000000000000000600052603260045260246000fd5b60200201819052506122d9613751565b60006122e486612e0f565b905060005b60078160ff1610156123a657600061232c83600b8461230891906148be565b60ff16600b60018661231a91906147fc565b61232491906148be565b60ff16611656565b90508060405160200161233f9190614269565b604051602081830303815290604052848360ff166007811061238a577f4e487b7100000000000000000000000000000000000000000000000000000000600052603260045260246000fd5b602002018190525050808061239e90614ad8565b9150506122e9565b50816000600781106123e1577f4e487b7100000000000000000000000000000000000000000000000000000000600052603260045260246000fd5b602002015182600160078110612420577f4e487b7100000000000000000000000000000000000000000000000000000000600052603260045260246000fd5b60200201518360026007811061245f577f4e487b7100000000000000000000000000000000000000000000000000000000600052603260045260246000fd5b60200201518460036007811061249e577f4e487b7100000000000000000000000000000000000000000000000000000000600052603260045260246000fd5b6020020151856004600781106124dd577f4e487b7100000000000000000000000000000000000000000000000000000000600052603260045260246000fd5b60200201518660056007811061251c577f4e487b7100000000000000000000000000000000000000000000000000000000600052603260045260246000fd5b60200201518760066007811061255b577f4e487b7100000000000000000000000000000000000000000000000000000000600052603260045260246000fd5b60200201516040516020016125769796959493929190614204565b604051602081830303815290604052836002600481106125bf577f4e487b7100000000000000000000000000000000000000000000000000000000600052603260045260246000fd5b602002018190525050506126a2565b6040518060c00160405280609d81526020016152a5609d913981600160048110612621577f4e487b7100000000000000000000000000000000000000000000000000000000600052603260045260246000fd5b60200201819052506040518060400160405280600181526020017f3f0000000000000000000000000000000000000000000000000000000000000081525081600260048110612699577f4e487b7100000000000000000000000000000000000000000000000000000000600052603260045260246000fd5b60200201819052505b6040518060400160405280600d81526020017f3c2f746578743e3c2f7376673e0000000000000000000000000000000000000081525081600360048110612712577f4e487b7100000000000000000000000000000000000000000000000000000000600052603260045260246000fd5b602002018190525080600060048110612754577f4e487b7100000000000000000000000000000000000000000000000000000000600052603260045260246000fd5b602002015181600160048110612793577f4e487b7100000000000000000000000000000000000000000000000000000000600052603260045260246000fd5b6020020151826002600481106127d2577f4e487b7100000000000000000000000000000000000000000000000000000000600052603260045260246000fd5b602002015183600360048110612811577f4e487b7100000000000000000000000000000000000000000000000000000000600052603260045260246000fd5b602002015160405160200161282994939291906141c6565b60405160208183030381529060405291505092915050565b606060006040518060400160405280601a81526020017f646174613a696d6167652f7376672b786d6c3b6261736536342c000000000000815250905060006128a784604051602001612893919061418b565b604051602081830303815290604052612fbc565b905081816040516020016128bc9291906141a2565b60405160208183030381529060405292505050919050565b60606128fe826040516020016128ea9190614296565b604051602081830303815290604052612fbc565b60405160200161290e91906142fa565b6040516020818303038152906040529050919050565b60007f80ac58cd000000000000000000000000000000000000000000000000000000007bffffffffffffffffffffffffffffffffffffffffffffffffffffffff1916827bffffffffffffffffffffffffffffffffffffffffffffffffffffffff191614806129ef57507f5b5e139f000000000000000000000000000000000000000000000000000000007bffffffffffffffffffffffffffffffffffffffffffffffffffffffff1916827bffffffffffffffffffffffffffffffffffffffffffffffffffffffff1916145b806129ff57506129fe82613146565b5b9050919050565b6000612a10610abe565b905060006001600b54612a2391906147a6565b90506000600183612a3491906147a6565b905060106040518060600160405280848152602001838152602001868152509080600181540180825580915050600190039060005260206000209060030201600090919091909150600082015181600001556020820151816001015560408201518160020155505082600b8190555042600e819055506000600f60006101000a81548160ff0219169083151502179055507fa39d9410abe7578bfbf71501989f175c50a6950b6595718dd8092474541c889b8282604051612af692919061467c565b60405180910390a150505050565b612b0f8383836131b0565b600073ffffffffffffffffffffffffffffffffffffffff168373ffffffffffffffffffffffffffffffffffffffff161415612b5257612b4d816131b5565b612b91565b8173ffffffffffffffffffffffffffffffffffffffff168373ffffffffffffffffffffffffffffffffffffffff1614612b9057612b8f83826131fe565b5b5b600073ffffffffffffffffffffffffffffffffffffffff168273ffffffffffffffffffffffffffffffffffffffff161415612bd457612bcf8161336b565b612c13565b8273ffffffffffffffffffffffffffffffffffffffff168273ffffffffffffffffffffffffffffffffffffffff1614612c1257612c1182826134ae565b5b5b505050565b505050565b612c27838361352d565b612c346000848484612c78565b612c73576040517f08c379a0000000000000000000000000000000000000000000000000000000008152600401612c6a906144a1565b60405180910390fd5b505050565b6000612c998473ffffffffffffffffffffffffffffffffffffffff16613707565b15612e02578373ffffffffffffffffffffffffffffffffffffffff1663150b7a02612cc2611917565b8786866040518563ffffffff1660e01b8152600401612ce49493929190614375565b602060405180830381600087803b158015612cfe57600080fd5b505af1925050508015612d2f57506040513d601f19601f82011682018060405250810190612d2c9190613b76565b60015b612db2573d8060008114612d5f576040519150601f19603f3d011682016040523d82523d6000602084013e612d64565b606091505b50600081511415612daa576040517f08c379a0000000000000000000000000000000000000000000000000000000008152600401612da1906144a1565b60405180910390fd5b805181602001fd5b63150b7a0260e01b7bffffffffffffffffffffffffffffffffffffffffffffffffffffffff1916817bffffffffffffffffffffffffffffffffffffffffffffffffffffffff191614915050612e07565b600190505b949350505050565b60606000821415612e57576040518060400160405280600181526020017f30000000000000000000000000000000000000000000000000000000000000008152509050612fb7565b600082905060005b60008214612e89578080612e7290614a8f565b915050600a82612e829190614833565b9150612e5f565b60008167ffffffffffffffff811115612ecb577f4e487b7100000000000000000000000000000000000000000000000000000000600052604160045260246000fd5b6040519080825280601f01601f191660200182016040528015612efd5781602001600182028036833780820191505090505b5090505b60008514612fb057600182612f1691906148f9565b9150600a85612f259190614b02565b6030612f3191906147a6565b60f81b818381518110612f6d577f4e487b7100000000000000000000000000000000000000000000000000000000600052603260045260246000fd5b60200101907effffffffffffffffffffffffffffffffffffffffffffffffffffffffffffff1916908160001a905350600a85612fa99190614833565b9450612f01565b8093505050505b919050565b6060600082511415612fdf57604051806020016040528060008152509050613141565b6000604051806060016040528060408152602001615265604091399050600060036002855161300e91906147a6565b6130189190614833565b60046130249190614864565b67ffffffffffffffff811115613063577f4e487b7100000000000000000000000000000000000000000000000000000000600052604160045260246000fd5b6040519080825280601f01601f1916602001820160405280156130955781602001600182028036833780820191505090505b509050600182016020820185865187015b80821015613101576003820191508151603f8160121c168501518453600184019350603f81600c1c168501518453600184019350603f8160061c168501518453600184019350603f81168501518453600184019350506130a6565b505060038651066001811461311d576002811461313057613138565b603d6001830353603d6002830353613138565b603d60018303535b50505080925050505b919050565b60007f01ffc9a7000000000000000000000000000000000000000000000000000000007bffffffffffffffffffffffffffffffffffffffffffffffffffffffff1916827bffffffffffffffffffffffffffffffffffffffffffffffffffffffff1916149050919050565b505050565b600980549050600a600083815260200190815260200160002081905550600981908060018154018082558091505060019003906000526020600020016000909190919091505550565b6000600161320b84610e50565b61321591906148f9565b90506000600860008481526020019081526020016000205490508181146132fa576000600760008673ffffffffffffffffffffffffffffffffffffffff1673ffffffffffffffffffffffffffffffffffffffff168152602001908152602001600020600084815260200190815260200160002054905080600760008773ffffffffffffffffffffffffffffffffffffffff1673ffffffffffffffffffffffffffffffffffffffff168152602001908152602001600020600084815260200190815260200160002081905550816008600083815260200190815260200160002081905550505b6008600084815260200190815260200160002060009055600760008573ffffffffffffffffffffffffffffffffffffffff1673ffffffffffffffffffffffffffffffffffffffff16815260200190815260200160002060008381526020019081526020016000206000905550505050565b6000600160098054905061337f91906148f9565b90506000600a60008481526020019081526020016000205490506000600983815481106133d5577f4e487b7100000000000000000000000000000000000000000000000000000000600052603260045260246000fd5b90600052602060002001549050806009838154811061341d577f4e487b7100000000000000000000000000000000000000000000000000000000600052603260045260246000fd5b906000526020600020018190555081600a600083815260200190815260200160002081905550600a6000858152602001908152602001600020600090556009805480613492577f4e487b7100000000000000000000000000000000000000000000000000000000600052603160045260246000fd5b6001900381819060005260206000200160009055905550505050565b60006134b983610e50565b905081600760008573ffffffffffffffffffffffffffffffffffffffff1673ffffffffffffffffffffffffffffffffffffffff168152602001908152602001600020600083815260200190815260200160002081905550806008600084815260200190815260200160002081905550505050565b600073ffffffffffffffffffffffffffffffffffffffff168273ffffffffffffffffffffffffffffffffffffffff16141561359d576040517f08c379a0000000000000000000000000000000000000000000000000000000008152600401613594906145a1565b60405180910390fd5b6135a68161204b565b156135e6576040517f08c379a00000000000000000000000000000000000000000000000000000000081526004016135dd90614501565b60405180910390fd5b6135f260008383612b04565b6001600460008473ffffffffffffffffffffffffffffffffffffffff1673ffffffffffffffffffffffffffffffffffffffff168152602001908152602001600020600082825461364291906147a6565b92505081905550816003600083815260200190815260200160002060006101000a81548173ffffffffffffffffffffffffffffffffffffffff021916908373ffffffffffffffffffffffffffffffffffffffff160217905550808273ffffffffffffffffffffffffffffffffffffffff16600073ffffffffffffffffffffffffffffffffffffffff167fddf252ad1be2c89b69c2b068fc378daa952ba7f163c4a11628f55a4df523b3ef60405160405180910390a461370360008383612c18565b5050565b6000808273ffffffffffffffffffffffffffffffffffffffff163b119050919050565b60405180608001604052806004905b60608152602001906001900390816137395790505090565b6040518060e001604052806007905b60608152602001906001900390816137605790505090565b600061378b613786846146ca565b6146a5565b905080838252602082019050828560208602820111156137aa57600080fd5b60005b858110156137da57816137c0888261397c565b8452602084019350602083019250506001810190506137ad565b5050509392505050565b60006137f76137f2846146f6565b6146a5565b90508281526020810184848401111561380f57600080fd5b61381a8482856149ea565b509392505050565b600061383561383084614727565b6146a5565b90508281526020810184848401111561384d57600080fd5b6138588482856149ea565b509392505050565b60008135905061386f816151a6565b92915050565b600082601f83011261388657600080fd5b8135613896848260208601613778565b91505092915050565b6000813590506138ae816151bd565b92915050565b6000813590506138c3816151d4565b92915050565b6000815190506138d8816151d4565b92915050565b60008083601f8401126138f057600080fd5b8235905067ffffffffffffffff81111561390957600080fd5b60208301915083600182028301111561392157600080fd5b9250929050565b600082601f83011261393957600080fd5b81356139498482602086016137e4565b91505092915050565b600082601f83011261396357600080fd5b8135613973848260208601613822565b91505092915050565b60008135905061398b816151eb565b92915050565b6000815190506139a0816151eb565b92915050565b6000602082840312156139b857600080fd5b60006139c684828501613860565b91505092915050565b600080604083850312156139e257600080fd5b60006139f085828601613860565b9250506020613a0185828601613860565b9150509250929050565b600080600060608486031215613a2057600080fd5b6000613a2e86828701613860565b9350506020613a3f86828701613860565b9250506040613a508682870161397c565b9150509250925092565b60008060008060808587031215613a7057600080fd5b6000613a7e87828801613860565b9450506020613a8f87828801613860565b9350506040613aa08782880161397c565b925050606085013567ffffffffffffffff811115613abd57600080fd5b613ac987828801613928565b91505092959194509250565b60008060408385031215613ae857600080fd5b6000613af685828601613860565b9250506020613b078582860161389f565b9150509250929050565b60008060408385031215613b2457600080fd5b6000613b3285828601613860565b9250506020613b438582860161397c565b9150509250929050565b600060208284031215613b5f57600080fd5b6000613b6d848285016138b4565b91505092915050565b600060208284031215613b8857600080fd5b6000613b96848285016138c9565b91505092915050565b60008060208385031215613bb257600080fd5b600083013567ffffffffffffffff811115613bcc57600080fd5b613bd8858286016138de565b92509250509250929050565b600080600060608486031215613bf957600080fd5b600084013567ffffffffffffffff811115613c1357600080fd5b613c1f86828701613952565b9350506020613c308682870161397c565b9250506040613c418682870161397c565b9150509250925092565b600060208284031215613c5d57600080fd5b6000613c6b8482850161397c565b91505092915050565b600060208284031215613c8657600080fd5b6000613c9484828501613991565b91505092915050565b60008060408385031215613cb057600080fd5b6000613cbe8582860161397c565b925050602083013567ffffffffffffffff811115613cdb57600080fd5b613ce785828601613875565b9150509250929050565b613cfa8161492d565b82525050565b613d098161493f565b82525050565b613d188161494b565b82525050565b6000613d2982614758565b613d33818561476e565b9350613d438185602086016149f9565b613d4c81614bef565b840191505092915050565b6000613d6282614763565b613d6c818561478a565b9350613d7c8185602086016149f9565b613d8581614bef565b840191505092915050565b6000613d9b82614763565b613da5818561479b565b9350613db58185602086016149f9565b80840191505092915050565b6000613dce602b8361478a565b9150613dd982614c00565b604082019050919050565b6000613df160328361478a565b9150613dfc82614c4f565b604082019050919050565b6000613e1460268361478a565b9150613e1f82614c9e565b604082019050919050565b6000613e3760258361478a565b9150613e4282614ced565b604082019050919050565b6000613e5a601c8361478a565b9150613e6582614d3c565b602082019050919050565b6000613e7d60088361479b565b9150613e8882614d65565b600882019050919050565b6000613ea0600e8361479b565b9150613eab82614d8e565b600e82019050919050565b6000613ec360248361478a565b9150613ece82614db7565b604082019050919050565b6000613ee660198361478a565b9150613ef182614e06565b602082019050919050565b6000613f0960118361479b565b9150613f1482614e2f565b601182019050919050565b6000613f2c60298361478a565b9150613f3782614e58565b604082019050919050565b6000613f4f60018361479b565b9150613f5a82614ea7565b600182019050919050565b6000613f7260258361479b565b9150613f7d82614ed0565b602582019050919050565b6000613f9560098361479b565b9150613fa082614f1f565b600982019050919050565b6000613fb8603e8361478a565b9150613fc382614f48565b604082019050919050565b6000613fdb60208361478a565b9150613fe682614f97565b602082019050919050565b6000613ffe60018361479b565b915061400982614fc0565b600182019050919050565b600061402160168361479b565b915061402c82614fe9565b601682019050919050565b600061404460208361478a565b915061404f82615012565b602082019050919050565b600061406760018361479b565b91506140728261503b565b600182019050919050565b600061408a60188361478a565b915061409582615064565b602082019050919050565b60006140ad60218361478a565b91506140b88261508d565b604082019050919050565b60006140d0601d8361479b565b91506140db826150dc565b601d82019050919050565b60006140f360008361477f565b91506140fe82615105565b600082019050919050565b6000614116602c8361478a565b915061412182615108565b604082019050919050565b6000614139602e8361478a565b915061414482615157565b604082019050919050565b61415881614981565b82525050565b614167816149af565b82525050565b614176816149b9565b82525050565b614185816149c9565b82525050565b60006141978284613d90565b915081905092915050565b60006141ae8285613d90565b91506141ba8284613d90565b91508190509392505050565b60006141d28287613d90565b91506141de8286613d90565b91506141ea8285613d90565b91506141f68284613d90565b915081905095945050505050565b6000614210828a613d90565b915061421c8289613d90565b91506142288288613d90565b91506142348287613d90565b91506142408286613d90565b915061424c8285613d90565b91506142588284613d90565b915081905098975050505050505050565b600061427482614014565b91506142808284613d90565b915061428b82613e70565b915081905092915050565b60006142a18261405a565b91506142ac82613e93565b91506142b782613f65565b91506142c282613efc565b91506142cd82613f88565b91506142d98284613d90565b91506142e482613f42565b91506142ef82613ff1565b915081905092915050565b6000614305826140c3565b91506143118284613d90565b915081905092915050565b6000614327826140e6565b9150819050919050565b60006020820190506143466000830184613cf1565b92915050565b60006040820190506143616000830185613cf1565b61436e6020830184613cf1565b9392505050565b600060808201905061438a6000830187613cf1565b6143976020830186613cf1565b6143a4604083018561415e565b81810360608301526143b68184613d1e565b905095945050505050565b60006020820190506143d66000830184613d00565b92915050565b60006040820190506143f16000830185613d00565b81810360208301526144038184613d1e565b90509392505050565b600060a0820190506144216000830188613d0f565b61442e602083018761417c565b61443b604083018661414f565b614448606083018561416d565b614455608083018461416d565b9695505050505050565b600060208201905081810360008301526144798184613d57565b905092915050565b6000602082019050818103600083015261449a81613dc1565b9050919050565b600060208201905081810360008301526144ba81613de4565b9050919050565b600060208201905081810360008301526144da81613e07565b9050919050565b600060208201905081810360008301526144fa81613e2a565b9050919050565b6000602082019050818103600083015261451a81613e4d565b9050919050565b6000602082019050818103600083015261453a81613eb6565b9050919050565b6000602082019050818103600083015261455a81613ed9565b9050919050565b6000602082019050818103600083015261457a81613f1f565b9050919050565b6000602082019050818103600083015261459a81613fab565b9050919050565b600060208201905081810360008301526145ba81613fce565b9050919050565b600060208201905081810360008301526145da81614037565b9050919050565b600060208201905081810360008301526145fa8161407d565b9050919050565b6000602082019050818103600083015261461a816140a0565b9050919050565b6000602082019050818103600083015261463a81614109565b9050919050565b6000602082019050818103600083015261465a8161412c565b9050919050565b6000602082019050614676600083018461415e565b92915050565b6000604082019050614691600083018561415e565b61469e602083018461415e565b9392505050565b60006146af6146c0565b90506146bb8282614a5e565b919050565b6000604051905090565b600067ffffffffffffffff8211156146e5576146e4614bc0565b5b602082029050602081019050919050565b600067ffffffffffffffff82111561471157614710614bc0565b5b61471a82614bef565b9050602081019050919050565b600067ffffffffffffffff82111561474257614741614bc0565b5b61474b82614bef565b9050602081019050919050565b600081519050919050565b600081519050919050565b600082825260208201905092915050565b600081905092915050565b600082825260208201905092915050565b600081905092915050565b60006147b1826149af565b91506147bc836149af565b9250827fffffffffffffffffffffffffffffffffffffffffffffffffffffffffffffffff038211156147f1576147f0614b33565b5b828201905092915050565b6000614807826149dd565b9150614812836149dd565b92508260ff0382111561482857614827614b33565b5b828201905092915050565b600061483e826149af565b9150614849836149af565b92508261485957614858614b62565b5b828204905092915050565b600061486f826149af565b915061487a836149af565b9250817fffffffffffffffffffffffffffffffffffffffffffffffffffffffffffffffff04831182151516156148b3576148b2614b33565b5b828202905092915050565b60006148c9826149dd565b91506148d4836149dd565b92508160ff04831182151516156148ee576148ed614b33565b5b828202905092915050565b6000614904826149af565b915061490f836149af565b92508282101561492257614921614b33565b5b828203905092915050565b60006149388261498f565b9050919050565b60008115159050919050565b6000819050919050565b60007fffffffff0000000000000000000000000000000000000000000000000000000082169050919050565b600061ffff82169050919050565b600073ffffffffffffffffffffffffffffffffffffffff82169050919050565b6000819050919050565b600063ffffffff82169050919050565b600067ffffffffffffffff82169050919050565b600060ff82169050919050565b82818337600083830152505050565b60005b83811015614a175780820151818401526020810190506149fc565b83811115614a26576000848401525b50505050565b60006002820490506001821680614a4457607f821691505b60208210811415614a5857614a57614b91565b5b50919050565b614a6782614bef565b810181811067ffffffffffffffff82111715614a8657614a85614bc0565b5b80604052505050565b6000614a9a826149af565b91507fffffffffffffffffffffffffffffffffffffffffffffffffffffffffffffffff821415614acd57614acc614b33565b5b600182019050919050565b6000614ae3826149dd565b915060ff821415614af757614af6614b33565b5b600182019050919050565b6000614b0d826149af565b9150614b18836149af565b925082614b2857614b27614b62565b5b828206905092915050565b7f4e487b7100000000000000000000000000000000000000000000000000000000600052601160045260246000fd5b7f4e487b7100000000000000000000000000000000000000000000000000000000600052601260045260246000fd5b7f4e487b7100000000000000000000000000000000000000000000000000000000600052602260045260246000fd5b7f4e487b7100000000000000000000000000000000000000000000000000000000600052604160045260246000fd5b6000601f19601f8301169050919050565b7f455243373231456e756d657261626c653a206f776e657220696e646578206f7560008201527f74206f6620626f756e6473000000000000000000000000000000000000000000602082015250565b7f4552433732313a207472616e7366657220746f206e6f6e20455243373231526560008201527f63656976657220696d706c656d656e7465720000000000000000000000000000602082015250565b7f4f776e61626c653a206e6577206f776e657220697320746865207a65726f206160008201527f6464726573730000000000000000000000000000000000000000000000000000602082015250565b7f4552433732313a207472616e736665722066726f6d20696e636f72726563742060008201527f6f776e6572000000000000000000000000000000000000000000000000000000602082015250565b7f4552433732313a20746f6b656e20616c7265616479206d696e74656400000000600082015250565b7f3c2f747370616e3e000000000000000000000000000000000000000000000000600082015250565b7f226e616d65223a224e4654222c20000000000000000000000000000000000000600082015250565b7f4552433732313a207472616e7366657220746f20746865207a65726f2061646460008201527f7265737300000000000000000000000000000000000000000000000000000000602082015250565b7f4552433732313a20617070726f766520746f2063616c6c657200000000000000600082015250565b7f2261747472696275746573223a22222c20000000000000000000000000000000600082015250565b7f4552433732313a2061646472657373207a65726f206973206e6f74206120766160008201527f6c6964206f776e65720000000000000000000000000000000000000000000000602082015250565b7f2200000000000000000000000000000000000000000000000000000000000000600082015250565b7f226465736372697074696f6e223a2242617463682d72657665616c6564204e4660008201527f5421222c20000000000000000000000000000000000000000000000000000000602082015250565b7f22696d616765223a220000000000000000000000000000000000000000000000600082015250565b7f4552433732313a20617070726f76652063616c6c6572206973206e6f7420746f60008201527f6b656e206f776e6572206e6f7220617070726f76656420666f7220616c6c0000602082015250565b7f4552433732313a206d696e7420746f20746865207a65726f2061646472657373600082015250565b7f7d00000000000000000000000000000000000000000000000000000000000000600082015250565b7f3c747370616e20783d223132222064793d223438223e00000000000000000000600082015250565b7f4f776e61626c653a2063616c6c6572206973206e6f7420746865206f776e6572600082015250565b7f7b00000000000000000000000000000000000000000000000000000000000000600082015250565b7f4552433732313a20696e76616c696420746f6b656e2049440000000000000000600082015250565b7f4552433732313a20617070726f76616c20746f2063757272656e74206f776e6560008201527f7200000000000000000000000000000000000000000000000000000000000000602082015250565b7f646174613a6170706c69636174696f6e2f6a736f6e3b6261736536342c000000600082015250565b50565b7f455243373231456e756d657261626c653a20676c6f62616c20696e646578206f60008201527f7574206f6620626f756e64730000000000000000000000000000000000000000602082015250565b7f4552433732313a2063616c6c6572206973206e6f7420746f6b656e206f776e6560008201527f72206e6f7220617070726f766564000000000000000000000000000000000000602082015250565b6151af8161492d565b81146151ba57600080fd5b50565b6151c68161493f565b81146151d157600080fd5b50565b6151dd81614955565b81146151e857600080fd5b50565b6151f4816149af565b81146151ff57600080fd5b5056fe3c73766720786d6c6e733d22687474703a2f2f7777772e77332e6f72672f323030302f73766722207072657365727665417370656374526174696f3d22784d696e594d696e206d656574222076696577426f783d223020302033353020333530223e4142434445464748494a4b4c4d4e4f505152535455565758595a6162636465666768696a6b6c6d6e6f707172737475767778797a303132333435363738392b2f3c7374796c653e2e62617365207b2066696c6c3a2077686974653b20666f6e742d66616d696c793a2073657269663b20666f6e742d73697a653a2033353070783b207d3c2f7374796c653e3c726563742077696474683d223130302522206865696768743d2231303025222066696c6c3d22626c61636b22202f3e3c7465787420783d2239302220793d223239352220636c6173733d2262617365223e3c7374796c653e2e62617365207b2066696c6c3a2077686974653b20666f6e742d66616d696c793a2073657269663b20666f6e742d73697a653a20353970783b207d3c2f7374796c653e3c726563742077696474683d223130302522206865696768743d2231303025222066696c6c3d22626c61636b22202f3e3c7465787420636c6173733d2262617365223ea26469706673582212203b5bed1604c07de8bbfd98b56d25ae61e945e92aa9db343c2f76678edd85ff6e64736f6c63430008040033",
  "linkReferences": {},
  "deployedLinkReferences": {}
}