{
  "_format": "hh-sol-artifact-1",
  "contractName": "NFTCollection",
  "sourceName": "contracts/NFTCollection.sol",
  "abi": [
    {
      "inputs": [
        {
          "internalType": "string",
          "name": "_name",
          "type": "string"
        },
        {
          "internalType": "string",
          "name": "_symbol",
          "type": "string"
        },
        {
          "internalType": "uint256",
          "name": "_maxSupply",
          "type": "uint256"
        },
        {
          "internalType": "uint256",
          "name": "_mintCost",
          "type": "uint256"
        },
        {
          "internalType": "uint256",
          "name": "_revealBatchSize",
          "type": "uint256"
        },
        {
          "internalType": "uint256",
          "name": "_revealInterval",
          "type": "uint256"
        },
        {
          "internalType": "address",
          "name": "_vrfCoordinatorV2",
          "type": "address"
        },
        {
          "internalType": "uint64",
          "name": "_vrfSubscriptionId",
          "type": "uint64"
        },
        {
          "internalType": "bytes32",
          "name": "_vrfGasLane",
          "type": "bytes32"
        },
        {
          "internalType": "uint32",
          "name": "_vrfCallbackGasLimit",
          "type": "uint32"
        }
      ],
      "stateMutability": "nonpayable",
      "type": "constructor"
    },
    {
      "inputs": [],
      "name": "InsufficientFunds",
      "type": "error"
    },
    {
      "inputs": [],
      "name": "InsufficientLINK",
      "type": "error"
    },
    {
      "inputs": [],
      "name": "InvalidAmount",
      "type": "error"
    },
    {
      "inputs": [],
      "name": "MaxSupplyReached",
      "type": "error"
    },
    {
      "inputs": [
        {
          "internalType": "address",
          "name": "have",
          "type": "address"
        },
        {
          "internalType": "address",
          "name": "want",
          "type": "address"
        }
      ],
      "name": "OnlyCoordinatorCanFulfill",
      "type": "error"
    },
    {
      "inputs": [],
      "name": "RevealCriteriaNotMet",
      "type": "error"
    },
    {
      "inputs": [],
      "name": "RevealInProgress",
      "type": "error"
    },
    {
      "inputs": [],
      "name": "WithdrawProceedsFailed",
      "type": "error"
    },
    {
      "anonymous": false,
      "inputs": [
        {
          "indexed": true,
          "internalType": "address",
          "name": "owner",
          "type": "address"
        },
        {
          "indexed": true,
          "internalType": "address",
          "name": "approved",
          "type": "address"
        },
        {
          "indexed": true,
          "internalType": "uint256",
          "name": "tokenId",
          "type": "uint256"
        }
      ],
      "name": "Approval",
      "type": "event"
    },
    {
      "anonymous": false,
      "inputs": [
        {
          "indexed": true,
          "internalType": "address",
          "name": "owner",
          "type": "address"
        },
        {
          "indexed": true,
          "internalType": "address",
          "name": "operator",
          "type": "address"
        },
        {
          "indexed": false,
          "internalType": "bool",
          "name": "approved",
          "type": "bool"
        }
      ],
      "name": "ApprovalForAll",
      "type": "event"
    },
    {
      "anonymous": false,
      "inputs": [
        {
          "indexed": false,
          "internalType": "uint256",
          "name": "startIndex",
          "type": "uint256"
        },
        {
          "indexed": false,
          "internalType": "uint256",
          "name": "endIndex",
          "type": "uint256"
        }
      ],
      "name": "BatchRevealFinished",
      "type": "event"
    },
    {
      "anonymous": false,
      "inputs": [
        {
          "indexed": false,
          "internalType": "uint256",
          "name": "requestId",
          "type": "uint256"
        }
      ],
      "name": "BatchRevealRequested",
      "type": "event"
    },
    {
      "anonymous": false,
      "inputs": [
        {
          "indexed": true,
          "internalType": "address",
          "name": "previousOwner",
          "type": "address"
        },
        {
          "indexed": true,
          "internalType": "address",
          "name": "newOwner",
          "type": "address"
        }
      ],
      "name": "OwnershipTransferred",
      "type": "event"
    },
    {
      "anonymous": false,
      "inputs": [
        {
          "indexed": true,
          "internalType": "address",
          "name": "from",
          "type": "address"
        },
        {
          "indexed": true,
          "internalType": "address",
          "name": "to",
          "type": "address"
        },
        {
          "indexed": true,
          "internalType": "uint256",
          "name": "tokenId",
          "type": "uint256"
        }
      ],
      "name": "Transfer",
      "type": "event"
    },
    {
      "inputs": [
        {
          "internalType": "address",
          "name": "to",
          "type": "address"
        },
        {
          "internalType": "uint256",
          "name": "tokenId",
          "type": "uint256"
        }
      ],
      "name": "approve",
      "outputs": [],
      "stateMutability": "nonpayable",
      "type": "function"
    },
    {
      "inputs": [
        {
          "internalType": "address",
          "name": "owner",
          "type": "address"
        }
      ],
      "name": "balanceOf",
      "outputs": [
        {
          "internalType": "uint256",
          "name": "",
          "type": "uint256"
        }
      ],
      "stateMutability": "view",
      "type": "function"
    },
    {
      "inputs": [],
      "name": "batchSize",
      "outputs": [
        {
          "internalType": "uint256",
          "name": "",
          "type": "uint256"
        }
      ],
      "stateMutability": "view",
      "type": "function"
    },
    {
      "inputs": [
        {
          "internalType": "bytes",
          "name": "",
          "type": "bytes"
        }
      ],
      "name": "checkUpkeep",
      "outputs": [
        {
          "internalType": "bool",
          "name": "upkeepNeeded",
          "type": "bool"
        },
        {
          "internalType": "bytes",
          "name": "",
          "type": "bytes"
        }
      ],
      "stateMutability": "view",
      "type": "function"
    },
    {
      "inputs": [
        {
          "internalType": "uint256",
          "name": "tokenId",
          "type": "uint256"
        }
      ],
      "name": "getApproved",
      "outputs": [
        {
          "internalType": "address",
          "name": "",
          "type": "address"
        }
      ],
      "stateMutability": "view",
      "type": "function"
    },
    {
      "inputs": [
        {
          "internalType": "address",
          "name": "owner",
          "type": "address"
        },
        {
          "internalType": "address",
          "name": "operator",
          "type": "address"
        }
      ],
      "name": "isApprovedForAll",
      "outputs": [
        {
          "internalType": "bool",
          "name": "",
          "type": "bool"
        }
      ],
      "stateMutability": "view",
      "type": "function"
    },
    {
      "inputs": [],
      "name": "lastRevealed",
      "outputs": [
        {
          "internalType": "uint256",
          "name": "",
          "type": "uint256"
        }
      ],
      "stateMutability": "view",
      "type": "function"
    },
    {
      "inputs": [],
      "name": "maxSupply",
      "outputs": [
        {
          "internalType": "uint256",
          "name": "",
          "type": "uint256"
        }
      ],
      "stateMutability": "view",
      "type": "function"
    },
    {
      "inputs": [
        {
          "internalType": "uint256",
          "name": "_amount",
          "type": "uint256"
        }
      ],
      "name": "mint",
      "outputs": [],
      "stateMutability": "payable",
      "type": "function"
    },
    {
      "inputs": [],
      "name": "mintCost",
      "outputs": [
        {
          "internalType": "uint256",
          "name": "",
          "type": "uint256"
        }
      ],
      "stateMutability": "view",
      "type": "function"
    },
    {
      "inputs": [],
      "name": "name",
      "outputs": [
        {
          "internalType": "string",
          "name": "",
          "type": "string"
        }
      ],
      "stateMutability": "view",
      "type": "function"
    },
    {
      "inputs": [],
      "name": "owner",
      "outputs": [
        {
          "internalType": "address",
          "name": "",
          "type": "address"
        }
      ],
      "stateMutability": "view",
      "type": "function"
    },
    {
      "inputs": [
        {
          "internalType": "uint256",
          "name": "tokenId",
          "type": "uint256"
        }
      ],
      "name": "ownerOf",
      "outputs": [
        {
          "internalType": "address",
          "name": "",
          "type": "address"
        }
      ],
      "stateMutability": "view",
      "type": "function"
    },
    {
      "inputs": [
        {
          "internalType": "bytes",
          "name": "",
          "type": "bytes"
        }
      ],
      "name": "performUpkeep",
      "outputs": [],
      "stateMutability": "nonpayable",
      "type": "function"
    },
    {
      "inputs": [
        {
          "internalType": "uint256",
          "name": "requestId",
          "type": "uint256"
        },
        {
          "internalType": "uint256[]",
          "name": "randomWords",
          "type": "uint256[]"
        }
      ],
      "name": "rawFulfillRandomWords",
      "outputs": [],
      "stateMutability": "nonpayable",
      "type": "function"
    },
    {
      "inputs": [],
      "name": "renounceOwnership",
      "outputs": [],
      "stateMutability": "nonpayable",
      "type": "function"
    },
    {
      "inputs": [],
      "name": "revealPendingMetadata",
      "outputs": [
        {
          "internalType": "uint256",
          "name": "requestId",
          "type": "uint256"
        }
      ],
      "stateMutability": "nonpayable",
      "type": "function"
    },
    {
      "inputs": [],
      "name": "revealedCount",
      "outputs": [
        {
          "internalType": "uint256",
          "name": "",
          "type": "uint256"
        }
      ],
      "stateMutability": "view",
      "type": "function"
    },
    {
      "inputs": [],
      "name": "revealedInterval",
      "outputs": [
        {
          "internalType": "uint256",
          "name": "",
          "type": "uint256"
        }
      ],
      "stateMutability": "view",
      "type": "function"
    },
    {
      "inputs": [
        {
          "internalType": "address",
          "name": "from",
          "type": "address"
        },
        {
          "internalType": "address",
          "name": "to",
          "type": "address"
        },
        {
          "internalType": "uint256",
          "name": "tokenId",
          "type": "uint256"
        }
      ],
      "name": "safeTransferFrom",
      "outputs": [],
      "stateMutability": "nonpayable",
      "type": "function"
    },
    {
      "inputs": [
        {
          "internalType": "address",
          "name": "from",
          "type": "address"
        },
        {
          "internalType": "address",
          "name": "to",
          "type": "address"
        },
        {
          "internalType": "uint256",
          "name": "tokenId",
          "type": "uint256"
        },
        {
          "internalType": "bytes",
          "name": "_data",
          "type": "bytes"
        }
      ],
      "name": "safeTransferFrom",
      "outputs": [],
      "stateMutability": "nonpayable",
      "type": "function"
    },
    {
      "inputs": [
        {
          "internalType": "address",
          "name": "operator",
          "type": "address"
        },
        {
          "internalType": "bool",
          "name": "approved",
          "type": "bool"
        }
      ],
      "name": "setApprovalForAll",
      "outputs": [],
      "stateMutability": "nonpayable",
      "type": "function"
    },
    {
      "inputs": [
        {
          "internalType": "uint256",
          "name": "_revealBatchSize",
          "type": "uint256"
        }
      ],
      "name": "setRevealBatchSize",
      "outputs": [],
      "stateMutability": "nonpayable",
      "type": "function"
    },
    {
      "inputs": [
        {
          "internalType": "uint256",
          "name": "_revealInterval",
          "type": "uint256"
        }
      ],
      "name": "setRevealInterval",
      "outputs": [],
      "stateMutability": "nonpayable",
      "type": "function"
    },
    {
      "inputs": [],
      "name": "shouldReveal",
      "outputs": [
        {
          "internalType": "bool",
          "name": "",
          "type": "bool"
        }
      ],
      "stateMutability": "view",
      "type": "function"
    },
    {
      "inputs": [
        {
          "internalType": "string",
          "name": "str",
          "type": "string"
        },
        {
          "internalType": "uint256",
          "name": "startIndex",
          "type": "uint256"
        },
        {
          "internalType": "uint256",
          "name": "endIndex",
          "type": "uint256"
        }
      ],
      "name": "substring",
      "outputs": [
        {
          "internalType": "string",
          "name": "",
          "type": "string"
        }
      ],
      "stateMutability": "pure",
      "type": "function"
    },
    {
      "inputs": [
        {
          "internalType": "bytes4",
          "name": "interfaceId",
          "type": "bytes4"
        }
      ],
      "name": "supportsInterface",
      "outputs": [
        {
          "internalType": "bool",
          "name": "",
          "type": "bool"
        }
      ],
      "stateMutability": "view",
      "type": "function"
    },
    {
      "inputs": [],
      "name": "symbol",
      "outputs": [
        {
          "internalType": "string",
          "name": "",
          "type": "string"
        }
      ],
      "stateMutability": "view",
      "type": "function"
    },
    {
      "inputs": [
        {
          "internalType": "uint256",
          "name": "index",
          "type": "uint256"
        }
      ],
      "name": "tokenByIndex",
      "outputs": [
        {
          "internalType": "uint256",
          "name": "",
          "type": "uint256"
        }
      ],
      "stateMutability": "view",
      "type": "function"
    },
    {
      "inputs": [
        {
          "internalType": "address",
          "name": "owner",
          "type": "address"
        },
        {
          "internalType": "uint256",
          "name": "index",
          "type": "uint256"
        }
      ],
      "name": "tokenOfOwnerByIndex",
      "outputs": [
        {
          "internalType": "uint256",
          "name": "",
          "type": "uint256"
        }
      ],
      "stateMutability": "view",
      "type": "function"
    },
    {
      "inputs": [
        {
          "internalType": "uint256",
          "name": "tokenId",
          "type": "uint256"
        }
      ],
      "name": "tokenURI",
      "outputs": [
        {
          "internalType": "string",
          "name": "",
          "type": "string"
        }
      ],
      "stateMutability": "view",
      "type": "function"
    },
    {
      "inputs": [],
      "name": "totalSupply",
      "outputs": [
        {
          "internalType": "uint256",
          "name": "",
          "type": "uint256"
        }
      ],
      "stateMutability": "view",
      "type": "function"
    },
    {
      "inputs": [
        {
          "internalType": "address",
          "name": "from",
          "type": "address"
        },
        {
          "internalType": "address",
          "name": "to",
          "type": "address"
        },
        {
          "internalType": "uint256",
          "name": "tokenId",
          "type": "uint256"
        }
      ],
      "name": "transferFrom",
      "outputs": [],
      "stateMutability": "nonpayable",
      "type": "function"
    },
    {
      "inputs": [
        {
          "internalType": "address",
          "name": "newOwner",
          "type": "address"
        }
      ],
      "name": "transferOwnership",
      "outputs": [],
      "stateMutability": "nonpayable",
      "type": "function"
    },
    {
      "inputs": [],
      "name": "withdrawProceeds",
      "outputs": [],
      "stateMutability": "nonpayable",
      "type": "function"
    }
  ],
  "bytecode": "0x61016060405242600e553480156200001657600080fd5b5060405162005e6638038062005e6683398181016040528101906200003c9190620003d2565b838a8a6200005f620000536200017160201b60201c565b6200017960201b60201c565b8160019080519060200190620000779291906200023d565b508060029080519060200190620000909291906200023d565b5050508073ffffffffffffffffffffffffffffffffffffffff1660808173ffffffffffffffffffffffffffffffffffffffff1660601b81525050508760a081815250508660c081815250508373ffffffffffffffffffffffffffffffffffffffff1660e08173ffffffffffffffffffffffffffffffffffffffff1660601b815250508267ffffffffffffffff166101008167ffffffffffffffff1660c01b815250508161012081815250508063ffffffff166101408163ffffffff1660e01b8152505085600c8190555084600d819055505050505050505050505062000752565b600033905090565b60008060009054906101000a900473ffffffffffffffffffffffffffffffffffffffff169050816000806101000a81548173ffffffffffffffffffffffffffffffffffffffff021916908373ffffffffffffffffffffffffffffffffffffffff1602179055508173ffffffffffffffffffffffffffffffffffffffff168173ffffffffffffffffffffffffffffffffffffffff167f8be0079c531659141344cd1fd0a4f28419497f9722a3daafe3b4186f6b6457e060405160405180910390a35050565b8280546200024b90620005f5565b90600052602060002090601f0160209004810192826200026f5760008555620002bb565b82601f106200028a57805160ff1916838001178555620002bb565b82800160010185558215620002bb579182015b82811115620002ba5782518255916020019190600101906200029d565b5b509050620002ca9190620002ce565b5090565b5b80821115620002e9576000816000905550600101620002cf565b5090565b600062000304620002fe846200051d565b620004f4565b9050828152602081018484840111156200031d57600080fd5b6200032a848285620005bf565b509392505050565b6000815190506200034381620006d0565b92915050565b6000815190506200035a81620006ea565b92915050565b600082601f8301126200037257600080fd5b815162000384848260208601620002ed565b91505092915050565b6000815190506200039e8162000704565b92915050565b600081519050620003b5816200071e565b92915050565b600081519050620003cc8162000738565b92915050565b6000806000806000806000806000806101408b8d031215620003f357600080fd5b60008b015167ffffffffffffffff8111156200040e57600080fd5b6200041c8d828e0162000360565b9a505060208b015167ffffffffffffffff8111156200043a57600080fd5b620004488d828e0162000360565b99505060406200045b8d828e016200038d565b98505060606200046e8d828e016200038d565b9750506080620004818d828e016200038d565b96505060a0620004948d828e016200038d565b95505060c0620004a78d828e0162000332565b94505060e0620004ba8d828e01620003bb565b935050610100620004ce8d828e0162000349565b925050610120620004e28d828e01620003a4565b9150509295989b9194979a5092959850565b60006200050062000513565b90506200050e82826200062b565b919050565b6000604051905090565b600067ffffffffffffffff8211156200053b576200053a62000690565b5b6200054682620006bf565b9050602081019050919050565b6000620005608262000571565b9050919050565b6000819050919050565b600073ffffffffffffffffffffffffffffffffffffffff82169050919050565b6000819050919050565b600063ffffffff82169050919050565b600067ffffffffffffffff82169050919050565b60005b83811015620005df578082015181840152602081019050620005c2565b83811115620005ef576000848401525b50505050565b600060028204905060018216806200060e57607f821691505b6020821081141562000625576200062462000661565b5b50919050565b6200063682620006bf565b810181811067ffffffffffffffff8211171562000658576200065762000690565b5b80604052505050565b7f4e487b7100000000000000000000000000000000000000000000000000000000600052602260045260246000fd5b7f4e487b7100000000000000000000000000000000000000000000000000000000600052604160045260246000fd5b6000601f19601f8301169050919050565b620006db8162000553565b8114620006e757600080fd5b50565b620006f58162000567565b81146200070157600080fd5b50565b6200070f8162000591565b81146200071b57600080fd5b50565b62000729816200059b565b81146200073557600080fd5b50565b6200074381620005ab565b81146200074f57600080fd5b50565b60805160601c60a05160c05160e05160601c6101005160c01c610120516101405160e01c615698620007ce60003960006114a801526000611464015260006114850152600061142801526000818161164101526117ea0152600081816115db01526118dc015260008181610c7a0152610cce01526156986000f3fe6080604052600436106102045760003560e01c8063777accbb11610118578063b88d4fde116100a0578063cf3b94cd1161006f578063cf3b94cd1461076d578063d5abeb0114610798578063e985e9c5146107c3578063f2fde38b14610800578063f4daaba11461082957610204565b8063b88d4fde146106b1578063bbd78e93146106da578063bdb4b84814610705578063c87b56dd1461073057610204565b806395d89b41116100e757806395d89b41146105ed57806396634a4014610618578063a0712d6814610643578063a22cb4651461065f578063aaae4e231461068857610204565b8063777accbb146105555780637b4fab5a146105805780638da5cb5b146105ab5780639038e693146105d657610204565b80632f745c591161019b5780635c65d81f1161016a5780635c65d81f1461045d5780636352211e146104865780636e04ff0d146104c357806370a0823114610501578063715018a61461053e57610204565b80632f745c591461039157806342842e0e146103ce5780634585e33b146103f75780634f6ccce71461042057610204565b806318160ddd116101d757806318160ddd146102d75780631dcd9b55146103025780631fe543e31461033f57806323b872dd1461036857610204565b806301ffc9a71461020957806306fdde0314610246578063081812fc14610271578063095ea7b3146102ae575b600080fd5b34801561021557600080fd5b50610230600480360381019061022b9190613c97565b610854565b60405161023d9190614551565b60405180910390f35b34801561025257600080fd5b5061025b6108ce565b60405161026891906145ef565b60405180910390f35b34801561027d57600080fd5b5061029860048036038101906102939190613d95565b610960565b6040516102a591906144c1565b60405180910390f35b3480156102ba57600080fd5b506102d560048036038101906102d09190613c5b565b6109e5565b005b3480156102e357600080fd5b506102ec610afd565b6040516102f99190614831565b60405180910390f35b34801561030e57600080fd5b5061032960048036038101906103249190613d2e565b610b0a565b60405161033691906145ef565b60405180910390f35b34801561034b57600080fd5b5061036660048036038101906103619190613de7565b610c78565b005b34801561037457600080fd5b5061038f600480360381019061038a9190613b55565b610d38565b005b34801561039d57600080fd5b506103b860048036038101906103b39190613c5b565b610d98565b6040516103c59190614831565b60405180910390f35b3480156103da57600080fd5b506103f560048036038101906103f09190613b55565b610e3d565b005b34801561040357600080fd5b5061041e60048036038101906104199190613ce9565b610e5d565b005b34801561042c57600080fd5b5061044760048036038101906104429190613d95565b610e6a565b6040516104549190614831565b60405180910390f35b34801561046957600080fd5b50610484600480360381019061047f9190613d95565b610f01565b005b34801561049257600080fd5b506104ad60048036038101906104a89190613d95565b610f87565b6040516104ba91906144c1565b60405180910390f35b3480156104cf57600080fd5b506104ea60048036038101906104e59190613ce9565b611039565b6040516104f892919061456c565b60405180910390f35b34801561050d57600080fd5b5061052860048036038101906105239190613af0565b611067565b6040516105359190614831565b60405180910390f35b34801561054a57600080fd5b5061055361111f565b005b34801561056157600080fd5b5061056a6111a7565b6040516105779190614831565b60405180910390f35b34801561058c57600080fd5b506105956111b1565b6040516105a29190614831565b60405180910390f35b3480156105b757600080fd5b506105c06111bb565b6040516105cd91906144c1565b60405180910390f35b3480156105e257600080fd5b506105eb6111e4565b005b3480156105f957600080fd5b5061060261130d565b60405161060f91906145ef565b60405180910390f35b34801561062457600080fd5b5061062d61139f565b60405161063a9190614831565b60405180910390f35b61065d60048036038101906106589190613d95565b611592565b005b34801561066b57600080fd5b5061068660048036038101906106819190613c1f565b6116de565b005b34801561069457600080fd5b506106af60048036038101906106aa9190613d95565b6116f4565b005b3480156106bd57600080fd5b506106d860048036038101906106d39190613ba4565b61177a565b005b3480156106e657600080fd5b506106ef6117dc565b6040516106fc9190614831565b60405180910390f35b34801561071157600080fd5b5061071a6117e6565b6040516107279190614831565b60405180910390f35b34801561073c57600080fd5b5061075760048036038101906107529190613d95565b61180e565b60405161076491906145ef565b60405180910390f35b34801561077957600080fd5b5061078261184f565b60405161078f9190614551565b60405180910390f35b3480156107a457600080fd5b506107ad6118d8565b6040516107ba9190614831565b60405180910390f35b3480156107cf57600080fd5b506107ea60048036038101906107e59190613b19565b611900565b6040516107f79190614551565b60405180910390f35b34801561080c57600080fd5b5061082760048036038101906108229190613af0565b611994565b005b34801561083557600080fd5b5061083e611a8c565b60405161084b9190614831565b60405180910390f35b60007f780e9d63000000000000000000000000000000000000000000000000000000007bffffffffffffffffffffffffffffffffffffffffffffffffffffffff1916827bffffffffffffffffffffffffffffffffffffffffffffffffffffffff191614806108c757506108c682611a96565b5b9050919050565b6060600180546108dd90614bfc565b80601f016020809104026020016040519081016040528092919081815260200182805461090990614bfc565b80156109565780601f1061092b57610100808354040283529160200191610956565b820191906000526020600020905b81548152906001019060200180831161093957829003601f168201915b5050505050905090565b600061096b82611b78565b6109aa576040517f08c379a00000000000000000000000000000000000000000000000000000000081526004016109a190614791565b60405180910390fd5b6005600083815260200190815260200160002060009054906101000a900473ffffffffffffffffffffffffffffffffffffffff169050919050565b60006109f082610f87565b90508073ffffffffffffffffffffffffffffffffffffffff168373ffffffffffffffffffffffffffffffffffffffff161415610a61576040517f08c379a0000000000000000000000000000000000000000000000000000000008152600401610a58906147d1565b60405180910390fd5b8073ffffffffffffffffffffffffffffffffffffffff16610a80611be4565b73ffffffffffffffffffffffffffffffffffffffff161480610aaf5750610aae81610aa9611be4565b611900565b5b610aee576040517f08c379a0000000000000000000000000000000000000000000000000000000008152600401610ae590614711565b60405180910390fd5b610af88383611bec565b505050565b6000600980549050905090565b6060600084905060008484610b1f9190614ac9565b67ffffffffffffffff811115610b5e577f4e487b7100000000000000000000000000000000000000000000000000000000600052604160045260246000fd5b6040519080825280601f01601f191660200182016040528015610b905781602001600182028036833780820191505090505b50905060008590505b84811015610c6b57828181518110610bda577f4e487b7100000000000000000000000000000000000000000000000000000000600052603260045260246000fd5b602001015160f81c60f81b828783610bf29190614ac9565b81518110610c29577f4e487b7100000000000000000000000000000000000000000000000000000000600052603260045260246000fd5b60200101907effffffffffffffffffffffffffffffffffffffffffffffffffffffffffffff1916908160001a9053508080610c6390614c5f565b915050610b99565b5080925050509392505050565b7f000000000000000000000000000000000000000000000000000000000000000073ffffffffffffffffffffffffffffffffffffffff163373ffffffffffffffffffffffffffffffffffffffff1614610d2a57337f00000000000000000000000000000000000000000000000000000000000000006040517f1cf993f4000000000000000000000000000000000000000000000000000000008152600401610d219291906144dc565b60405180910390fd5b610d348282611ca5565b5050565b610d49610d43611be4565b82611cf3565b610d88576040517f08c379a0000000000000000000000000000000000000000000000000000000008152600401610d7f906147f1565b60405180910390fd5b610d93838383611dd1565b505050565b6000610da383611067565b8210610de4576040517f08c379a0000000000000000000000000000000000000000000000000000000008152600401610ddb90614611565b60405180910390fd5b600760008473ffffffffffffffffffffffffffffffffffffffff1673ffffffffffffffffffffffffffffffffffffffff168152602001908152602001600020600083815260200190815260200160002054905092915050565b610e588383836040518060200160405280600081525061177a565b505050565b610e6561139f565b505050565b6000610e74610afd565b8210610eb5576040517f08c379a0000000000000000000000000000000000000000000000000000000008152600401610eac90614811565b60405180910390fd5b60098281548110610eef577f4e487b7100000000000000000000000000000000000000000000000000000000600052603260045260246000fd5b90600052602060002001549050919050565b610f09611be4565b73ffffffffffffffffffffffffffffffffffffffff16610f276111bb565b73ffffffffffffffffffffffffffffffffffffffff1614610f7d576040517f08c379a0000000000000000000000000000000000000000000000000000000008152600401610f74906147b1565b60405180910390fd5b80600d8190555050565b6000806003600084815260200190815260200160002060009054906101000a900473ffffffffffffffffffffffffffffffffffffffff169050600073ffffffffffffffffffffffffffffffffffffffff168173ffffffffffffffffffffffffffffffffffffffff161415611030576040517f08c379a000000000000000000000000000000000000000000000000000000000815260040161102790614751565b60405180910390fd5b80915050919050565b60006060600f60009054906101000a900460ff1615801561105e575061105d61184f565b5b91509250929050565b60008073ffffffffffffffffffffffffffffffffffffffff168273ffffffffffffffffffffffffffffffffffffffff1614156110d8576040517f08c379a00000000000000000000000000000000000000000000000000000000081526004016110cf90614731565b60405180910390fd5b600460008373ffffffffffffffffffffffffffffffffffffffff1673ffffffffffffffffffffffffffffffffffffffff168152602001908152602001600020549050919050565b611127611be4565b73ffffffffffffffffffffffffffffffffffffffff166111456111bb565b73ffffffffffffffffffffffffffffffffffffffff161461119b576040517f08c379a0000000000000000000000000000000000000000000000000000000008152600401611192906147b1565b60405180910390fd5b6111a56000612038565b565b6000600d54905090565b6000600e54905090565b60008060009054906101000a900473ffffffffffffffffffffffffffffffffffffffff16905090565b6111ec611be4565b73ffffffffffffffffffffffffffffffffffffffff1661120a6111bb565b73ffffffffffffffffffffffffffffffffffffffff1614611260576040517f08c379a0000000000000000000000000000000000000000000000000000000008152600401611257906147b1565b60405180910390fd5b600061126a6111bb565b73ffffffffffffffffffffffffffffffffffffffff164760405161128d906144ac565b60006040518083038185875af1925050503d80600081146112ca576040519150601f19603f3d011682016040523d82523d6000602084013e6112cf565b606091505b505090508061130a576040517f0ca5b23000000000000000000000000000000000000000000000000000000000815260040160405180910390fd5b50565b60606002805461131c90614bfc565b80601f016020809104026020016040519081016040528092919081815260200182805461134890614bfc565b80156113955780601f1061136a57610100808354040283529160200191611395565b820191906000526020600020905b81548152906001019060200180831161137857829003601f168201915b5050505050905090565b6000600f60009054906101000a900460ff16156113e8576040517fd0cf055400000000000000000000000000000000000000000000000000000000815260040160405180910390fd5b6113f061184f565b611426576040517f4e628ebc00000000000000000000000000000000000000000000000000000000815260040160405180910390fd5b7f000000000000000000000000000000000000000000000000000000000000000073ffffffffffffffffffffffffffffffffffffffff16635d3b1d307f00000000000000000000000000000000000000000000000000000000000000007f000000000000000000000000000000000000000000000000000000000000000060037f000000000000000000000000000000000000000000000000000000000000000060016040518663ffffffff1660e01b81526004016114e995949392919061459c565b602060405180830381600087803b15801561150357600080fd5b505af1158015611517573d6000803e3d6000fd5b505050506040513d601f19601f8201168201806040525081019061153b9190613dbe565b90506001600f60006101000a81548160ff0219169083151502179055507f8d83bdd6db199ff596cec09ea8e4f4e50da2dcb4020bc2a1cf072c507056b1ea816040516115879190614831565b60405180910390a190565b600061159c610afd565b905060008214156115d9576040517f2c5211c600000000000000000000000000000000000000000000000000000000815260040160405180910390fd5b7f000000000000000000000000000000000000000000000000000000000000000082826116069190614976565b111561163e576040517fd05cb60900000000000000000000000000000000000000000000000000000000815260040160405180910390fd5b817f000000000000000000000000000000000000000000000000000000000000000061166a9190614a34565b3410156116a3576040517f356680b700000000000000000000000000000000000000000000000000000000815260040160405180910390fd5b6000600190505b8281116116d9576116c63382846116c19190614976565b6120fc565b80806116d190614c5f565b9150506116aa565b505050565b6116f06116e9611be4565b838361211a565b5050565b6116fc611be4565b73ffffffffffffffffffffffffffffffffffffffff1661171a6111bb565b73ffffffffffffffffffffffffffffffffffffffff1614611770576040517f08c379a0000000000000000000000000000000000000000000000000000000008152600401611767906147b1565b60405180910390fd5b80600c8190555050565b61178b611785611be4565b83611cf3565b6117ca576040517f08c379a00000000000000000000000000000000000000000000000000000000081526004016117c1906147f1565b60405180910390fd5b6117d684848484612287565b50505050565b6000600b54905090565b60007f0000000000000000000000000000000000000000000000000000000000000000905090565b606060008061181c846122e3565b91509150600061182c8383612437565b9050600061183982612a6d565b905061184481612b00565b945050505050919050565b600080600b5461185d610afd565b6118679190614ac9565b9050600081141561187c5760009150506118d5565b600080600c541180156118915750600c548210155b1561189b57600190505b600080600d541180156118bc5750600d54600e54426118ba9190614ac9565b115b156118c657600190505b81806118cf5750805b93505050505b90565b60007f0000000000000000000000000000000000000000000000000000000000000000905090565b6000600660008473ffffffffffffffffffffffffffffffffffffffff1673ffffffffffffffffffffffffffffffffffffffff16815260200190815260200160002060008373ffffffffffffffffffffffffffffffffffffffff1673ffffffffffffffffffffffffffffffffffffffff16815260200190815260200160002060009054906101000a900460ff16905092915050565b61199c611be4565b73ffffffffffffffffffffffffffffffffffffffff166119ba6111bb565b73ffffffffffffffffffffffffffffffffffffffff1614611a10576040517f08c379a0000000000000000000000000000000000000000000000000000000008152600401611a07906147b1565b60405180910390fd5b600073ffffffffffffffffffffffffffffffffffffffff168173ffffffffffffffffffffffffffffffffffffffff161415611a80576040517f08c379a0000000000000000000000000000000000000000000000000000000008152600401611a7790614651565b60405180910390fd5b611a8981612038565b50565b6000600c54905090565b60007f80ac58cd000000000000000000000000000000000000000000000000000000007bffffffffffffffffffffffffffffffffffffffffffffffffffffffff1916827bffffffffffffffffffffffffffffffffffffffffffffffffffffffff19161480611b6157507f5b5e139f000000000000000000000000000000000000000000000000000000007bffffffffffffffffffffffffffffffffffffffffffffffffffffffff1916827bffffffffffffffffffffffffffffffffffffffffffffffffffffffff1916145b80611b715750611b7082612b50565b5b9050919050565b60008073ffffffffffffffffffffffffffffffffffffffff166003600084815260200190815260200160002060009054906101000a900473ffffffffffffffffffffffffffffffffffffffff1673ffffffffffffffffffffffffffffffffffffffff1614159050919050565b600033905090565b816005600083815260200190815260200160002060006101000a81548173ffffffffffffffffffffffffffffffffffffffff021916908373ffffffffffffffffffffffffffffffffffffffff160217905550808273ffffffffffffffffffffffffffffffffffffffff16611c5f83610f87565b73ffffffffffffffffffffffffffffffffffffffff167f8c5be1e5ebec7d5bd14f71427d1e84f3dd0314c0f7b2291e5b200ac8c7c3b92560405160405180910390a45050565b611cef81600081518110611ce2577f4e487b7100000000000000000000000000000000000000000000000000000000600052603260045260246000fd5b6020026020010151612bba565b5050565b6000611cfe82611b78565b611d3d576040517f08c379a0000000000000000000000000000000000000000000000000000000008152600401611d34906146f1565b60405180910390fd5b6000611d4883610f87565b90508073ffffffffffffffffffffffffffffffffffffffff168473ffffffffffffffffffffffffffffffffffffffff161480611d8a5750611d898185611900565b5b80611dc857508373ffffffffffffffffffffffffffffffffffffffff16611db084610960565b73ffffffffffffffffffffffffffffffffffffffff16145b91505092915050565b8273ffffffffffffffffffffffffffffffffffffffff16611df182610f87565b73ffffffffffffffffffffffffffffffffffffffff1614611e47576040517f08c379a0000000000000000000000000000000000000000000000000000000008152600401611e3e90614671565b60405180910390fd5b600073ffffffffffffffffffffffffffffffffffffffff168273ffffffffffffffffffffffffffffffffffffffff161415611eb7576040517f08c379a0000000000000000000000000000000000000000000000000000000008152600401611eae906146b1565b60405180910390fd5b611ec2838383612cb8565b611ecd600082611bec565b6001600460008573ffffffffffffffffffffffffffffffffffffffff1673ffffffffffffffffffffffffffffffffffffffff1681526020019081526020016000206000828254611f1d9190614ac9565b925050819055506001600460008473ffffffffffffffffffffffffffffffffffffffff1673ffffffffffffffffffffffffffffffffffffffff1681526020019081526020016000206000828254611f749190614976565b92505081905550816003600083815260200190815260200160002060006101000a81548173ffffffffffffffffffffffffffffffffffffffff021916908373ffffffffffffffffffffffffffffffffffffffff160217905550808273ffffffffffffffffffffffffffffffffffffffff168473ffffffffffffffffffffffffffffffffffffffff167fddf252ad1be2c89b69c2b068fc378daa952ba7f163c4a11628f55a4df523b3ef60405160405180910390a4612033838383612dcc565b505050565b60008060009054906101000a900473ffffffffffffffffffffffffffffffffffffffff169050816000806101000a81548173ffffffffffffffffffffffffffffffffffffffff021916908373ffffffffffffffffffffffffffffffffffffffff1602179055508173ffffffffffffffffffffffffffffffffffffffff168173ffffffffffffffffffffffffffffffffffffffff167f8be0079c531659141344cd1fd0a4f28419497f9722a3daafe3b4186f6b6457e060405160405180910390a35050565b612116828260405180602001604052806000815250612dd1565b5050565b8173ffffffffffffffffffffffffffffffffffffffff168373ffffffffffffffffffffffffffffffffffffffff161415612189576040517f08c379a0000000000000000000000000000000000000000000000000000000008152600401612180906146d1565b60405180910390fd5b80600660008573ffffffffffffffffffffffffffffffffffffffff1673ffffffffffffffffffffffffffffffffffffffff16815260200190815260200160002060008473ffffffffffffffffffffffffffffffffffffffff1673ffffffffffffffffffffffffffffffffffffffff16815260200190815260200160002060006101000a81548160ff0219169083151502179055508173ffffffffffffffffffffffffffffffffffffffff168373ffffffffffffffffffffffffffffffffffffffff167f17307eab39ab6107e8899845ad3d59bd9653f200f220920489ca2b5937696c318360405161227a9190614551565b60405180910390a3505050565b612292848484611dd1565b61229e84848484612e2c565b6122dd576040517f08c379a00000000000000000000000000000000000000000000000000000000081526004016122d490614631565b60405180910390fd5b50505050565b60008060005b6010805490508110156124315760108181548110612330577f4e487b7100000000000000000000000000000000000000000000000000000000600052603260045260246000fd5b906000526020600020906003020160000154841015801561239b575060108181548110612386577f4e487b7100000000000000000000000000000000000000000000000000000000600052603260045260246000fd5b90600052602060002090600302016001015484105b1561241e57601081815481106123da577f4e487b7100000000000000000000000000000000000000000000000000000000600052603260045260246000fd5b906000526020600020906003020160020154846040516020016123fe92919061484c565b6040516020818303038152906040528051906020012060001c9250600191505b808061242990614c5f565b9150506122e9565b50915091565b6060612441613874565b6040518060a00160405280606281526020016155246062913981600060048110612494577f4e487b7100000000000000000000000000000000000000000000000000000000600052603260045260246000fd5b602002018190525082156127fa576040518060c00160405280608d8152602001615497608d9139816001600481106124f5577f4e487b7100000000000000000000000000000000000000000000000000000000600052603260045260246000fd5b602002018190525061250561389b565b600061251086612fc3565b905060005b60078160ff1610156125d257600061255883600b846125349190614a8e565b60ff16600b60018661254691906149cc565b6125509190614a8e565b60ff16610b0a565b90508060405160200161256b91906143f9565b604051602081830303815290604052848360ff16600781106125b6577f4e487b7100000000000000000000000000000000000000000000000000000000600052603260045260246000fd5b60200201819052505080806125ca90614ca8565b915050612515565b508160006007811061260d577f4e487b7100000000000000000000000000000000000000000000000000000000600052603260045260246000fd5b60200201518260016007811061264c577f4e487b7100000000000000000000000000000000000000000000000000000000600052603260045260246000fd5b60200201518360026007811061268b577f4e487b7100000000000000000000000000000000000000000000000000000000600052603260045260246000fd5b6020020151846003600781106126ca577f4e487b7100000000000000000000000000000000000000000000000000000000600052603260045260246000fd5b602002015185600460078110612709577f4e487b7100000000000000000000000000000000000000000000000000000000600052603260045260246000fd5b602002015186600560078110612748577f4e487b7100000000000000000000000000000000000000000000000000000000600052603260045260246000fd5b602002015187600660078110612787577f4e487b7100000000000000000000000000000000000000000000000000000000600052603260045260246000fd5b60200201516040516020016127a29796959493929190614394565b604051602081830303815290604052836002600481106127eb577f4e487b7100000000000000000000000000000000000000000000000000000000600052603260045260246000fd5b602002018190525050506128ce565b6040518060c00160405280609d81526020016155c6609d91398160016004811061284d577f4e487b7100000000000000000000000000000000000000000000000000000000600052603260045260246000fd5b60200201819052506040518060400160405280600181526020017f3f00000000000000000000000000000000000000000000000000000000000000815250816002600481106128c5577f4e487b7100000000000000000000000000000000000000000000000000000000600052603260045260246000fd5b60200201819052505b6040518060400160405280600d81526020017f3c2f746578743e3c2f7376673e000000000000000000000000000000000000008152508160036004811061293e577f4e487b7100000000000000000000000000000000000000000000000000000000600052603260045260246000fd5b602002018190525080600060048110612980577f4e487b7100000000000000000000000000000000000000000000000000000000600052603260045260246000fd5b6020020151816001600481106129bf577f4e487b7100000000000000000000000000000000000000000000000000000000600052603260045260246000fd5b6020020151826002600481106129fe577f4e487b7100000000000000000000000000000000000000000000000000000000600052603260045260246000fd5b602002015183600360048110612a3d577f4e487b7100000000000000000000000000000000000000000000000000000000600052603260045260246000fd5b6020020151604051602001612a559493929190614356565b60405160208183030381529060405291505092915050565b606060006040518060400160405280601a81526020017f646174613a696d6167652f7376672b786d6c3b6261736536342c00000000000081525090506000612ad384604051602001612abf919061431b565b604051602081830303815290604052613170565b90508181604051602001612ae8929190614332565b60405160208183030381529060405292505050919050565b6060612b2a82604051602001612b169190614426565b604051602081830303815290604052613170565b604051602001612b3a919061448a565b6040516020818303038152906040529050919050565b60007f01ffc9a7000000000000000000000000000000000000000000000000000000007bffffffffffffffffffffffffffffffffffffffffffffffffffffffff1916827bffffffffffffffffffffffffffffffffffffffffffffffffffffffff1916149050919050565b6000612bc4610afd565b905060006001600b54612bd79190614976565b90506000600183612be89190614976565b905060106040518060600160405280848152602001838152602001868152509080600181540180825580915050600190039060005260206000209060030201600090919091909150600082015181600001556020820151816001015560408201518160020155505082600b8190555042600e819055506000600f60006101000a81548160ff0219169083151502179055507fa39d9410abe7578bfbf71501989f175c50a6950b6595718dd8092474541c889b8282604051612caa92919061484c565b60405180910390a150505050565b612cc38383836132fa565b600073ffffffffffffffffffffffffffffffffffffffff168373ffffffffffffffffffffffffffffffffffffffff161415612d0657612d01816132ff565b612d45565b8173ffffffffffffffffffffffffffffffffffffffff168373ffffffffffffffffffffffffffffffffffffffff1614612d4457612d438382613348565b5b5b600073ffffffffffffffffffffffffffffffffffffffff168273ffffffffffffffffffffffffffffffffffffffff161415612d8857612d83816134b5565b612dc7565b8273ffffffffffffffffffffffffffffffffffffffff168273ffffffffffffffffffffffffffffffffffffffff1614612dc657612dc582826135f8565b5b5b505050565b505050565b612ddb8383613677565b612de86000848484612e2c565b612e27576040517f08c379a0000000000000000000000000000000000000000000000000000000008152600401612e1e90614631565b60405180910390fd5b505050565b6000612e4d8473ffffffffffffffffffffffffffffffffffffffff16613851565b15612fb6578373ffffffffffffffffffffffffffffffffffffffff1663150b7a02612e76611be4565b8786866040518563ffffffff1660e01b8152600401612e989493929190614505565b602060405180830381600087803b158015612eb257600080fd5b505af1925050508015612ee357506040513d601f19601f82011682018060405250810190612ee09190613cc0565b60015b612f66573d8060008114612f13576040519150601f19603f3d011682016040523d82523d6000602084013e612f18565b606091505b50600081511415612f5e576040517f08c379a0000000000000000000000000000000000000000000000000000000008152600401612f5590614631565b60405180910390fd5b805181602001fd5b63150b7a0260e01b7bffffffffffffffffffffffffffffffffffffffffffffffffffffffff1916817bffffffffffffffffffffffffffffffffffffffffffffffffffffffff191614915050612fbb565b600190505b949350505050565b6060600082141561300b576040518060400160405280600181526020017f3000000000000000000000000000000000000000000000000000000000000000815250905061316b565b600082905060005b6000821461303d57808061302690614c5f565b915050600a826130369190614a03565b9150613013565b60008167ffffffffffffffff81111561307f577f4e487b7100000000000000000000000000000000000000000000000000000000600052604160045260246000fd5b6040519080825280601f01601f1916602001820160405280156130b15781602001600182028036833780820191505090505b5090505b60008514613164576001826130ca9190614ac9565b9150600a856130d99190614cd2565b60306130e59190614976565b60f81b818381518110613121577f4e487b7100000000000000000000000000000000000000000000000000000000600052603260045260246000fd5b60200101907effffffffffffffffffffffffffffffffffffffffffffffffffffffffffffff1916908160001a905350600a8561315d9190614a03565b94506130b5565b8093505050505b919050565b6060600082511415613193576040518060200160405280600081525090506132f5565b600060405180606001604052806040815260200161558660409139905060006003600285516131c29190614976565b6131cc9190614a03565b60046131d89190614a34565b67ffffffffffffffff811115613217577f4e487b7100000000000000000000000000000000000000000000000000000000600052604160045260246000fd5b6040519080825280601f01601f1916602001820160405280156132495781602001600182028036833780820191505090505b509050600182016020820185865187015b808210156132b5576003820191508151603f8160121c168501518453600184019350603f81600c1c168501518453600184019350603f8160061c168501518453600184019350603f811685015184536001840193505061325a565b50506003865106600181146132d157600281146132e4576132ec565b603d6001830353603d60028303536132ec565b603d60018303535b50505080925050505b919050565b505050565b600980549050600a600083815260200190815260200160002081905550600981908060018154018082558091505060019003906000526020600020016000909190919091505550565b6000600161335584611067565b61335f9190614ac9565b9050600060086000848152602001908152602001600020549050818114613444576000600760008673ffffffffffffffffffffffffffffffffffffffff1673ffffffffffffffffffffffffffffffffffffffff168152602001908152602001600020600084815260200190815260200160002054905080600760008773ffffffffffffffffffffffffffffffffffffffff1673ffffffffffffffffffffffffffffffffffffffff168152602001908152602001600020600084815260200190815260200160002081905550816008600083815260200190815260200160002081905550505b6008600084815260200190815260200160002060009055600760008573ffffffffffffffffffffffffffffffffffffffff1673ffffffffffffffffffffffffffffffffffffffff16815260200190815260200160002060008381526020019081526020016000206000905550505050565b600060016009805490506134c99190614ac9565b90506000600a600084815260200190815260200160002054905060006009838154811061351f577f4e487b7100000000000000000000000000000000000000000000000000000000600052603260045260246000fd5b906000526020600020015490508060098381548110613567577f4e487b7100000000000000000000000000000000000000000000000000000000600052603260045260246000fd5b906000526020600020018190555081600a600083815260200190815260200160002081905550600a60008581526020019081526020016000206000905560098054806135dc577f4e487b7100000000000000000000000000000000000000000000000000000000600052603160045260246000fd5b6001900381819060005260206000200160009055905550505050565b600061360383611067565b905081600760008573ffffffffffffffffffffffffffffffffffffffff1673ffffffffffffffffffffffffffffffffffffffff168152602001908152602001600020600083815260200190815260200160002081905550806008600084815260200190815260200160002081905550505050565b600073ffffffffffffffffffffffffffffffffffffffff168273ffffffffffffffffffffffffffffffffffffffff1614156136e7576040517f08c379a00000000000000000000000000000000000000000000000000000000081526004016136de90614771565b60405180910390fd5b6136f081611b78565b15613730576040517f08c379a000000000000000000000000000000000000000000000000000000000815260040161372790614691565b60405180910390fd5b61373c60008383612cb8565b6001600460008473ffffffffffffffffffffffffffffffffffffffff1673ffffffffffffffffffffffffffffffffffffffff168152602001908152602001600020600082825461378c9190614976565b92505081905550816003600083815260200190815260200160002060006101000a81548173ffffffffffffffffffffffffffffffffffffffff021916908373ffffffffffffffffffffffffffffffffffffffff160217905550808273ffffffffffffffffffffffffffffffffffffffff16600073ffffffffffffffffffffffffffffffffffffffff167fddf252ad1be2c89b69c2b068fc378daa952ba7f163c4a11628f55a4df523b3ef60405160405180910390a461384d60008383612dcc565b5050565b6000808273ffffffffffffffffffffffffffffffffffffffff163b119050919050565b60405180608001604052806004905b60608152602001906001900390816138835790505090565b6040518060e001604052806007905b60608152602001906001900390816138aa5790505090565b60006138d56138d08461489a565b614875565b905080838252602082019050828560208602820111156138f457600080fd5b60005b85811015613924578161390a8882613ac6565b8452602084019350602083019250506001810190506138f7565b5050509392505050565b600061394161393c846148c6565b614875565b90508281526020810184848401111561395957600080fd5b613964848285614bba565b509392505050565b600061397f61397a846148f7565b614875565b90508281526020810184848401111561399757600080fd5b6139a2848285614bba565b509392505050565b6000813590506139b98161543a565b92915050565b600082601f8301126139d057600080fd5b81356139e08482602086016138c2565b91505092915050565b6000813590506139f881615451565b92915050565b600081359050613a0d81615468565b92915050565b600081519050613a2281615468565b92915050565b60008083601f840112613a3a57600080fd5b8235905067ffffffffffffffff811115613a5357600080fd5b602083019150836001820283011115613a6b57600080fd5b9250929050565b600082601f830112613a8357600080fd5b8135613a9384826020860161392e565b91505092915050565b600082601f830112613aad57600080fd5b8135613abd84826020860161396c565b91505092915050565b600081359050613ad58161547f565b92915050565b600081519050613aea8161547f565b92915050565b600060208284031215613b0257600080fd5b6000613b10848285016139aa565b91505092915050565b60008060408385031215613b2c57600080fd5b6000613b3a858286016139aa565b9250506020613b4b858286016139aa565b9150509250929050565b600080600060608486031215613b6a57600080fd5b6000613b78868287016139aa565b9350506020613b89868287016139aa565b9250506040613b9a86828701613ac6565b9150509250925092565b60008060008060808587031215613bba57600080fd5b6000613bc8878288016139aa565b9450506020613bd9878288016139aa565b9350506040613bea87828801613ac6565b925050606085013567ffffffffffffffff811115613c0757600080fd5b613c1387828801613a72565b91505092959194509250565b60008060408385031215613c3257600080fd5b6000613c40858286016139aa565b9250506020613c51858286016139e9565b9150509250929050565b60008060408385031215613c6e57600080fd5b6000613c7c858286016139aa565b9250506020613c8d85828601613ac6565b9150509250929050565b600060208284031215613ca957600080fd5b6000613cb7848285016139fe565b91505092915050565b600060208284031215613cd257600080fd5b6000613ce084828501613a13565b91505092915050565b60008060208385031215613cfc57600080fd5b600083013567ffffffffffffffff811115613d1657600080fd5b613d2285828601613a28565b92509250509250929050565b600080600060608486031215613d4357600080fd5b600084013567ffffffffffffffff811115613d5d57600080fd5b613d6986828701613a9c565b9350506020613d7a86828701613ac6565b9250506040613d8b86828701613ac6565b9150509250925092565b600060208284031215613da757600080fd5b6000613db584828501613ac6565b91505092915050565b600060208284031215613dd057600080fd5b6000613dde84828501613adb565b91505092915050565b60008060408385031215613dfa57600080fd5b6000613e0885828601613ac6565b925050602083013567ffffffffffffffff811115613e2557600080fd5b613e31858286016139bf565b9150509250929050565b613e4481614afd565b82525050565b613e5381614b0f565b82525050565b613e6281614b1b565b82525050565b6000613e7382614928565b613e7d818561493e565b9350613e8d818560208601614bc9565b613e9681614dbf565b840191505092915050565b6000613eac82614933565b613eb6818561495a565b9350613ec6818560208601614bc9565b613ecf81614dbf565b840191505092915050565b6000613ee582614933565b613eef818561496b565b9350613eff818560208601614bc9565b80840191505092915050565b6000613f18602b8361495a565b9150613f2382614dd0565b604082019050919050565b6000613f3b60328361495a565b9150613f4682614e1f565b604082019050919050565b6000613f5e60268361495a565b9150613f6982614e6e565b604082019050919050565b6000613f8160258361495a565b9150613f8c82614ebd565b604082019050919050565b6000613fa4601c8361495a565b9150613faf82614f0c565b602082019050919050565b6000613fc760088361496b565b9150613fd282614f35565b600882019050919050565b6000613fea600e8361496b565b9150613ff582614f5e565b600e82019050919050565b600061400d60248361495a565b915061401882614f87565b604082019050919050565b600061403060198361495a565b915061403b82614fd6565b602082019050919050565b6000614053602c8361495a565b915061405e82614fff565b604082019050919050565b600061407660118361496b565b91506140818261504e565b601182019050919050565b600061409960388361495a565b91506140a482615077565b604082019050919050565b60006140bc60018361496b565b91506140c7826150c6565b600182019050919050565b60006140df602a8361495a565b91506140ea826150ef565b604082019050919050565b600061410260298361495a565b915061410d8261513e565b604082019050919050565b600061412560258361496b565b91506141308261518d565b602582019050919050565b600061414860098361496b565b9150614153826151dc565b600982019050919050565b600061416b60208361495a565b915061417682615205565b602082019050919050565b600061418e60018361496b565b91506141998261522e565b600182019050919050565b60006141b1602c8361495a565b91506141bc82615257565b604082019050919050565b60006141d460168361496b565b91506141df826152a6565b601682019050919050565b60006141f760208361495a565b9150614202826152cf565b602082019050919050565b600061421a60018361496b565b9150614225826152f8565b600182019050919050565b600061423d60218361495a565b915061424882615321565b604082019050919050565b6000614260601d8361496b565b915061426b82615370565b601d82019050919050565b600061428360008361494f565b915061428e82615399565b600082019050919050565b60006142a660318361495a565b91506142b18261539c565b604082019050919050565b60006142c9602c8361495a565b91506142d4826153eb565b604082019050919050565b6142e881614b51565b82525050565b6142f781614b7f565b82525050565b61430681614b89565b82525050565b61431581614b99565b82525050565b60006143278284613eda565b915081905092915050565b600061433e8285613eda565b915061434a8284613eda565b91508190509392505050565b60006143628287613eda565b915061436e8286613eda565b915061437a8285613eda565b91506143868284613eda565b915081905095945050505050565b60006143a0828a613eda565b91506143ac8289613eda565b91506143b88288613eda565b91506143c48287613eda565b91506143d08286613eda565b91506143dc8285613eda565b91506143e88284613eda565b915081905098975050505050505050565b6000614404826141c7565b91506144108284613eda565b915061441b82613fba565b915081905092915050565b60006144318261420d565b915061443c82613fdd565b915061444782614118565b915061445282614069565b915061445d8261413b565b91506144698284613eda565b9150614474826140af565b915061447f82614181565b915081905092915050565b600061449582614253565b91506144a18284613eda565b915081905092915050565b60006144b782614276565b9150819050919050565b60006020820190506144d66000830184613e3b565b92915050565b60006040820190506144f16000830185613e3b565b6144fe6020830184613e3b565b9392505050565b600060808201905061451a6000830187613e3b565b6145276020830186613e3b565b61453460408301856142ee565b81810360608301526145468184613e68565b905095945050505050565b60006020820190506145666000830184613e4a565b92915050565b60006040820190506145816000830185613e4a565b81810360208301526145938184613e68565b90509392505050565b600060a0820190506145b16000830188613e59565b6145be602083018761430c565b6145cb60408301866142df565b6145d860608301856142fd565b6145e560808301846142fd565b9695505050505050565b600060208201905081810360008301526146098184613ea1565b905092915050565b6000602082019050818103600083015261462a81613f0b565b9050919050565b6000602082019050818103600083015261464a81613f2e565b9050919050565b6000602082019050818103600083015261466a81613f51565b9050919050565b6000602082019050818103600083015261468a81613f74565b9050919050565b600060208201905081810360008301526146aa81613f97565b9050919050565b600060208201905081810360008301526146ca81614000565b9050919050565b600060208201905081810360008301526146ea81614023565b9050919050565b6000602082019050818103600083015261470a81614046565b9050919050565b6000602082019050818103600083015261472a8161408c565b9050919050565b6000602082019050818103600083015261474a816140d2565b9050919050565b6000602082019050818103600083015261476a816140f5565b9050919050565b6000602082019050818103600083015261478a8161415e565b9050919050565b600060208201905081810360008301526147aa816141a4565b9050919050565b600060208201905081810360008301526147ca816141ea565b9050919050565b600060208201905081810360008301526147ea81614230565b9050919050565b6000602082019050818103600083015261480a81614299565b9050919050565b6000602082019050818103600083015261482a816142bc565b9050919050565b600060208201905061484660008301846142ee565b92915050565b600060408201905061486160008301856142ee565b61486e60208301846142ee565b9392505050565b600061487f614890565b905061488b8282614c2e565b919050565b6000604051905090565b600067ffffffffffffffff8211156148b5576148b4614d90565b5b602082029050602081019050919050565b600067ffffffffffffffff8211156148e1576148e0614d90565b5b6148ea82614dbf565b9050602081019050919050565b600067ffffffffffffffff82111561491257614911614d90565b5b61491b82614dbf565b9050602081019050919050565b600081519050919050565b600081519050919050565b600082825260208201905092915050565b600081905092915050565b600082825260208201905092915050565b600081905092915050565b600061498182614b7f565b915061498c83614b7f565b9250827fffffffffffffffffffffffffffffffffffffffffffffffffffffffffffffffff038211156149c1576149c0614d03565b5b828201905092915050565b60006149d782614bad565b91506149e283614bad565b92508260ff038211156149f8576149f7614d03565b5b828201905092915050565b6000614a0e82614b7f565b9150614a1983614b7f565b925082614a2957614a28614d32565b5b828204905092915050565b6000614a3f82614b7f565b9150614a4a83614b7f565b9250817fffffffffffffffffffffffffffffffffffffffffffffffffffffffffffffffff0483118215151615614a8357614a82614d03565b5b828202905092915050565b6000614a9982614bad565b9150614aa483614bad565b92508160ff0483118215151615614abe57614abd614d03565b5b828202905092915050565b6000614ad482614b7f565b9150614adf83614b7f565b925082821015614af257614af1614d03565b5b828203905092915050565b6000614b0882614b5f565b9050919050565b60008115159050919050565b6000819050919050565b60007fffffffff0000000000000000000000000000000000000000000000000000000082169050919050565b600061ffff82169050919050565b600073ffffffffffffffffffffffffffffffffffffffff82169050919050565b6000819050919050565b600063ffffffff82169050919050565b600067ffffffffffffffff82169050919050565b600060ff82169050919050565b82818337600083830152505050565b60005b83811015614be7578082015181840152602081019050614bcc565b83811115614bf6576000848401525b50505050565b60006002820490506001821680614c1457607f821691505b60208210811415614c2857614c27614d61565b5b50919050565b614c3782614dbf565b810181811067ffffffffffffffff82111715614c5657614c55614d90565b5b80604052505050565b6000614c6a82614b7f565b91507fffffffffffffffffffffffffffffffffffffffffffffffffffffffffffffffff821415614c9d57614c9c614d03565b5b600182019050919050565b6000614cb382614bad565b915060ff821415614cc757614cc6614d03565b5b600182019050919050565b6000614cdd82614b7f565b9150614ce883614b7f565b925082614cf857614cf7614d32565b5b828206905092915050565b7f4e487b7100000000000000000000000000000000000000000000000000000000600052601160045260246000fd5b7f4e487b7100000000000000000000000000000000000000000000000000000000600052601260045260246000fd5b7f4e487b7100000000000000000000000000000000000000000000000000000000600052602260045260246000fd5b7f4e487b7100000000000000000000000000000000000000000000000000000000600052604160045260246000fd5b6000601f19601f8301169050919050565b7f455243373231456e756d657261626c653a206f776e657220696e646578206f7560008201527f74206f6620626f756e6473000000000000000000000000000000000000000000602082015250565b7f4552433732313a207472616e7366657220746f206e6f6e20455243373231526560008201527f63656976657220696d706c656d656e7465720000000000000000000000000000602082015250565b7f4f776e61626c653a206e6577206f776e657220697320746865207a65726f206160008201527f6464726573730000000000000000000000000000000000000000000000000000602082015250565b7f4552433732313a207472616e736665722066726f6d20696e636f72726563742060008201527f6f776e6572000000000000000000000000000000000000000000000000000000602082015250565b7f4552433732313a20746f6b656e20616c7265616479206d696e74656400000000600082015250565b7f3c2f747370616e3e000000000000000000000000000000000000000000000000600082015250565b7f226e616d65223a224e4654222c20000000000000000000000000000000000000600082015250565b7f4552433732313a207472616e7366657220746f20746865207a65726f2061646460008201527f7265737300000000000000000000000000000000000000000000000000000000602082015250565b7f4552433732313a20617070726f766520746f2063616c6c657200000000000000600082015250565b7f4552433732313a206f70657261746f7220717565727920666f72206e6f6e657860008201527f697374656e7420746f6b656e0000000000000000000000000000000000000000602082015250565b7f2261747472696275746573223a22222c20000000000000000000000000000000600082015250565b7f4552433732313a20617070726f76652063616c6c6572206973206e6f74206f7760008201527f6e6572206e6f7220617070726f76656420666f7220616c6c0000000000000000602082015250565b7f2200000000000000000000000000000000000000000000000000000000000000600082015250565b7f4552433732313a2062616c616e636520717565727920666f7220746865207a6560008201527f726f206164647265737300000000000000000000000000000000000000000000602082015250565b7f4552433732313a206f776e657220717565727920666f72206e6f6e657869737460008201527f656e7420746f6b656e0000000000000000000000000000000000000000000000602082015250565b7f226465736372697074696f6e223a2242617463682d72657665616c6564204e4660008201527f5421222c20000000000000000000000000000000000000000000000000000000602082015250565b7f22696d616765223a220000000000000000000000000000000000000000000000600082015250565b7f4552433732313a206d696e7420746f20746865207a65726f2061646472657373600082015250565b7f7d00000000000000000000000000000000000000000000000000000000000000600082015250565b7f4552433732313a20617070726f76656420717565727920666f72206e6f6e657860008201527f697374656e7420746f6b656e0000000000000000000000000000000000000000602082015250565b7f3c747370616e20783d223132222064793d223438223e00000000000000000000600082015250565b7f4f776e61626c653a2063616c6c6572206973206e6f7420746865206f776e6572600082015250565b7f7b00000000000000000000000000000000000000000000000000000000000000600082015250565b7f4552433732313a20617070726f76616c20746f2063757272656e74206f776e6560008201527f7200000000000000000000000000000000000000000000000000000000000000602082015250565b7f646174613a6170706c69636174696f6e2f6a736f6e3b6261736536342c000000600082015250565b50565b7f4552433732313a207472616e736665722063616c6c6572206973206e6f74206f60008201527f776e6572206e6f7220617070726f766564000000000000000000000000000000602082015250565b7f455243373231456e756d657261626c653a20676c6f62616c20696e646578206f60008201527f7574206f6620626f756e64730000000000000000000000000000000000000000602082015250565b61544381614afd565b811461544e57600080fd5b50565b61545a81614b0f565b811461546557600080fd5b50565b61547181614b25565b811461547c57600080fd5b50565b61548881614b7f565b811461549357600080fd5b5056fe3c7374796c653e2e62617365207b2066696c6c3a2077686974653b20666f6e742d66616d696c793a2073657269663b20666f6e742d73697a653a20353470783b207d3c2f7374796c653e3c726563742077696474683d223130302522206865696768743d2231303025222066696c6c3d22626c61636b22202f3e3c7465787420636c6173733d2262617365223e3c73766720786d6c6e733d22687474703a2f2f7777772e77332e6f72672f323030302f73766722207072657365727665417370656374526174696f3d22784d696e594d696e206d656574222076696577426f783d223020302033353020333530223e4142434445464748494a4b4c4d4e4f505152535455565758595a6162636465666768696a6b6c6d6e6f707172737475767778797a303132333435363738392b2f3c7374796c653e2e62617365207b2066696c6c3a2077686974653b20666f6e742d66616d696c793a2073657269663b20666f6e742d73697a653a2033353070783b207d3c2f7374796c653e3c726563742077696474683d223130302522206865696768743d2231303025222066696c6c3d22626c61636b22202f3e3c7465787420783d2239302220793d223239352220636c6173733d2262617365223ea26469706673582212203f2fc0d4d4f09ddb5ec31622194e66ea30936988414284d550a52e1eed1a01fb64736f6c63430008040033",
  "linkReferences": {},
  "deployedLinkReferences": {}
}