{"contracts/NFTCollection.sol":{"NFTCollection":{"abi":[{"inputs":[{"internalType":"string","name":"_name","type":"string"},{"internalType":"string","name":"_symbol","type":"string"},{"internalType":"uint256","name":"_maxSupply","type":"uint256"},{"internalType":"uint256","name":"_mintCost","type":"uint256"},{"internalType":"uint256","name":"_revealBatchSize","type":"uint256"},{"internalType":"uint256","name":"_revealInterval","type":"uint256"},{"internalType":"address","name":"_vrfCoordinatorV2","type":"address"},{"internalType":"uint64","name":"_vrfSubscriptionId","type":"uint64"},{"internalType":"bytes32","name":"_vrfGasLane","type":"bytes32"},{"internalType":"uint32","name":"_vrfCallbackGasLimit","type":"uint32"}],"stateMutability":"nonpayable","type":"constructor"},{"inputs":[],"name":"InsufficientFunds","type":"error"},{"inputs":[],"name":"InsufficientLINK","type":"error"},{"inputs":[],"name":"InvalidAmount","type":"error"},{"inputs":[],"name":"MaxSupplyReached","type":"error"},{"inputs":[],"name":"NonExistentToken","type":"error"},{"inputs":[{"internalType":"address","name":"have","type":"address"},{"internalType":"address","name":"want","type":"address"}],"name":"OnlyCoordinatorCanFulfill","type":"error"},{"inputs":[],"name":"RevealCriteriaNotMet","type":"error"},{"inputs":[],"name":"RevealInProgress","type":"error"},{"inputs":[],"name":"WithdrawProceedsFailed","type":"error"},{"anonymous":false,"inputs":[{"indexed":true,"internalType":"address","name":"owner","type":"address"},{"indexed":true,"internalType":"address","name":"approved","type":"address"},{"indexed":true,"internalType":"uint256","name":"tokenId","type":"uint256"}],"name":"Approval","type":"event"},{"anonymous":false,"inputs":[{"indexed":true,"internalType":"address","name":"owner","type":"address"},{"indexed":true,"internalType":"address","name":"operator","type":"address"},{"indexed":false,"internalType":"bool","name":"approved","type":"bool"}],"name":"ApprovalForAll","type":"event"},{"anonymous":false,"inputs":[{"indexed":false,"internalType":"uint256","name":"startIndex","type":"uint256"},{"indexed":false,"internalType":"uint256","name":"endIndex","type":"uint256"}],"name":"BatchRevealFinished","type":"event"},{"anonymous":false,"inputs":[{"indexed":false,"internalType":"uint256","name":"requestId","type":"uint256"}],"name":"BatchRevealRequested","type":"event"},{"anonymous":false,"inputs":[{"indexed":true,"internalType":"address","name":"previousOwner","type":"address"},{"indexed":true,"internalType":"address","name":"newOwner","type":"address"}],"name":"OwnershipTransferred","type":"event"},{"anonymous":false,"inputs":[{"indexed":true,"internalType":"address","name":"from","type":"address"},{"indexed":true,"internalType":"address","name":"to","type":"address"},{"indexed":true,"internalType":"uint256","name":"tokenId","type":"uint256"}],"name":"Transfer","type":"event"},{"inputs":[{"internalType":"address","name":"to","type":"address"},{"internalType":"uint256","name":"tokenId","type":"uint256"}],"name":"approve","outputs":[],"stateMutability":"nonpayable","type":"function"},{"inputs":[{"internalType":"address","name":"owner","type":"address"}],"name":"balanceOf","outputs":[{"internalType":"uint256","name":"","type":"uint256"}],"stateMutability":"view","type":"function"},{"inputs":[],"name":"batchCount","outputs":[{"internalType":"uint256","name":"","type":"uint256"}],"stateMutability":"view","type":"function"},{"inputs":[{"internalType":"uint256","name":"index","type":"uint256"}],"name":"batchDetails","outputs":[{"internalType":"uint256","name":"","type":"uint256"},{"internalType":"uint256","name":"","type":"uint256"},{"internalType":"uint256","name":"","type":"uint256"}],"stateMutability":"view","type":"function"},{"inputs":[],"name":"batchSize","outputs":[{"internalType":"uint256","name":"","type":"uint256"}],"stateMutability":"view","type":"function"},{"inputs":[{"internalType":"bytes","name":"","type":"bytes"}],"name":"checkUpkeep","outputs":[{"internalType":"bool","name":"upkeepNeeded","type":"bool"},{"internalType":"bytes","name":"","type":"bytes"}],"stateMutability":"view","type":"function"},{"inputs":[{"internalType":"uint256","name":"tokenId","type":"uint256"}],"name":"getApproved","outputs":[{"internalType":"address","name":"","type":"address"}],"stateMutability":"view","type":"function"},{"inputs":[{"internalType":"address","name":"owner","type":"address"},{"internalType":"address","name":"operator","type":"address"}],"name":"isApprovedForAll","outputs":[{"internalType":"bool","name":"","type":"bool"}],"stateMutability":"view","type":"function"},{"inputs":[],"name":"lastRevealed","outputs":[{"internalType":"uint256","name":"","type":"uint256"}],"stateMutability":"view","type":"function"},{"inputs":[],"name":"maxSupply","outputs":[{"internalType":"uint256","name":"","type":"uint256"}],"stateMutability":"view","type":"function"},{"inputs":[{"internalType":"uint256","name":"_amount","type":"uint256"}],"name":"mint","outputs":[],"stateMutability":"payable","type":"function"},{"inputs":[],"name":"mintCost","outputs":[{"internalType":"uint256","name":"","type":"uint256"}],"stateMutability":"view","type":"function"},{"inputs":[],"name":"name","outputs":[{"internalType":"string","name":"","type":"string"}],"stateMutability":"view","type":"function"},{"inputs":[],"name":"owner","outputs":[{"internalType":"address","name":"","type":"address"}],"stateMutability":"view","type":"function"},{"inputs":[{"internalType":"uint256","name":"tokenId","type":"uint256"}],"name":"ownerOf","outputs":[{"internalType":"address","name":"","type":"address"}],"stateMutability":"view","type":"function"},{"inputs":[{"internalType":"bytes","name":"","type":"bytes"}],"name":"performUpkeep","outputs":[],"stateMutability":"nonpayable","type":"function"},{"inputs":[{"internalType":"uint256","name":"requestId","type":"uint256"},{"internalType":"uint256[]","name":"randomWords","type":"uint256[]"}],"name":"rawFulfillRandomWords","outputs":[],"stateMutability":"nonpayable","type":"function"},{"inputs":[],"name":"renounceOwnership","outputs":[],"stateMutability":"nonpayable","type":"function"},{"inputs":[],"name":"revealInterval","outputs":[{"internalType":"uint256","name":"","type":"uint256"}],"stateMutability":"view","type":"function"},{"inputs":[],"name":"revealPendingMetadata","outputs":[{"internalType":"uint256","name":"requestId","type":"uint256"}],"stateMutability":"nonpayable","type":"function"},{"inputs":[],"name":"revealedCount","outputs":[{"internalType":"uint256","name":"","type":"uint256"}],"stateMutability":"view","type":"function"},{"inputs":[{"internalType":"address","name":"from","type":"address"},{"internalType":"address","name":"to","type":"address"},{"internalType":"uint256","name":"tokenId","type":"uint256"}],"name":"safeTransferFrom","outputs":[],"stateMutability":"nonpayable","type":"function"},{"inputs":[{"internalType":"address","name":"from","type":"address"},{"internalType":"address","name":"to","type":"address"},{"internalType":"uint256","name":"tokenId","type":"uint256"},{"internalType":"bytes","name":"data","type":"bytes"}],"name":"safeTransferFrom","outputs":[],"stateMutability":"nonpayable","type":"function"},{"inputs":[{"internalType":"address","name":"operator","type":"address"},{"internalType":"bool","name":"approved","type":"bool"}],"name":"setApprovalForAll","outputs":[],"stateMutability":"nonpayable","type":"function"},{"inputs":[{"internalType":"uint256","name":"_revealBatchSize","type":"uint256"}],"name":"setRevealBatchSize","outputs":[],"stateMutability":"nonpayable","type":"function"},{"inputs":[{"internalType":"uint256","name":"_revealInterval","type":"uint256"}],"name":"setRevealInterval","outputs":[],"stateMutability":"nonpayable","type":"function"},{"inputs":[],"name":"shouldReveal","outputs":[{"internalType":"bool","name":"","type":"bool"}],"stateMutability":"view","type":"function"},{"inputs":[{"internalType":"bytes4","name":"interfaceId","type":"bytes4"}],"name":"supportsInterface","outputs":[{"internalType":"bool","name":"","type":"bool"}],"stateMutability":"view","type":"function"},{"inputs":[],"name":"symbol","outputs":[{"internalType":"string","name":"","type":"string"}],"stateMutability":"view","type":"function"},{"inputs":[{"internalType":"uint256","name":"index","type":"uint256"}],"name":"tokenByIndex","outputs":[{"internalType":"uint256","name":"","type":"uint256"}],"stateMutability":"view","type":"function"},{"inputs":[{"internalType":"address","name":"owner","type":"address"},{"internalType":"uint256","name":"index","type":"uint256"}],"name":"tokenOfOwnerByIndex","outputs":[{"internalType":"uint256","name":"","type":"uint256"}],"stateMutability":"view","type":"function"},{"inputs":[{"internalType":"uint256","name":"tokenId","type":"uint256"}],"name":"tokenURI","outputs":[{"internalType":"string","name":"","type":"string"}],"stateMutability":"view","type":"function"},{"inputs":[],"name":"totalSupply","outputs":[{"internalType":"uint256","name":"","type":"uint256"}],"stateMutability":"view","type":"function"},{"inputs":[{"internalType":"address","name":"from","type":"address"},{"internalType":"address","name":"to","type":"address"},{"internalType":"uint256","name":"tokenId","type":"uint256"}],"name":"transferFrom","outputs":[],"stateMutability":"nonpayable","type":"function"},{"inputs":[{"internalType":"address","name":"newOwner","type":"address"}],"name":"transferOwnership","outputs":[],"stateMutability":"nonpayable","type":"function"},{"inputs":[],"name":"withdrawProceeds","outputs":[],"stateMutability":"nonpayable","type":"function"}],"devdoc":{"kind":"dev","methods":{"approve(address,uint256)":{"details":"See {IERC721-approve}."},"balanceOf(address)":{"details":"See {IERC721-balanceOf}."},"getApproved(uint256)":{"details":"See {IERC721-getApproved}."},"isApprovedForAll(address,address)":{"details":"See {IERC721-isApprovedForAll}."},"name()":{"details":"See {IERC721Metadata-name}."},"owner()":{"details":"Returns the address of the current owner."},"ownerOf(uint256)":{"details":"See {IERC721-ownerOf}."},"renounceOwnership()":{"details":"Leaves the contract without owner. It will not be possible to call `onlyOwner` functions anymore. Can only be called by the current owner. NOTE: Renouncing ownership will leave the contract without an owner, thereby removing any functionality that is only available to the owner."},"safeTransferFrom(address,address,uint256)":{"details":"See {IERC721-safeTransferFrom}."},"safeTransferFrom(address,address,uint256,bytes)":{"details":"See {IERC721-safeTransferFrom}."},"setApprovalForAll(address,bool)":{"details":"See {IERC721-setApprovalForAll}."},"supportsInterface(bytes4)":{"details":"See {IERC165-supportsInterface}."},"symbol()":{"details":"See {IERC721Metadata-symbol}."},"tokenByIndex(uint256)":{"details":"See {IERC721Enumerable-tokenByIndex}."},"tokenOfOwnerByIndex(address,uint256)":{"details":"See {IERC721Enumerable-tokenOfOwnerByIndex}."},"tokenURI(uint256)":{"details":"See {IERC721Metadata-tokenURI}."},"totalSupply()":{"details":"See {IERC721Enumerable-totalSupply}."},"transferFrom(address,address,uint256)":{"details":"See {IERC721-transferFrom}."},"transferOwnership(address)":{"details":"Transfers ownership of the contract to a new account (`newOwner`). Can only be called by the current owner."}},"version":1},"evm":{"bytecode":{"linkReferences":{},"object":"61016060405242600e553480156200001657600080fd5b5060405162005d4b38038062005d4b83398181016040528101906200003c9190620003d2565b838a8a6200005f620000536200017160201b60201c565b6200017960201b60201c565b8160019080519060200190620000779291906200023d565b508060029080519060200190620000909291906200023d565b5050508073ffffffffffffffffffffffffffffffffffffffff1660808173ffffffffffffffffffffffffffffffffffffffff1660601b81525050508760a081815250508660c081815250508373ffffffffffffffffffffffffffffffffffffffff1660e08173ffffffffffffffffffffffffffffffffffffffff1660601b815250508267ffffffffffffffff166101008167ffffffffffffffff1660c01b815250508161012081815250508063ffffffff166101408163ffffffff1660e01b8152505085600c8190555084600d819055505050505050505050505062000752565b600033905090565b60008060009054906101000a900473ffffffffffffffffffffffffffffffffffffffff169050816000806101000a81548173ffffffffffffffffffffffffffffffffffffffff021916908373ffffffffffffffffffffffffffffffffffffffff1602179055508173ffffffffffffffffffffffffffffffffffffffff168173ffffffffffffffffffffffffffffffffffffffff167f8be0079c531659141344cd1fd0a4f28419497f9722a3daafe3b4186f6b6457e060405160405180910390a35050565b8280546200024b90620005f5565b90600052602060002090601f0160209004810192826200026f5760008555620002bb565b82601f106200028a57805160ff1916838001178555620002bb565b82800160010185558215620002bb579182015b82811115620002ba5782518255916020019190600101906200029d565b5b509050620002ca9190620002ce565b5090565b5b80821115620002e9576000816000905550600101620002cf565b5090565b600062000304620002fe846200051d565b620004f4565b9050828152602081018484840111156200031d57600080fd5b6200032a848285620005bf565b509392505050565b6000815190506200034381620006d0565b92915050565b6000815190506200035a81620006ea565b92915050565b600082601f8301126200037257600080fd5b815162000384848260208601620002ed565b91505092915050565b6000815190506200039e8162000704565b92915050565b600081519050620003b5816200071e565b92915050565b600081519050620003cc8162000738565b92915050565b6000806000806000806000806000806101408b8d031215620003f357600080fd5b60008b015167ffffffffffffffff8111156200040e57600080fd5b6200041c8d828e0162000360565b9a505060208b015167ffffffffffffffff8111156200043a57600080fd5b620004488d828e0162000360565b99505060406200045b8d828e016200038d565b98505060606200046e8d828e016200038d565b9750506080620004818d828e016200038d565b96505060a0620004948d828e016200038d565b95505060c0620004a78d828e0162000332565b94505060e0620004ba8d828e01620003bb565b935050610100620004ce8d828e0162000349565b925050610120620004e28d828e01620003a4565b9150509295989b9194979a5092959850565b60006200050062000513565b90506200050e82826200062b565b919050565b6000604051905090565b600067ffffffffffffffff8211156200053b576200053a62000690565b5b6200054682620006bf565b9050602081019050919050565b6000620005608262000571565b9050919050565b6000819050919050565b600073ffffffffffffffffffffffffffffffffffffffff82169050919050565b6000819050919050565b600063ffffffff82169050919050565b600067ffffffffffffffff82169050919050565b60005b83811015620005df578082015181840152602081019050620005c2565b83811115620005ef576000848401525b50505050565b600060028204905060018216806200060e57607f821691505b6020821081141562000625576200062462000661565b5b50919050565b6200063682620006bf565b810181811067ffffffffffffffff8211171562000658576200065762000690565b5b80604052505050565b7f4e487b7100000000000000000000000000000000000000000000000000000000600052602260045260246000fd5b7f4e487b7100000000000000000000000000000000000000000000000000000000600052604160045260246000fd5b6000601f19601f8301169050919050565b620006db8162000553565b8114620006e757600080fd5b50565b620006f58162000567565b81146200070157600080fd5b50565b6200070f8162000591565b81146200071b57600080fd5b50565b62000729816200059b565b81146200073557600080fd5b50565b6200074381620005ab565b81146200074f57600080fd5b50565b60805160601c60a05160c05160e05160601c6101005160c01c610120516101405160e01c61557d620007ce60003960006111e4015260006111a0015260006111c10152600061116401526000818161137d01526114b201526000818161131701526115e3015260008181610b120152610b66015261557d6000f3fe60806040526004361061020f5760003560e01c80637b4fab5a11610118578063bbd78e93116100a0578063d5abeb011161006f578063d5abeb0114610791578063e985e9c5146107bc578063f2fde38b146107f9578063f4daaba114610822578063f81909661461084d5761020f565b8063bbd78e93146106d3578063bdb4b848146106fe578063c87b56dd14610729578063cf3b94cd146107665761020f565b806396634a40116100e757806396634a4014610611578063a0712d681461063c578063a22cb46514610658578063aaae4e2314610681578063b88d4fde146106aa5761020f565b80637b4fab5a146105795780638da5cb5b146105a45780639038e693146105cf57806395d89b41146105e65761020f565b80632f745c591161019b5780635c65d81f1161016a5780635c65d81f146104815780636352211e146104aa5780636e04ff0d146104e757806370a0823114610525578063715018a6146105625761020f565b80632f745c59146103b557806342842e0e146103f25780634585e33b1461041b5780634f6ccce7146104445761020f565b8063095ea7b3116101e2578063095ea7b3146102e457806318160ddd1461030d5780631fe543e31461033857806323b872dd14610361578063247cd8ad1461038a5761020f565b806301ffc9a71461021457806306f130561461025157806306fdde031461027c578063081812fc146102a7575b600080fd5b34801561022057600080fd5b5061023b60048036038101906102369190613ccf565b61088c565b60405161024891906144f2565b60405180910390f35b34801561025d57600080fd5b50610266610906565b60405161027391906147b2565b60405180910390f35b34801561028857600080fd5b50610291610913565b60405161029e9190614590565b60405180910390f35b3480156102b357600080fd5b506102ce60048036038101906102c99190613d66565b6109a5565b6040516102db9190614462565b60405180910390f35b3480156102f057600080fd5b5061030b60048036038101906103069190613c93565b6109eb565b005b34801561031957600080fd5b50610322610b03565b60405161032f91906147b2565b60405180910390f35b34801561034457600080fd5b5061035f600480360381019061035a9190613db8565b610b10565b005b34801561036d57600080fd5b5061038860048036038101906103839190613b8d565b610bd0565b005b34801561039657600080fd5b5061039f610c30565b6040516103ac91906147b2565b60405180910390f35b3480156103c157600080fd5b506103dc60048036038101906103d79190613c93565b610c3a565b6040516103e991906147b2565b60405180910390f35b3480156103fe57600080fd5b5061041960048036038101906104149190613b8d565b610cdf565b005b34801561042757600080fd5b50610442600480360381019061043d9190613d21565b610cff565b005b34801561045057600080fd5b5061046b60048036038101906104669190613d66565b610d0c565b60405161047891906147b2565b60405180910390f35b34801561048d57600080fd5b506104a860048036038101906104a39190613d66565b610da3565b005b3480156104b657600080fd5b506104d160048036038101906104cc9190613d66565b610db5565b6040516104de9190614462565b60405180910390f35b3480156104f357600080fd5b5061050e60048036038101906105099190613d21565b610e67565b60405161051c92919061450d565b60405180910390f35b34801561053157600080fd5b5061054c60048036038101906105479190613b28565b610e95565b60405161055991906147b2565b60405180910390f35b34801561056e57600080fd5b50610577610f4d565b005b34801561058557600080fd5b5061058e610f61565b60405161059b91906147b2565b60405180910390f35b3480156105b057600080fd5b506105b9610f6b565b6040516105c69190614462565b60405180910390f35b3480156105db57600080fd5b506105e4610f94565b005b3480156105f257600080fd5b506105fb611049565b6040516106089190614590565b60405180910390f35b34801561061d57600080fd5b506106266110db565b60405161063391906147b2565b60405180910390f35b61065660048036038101906106519190613d66565b6112ce565b005b34801561066457600080fd5b5061067f600480360381019061067a9190613c57565b61141a565b005b34801561068d57600080fd5b506106a860048036038101906106a39190613d66565b611430565b005b3480156106b657600080fd5b506106d160048036038101906106cc9190613bdc565b611442565b005b3480156106df57600080fd5b506106e86114a4565b6040516106f591906147b2565b60405180910390f35b34801561070a57600080fd5b506107136114ae565b60405161072091906147b2565b60405180910390f35b34801561073557600080fd5b50610750600480360381019061074b9190613d66565b6114d6565b60405161075d9190614590565b60405180910390f35b34801561077257600080fd5b5061077b611556565b60405161078891906144f2565b60405180910390f35b34801561079d57600080fd5b506107a66115df565b6040516107b391906147b2565b60405180910390f35b3480156107c857600080fd5b506107e360048036038101906107de9190613b51565b611607565b6040516107f091906144f2565b60405180910390f35b34801561080557600080fd5b50610820600480360381019061081b9190613b28565b61169b565b005b34801561082e57600080fd5b5061083761171f565b60405161084491906147b2565b60405180910390f35b34801561085957600080fd5b50610874600480360381019061086f9190613d66565b611729565b604051610883939291906147f6565b60405180910390f35b6000610897826117bf565b806108ff57507fe7fb86c6000000000000000000000000000000000000000000000000000000007bffffffffffffffffffffffffffffffffffffffffffffffffffffffff1916827bffffffffffffffffffffffffffffffffffffffffffffffffffffffff1916145b9050919050565b6000601080549050905090565b60606001805461092290614bad565b80601f016020809104026020016040519081016040528092919081815260200182805461094e90614bad565b801561099b5780601f106109705761010080835404028352916020019161099b565b820191906000526020600020905b81548152906001019060200180831161097e57829003601f168201915b5050505050905090565b60006109b082611839565b6005600083815260200190815260200160002060009054906101000a900473ffffffffffffffffffffffffffffffffffffffff169050919050565b60006109f682610db5565b90508073ffffffffffffffffffffffffffffffffffffffff168373ffffffffffffffffffffffffffffffffffffffff161415610a67576040517f08c379a0000000000000000000000000000000000000000000000000000000008152600401610a5e90614752565b60405180910390fd5b8073ffffffffffffffffffffffffffffffffffffffff16610a86611884565b73ffffffffffffffffffffffffffffffffffffffff161480610ab55750610ab481610aaf611884565b611607565b5b610af4576040517f08c379a0000000000000000000000000000000000000000000000000000000008152600401610aeb906146d2565b60405180910390fd5b610afe838361188c565b505050565b6000600980549050905090565b7f000000000000000000000000000000000000000000000000000000000000000073ffffffffffffffffffffffffffffffffffffffff163373ffffffffffffffffffffffffffffffffffffffff1614610bc257337f00000000000000000000000000000000000000000000000000000000000000006040517f1cf993f4000000000000000000000000000000000000000000000000000000008152600401610bb992919061447d565b60405180910390fd5b610bcc8282611945565b5050565b610be1610bdb611884565b82611993565b610c20576040517f08c379a0000000000000000000000000000000000000000000000000000000008152600401610c1790614792565b60405180910390fd5b610c2b838383611a28565b505050565b6000600d54905090565b6000610c4583610e95565b8210610c86576040517f08c379a0000000000000000000000000000000000000000000000000000000008152600401610c7d906145d2565b60405180910390fd5b600760008473ffffffffffffffffffffffffffffffffffffffff1673ffffffffffffffffffffffffffffffffffffffff168152602001908152602001600020600083815260200190815260200160002054905092915050565b610cfa83838360405180602001604052806000815250611442565b505050565b610d076110db565b505050565b6000610d16610b03565b8210610d57576040517f08c379a0000000000000000000000000000000000000000000000000000000008152600401610d4e90614772565b60405180910390fd5b60098281548110610d91577f4e487b7100000000000000000000000000000000000000000000000000000000600052603260045260246000fd5b90600052602060002001549050919050565b610dab611c8f565b80600d8190555050565b6000806003600084815260200190815260200160002060009054906101000a900473ffffffffffffffffffffffffffffffffffffffff169050600073ffffffffffffffffffffffffffffffffffffffff168173ffffffffffffffffffffffffffffffffffffffff161415610e5e576040517f08c379a0000000000000000000000000000000000000000000000000000000008152600401610e5590614732565b60405180910390fd5b80915050919050565b60006060600f60009054906101000a900460ff16158015610e8c5750610e8b611556565b5b91509250929050565b60008073ffffffffffffffffffffffffffffffffffffffff168273ffffffffffffffffffffffffffffffffffffffff161415610f06576040517f08c379a0000000000000000000000000000000000000000000000000000000008152600401610efd906146b2565b60405180910390fd5b600460008373ffffffffffffffffffffffffffffffffffffffff1673ffffffffffffffffffffffffffffffffffffffff168152602001908152602001600020549050919050565b610f55611c8f565b610f5f6000611d0d565b565b6000600e54905090565b60008060009054906101000a900473ffffffffffffffffffffffffffffffffffffffff16905090565b610f9c611c8f565b6000610fa6610f6b565b73ffffffffffffffffffffffffffffffffffffffff1647604051610fc990614420565b60006040518083038185875af1925050503d8060008114611006576040519150601f19603f3d011682016040523d82523d6000602084013e61100b565b606091505b5050905080611046576040517f0ca5b23000000000000000000000000000000000000000000000000000000000815260040160405180910390fd5b50565b60606002805461105890614bad565b80601f016020809104026020016040519081016040528092919081815260200182805461108490614bad565b80156110d15780601f106110a6576101008083540402835291602001916110d1565b820191906000526020600020905b8154815290600101906020018083116110b457829003601f168201915b5050505050905090565b6000600f60009054906101000a900460ff1615611124576040517fd0cf055400000000000000000000000000000000000000000000000000000000815260040160405180910390fd5b61112c611556565b611162576040517f4e628ebc00000000000000000000000000000000000000000000000000000000815260040160405180910390fd5b7f000000000000000000000000000000000000000000000000000000000000000073ffffffffffffffffffffffffffffffffffffffff16635d3b1d307f00000000000000000000000000000000000000000000000000000000000000007f000000000000000000000000000000000000000000000000000000000000000060037f000000000000000000000000000000000000000000000000000000000000000060016040518663ffffffff1660e01b815260040161122595949392919061453d565b602060405180830381600087803b15801561123f57600080fd5b505af1158015611253573d6000803e3d6000fd5b505050506040513d601f19601f820116820180604052508101906112779190613d8f565b90506001600f60006101000a81548160ff0219169083151502179055507f8d83bdd6db199ff596cec09ea8e4f4e50da2dcb4020bc2a1cf072c507056b1ea816040516112c391906147b2565b60405180910390a190565b60006112d8610b03565b90506000821415611315576040517f2c5211c600000000000000000000000000000000000000000000000000000000815260040160405180910390fd5b7f0000000000000000000000000000000000000000000000000000000000000000828261134291906148fd565b111561137a576040517fd05cb60900000000000000000000000000000000000000000000000000000000815260040160405180910390fd5b817f00000000000000000000000000000000000000000000000000000000000000006113a691906149bb565b3410156113df576040517f356680b700000000000000000000000000000000000000000000000000000000815260040160405180910390fd5b6000600190505b828111611415576114023382846113fd91906148fd565b611dd1565b808061140d90614c10565b9150506113e6565b505050565b61142c611425611884565b8383611def565b5050565b611438611c8f565b80600c8190555050565b61145361144d611884565b83611993565b611492576040517f08c379a000000000000000000000000000000000000000000000000000000000815260040161148990614792565b60405180910390fd5b61149e84848484611f5c565b50505050565b6000600b54905090565b60007f0000000000000000000000000000000000000000000000000000000000000000905090565b60606114e182611fb8565b611517576040517f9430a17e00000000000000000000000000000000000000000000000000000000815260040160405180910390fd5b60008061152384612024565b9150915060006115338383612178565b9050600061154082612770565b905061154b81612803565b945050505050919050565b600080600b54611564610b03565b61156e9190614a50565b905060008114156115835760009150506115dc565b600080600c541180156115985750600c548210155b156115a257600190505b600080600d541180156115c35750600d54600e54426115c19190614a50565b115b156115cd57600190505b81806115d65750805b93505050505b90565b60007f0000000000000000000000000000000000000000000000000000000000000000905090565b6000600660008473ffffffffffffffffffffffffffffffffffffffff1673ffffffffffffffffffffffffffffffffffffffff16815260200190815260200160002060008373ffffffffffffffffffffffffffffffffffffffff1673ffffffffffffffffffffffffffffffffffffffff16815260200190815260200160002060009054906101000a900460ff16905092915050565b6116a3611c8f565b600073ffffffffffffffffffffffffffffffffffffffff168173ffffffffffffffffffffffffffffffffffffffff161415611713576040517f08c379a000000000000000000000000000000000000000000000000000000000815260040161170a90614612565b60405180910390fd5b61171c81611d0d565b50565b6000600c54905090565b60008060008060108581548110611769577f4e487b7100000000000000000000000000000000000000000000000000000000600052603260045260246000fd5b906000526020600020906003020160405180606001604052908160008201548152602001600182015481526020016002820154815250509050806000015181602001518260400151935093509350509193909250565b60007f780e9d63000000000000000000000000000000000000000000000000000000007bffffffffffffffffffffffffffffffffffffffffffffffffffffffff1916827bffffffffffffffffffffffffffffffffffffffffffffffffffffffff19161480611832575061183182612853565b5b9050919050565b61184281611fb8565b611881576040517f08c379a000000000000000000000000000000000000000000000000000000000815260040161187890614732565b60405180910390fd5b50565b600033905090565b816005600083815260200190815260200160002060006101000a81548173ffffffffffffffffffffffffffffffffffffffff021916908373ffffffffffffffffffffffffffffffffffffffff160217905550808273ffffffffffffffffffffffffffffffffffffffff166118ff83610db5565b73ffffffffffffffffffffffffffffffffffffffff167f8c5be1e5ebec7d5bd14f71427d1e84f3dd0314c0f7b2291e5b200ac8c7c3b92560405160405180910390a45050565b61198f81600081518110611982577f4e487b7100000000000000000000000000000000000000000000000000000000600052603260045260246000fd5b6020026020010151612935565b5050565b60008061199f83610db5565b90508073ffffffffffffffffffffffffffffffffffffffff168473ffffffffffffffffffffffffffffffffffffffff1614806119e157506119e08185611607565b5b80611a1f57508373ffffffffffffffffffffffffffffffffffffffff16611a07846109a5565b73ffffffffffffffffffffffffffffffffffffffff16145b91505092915050565b8273ffffffffffffffffffffffffffffffffffffffff16611a4882610db5565b73ffffffffffffffffffffffffffffffffffffffff1614611a9e576040517f08c379a0000000000000000000000000000000000000000000000000000000008152600401611a9590614632565b60405180910390fd5b600073ffffffffffffffffffffffffffffffffffffffff168273ffffffffffffffffffffffffffffffffffffffff161415611b0e576040517f08c379a0000000000000000000000000000000000000000000000000000000008152600401611b0590614672565b60405180910390fd5b611b19838383612a33565b611b2460008261188c565b6001600460008573ffffffffffffffffffffffffffffffffffffffff1673ffffffffffffffffffffffffffffffffffffffff1681526020019081526020016000206000828254611b749190614a50565b925050819055506001600460008473ffffffffffffffffffffffffffffffffffffffff1673ffffffffffffffffffffffffffffffffffffffff1681526020019081526020016000206000828254611bcb91906148fd565b92505081905550816003600083815260200190815260200160002060006101000a81548173ffffffffffffffffffffffffffffffffffffffff021916908373ffffffffffffffffffffffffffffffffffffffff160217905550808273ffffffffffffffffffffffffffffffffffffffff168473ffffffffffffffffffffffffffffffffffffffff167fddf252ad1be2c89b69c2b068fc378daa952ba7f163c4a11628f55a4df523b3ef60405160405180910390a4611c8a838383612b47565b505050565b611c97611884565b73ffffffffffffffffffffffffffffffffffffffff16611cb5610f6b565b73ffffffffffffffffffffffffffffffffffffffff1614611d0b576040517f08c379a0000000000000000000000000000000000000000000000000000000008152600401611d0290614712565b60405180910390fd5b565b60008060009054906101000a900473ffffffffffffffffffffffffffffffffffffffff169050816000806101000a81548173ffffffffffffffffffffffffffffffffffffffff021916908373ffffffffffffffffffffffffffffffffffffffff1602179055508173ffffffffffffffffffffffffffffffffffffffff168173ffffffffffffffffffffffffffffffffffffffff167f8be0079c531659141344cd1fd0a4f28419497f9722a3daafe3b4186f6b6457e060405160405180910390a35050565b611deb828260405180602001604052806000815250612b4c565b5050565b8173ffffffffffffffffffffffffffffffffffffffff168373ffffffffffffffffffffffffffffffffffffffff161415611e5e576040517f08c379a0000000000000000000000000000000000000000000000000000000008152600401611e5590614692565b60405180910390fd5b80600660008573ffffffffffffffffffffffffffffffffffffffff1673ffffffffffffffffffffffffffffffffffffffff16815260200190815260200160002060008473ffffffffffffffffffffffffffffffffffffffff1673ffffffffffffffffffffffffffffffffffffffff16815260200190815260200160002060006101000a81548160ff0219169083151502179055508173ffffffffffffffffffffffffffffffffffffffff168373ffffffffffffffffffffffffffffffffffffffff167f17307eab39ab6107e8899845ad3d59bd9653f200f220920489ca2b5937696c3183604051611f4f91906144f2565b60405180910390a3505050565b611f67848484611a28565b611f7384848484612ba7565b611fb2576040517f08c379a0000000000000000000000000000000000000000000000000000000008152600401611fa9906145f2565b60405180910390fd5b50505050565b60008073ffffffffffffffffffffffffffffffffffffffff166003600084815260200190815260200160002060009054906101000a900473ffffffffffffffffffffffffffffffffffffffff1673ffffffffffffffffffffffffffffffffffffffff1614159050919050565b60008060005b6010805490508110156121725760108181548110612071577f4e487b7100000000000000000000000000000000000000000000000000000000600052603260045260246000fd5b90600052602060002090600302016000015484101580156120dc5750601081815481106120c7577f4e487b7100000000000000000000000000000000000000000000000000000000600052603260045260246000fd5b90600052602060002090600302016001015484105b1561215f576010818154811061211b577f4e487b7100000000000000000000000000000000000000000000000000000000600052603260045260246000fd5b9060005260206000209060030201600201548460405160200161213f9291906147cd565b6040516020818303038152906040528051906020012060001c9250600191505b808061216a90614c10565b91505061202a565b50915091565b6060612182613914565b6040518060a001604052806062815260200161537c60629139816000600481106121d5577f4e487b7100000000000000000000000000000000000000000000000000000000600052603260045260246000fd5b602002018190525082156124fd576040518060c00160405280608d81526020016154bb608d913981600160048110612236577f4e487b7100000000000000000000000000000000000000000000000000000000600052603260045260246000fd5b602002018190525061224661393b565b6000612253866020612d3e565b905060005b60068160ff16101561231557600061229b83600b846122779190614a15565b60ff16600b6001866122899190614953565b6122939190614a15565b60ff16613038565b9050806040516020016122ae9190614435565b604051602081830303815290604052848360ff16600681106122f9577f4e487b7100000000000000000000000000000000000000000000000000000000600052603260045260246000fd5b602002018190525050808061230d90614c59565b915050612258565b5081600060068110612350577f4e487b7100000000000000000000000000000000000000000000000000000000600052603260045260246000fd5b60200201518260016006811061238f577f4e487b7100000000000000000000000000000000000000000000000000000000600052603260045260246000fd5b6020020151836002600681106123ce577f4e487b7100000000000000000000000000000000000000000000000000000000600052603260045260246000fd5b60200201518460036006811061240d577f4e487b7100000000000000000000000000000000000000000000000000000000600052603260045260246000fd5b60200201518560046006811061244c577f4e487b7100000000000000000000000000000000000000000000000000000000600052603260045260246000fd5b60200201518660056006811061248b577f4e487b7100000000000000000000000000000000000000000000000000000000600052603260045260246000fd5b60200201516040516020016124a596959493929190614342565b604051602081830303815290604052836002600481106124ee577f4e487b7100000000000000000000000000000000000000000000000000000000600052603260045260246000fd5b602002018190525050506125d1565b6040518060c00160405280609d815260200161541e609d913981600160048110612550577f4e487b7100000000000000000000000000000000000000000000000000000000600052603260045260246000fd5b60200201819052506040518060400160405280600181526020017f3f00000000000000000000000000000000000000000000000000000000000000815250816002600481106125c8577f4e487b7100000000000000000000000000000000000000000000000000000000600052603260045260246000fd5b60200201819052505b6040518060400160405280600d81526020017f3c2f746578743e3c2f7376673e0000000000000000000000000000000000000081525081600360048110612641577f4e487b7100000000000000000000000000000000000000000000000000000000600052603260045260246000fd5b602002018190525080600060048110612683577f4e487b7100000000000000000000000000000000000000000000000000000000600052603260045260246000fd5b6020020151816001600481106126c2577f4e487b7100000000000000000000000000000000000000000000000000000000600052603260045260246000fd5b602002015182600260048110612701577f4e487b7100000000000000000000000000000000000000000000000000000000600052603260045260246000fd5b602002015183600360048110612740577f4e487b7100000000000000000000000000000000000000000000000000000000600052603260045260246000fd5b60200201516040516020016127589493929190614304565b60405160208183030381529060405291505092915050565b606060006040518060400160405280601a81526020017f646174613a696d6167652f7376672b786d6c3b6261736536342c000000000000815250905060006127d6846040516020016127c291906142c9565b6040516020818303038152906040526131a6565b905081816040516020016127eb9291906142e0565b60405160208183030381529060405292505050919050565b606061282d82604051602001612819919061439a565b6040516020818303038152906040526131a6565b60405160200161283d91906143fe565b6040516020818303038152906040529050919050565b60007f80ac58cd000000000000000000000000000000000000000000000000000000007bffffffffffffffffffffffffffffffffffffffffffffffffffffffff1916827bffffffffffffffffffffffffffffffffffffffffffffffffffffffff1916148061291e57507f5b5e139f000000000000000000000000000000000000000000000000000000007bffffffffffffffffffffffffffffffffffffffffffffffffffffffff1916827bffffffffffffffffffffffffffffffffffffffffffffffffffffffff1916145b8061292e575061292d82613330565b5b9050919050565b600061293f610b03565b905060006001600b5461295291906148fd565b9050600060018361296391906148fd565b905060106040518060600160405280848152602001838152602001868152509080600181540180825580915050600190039060005260206000209060030201600090919091909150600082015181600001556020820151816001015560408201518160020155505082600b8190555042600e819055506000600f60006101000a81548160ff0219169083151502179055507fa39d9410abe7578bfbf71501989f175c50a6950b6595718dd8092474541c889b8282604051612a259291906147cd565b60405180910390a150505050565b612a3e83838361339a565b600073ffffffffffffffffffffffffffffffffffffffff168373ffffffffffffffffffffffffffffffffffffffff161415612a8157612a7c8161339f565b612ac0565b8173ffffffffffffffffffffffffffffffffffffffff168373ffffffffffffffffffffffffffffffffffffffff1614612abf57612abe83826133e8565b5b5b600073ffffffffffffffffffffffffffffffffffffffff168273ffffffffffffffffffffffffffffffffffffffff161415612b0357612afe81613555565b612b42565b8273ffffffffffffffffffffffffffffffffffffffff168273ffffffffffffffffffffffffffffffffffffffff1614612b4157612b408282613698565b5b5b505050565b505050565b612b568383613717565b612b636000848484612ba7565b612ba2576040517f08c379a0000000000000000000000000000000000000000000000000000000008152600401612b99906145f2565b60405180910390fd5b505050565b6000612bc88473ffffffffffffffffffffffffffffffffffffffff166138f1565b15612d31578373ffffffffffffffffffffffffffffffffffffffff1663150b7a02612bf1611884565b8786866040518563ffffffff1660e01b8152600401612c1394939291906144a6565b602060405180830381600087803b158015612c2d57600080fd5b505af1925050508015612c5e57506040513d601f19601f82011682018060405250810190612c5b9190613cf8565b60015b612ce1573d8060008114612c8e576040519150601f19603f3d011682016040523d82523d6000602084013e612c93565b606091505b50600081511415612cd9576040517f08c379a0000000000000000000000000000000000000000000000000000000008152600401612cd0906145f2565b60405180910390fd5b805181602001fd5b63150b7a0260e01b7bffffffffffffffffffffffffffffffffffffffffffffffffffffffff1916817bffffffffffffffffffffffffffffffffffffffffffffffffffffffff191614915050612d36565b600190505b949350505050565b606060006002836002612d5191906149bb565b612d5b91906148fd565b67ffffffffffffffff811115612d9a577f4e487b7100000000000000000000000000000000000000000000000000000000600052604160045260246000fd5b6040519080825280601f01601f191660200182016040528015612dcc5781602001600182028036833780820191505090505b5090507f300000000000000000000000000000000000000000000000000000000000000081600081518110612e2a577f4e487b7100000000000000000000000000000000000000000000000000000000600052603260045260246000fd5b60200101907effffffffffffffffffffffffffffffffffffffffffffffffffffffffffffff1916908160001a9053507f780000000000000000000000000000000000000000000000000000000000000081600181518110612eb4577f4e487b7100000000000000000000000000000000000000000000000000000000600052603260045260246000fd5b60200101907effffffffffffffffffffffffffffffffffffffffffffffffffffffffffffff1916908160001a90535060006001846002612ef491906149bb565b612efe91906148fd565b90505b6001811115612fea577f3031323334353637383961626364656600000000000000000000000000000000600f861660108110612f66577f4e487b7100000000000000000000000000000000000000000000000000000000600052603260045260246000fd5b1a60f81b828281518110612fa3577f4e487b7100000000000000000000000000000000000000000000000000000000600052603260045260246000fd5b60200101907effffffffffffffffffffffffffffffffffffffffffffffffffffffffffffff1916908160001a905350600485901c945080612fe390614b83565b9050612f01565b506000841461302e576040517f08c379a0000000000000000000000000000000000000000000000000000000008152600401613025906145b2565b60405180910390fd5b8091505092915050565b606060008490506000848461304d9190614a50565b67ffffffffffffffff81111561308c577f4e487b7100000000000000000000000000000000000000000000000000000000600052604160045260246000fd5b6040519080825280601f01601f1916602001820160405280156130be5781602001600182028036833780820191505090505b50905060008590505b8481101561319957828181518110613108577f4e487b7100000000000000000000000000000000000000000000000000000000600052603260045260246000fd5b602001015160f81c60f81b8287836131209190614a50565b81518110613157577f4e487b7100000000000000000000000000000000000000000000000000000000600052603260045260246000fd5b60200101907effffffffffffffffffffffffffffffffffffffffffffffffffffffffffffff1916908160001a905350808061319190614c10565b9150506130c7565b5080925050509392505050565b60606000825114156131c95760405180602001604052806000815250905061332b565b60006040518060600160405280604081526020016153de60409139905060006003600285516131f891906148fd565b613202919061498a565b600461320e91906149bb565b67ffffffffffffffff81111561324d577f4e487b7100000000000000000000000000000000000000000000000000000000600052604160045260246000fd5b6040519080825280601f01601f19166020018201604052801561327f5781602001600182028036833780820191505090505b509050600182016020820185865187015b808210156132eb576003820191508151603f8160121c168501518453600184019350603f81600c1c168501518453600184019350603f8160061c168501518453600184019350603f8116850151845360018401935050613290565b5050600386510660018114613307576002811461331a57613322565b603d6001830353603d6002830353613322565b603d60018303535b50505080925050505b919050565b60007f01ffc9a7000000000000000000000000000000000000000000000000000000007bffffffffffffffffffffffffffffffffffffffffffffffffffffffff1916827bffffffffffffffffffffffffffffffffffffffffffffffffffffffff1916149050919050565b505050565b600980549050600a600083815260200190815260200160002081905550600981908060018154018082558091505060019003906000526020600020016000909190919091505550565b600060016133f584610e95565b6133ff9190614a50565b90506000600860008481526020019081526020016000205490508181146134e4576000600760008673ffffffffffffffffffffffffffffffffffffffff1673ffffffffffffffffffffffffffffffffffffffff168152602001908152602001600020600084815260200190815260200160002054905080600760008773ffffffffffffffffffffffffffffffffffffffff1673ffffffffffffffffffffffffffffffffffffffff168152602001908152602001600020600084815260200190815260200160002081905550816008600083815260200190815260200160002081905550505b6008600084815260200190815260200160002060009055600760008573ffffffffffffffffffffffffffffffffffffffff1673ffffffffffffffffffffffffffffffffffffffff16815260200190815260200160002060008381526020019081526020016000206000905550505050565b600060016009805490506135699190614a50565b90506000600a60008481526020019081526020016000205490506000600983815481106135bf577f4e487b7100000000000000000000000000000000000000000000000000000000600052603260045260246000fd5b906000526020600020015490508060098381548110613607577f4e487b7100000000000000000000000000000000000000000000000000000000600052603260045260246000fd5b906000526020600020018190555081600a600083815260200190815260200160002081905550600a600085815260200190815260200160002060009055600980548061367c577f4e487b7100000000000000000000000000000000000000000000000000000000600052603160045260246000fd5b6001900381819060005260206000200160009055905550505050565b60006136a383610e95565b905081600760008573ffffffffffffffffffffffffffffffffffffffff1673ffffffffffffffffffffffffffffffffffffffff168152602001908152602001600020600083815260200190815260200160002081905550806008600084815260200190815260200160002081905550505050565b600073ffffffffffffffffffffffffffffffffffffffff168273ffffffffffffffffffffffffffffffffffffffff161415613787576040517f08c379a000000000000000000000000000000000000000000000000000000000815260040161377e906146f2565b60405180910390fd5b61379081611fb8565b156137d0576040517f08c379a00000000000000000000000000000000000000000000000000000000081526004016137c790614652565b60405180910390fd5b6137dc60008383612a33565b6001600460008473ffffffffffffffffffffffffffffffffffffffff1673ffffffffffffffffffffffffffffffffffffffff168152602001908152602001600020600082825461382c91906148fd565b92505081905550816003600083815260200190815260200160002060006101000a81548173ffffffffffffffffffffffffffffffffffffffff021916908373ffffffffffffffffffffffffffffffffffffffff160217905550808273ffffffffffffffffffffffffffffffffffffffff16600073ffffffffffffffffffffffffffffffffffffffff167fddf252ad1be2c89b69c2b068fc378daa952ba7f163c4a11628f55a4df523b3ef60405160405180910390a46138ed60008383612b47565b5050565b6000808273ffffffffffffffffffffffffffffffffffffffff163b119050919050565b60405180608001604052806004905b60608152602001906001900390816139235790505090565b6040518060c001604052806006905b606081526020019060019003908161394a5790505090565b600061397561397084614852565b61482d565b9050808382526020820190508285602086028201111561399457600080fd5b60005b858110156139c457816139aa8882613afe565b845260208401935060208301925050600181019050613997565b5050509392505050565b60006139e16139dc8461487e565b61482d565b9050828152602081018484840111156139f957600080fd5b613a04848285614b41565b509392505050565b600081359050613a1b8161531f565b92915050565b600082601f830112613a3257600080fd5b8135613a42848260208601613962565b91505092915050565b600081359050613a5a81615336565b92915050565b600081359050613a6f8161534d565b92915050565b600081519050613a848161534d565b92915050565b60008083601f840112613a9c57600080fd5b8235905067ffffffffffffffff811115613ab557600080fd5b602083019150836001820283011115613acd57600080fd5b9250929050565b600082601f830112613ae557600080fd5b8135613af58482602086016139ce565b91505092915050565b600081359050613b0d81615364565b92915050565b600081519050613b2281615364565b92915050565b600060208284031215613b3a57600080fd5b6000613b4884828501613a0c565b91505092915050565b60008060408385031215613b6457600080fd5b6000613b7285828601613a0c565b9250506020613b8385828601613a0c565b9150509250929050565b600080600060608486031215613ba257600080fd5b6000613bb086828701613a0c565b9350506020613bc186828701613a0c565b9250506040613bd286828701613afe565b9150509250925092565b60008060008060808587031215613bf257600080fd5b6000613c0087828801613a0c565b9450506020613c1187828801613a0c565b9350506040613c2287828801613afe565b925050606085013567ffffffffffffffff811115613c3f57600080fd5b613c4b87828801613ad4565b91505092959194509250565b60008060408385031215613c6a57600080fd5b6000613c7885828601613a0c565b9250506020613c8985828601613a4b565b9150509250929050565b60008060408385031215613ca657600080fd5b6000613cb485828601613a0c565b9250506020613cc585828601613afe565b9150509250929050565b600060208284031215613ce157600080fd5b6000613cef84828501613a60565b91505092915050565b600060208284031215613d0a57600080fd5b6000613d1884828501613a75565b91505092915050565b60008060208385031215613d3457600080fd5b600083013567ffffffffffffffff811115613d4e57600080fd5b613d5a85828601613a8a565b92509250509250929050565b600060208284031215613d7857600080fd5b6000613d8684828501613afe565b91505092915050565b600060208284031215613da157600080fd5b6000613daf84828501613b13565b91505092915050565b60008060408385031215613dcb57600080fd5b6000613dd985828601613afe565b925050602083013567ffffffffffffffff811115613df657600080fd5b613e0285828601613a21565b9150509250929050565b613e1581614a84565b82525050565b613e2481614a96565b82525050565b613e3381614aa2565b82525050565b6000613e44826148af565b613e4e81856148c5565b9350613e5e818560208601614b50565b613e6781614d3f565b840191505092915050565b6000613e7d826148ba565b613e8781856148e1565b9350613e97818560208601614b50565b613ea081614d3f565b840191505092915050565b6000613eb6826148ba565b613ec081856148f2565b9350613ed0818560208601614b50565b80840191505092915050565b6000613ee96020836148e1565b9150613ef482614d50565b602082019050919050565b6000613f0c602b836148e1565b9150613f1782614d79565b604082019050919050565b6000613f2f6032836148e1565b9150613f3a82614dc8565b604082019050919050565b6000613f526026836148e1565b9150613f5d82614e17565b604082019050919050565b6000613f756025836148e1565b9150613f8082614e66565b604082019050919050565b6000613f98601c836148e1565b9150613fa382614eb5565b602082019050919050565b6000613fbb6008836148f2565b9150613fc682614ede565b600882019050919050565b6000613fde600e836148f2565b9150613fe982614f07565b600e82019050919050565b60006140016024836148e1565b915061400c82614f30565b604082019050919050565b60006140246019836148e1565b915061402f82614f7f565b602082019050919050565b60006140476011836148f2565b915061405282614fa8565b601182019050919050565b600061406a6029836148e1565b915061407582614fd1565b604082019050919050565b600061408d6001836148f2565b915061409882615020565b600182019050919050565b60006140b06025836148f2565b91506140bb82615049565b602582019050919050565b60006140d36009836148f2565b91506140de82615098565b600982019050919050565b60006140f6603e836148e1565b9150614101826150c1565b604082019050919050565b60006141196020836148e1565b915061412482615110565b602082019050919050565b600061413c6001836148f2565b915061414782615139565b600182019050919050565b600061415f6020836148e1565b915061416a82615162565b602082019050919050565b60006141826001836148f2565b915061418d8261518b565b600182019050919050565b60006141a56018836148e1565b91506141b0826151b4565b602082019050919050565b60006141c86021836148e1565b91506141d3826151dd565b604082019050919050565b60006141eb601d836148f2565b91506141f68261522c565b601d82019050919050565b600061420e6000836148d6565b915061421982615255565b600082019050919050565b6000614231602c836148e1565b915061423c82615258565b604082019050919050565b6000614254602e836148e1565b915061425f826152a7565b604082019050919050565b60006142776016836148f2565b9150614282826152f6565b601682019050919050565b61429681614ad8565b82525050565b6142a581614b06565b82525050565b6142b481614b10565b82525050565b6142c381614b20565b82525050565b60006142d58284613eab565b915081905092915050565b60006142ec8285613eab565b91506142f88284613eab565b91508190509392505050565b60006143108287613eab565b915061431c8286613eab565b91506143288285613eab565b91506143348284613eab565b915081905095945050505050565b600061434e8289613eab565b915061435a8288613eab565b91506143668287613eab565b91506143728286613eab565b915061437e8285613eab565b915061438a8284613eab565b9150819050979650505050505050565b60006143a582614175565b91506143b082613fd1565b91506143bb826140a3565b91506143c68261403a565b91506143d1826140c6565b91506143dd8284613eab565b91506143e882614080565b91506143f38261412f565b915081905092915050565b6000614409826141de565b91506144158284613eab565b915081905092915050565b600061442b82614201565b9150819050919050565b60006144408261426a565b915061444c8284613eab565b915061445782613fae565b915081905092915050565b60006020820190506144776000830184613e0c565b92915050565b60006040820190506144926000830185613e0c565b61449f6020830184613e0c565b9392505050565b60006080820190506144bb6000830187613e0c565b6144c86020830186613e0c565b6144d5604083018561429c565b81810360608301526144e78184613e39565b905095945050505050565b60006020820190506145076000830184613e1b565b92915050565b60006040820190506145226000830185613e1b565b81810360208301526145348184613e39565b90509392505050565b600060a0820190506145526000830188613e2a565b61455f60208301876142ba565b61456c604083018661428d565b61457960608301856142ab565b61458660808301846142ab565b9695505050505050565b600060208201905081810360008301526145aa8184613e72565b905092915050565b600060208201905081810360008301526145cb81613edc565b9050919050565b600060208201905081810360008301526145eb81613eff565b9050919050565b6000602082019050818103600083015261460b81613f22565b9050919050565b6000602082019050818103600083015261462b81613f45565b9050919050565b6000602082019050818103600083015261464b81613f68565b9050919050565b6000602082019050818103600083015261466b81613f8b565b9050919050565b6000602082019050818103600083015261468b81613ff4565b9050919050565b600060208201905081810360008301526146ab81614017565b9050919050565b600060208201905081810360008301526146cb8161405d565b9050919050565b600060208201905081810360008301526146eb816140e9565b9050919050565b6000602082019050818103600083015261470b8161410c565b9050919050565b6000602082019050818103600083015261472b81614152565b9050919050565b6000602082019050818103600083015261474b81614198565b9050919050565b6000602082019050818103600083015261476b816141bb565b9050919050565b6000602082019050818103600083015261478b81614224565b9050919050565b600060208201905081810360008301526147ab81614247565b9050919050565b60006020820190506147c7600083018461429c565b92915050565b60006040820190506147e2600083018561429c565b6147ef602083018461429c565b9392505050565b600060608201905061480b600083018661429c565b614818602083018561429c565b614825604083018461429c565b949350505050565b6000614837614848565b90506148438282614bdf565b919050565b6000604051905090565b600067ffffffffffffffff82111561486d5761486c614d10565b5b602082029050602081019050919050565b600067ffffffffffffffff82111561489957614898614d10565b5b6148a282614d3f565b9050602081019050919050565b600081519050919050565b600081519050919050565b600082825260208201905092915050565b600081905092915050565b600082825260208201905092915050565b600081905092915050565b600061490882614b06565b915061491383614b06565b9250827fffffffffffffffffffffffffffffffffffffffffffffffffffffffffffffffff0382111561494857614947614c83565b5b828201905092915050565b600061495e82614b34565b915061496983614b34565b92508260ff0382111561497f5761497e614c83565b5b828201905092915050565b600061499582614b06565b91506149a083614b06565b9250826149b0576149af614cb2565b5b828204905092915050565b60006149c682614b06565b91506149d183614b06565b9250817fffffffffffffffffffffffffffffffffffffffffffffffffffffffffffffffff0483118215151615614a0a57614a09614c83565b5b828202905092915050565b6000614a2082614b34565b9150614a2b83614b34565b92508160ff0483118215151615614a4557614a44614c83565b5b828202905092915050565b6000614a5b82614b06565b9150614a6683614b06565b925082821015614a7957614a78614c83565b5b828203905092915050565b6000614a8f82614ae6565b9050919050565b60008115159050919050565b6000819050919050565b60007fffffffff0000000000000000000000000000000000000000000000000000000082169050919050565b600061ffff82169050919050565b600073ffffffffffffffffffffffffffffffffffffffff82169050919050565b6000819050919050565b600063ffffffff82169050919050565b600067ffffffffffffffff82169050919050565b600060ff82169050919050565b82818337600083830152505050565b60005b83811015614b6e578082015181840152602081019050614b53565b83811115614b7d576000848401525b50505050565b6000614b8e82614b06565b91506000821415614ba257614ba1614c83565b5b600182039050919050565b60006002820490506001821680614bc557607f821691505b60208210811415614bd957614bd8614ce1565b5b50919050565b614be882614d3f565b810181811067ffffffffffffffff82111715614c0757614c06614d10565b5b80604052505050565b6000614c1b82614b06565b91507fffffffffffffffffffffffffffffffffffffffffffffffffffffffffffffffff821415614c4e57614c4d614c83565b5b600182019050919050565b6000614c6482614b34565b915060ff821415614c7857614c77614c83565b5b600182019050919050565b7f4e487b7100000000000000000000000000000000000000000000000000000000600052601160045260246000fd5b7f4e487b7100000000000000000000000000000000000000000000000000000000600052601260045260246000fd5b7f4e487b7100000000000000000000000000000000000000000000000000000000600052602260045260246000fd5b7f4e487b7100000000000000000000000000000000000000000000000000000000600052604160045260246000fd5b6000601f19601f8301169050919050565b7f537472696e67733a20686578206c656e67746820696e73756666696369656e74600082015250565b7f455243373231456e756d657261626c653a206f776e657220696e646578206f7560008201527f74206f6620626f756e6473000000000000000000000000000000000000000000602082015250565b7f4552433732313a207472616e7366657220746f206e6f6e20455243373231526560008201527f63656976657220696d706c656d656e7465720000000000000000000000000000602082015250565b7f4f776e61626c653a206e6577206f776e657220697320746865207a65726f206160008201527f6464726573730000000000000000000000000000000000000000000000000000602082015250565b7f4552433732313a207472616e736665722066726f6d20696e636f72726563742060008201527f6f776e6572000000000000000000000000000000000000000000000000000000602082015250565b7f4552433732313a20746f6b656e20616c7265616479206d696e74656400000000600082015250565b7f3c2f747370616e3e000000000000000000000000000000000000000000000000600082015250565b7f226e616d65223a224e4654222c20000000000000000000000000000000000000600082015250565b7f4552433732313a207472616e7366657220746f20746865207a65726f2061646460008201527f7265737300000000000000000000000000000000000000000000000000000000602082015250565b7f4552433732313a20617070726f766520746f2063616c6c657200000000000000600082015250565b7f2261747472696275746573223a22222c20000000000000000000000000000000600082015250565b7f4552433732313a2061646472657373207a65726f206973206e6f74206120766160008201527f6c6964206f776e65720000000000000000000000000000000000000000000000602082015250565b7f2200000000000000000000000000000000000000000000000000000000000000600082015250565b7f226465736372697074696f6e223a2242617463682d72657665616c6564204e4660008201527f5421222c20000000000000000000000000000000000000000000000000000000602082015250565b7f22696d616765223a220000000000000000000000000000000000000000000000600082015250565b7f4552433732313a20617070726f76652063616c6c6572206973206e6f7420746f60008201527f6b656e206f776e6572206e6f7220617070726f76656420666f7220616c6c0000602082015250565b7f4552433732313a206d696e7420746f20746865207a65726f2061646472657373600082015250565b7f7d00000000000000000000000000000000000000000000000000000000000000600082015250565b7f4f776e61626c653a2063616c6c6572206973206e6f7420746865206f776e6572600082015250565b7f7b00000000000000000000000000000000000000000000000000000000000000600082015250565b7f4552433732313a20696e76616c696420746f6b656e2049440000000000000000600082015250565b7f4552433732313a20617070726f76616c20746f2063757272656e74206f776e6560008201527f7200000000000000000000000000000000000000000000000000000000000000602082015250565b7f646174613a6170706c69636174696f6e2f6a736f6e3b6261736536342c000000600082015250565b50565b7f455243373231456e756d657261626c653a20676c6f62616c20696e646578206f60008201527f7574206f6620626f756e64730000000000000000000000000000000000000000602082015250565b7f4552433732313a2063616c6c6572206973206e6f7420746f6b656e206f776e6560008201527f72206e6f7220617070726f766564000000000000000000000000000000000000602082015250565b7f3c747370616e20783d223136222064793d223536223e00000000000000000000600082015250565b61532881614a84565b811461533357600080fd5b50565b61533f81614a96565b811461534a57600080fd5b50565b61535681614aac565b811461536157600080fd5b50565b61536d81614b06565b811461537857600080fd5b5056fe3c73766720786d6c6e733d22687474703a2f2f7777772e77332e6f72672f323030302f73766722207072657365727665417370656374526174696f3d22784d696e594d696e206d656574222076696577426f783d223020302033353020333530223e4142434445464748494a4b4c4d4e4f505152535455565758595a6162636465666768696a6b6c6d6e6f707172737475767778797a303132333435363738392b2f3c7374796c653e2e62617365207b2066696c6c3a2077686974653b20666f6e742d66616d696c793a2073657269663b20666f6e742d73697a653a2033353070783b207d3c2f7374796c653e3c726563742077696474683d223130302522206865696768743d2231303025222066696c6c3d22626c61636b22202f3e3c7465787420783d2239302220793d223239352220636c6173733d2262617365223e3c7374796c653e2e62617365207b2066696c6c3a2077686974653b20666f6e742d66616d696c793a2073657269663b20666f6e742d73697a653a20353970783b207d3c2f7374796c653e3c726563742077696474683d223130302522206865696768743d2231303025222066696c6c3d22626c61636b22202f3e3c7465787420636c6173733d2262617365223ea264697066735822122007b9aa726c47c574fcca79070496365ead9237214c8c799611974748d795e0ff64736f6c63430008040033","opcodes":"PUSH2 0x160 PUSH1 0x40 MSTORE TIMESTAMP PUSH1 0xE SSTORE CALLVALUE DUP1 ISZERO PUSH3 0x16 JUMPI PUSH1 0x0 DUP1 REVERT JUMPDEST POP PUSH1 0x40 MLOAD PUSH3 0x5D4B CODESIZE SUB DUP1 PUSH3 0x5D4B DUP4 CODECOPY DUP2 DUP2 ADD PUSH1 0x40 MSTORE DUP2 ADD SWAP1 PUSH3 0x3C SWAP2 SWAP1 PUSH3 0x3D2 JUMP JUMPDEST DUP4 DUP11 DUP11 PUSH3 0x5F PUSH3 0x53 PUSH3 0x171 PUSH1 0x20 SHL PUSH1 0x20 SHR JUMP JUMPDEST PUSH3 0x179 PUSH1 0x20 SHL PUSH1 0x20 SHR JUMP JUMPDEST DUP2 PUSH1 0x1 SWAP1 DUP1 MLOAD SWAP1 PUSH1 0x20 ADD SWAP1 PUSH3 0x77 SWAP3 SWAP2 SWAP1 PUSH3 0x23D JUMP JUMPDEST POP DUP1 PUSH1 0x2 SWAP1 DUP1 MLOAD SWAP1 PUSH1 0x20 ADD SWAP1 PUSH3 0x90 SWAP3 SWAP2 SWAP1 PUSH3 0x23D JUMP JUMPDEST POP POP POP DUP1 PUSH20 0xFFFFFFFFFFFFFFFFFFFFFFFFFFFFFFFFFFFFFFFF AND PUSH1 0x80 DUP2 PUSH20 0xFFFFFFFFFFFFFFFFFFFFFFFFFFFFFFFFFFFFFFFF AND PUSH1 0x60 SHL DUP2 MSTORE POP POP POP DUP8 PUSH1 0xA0 DUP2 DUP2 MSTORE POP POP DUP7 PUSH1 0xC0 DUP2 DUP2 MSTORE POP POP DUP4 PUSH20 0xFFFFFFFFFFFFFFFFFFFFFFFFFFFFFFFFFFFFFFFF AND PUSH1 0xE0 DUP2 PUSH20 0xFFFFFFFFFFFFFFFFFFFFFFFFFFFFFFFFFFFFFFFF AND PUSH1 0x60 SHL DUP2 MSTORE POP POP DUP3 PUSH8 0xFFFFFFFFFFFFFFFF AND PUSH2 0x100 DUP2 PUSH8 0xFFFFFFFFFFFFFFFF AND PUSH1 0xC0 SHL DUP2 MSTORE POP POP DUP2 PUSH2 0x120 DUP2 DUP2 MSTORE POP POP DUP1 PUSH4 0xFFFFFFFF AND PUSH2 0x140 DUP2 PUSH4 0xFFFFFFFF AND PUSH1 0xE0 SHL DUP2 MSTORE POP POP DUP6 PUSH1 0xC DUP2 SWAP1 SSTORE POP DUP5 PUSH1 0xD DUP2 SWAP1 SSTORE POP POP POP POP POP POP POP POP POP POP POP PUSH3 0x752 JUMP JUMPDEST PUSH1 0x0 CALLER SWAP1 POP SWAP1 JUMP JUMPDEST PUSH1 0x0 DUP1 PUSH1 0x0 SWAP1 SLOAD SWAP1 PUSH2 0x100 EXP SWAP1 DIV PUSH20 0xFFFFFFFFFFFFFFFFFFFFFFFFFFFFFFFFFFFFFFFF AND SWAP1 POP DUP2 PUSH1 0x0 DUP1 PUSH2 0x100 EXP DUP2 SLOAD DUP2 PUSH20 0xFFFFFFFFFFFFFFFFFFFFFFFFFFFFFFFFFFFFFFFF MUL NOT AND SWAP1 DUP4 PUSH20 0xFFFFFFFFFFFFFFFFFFFFFFFFFFFFFFFFFFFFFFFF AND MUL OR SWAP1 SSTORE POP DUP2 PUSH20 0xFFFFFFFFFFFFFFFFFFFFFFFFFFFFFFFFFFFFFFFF AND DUP2 PUSH20 0xFFFFFFFFFFFFFFFFFFFFFFFFFFFFFFFFFFFFFFFF AND PUSH32 0x8BE0079C531659141344CD1FD0A4F28419497F9722A3DAAFE3B4186F6B6457E0 PUSH1 0x40 MLOAD PUSH1 0x40 MLOAD DUP1 SWAP2 SUB SWAP1 LOG3 POP POP JUMP JUMPDEST DUP3 DUP1 SLOAD PUSH3 0x24B SWAP1 PUSH3 0x5F5 JUMP JUMPDEST SWAP1 PUSH1 0x0 MSTORE PUSH1 0x20 PUSH1 0x0 KECCAK256 SWAP1 PUSH1 0x1F ADD PUSH1 0x20 SWAP1 DIV DUP2 ADD SWAP3 DUP3 PUSH3 0x26F JUMPI PUSH1 0x0 DUP6 SSTORE PUSH3 0x2BB JUMP JUMPDEST DUP3 PUSH1 0x1F LT PUSH3 0x28A JUMPI DUP1 MLOAD PUSH1 0xFF NOT AND DUP4 DUP1 ADD OR DUP6 SSTORE PUSH3 0x2BB JUMP JUMPDEST DUP3 DUP1 ADD PUSH1 0x1 ADD DUP6 SSTORE DUP3 ISZERO PUSH3 0x2BB JUMPI SWAP2 DUP3 ADD JUMPDEST DUP3 DUP2 GT ISZERO PUSH3 0x2BA JUMPI DUP3 MLOAD DUP3 SSTORE SWAP2 PUSH1 0x20 ADD SWAP2 SWAP1 PUSH1 0x1 ADD SWAP1 PUSH3 0x29D JUMP JUMPDEST JUMPDEST POP SWAP1 POP PUSH3 0x2CA SWAP2 SWAP1 PUSH3 0x2CE JUMP JUMPDEST POP SWAP1 JUMP JUMPDEST JUMPDEST DUP1 DUP3 GT ISZERO PUSH3 0x2E9 JUMPI PUSH1 0x0 DUP2 PUSH1 0x0 SWAP1 SSTORE POP PUSH1 0x1 ADD PUSH3 0x2CF JUMP JUMPDEST POP SWAP1 JUMP JUMPDEST PUSH1 0x0 PUSH3 0x304 PUSH3 0x2FE DUP5 PUSH3 0x51D JUMP JUMPDEST PUSH3 0x4F4 JUMP JUMPDEST SWAP1 POP DUP3 DUP2 MSTORE PUSH1 0x20 DUP2 ADD DUP5 DUP5 DUP5 ADD GT ISZERO PUSH3 0x31D JUMPI PUSH1 0x0 DUP1 REVERT JUMPDEST PUSH3 0x32A DUP5 DUP3 DUP6 PUSH3 0x5BF JUMP JUMPDEST POP SWAP4 SWAP3 POP POP POP JUMP JUMPDEST PUSH1 0x0 DUP2 MLOAD SWAP1 POP PUSH3 0x343 DUP2 PUSH3 0x6D0 JUMP JUMPDEST SWAP3 SWAP2 POP POP JUMP JUMPDEST PUSH1 0x0 DUP2 MLOAD SWAP1 POP PUSH3 0x35A DUP2 PUSH3 0x6EA JUMP JUMPDEST SWAP3 SWAP2 POP POP JUMP JUMPDEST PUSH1 0x0 DUP3 PUSH1 0x1F DUP4 ADD SLT PUSH3 0x372 JUMPI PUSH1 0x0 DUP1 REVERT JUMPDEST DUP2 MLOAD PUSH3 0x384 DUP5 DUP3 PUSH1 0x20 DUP7 ADD PUSH3 0x2ED JUMP JUMPDEST SWAP2 POP POP SWAP3 SWAP2 POP POP JUMP JUMPDEST PUSH1 0x0 DUP2 MLOAD SWAP1 POP PUSH3 0x39E DUP2 PUSH3 0x704 JUMP JUMPDEST SWAP3 SWAP2 POP POP JUMP JUMPDEST PUSH1 0x0 DUP2 MLOAD SWAP1 POP PUSH3 0x3B5 DUP2 PUSH3 0x71E JUMP JUMPDEST SWAP3 SWAP2 POP POP JUMP JUMPDEST PUSH1 0x0 DUP2 MLOAD SWAP1 POP PUSH3 0x3CC DUP2 PUSH3 0x738 JUMP JUMPDEST SWAP3 SWAP2 POP POP JUMP JUMPDEST PUSH1 0x0 DUP1 PUSH1 0x0 DUP1 PUSH1 0x0 DUP1 PUSH1 0x0 DUP1 PUSH1 0x0 DUP1 PUSH2 0x140 DUP12 DUP14 SUB SLT ISZERO PUSH3 0x3F3 JUMPI PUSH1 0x0 DUP1 REVERT JUMPDEST PUSH1 0x0 DUP12 ADD MLOAD PUSH8 0xFFFFFFFFFFFFFFFF DUP2 GT ISZERO PUSH3 0x40E JUMPI PUSH1 0x0 DUP1 REVERT JUMPDEST PUSH3 0x41C DUP14 DUP3 DUP15 ADD PUSH3 0x360 JUMP JUMPDEST SWAP11 POP POP PUSH1 0x20 DUP12 ADD MLOAD PUSH8 0xFFFFFFFFFFFFFFFF DUP2 GT ISZERO PUSH3 0x43A JUMPI PUSH1 0x0 DUP1 REVERT JUMPDEST PUSH3 0x448 DUP14 DUP3 DUP15 ADD PUSH3 0x360 JUMP JUMPDEST SWAP10 POP POP PUSH1 0x40 PUSH3 0x45B DUP14 DUP3 DUP15 ADD PUSH3 0x38D JUMP JUMPDEST SWAP9 POP POP PUSH1 0x60 PUSH3 0x46E DUP14 DUP3 DUP15 ADD PUSH3 0x38D JUMP JUMPDEST SWAP8 POP POP PUSH1 0x80 PUSH3 0x481 DUP14 DUP3 DUP15 ADD PUSH3 0x38D JUMP JUMPDEST SWAP7 POP POP PUSH1 0xA0 PUSH3 0x494 DUP14 DUP3 DUP15 ADD PUSH3 0x38D JUMP JUMPDEST SWAP6 POP POP PUSH1 0xC0 PUSH3 0x4A7 DUP14 DUP3 DUP15 ADD PUSH3 0x332 JUMP JUMPDEST SWAP5 POP POP PUSH1 0xE0 PUSH3 0x4BA DUP14 DUP3 DUP15 ADD PUSH3 0x3BB JUMP JUMPDEST SWAP4 POP POP PUSH2 0x100 PUSH3 0x4CE DUP14 DUP3 DUP15 ADD PUSH3 0x349 JUMP JUMPDEST SWAP3 POP POP PUSH2 0x120 PUSH3 0x4E2 DUP14 DUP3 DUP15 ADD PUSH3 0x3A4 JUMP JUMPDEST SWAP2 POP POP SWAP3 SWAP6 SWAP9 SWAP12 SWAP2 SWAP5 SWAP8 SWAP11 POP SWAP3 SWAP6 SWAP9 POP JUMP JUMPDEST PUSH1 0x0 PUSH3 0x500 PUSH3 0x513 JUMP JUMPDEST SWAP1 POP PUSH3 0x50E DUP3 DUP3 PUSH3 0x62B JUMP JUMPDEST SWAP2 SWAP1 POP JUMP JUMPDEST PUSH1 0x0 PUSH1 0x40 MLOAD SWAP1 POP SWAP1 JUMP JUMPDEST PUSH1 0x0 PUSH8 0xFFFFFFFFFFFFFFFF DUP3 GT ISZERO PUSH3 0x53B JUMPI PUSH3 0x53A PUSH3 0x690 JUMP JUMPDEST JUMPDEST PUSH3 0x546 DUP3 PUSH3 0x6BF JUMP JUMPDEST SWAP1 POP PUSH1 0x20 DUP2 ADD SWAP1 POP SWAP2 SWAP1 POP JUMP JUMPDEST PUSH1 0x0 PUSH3 0x560 DUP3 PUSH3 0x571 JUMP JUMPDEST SWAP1 POP SWAP2 SWAP1 POP JUMP JUMPDEST PUSH1 0x0 DUP2 SWAP1 POP SWAP2 SWAP1 POP JUMP JUMPDEST PUSH1 0x0 PUSH20 0xFFFFFFFFFFFFFFFFFFFFFFFFFFFFFFFFFFFFFFFF DUP3 AND SWAP1 POP SWAP2 SWAP1 POP JUMP JUMPDEST PUSH1 0x0 DUP2 SWAP1 POP SWAP2 SWAP1 POP JUMP JUMPDEST PUSH1 0x0 PUSH4 0xFFFFFFFF DUP3 AND SWAP1 POP SWAP2 SWAP1 POP JUMP JUMPDEST PUSH1 0x0 PUSH8 0xFFFFFFFFFFFFFFFF DUP3 AND SWAP1 POP SWAP2 SWAP1 POP JUMP JUMPDEST PUSH1 0x0 JUMPDEST DUP4 DUP2 LT ISZERO PUSH3 0x5DF JUMPI DUP1 DUP3 ADD MLOAD DUP2 DUP5 ADD MSTORE PUSH1 0x20 DUP2 ADD SWAP1 POP PUSH3 0x5C2 JUMP JUMPDEST DUP4 DUP2 GT ISZERO PUSH3 0x5EF JUMPI PUSH1 0x0 DUP5 DUP5 ADD MSTORE JUMPDEST POP POP POP POP JUMP JUMPDEST PUSH1 0x0 PUSH1 0x2 DUP3 DIV SWAP1 POP PUSH1 0x1 DUP3 AND DUP1 PUSH3 0x60E JUMPI PUSH1 0x7F DUP3 AND SWAP2 POP JUMPDEST PUSH1 0x20 DUP3 LT DUP2 EQ ISZERO PUSH3 0x625 JUMPI PUSH3 0x624 PUSH3 0x661 JUMP JUMPDEST JUMPDEST POP SWAP2 SWAP1 POP JUMP JUMPDEST PUSH3 0x636 DUP3 PUSH3 0x6BF JUMP JUMPDEST DUP2 ADD DUP2 DUP2 LT PUSH8 0xFFFFFFFFFFFFFFFF DUP3 GT OR ISZERO PUSH3 0x658 JUMPI PUSH3 0x657 PUSH3 0x690 JUMP JUMPDEST JUMPDEST DUP1 PUSH1 0x40 MSTORE POP POP POP JUMP JUMPDEST PUSH32 0x4E487B7100000000000000000000000000000000000000000000000000000000 PUSH1 0x0 MSTORE PUSH1 0x22 PUSH1 0x4 MSTORE PUSH1 0x24 PUSH1 0x0 REVERT JUMPDEST PUSH32 0x4E487B7100000000000000000000000000000000000000000000000000000000 PUSH1 0x0 MSTORE PUSH1 0x41 PUSH1 0x4 MSTORE PUSH1 0x24 PUSH1 0x0 REVERT JUMPDEST PUSH1 0x0 PUSH1 0x1F NOT PUSH1 0x1F DUP4 ADD AND SWAP1 POP SWAP2 SWAP1 POP JUMP JUMPDEST PUSH3 0x6DB DUP2 PUSH3 0x553 JUMP JUMPDEST DUP2 EQ PUSH3 0x6E7 JUMPI PUSH1 0x0 DUP1 REVERT JUMPDEST POP JUMP JUMPDEST PUSH3 0x6F5 DUP2 PUSH3 0x567 JUMP JUMPDEST DUP2 EQ PUSH3 0x701 JUMPI PUSH1 0x0 DUP1 REVERT JUMPDEST POP JUMP JUMPDEST PUSH3 0x70F DUP2 PUSH3 0x591 JUMP JUMPDEST DUP2 EQ PUSH3 0x71B JUMPI PUSH1 0x0 DUP1 REVERT JUMPDEST POP JUMP JUMPDEST PUSH3 0x729 DUP2 PUSH3 0x59B JUMP JUMPDEST DUP2 EQ PUSH3 0x735 JUMPI PUSH1 0x0 DUP1 REVERT JUMPDEST POP JUMP JUMPDEST PUSH3 0x743 DUP2 PUSH3 0x5AB JUMP JUMPDEST DUP2 EQ PUSH3 0x74F JUMPI PUSH1 0x0 DUP1 REVERT JUMPDEST POP JUMP JUMPDEST PUSH1 0x80 MLOAD PUSH1 0x60 SHR PUSH1 0xA0 MLOAD PUSH1 0xC0 MLOAD PUSH1 0xE0 MLOAD PUSH1 0x60 SHR PUSH2 0x100 MLOAD PUSH1 0xC0 SHR PUSH2 0x120 MLOAD PUSH2 0x140 MLOAD PUSH1 0xE0 SHR PUSH2 0x557D PUSH3 0x7CE PUSH1 0x0 CODECOPY PUSH1 0x0 PUSH2 0x11E4 ADD MSTORE PUSH1 0x0 PUSH2 0x11A0 ADD MSTORE PUSH1 0x0 PUSH2 0x11C1 ADD MSTORE PUSH1 0x0 PUSH2 0x1164 ADD MSTORE PUSH1 0x0 DUP2 DUP2 PUSH2 0x137D ADD MSTORE PUSH2 0x14B2 ADD MSTORE PUSH1 0x0 DUP2 DUP2 PUSH2 0x1317 ADD MSTORE PUSH2 0x15E3 ADD MSTORE PUSH1 0x0 DUP2 DUP2 PUSH2 0xB12 ADD MSTORE PUSH2 0xB66 ADD MSTORE PUSH2 0x557D PUSH1 0x0 RETURN INVALID PUSH1 0x80 PUSH1 0x40 MSTORE PUSH1 0x4 CALLDATASIZE LT PUSH2 0x20F JUMPI PUSH1 0x0 CALLDATALOAD PUSH1 0xE0 SHR DUP1 PUSH4 0x7B4FAB5A GT PUSH2 0x118 JUMPI DUP1 PUSH4 0xBBD78E93 GT PUSH2 0xA0 JUMPI DUP1 PUSH4 0xD5ABEB01 GT PUSH2 0x6F JUMPI DUP1 PUSH4 0xD5ABEB01 EQ PUSH2 0x791 JUMPI DUP1 PUSH4 0xE985E9C5 EQ PUSH2 0x7BC JUMPI DUP1 PUSH4 0xF2FDE38B EQ PUSH2 0x7F9 JUMPI DUP1 PUSH4 0xF4DAABA1 EQ PUSH2 0x822 JUMPI DUP1 PUSH4 0xF8190966 EQ PUSH2 0x84D JUMPI PUSH2 0x20F JUMP JUMPDEST DUP1 PUSH4 0xBBD78E93 EQ PUSH2 0x6D3 JUMPI DUP1 PUSH4 0xBDB4B848 EQ PUSH2 0x6FE JUMPI DUP1 PUSH4 0xC87B56DD EQ PUSH2 0x729 JUMPI DUP1 PUSH4 0xCF3B94CD EQ PUSH2 0x766 JUMPI PUSH2 0x20F JUMP JUMPDEST DUP1 PUSH4 0x96634A40 GT PUSH2 0xE7 JUMPI DUP1 PUSH4 0x96634A40 EQ PUSH2 0x611 JUMPI DUP1 PUSH4 0xA0712D68 EQ PUSH2 0x63C JUMPI DUP1 PUSH4 0xA22CB465 EQ PUSH2 0x658 JUMPI DUP1 PUSH4 0xAAAE4E23 EQ PUSH2 0x681 JUMPI DUP1 PUSH4 0xB88D4FDE EQ PUSH2 0x6AA JUMPI PUSH2 0x20F JUMP JUMPDEST DUP1 PUSH4 0x7B4FAB5A EQ PUSH2 0x579 JUMPI DUP1 PUSH4 0x8DA5CB5B EQ PUSH2 0x5A4 JUMPI DUP1 PUSH4 0x9038E693 EQ PUSH2 0x5CF JUMPI DUP1 PUSH4 0x95D89B41 EQ PUSH2 0x5E6 JUMPI PUSH2 0x20F JUMP JUMPDEST DUP1 PUSH4 0x2F745C59 GT PUSH2 0x19B JUMPI DUP1 PUSH4 0x5C65D81F GT PUSH2 0x16A JUMPI DUP1 PUSH4 0x5C65D81F EQ PUSH2 0x481 JUMPI DUP1 PUSH4 0x6352211E EQ PUSH2 0x4AA JUMPI DUP1 PUSH4 0x6E04FF0D EQ PUSH2 0x4E7 JUMPI DUP1 PUSH4 0x70A08231 EQ PUSH2 0x525 JUMPI DUP1 PUSH4 0x715018A6 EQ PUSH2 0x562 JUMPI PUSH2 0x20F JUMP JUMPDEST DUP1 PUSH4 0x2F745C59 EQ PUSH2 0x3B5 JUMPI DUP1 PUSH4 0x42842E0E EQ PUSH2 0x3F2 JUMPI DUP1 PUSH4 0x4585E33B EQ PUSH2 0x41B JUMPI DUP1 PUSH4 0x4F6CCCE7 EQ PUSH2 0x444 JUMPI PUSH2 0x20F JUMP JUMPDEST DUP1 PUSH4 0x95EA7B3 GT PUSH2 0x1E2 JUMPI DUP1 PUSH4 0x95EA7B3 EQ PUSH2 0x2E4 JUMPI DUP1 PUSH4 0x18160DDD EQ PUSH2 0x30D JUMPI DUP1 PUSH4 0x1FE543E3 EQ PUSH2 0x338 JUMPI DUP1 PUSH4 0x23B872DD EQ PUSH2 0x361 JUMPI DUP1 PUSH4 0x247CD8AD EQ PUSH2 0x38A JUMPI PUSH2 0x20F JUMP JUMPDEST DUP1 PUSH4 0x1FFC9A7 EQ PUSH2 0x214 JUMPI DUP1 PUSH4 0x6F13056 EQ PUSH2 0x251 JUMPI DUP1 PUSH4 0x6FDDE03 EQ PUSH2 0x27C JUMPI DUP1 PUSH4 0x81812FC EQ PUSH2 0x2A7 JUMPI JUMPDEST PUSH1 0x0 DUP1 REVERT JUMPDEST CALLVALUE DUP1 ISZERO PUSH2 0x220 JUMPI PUSH1 0x0 DUP1 REVERT JUMPDEST POP PUSH2 0x23B PUSH1 0x4 DUP1 CALLDATASIZE SUB DUP2 ADD SWAP1 PUSH2 0x236 SWAP2 SWAP1 PUSH2 0x3CCF JUMP JUMPDEST PUSH2 0x88C JUMP JUMPDEST PUSH1 0x40 MLOAD PUSH2 0x248 SWAP2 SWAP1 PUSH2 0x44F2 JUMP JUMPDEST PUSH1 0x40 MLOAD DUP1 SWAP2 SUB SWAP1 RETURN JUMPDEST CALLVALUE DUP1 ISZERO PUSH2 0x25D JUMPI PUSH1 0x0 DUP1 REVERT JUMPDEST POP PUSH2 0x266 PUSH2 0x906 JUMP JUMPDEST PUSH1 0x40 MLOAD PUSH2 0x273 SWAP2 SWAP1 PUSH2 0x47B2 JUMP JUMPDEST PUSH1 0x40 MLOAD DUP1 SWAP2 SUB SWAP1 RETURN JUMPDEST CALLVALUE DUP1 ISZERO PUSH2 0x288 JUMPI PUSH1 0x0 DUP1 REVERT JUMPDEST POP PUSH2 0x291 PUSH2 0x913 JUMP JUMPDEST PUSH1 0x40 MLOAD PUSH2 0x29E SWAP2 SWAP1 PUSH2 0x4590 JUMP JUMPDEST PUSH1 0x40 MLOAD DUP1 SWAP2 SUB SWAP1 RETURN JUMPDEST CALLVALUE DUP1 ISZERO PUSH2 0x2B3 JUMPI PUSH1 0x0 DUP1 REVERT JUMPDEST POP PUSH2 0x2CE PUSH1 0x4 DUP1 CALLDATASIZE SUB DUP2 ADD SWAP1 PUSH2 0x2C9 SWAP2 SWAP1 PUSH2 0x3D66 JUMP JUMPDEST PUSH2 0x9A5 JUMP JUMPDEST PUSH1 0x40 MLOAD PUSH2 0x2DB SWAP2 SWAP1 PUSH2 0x4462 JUMP JUMPDEST PUSH1 0x40 MLOAD DUP1 SWAP2 SUB SWAP1 RETURN JUMPDEST CALLVALUE DUP1 ISZERO PUSH2 0x2F0 JUMPI PUSH1 0x0 DUP1 REVERT JUMPDEST POP PUSH2 0x30B PUSH1 0x4 DUP1 CALLDATASIZE SUB DUP2 ADD SWAP1 PUSH2 0x306 SWAP2 SWAP1 PUSH2 0x3C93 JUMP JUMPDEST PUSH2 0x9EB JUMP JUMPDEST STOP JUMPDEST CALLVALUE DUP1 ISZERO PUSH2 0x319 JUMPI PUSH1 0x0 DUP1 REVERT JUMPDEST POP PUSH2 0x322 PUSH2 0xB03 JUMP JUMPDEST PUSH1 0x40 MLOAD PUSH2 0x32F SWAP2 SWAP1 PUSH2 0x47B2 JUMP JUMPDEST PUSH1 0x40 MLOAD DUP1 SWAP2 SUB SWAP1 RETURN JUMPDEST CALLVALUE DUP1 ISZERO PUSH2 0x344 JUMPI PUSH1 0x0 DUP1 REVERT JUMPDEST POP PUSH2 0x35F PUSH1 0x4 DUP1 CALLDATASIZE SUB DUP2 ADD SWAP1 PUSH2 0x35A SWAP2 SWAP1 PUSH2 0x3DB8 JUMP JUMPDEST PUSH2 0xB10 JUMP JUMPDEST STOP JUMPDEST CALLVALUE DUP1 ISZERO PUSH2 0x36D JUMPI PUSH1 0x0 DUP1 REVERT JUMPDEST POP PUSH2 0x388 PUSH1 0x4 DUP1 CALLDATASIZE SUB DUP2 ADD SWAP1 PUSH2 0x383 SWAP2 SWAP1 PUSH2 0x3B8D JUMP JUMPDEST PUSH2 0xBD0 JUMP JUMPDEST STOP JUMPDEST CALLVALUE DUP1 ISZERO PUSH2 0x396 JUMPI PUSH1 0x0 DUP1 REVERT JUMPDEST POP PUSH2 0x39F PUSH2 0xC30 JUMP JUMPDEST PUSH1 0x40 MLOAD PUSH2 0x3AC SWAP2 SWAP1 PUSH2 0x47B2 JUMP JUMPDEST PUSH1 0x40 MLOAD DUP1 SWAP2 SUB SWAP1 RETURN JUMPDEST CALLVALUE DUP1 ISZERO PUSH2 0x3C1 JUMPI PUSH1 0x0 DUP1 REVERT JUMPDEST POP PUSH2 0x3DC PUSH1 0x4 DUP1 CALLDATASIZE SUB DUP2 ADD SWAP1 PUSH2 0x3D7 SWAP2 SWAP1 PUSH2 0x3C93 JUMP JUMPDEST PUSH2 0xC3A JUMP JUMPDEST PUSH1 0x40 MLOAD PUSH2 0x3E9 SWAP2 SWAP1 PUSH2 0x47B2 JUMP JUMPDEST PUSH1 0x40 MLOAD DUP1 SWAP2 SUB SWAP1 RETURN JUMPDEST CALLVALUE DUP1 ISZERO PUSH2 0x3FE JUMPI PUSH1 0x0 DUP1 REVERT JUMPDEST POP PUSH2 0x419 PUSH1 0x4 DUP1 CALLDATASIZE SUB DUP2 ADD SWAP1 PUSH2 0x414 SWAP2 SWAP1 PUSH2 0x3B8D JUMP JUMPDEST PUSH2 0xCDF JUMP JUMPDEST STOP JUMPDEST CALLVALUE DUP1 ISZERO PUSH2 0x427 JUMPI PUSH1 0x0 DUP1 REVERT JUMPDEST POP PUSH2 0x442 PUSH1 0x4 DUP1 CALLDATASIZE SUB DUP2 ADD SWAP1 PUSH2 0x43D SWAP2 SWAP1 PUSH2 0x3D21 JUMP JUMPDEST PUSH2 0xCFF JUMP JUMPDEST STOP JUMPDEST CALLVALUE DUP1 ISZERO PUSH2 0x450 JUMPI PUSH1 0x0 DUP1 REVERT JUMPDEST POP PUSH2 0x46B PUSH1 0x4 DUP1 CALLDATASIZE SUB DUP2 ADD SWAP1 PUSH2 0x466 SWAP2 SWAP1 PUSH2 0x3D66 JUMP JUMPDEST PUSH2 0xD0C JUMP JUMPDEST PUSH1 0x40 MLOAD PUSH2 0x478 SWAP2 SWAP1 PUSH2 0x47B2 JUMP JUMPDEST PUSH1 0x40 MLOAD DUP1 SWAP2 SUB SWAP1 RETURN JUMPDEST CALLVALUE DUP1 ISZERO PUSH2 0x48D JUMPI PUSH1 0x0 DUP1 REVERT JUMPDEST POP PUSH2 0x4A8 PUSH1 0x4 DUP1 CALLDATASIZE SUB DUP2 ADD SWAP1 PUSH2 0x4A3 SWAP2 SWAP1 PUSH2 0x3D66 JUMP JUMPDEST PUSH2 0xDA3 JUMP JUMPDEST STOP JUMPDEST CALLVALUE DUP1 ISZERO PUSH2 0x4B6 JUMPI PUSH1 0x0 DUP1 REVERT JUMPDEST POP PUSH2 0x4D1 PUSH1 0x4 DUP1 CALLDATASIZE SUB DUP2 ADD SWAP1 PUSH2 0x4CC SWAP2 SWAP1 PUSH2 0x3D66 JUMP JUMPDEST PUSH2 0xDB5 JUMP JUMPDEST PUSH1 0x40 MLOAD PUSH2 0x4DE SWAP2 SWAP1 PUSH2 0x4462 JUMP JUMPDEST PUSH1 0x40 MLOAD DUP1 SWAP2 SUB SWAP1 RETURN JUMPDEST CALLVALUE DUP1 ISZERO PUSH2 0x4F3 JUMPI PUSH1 0x0 DUP1 REVERT JUMPDEST POP PUSH2 0x50E PUSH1 0x4 DUP1 CALLDATASIZE SUB DUP2 ADD SWAP1 PUSH2 0x509 SWAP2 SWAP1 PUSH2 0x3D21 JUMP JUMPDEST PUSH2 0xE67 JUMP JUMPDEST PUSH1 0x40 MLOAD PUSH2 0x51C SWAP3 SWAP2 SWAP1 PUSH2 0x450D JUMP JUMPDEST PUSH1 0x40 MLOAD DUP1 SWAP2 SUB SWAP1 RETURN JUMPDEST CALLVALUE DUP1 ISZERO PUSH2 0x531 JUMPI PUSH1 0x0 DUP1 REVERT JUMPDEST POP PUSH2 0x54C PUSH1 0x4 DUP1 CALLDATASIZE SUB DUP2 ADD SWAP1 PUSH2 0x547 SWAP2 SWAP1 PUSH2 0x3B28 JUMP JUMPDEST PUSH2 0xE95 JUMP JUMPDEST PUSH1 0x40 MLOAD PUSH2 0x559 SWAP2 SWAP1 PUSH2 0x47B2 JUMP JUMPDEST PUSH1 0x40 MLOAD DUP1 SWAP2 SUB SWAP1 RETURN JUMPDEST CALLVALUE DUP1 ISZERO PUSH2 0x56E JUMPI PUSH1 0x0 DUP1 REVERT JUMPDEST POP PUSH2 0x577 PUSH2 0xF4D JUMP JUMPDEST STOP JUMPDEST CALLVALUE DUP1 ISZERO PUSH2 0x585 JUMPI PUSH1 0x0 DUP1 REVERT JUMPDEST POP PUSH2 0x58E PUSH2 0xF61 JUMP JUMPDEST PUSH1 0x40 MLOAD PUSH2 0x59B SWAP2 SWAP1 PUSH2 0x47B2 JUMP JUMPDEST PUSH1 0x40 MLOAD DUP1 SWAP2 SUB SWAP1 RETURN JUMPDEST CALLVALUE DUP1 ISZERO PUSH2 0x5B0 JUMPI PUSH1 0x0 DUP1 REVERT JUMPDEST POP PUSH2 0x5B9 PUSH2 0xF6B JUMP JUMPDEST PUSH1 0x40 MLOAD PUSH2 0x5C6 SWAP2 SWAP1 PUSH2 0x4462 JUMP JUMPDEST PUSH1 0x40 MLOAD DUP1 SWAP2 SUB SWAP1 RETURN JUMPDEST CALLVALUE DUP1 ISZERO PUSH2 0x5DB JUMPI PUSH1 0x0 DUP1 REVERT JUMPDEST POP PUSH2 0x5E4 PUSH2 0xF94 JUMP JUMPDEST STOP JUMPDEST CALLVALUE DUP1 ISZERO PUSH2 0x5F2 JUMPI PUSH1 0x0 DUP1 REVERT JUMPDEST POP PUSH2 0x5FB PUSH2 0x1049 JUMP JUMPDEST PUSH1 0x40 MLOAD PUSH2 0x608 SWAP2 SWAP1 PUSH2 0x4590 JUMP JUMPDEST PUSH1 0x40 MLOAD DUP1 SWAP2 SUB SWAP1 RETURN JUMPDEST CALLVALUE DUP1 ISZERO PUSH2 0x61D JUMPI PUSH1 0x0 DUP1 REVERT JUMPDEST POP PUSH2 0x626 PUSH2 0x10DB JUMP JUMPDEST PUSH1 0x40 MLOAD PUSH2 0x633 SWAP2 SWAP1 PUSH2 0x47B2 JUMP JUMPDEST PUSH1 0x40 MLOAD DUP1 SWAP2 SUB SWAP1 RETURN JUMPDEST PUSH2 0x656 PUSH1 0x4 DUP1 CALLDATASIZE SUB DUP2 ADD SWAP1 PUSH2 0x651 SWAP2 SWAP1 PUSH2 0x3D66 JUMP JUMPDEST PUSH2 0x12CE JUMP JUMPDEST STOP JUMPDEST CALLVALUE DUP1 ISZERO PUSH2 0x664 JUMPI PUSH1 0x0 DUP1 REVERT JUMPDEST POP PUSH2 0x67F PUSH1 0x4 DUP1 CALLDATASIZE SUB DUP2 ADD SWAP1 PUSH2 0x67A SWAP2 SWAP1 PUSH2 0x3C57 JUMP JUMPDEST PUSH2 0x141A JUMP JUMPDEST STOP JUMPDEST CALLVALUE DUP1 ISZERO PUSH2 0x68D JUMPI PUSH1 0x0 DUP1 REVERT JUMPDEST POP PUSH2 0x6A8 PUSH1 0x4 DUP1 CALLDATASIZE SUB DUP2 ADD SWAP1 PUSH2 0x6A3 SWAP2 SWAP1 PUSH2 0x3D66 JUMP JUMPDEST PUSH2 0x1430 JUMP JUMPDEST STOP JUMPDEST CALLVALUE DUP1 ISZERO PUSH2 0x6B6 JUMPI PUSH1 0x0 DUP1 REVERT JUMPDEST POP PUSH2 0x6D1 PUSH1 0x4 DUP1 CALLDATASIZE SUB DUP2 ADD SWAP1 PUSH2 0x6CC SWAP2 SWAP1 PUSH2 0x3BDC JUMP JUMPDEST PUSH2 0x1442 JUMP JUMPDEST STOP JUMPDEST CALLVALUE DUP1 ISZERO PUSH2 0x6DF JUMPI PUSH1 0x0 DUP1 REVERT JUMPDEST POP PUSH2 0x6E8 PUSH2 0x14A4 JUMP JUMPDEST PUSH1 0x40 MLOAD PUSH2 0x6F5 SWAP2 SWAP1 PUSH2 0x47B2 JUMP JUMPDEST PUSH1 0x40 MLOAD DUP1 SWAP2 SUB SWAP1 RETURN JUMPDEST CALLVALUE DUP1 ISZERO PUSH2 0x70A JUMPI PUSH1 0x0 DUP1 REVERT JUMPDEST POP PUSH2 0x713 PUSH2 0x14AE JUMP JUMPDEST PUSH1 0x40 MLOAD PUSH2 0x720 SWAP2 SWAP1 PUSH2 0x47B2 JUMP JUMPDEST PUSH1 0x40 MLOAD DUP1 SWAP2 SUB SWAP1 RETURN JUMPDEST CALLVALUE DUP1 ISZERO PUSH2 0x735 JUMPI PUSH1 0x0 DUP1 REVERT JUMPDEST POP PUSH2 0x750 PUSH1 0x4 DUP1 CALLDATASIZE SUB DUP2 ADD SWAP1 PUSH2 0x74B SWAP2 SWAP1 PUSH2 0x3D66 JUMP JUMPDEST PUSH2 0x14D6 JUMP JUMPDEST PUSH1 0x40 MLOAD PUSH2 0x75D SWAP2 SWAP1 PUSH2 0x4590 JUMP JUMPDEST PUSH1 0x40 MLOAD DUP1 SWAP2 SUB SWAP1 RETURN JUMPDEST CALLVALUE DUP1 ISZERO PUSH2 0x772 JUMPI PUSH1 0x0 DUP1 REVERT JUMPDEST POP PUSH2 0x77B PUSH2 0x1556 JUMP JUMPDEST PUSH1 0x40 MLOAD PUSH2 0x788 SWAP2 SWAP1 PUSH2 0x44F2 JUMP JUMPDEST PUSH1 0x40 MLOAD DUP1 SWAP2 SUB SWAP1 RETURN JUMPDEST CALLVALUE DUP1 ISZERO PUSH2 0x79D JUMPI PUSH1 0x0 DUP1 REVERT JUMPDEST POP PUSH2 0x7A6 PUSH2 0x15DF JUMP JUMPDEST PUSH1 0x40 MLOAD PUSH2 0x7B3 SWAP2 SWAP1 PUSH2 0x47B2 JUMP JUMPDEST PUSH1 0x40 MLOAD DUP1 SWAP2 SUB SWAP1 RETURN JUMPDEST CALLVALUE DUP1 ISZERO PUSH2 0x7C8 JUMPI PUSH1 0x0 DUP1 REVERT JUMPDEST POP PUSH2 0x7E3 PUSH1 0x4 DUP1 CALLDATASIZE SUB DUP2 ADD SWAP1 PUSH2 0x7DE SWAP2 SWAP1 PUSH2 0x3B51 JUMP JUMPDEST PUSH2 0x1607 JUMP JUMPDEST PUSH1 0x40 MLOAD PUSH2 0x7F0 SWAP2 SWAP1 PUSH2 0x44F2 JUMP JUMPDEST PUSH1 0x40 MLOAD DUP1 SWAP2 SUB SWAP1 RETURN JUMPDEST CALLVALUE DUP1 ISZERO PUSH2 0x805 JUMPI PUSH1 0x0 DUP1 REVERT JUMPDEST POP PUSH2 0x820 PUSH1 0x4 DUP1 CALLDATASIZE SUB DUP2 ADD SWAP1 PUSH2 0x81B SWAP2 SWAP1 PUSH2 0x3B28 JUMP JUMPDEST PUSH2 0x169B JUMP JUMPDEST STOP JUMPDEST CALLVALUE DUP1 ISZERO PUSH2 0x82E JUMPI PUSH1 0x0 DUP1 REVERT JUMPDEST POP PUSH2 0x837 PUSH2 0x171F JUMP JUMPDEST PUSH1 0x40 MLOAD PUSH2 0x844 SWAP2 SWAP1 PUSH2 0x47B2 JUMP JUMPDEST PUSH1 0x40 MLOAD DUP1 SWAP2 SUB SWAP1 RETURN JUMPDEST CALLVALUE DUP1 ISZERO PUSH2 0x859 JUMPI PUSH1 0x0 DUP1 REVERT JUMPDEST POP PUSH2 0x874 PUSH1 0x4 DUP1 CALLDATASIZE SUB DUP2 ADD SWAP1 PUSH2 0x86F SWAP2 SWAP1 PUSH2 0x3D66 JUMP JUMPDEST PUSH2 0x1729 JUMP JUMPDEST PUSH1 0x40 MLOAD PUSH2 0x883 SWAP4 SWAP3 SWAP2 SWAP1 PUSH2 0x47F6 JUMP JUMPDEST PUSH1 0x40 MLOAD DUP1 SWAP2 SUB SWAP1 RETURN JUMPDEST PUSH1 0x0 PUSH2 0x897 DUP3 PUSH2 0x17BF JUMP JUMPDEST DUP1 PUSH2 0x8FF JUMPI POP PUSH32 0xE7FB86C600000000000000000000000000000000000000000000000000000000 PUSH28 0xFFFFFFFFFFFFFFFFFFFFFFFFFFFFFFFFFFFFFFFFFFFFFFFFFFFFFFFF NOT AND DUP3 PUSH28 0xFFFFFFFFFFFFFFFFFFFFFFFFFFFFFFFFFFFFFFFFFFFFFFFFFFFFFFFF NOT AND EQ JUMPDEST SWAP1 POP SWAP2 SWAP1 POP JUMP JUMPDEST PUSH1 0x0 PUSH1 0x10 DUP1 SLOAD SWAP1 POP SWAP1 POP SWAP1 JUMP JUMPDEST PUSH1 0x60 PUSH1 0x1 DUP1 SLOAD PUSH2 0x922 SWAP1 PUSH2 0x4BAD JUMP JUMPDEST DUP1 PUSH1 0x1F ADD PUSH1 0x20 DUP1 SWAP2 DIV MUL PUSH1 0x20 ADD PUSH1 0x40 MLOAD SWAP1 DUP2 ADD PUSH1 0x40 MSTORE DUP1 SWAP3 SWAP2 SWAP1 DUP2 DUP2 MSTORE PUSH1 0x20 ADD DUP3 DUP1 SLOAD PUSH2 0x94E SWAP1 PUSH2 0x4BAD JUMP JUMPDEST DUP1 ISZERO PUSH2 0x99B JUMPI DUP1 PUSH1 0x1F LT PUSH2 0x970 JUMPI PUSH2 0x100 DUP1 DUP4 SLOAD DIV MUL DUP4 MSTORE SWAP2 PUSH1 0x20 ADD SWAP2 PUSH2 0x99B JUMP JUMPDEST DUP3 ADD SWAP2 SWAP1 PUSH1 0x0 MSTORE PUSH1 0x20 PUSH1 0x0 KECCAK256 SWAP1 JUMPDEST DUP2 SLOAD DUP2 MSTORE SWAP1 PUSH1 0x1 ADD SWAP1 PUSH1 0x20 ADD DUP1 DUP4 GT PUSH2 0x97E JUMPI DUP3 SWAP1 SUB PUSH1 0x1F AND DUP3 ADD SWAP2 JUMPDEST POP POP POP POP POP SWAP1 POP SWAP1 JUMP JUMPDEST PUSH1 0x0 PUSH2 0x9B0 DUP3 PUSH2 0x1839 JUMP JUMPDEST PUSH1 0x5 PUSH1 0x0 DUP4 DUP2 MSTORE PUSH1 0x20 ADD SWAP1 DUP2 MSTORE PUSH1 0x20 ADD PUSH1 0x0 KECCAK256 PUSH1 0x0 SWAP1 SLOAD SWAP1 PUSH2 0x100 EXP SWAP1 DIV PUSH20 0xFFFFFFFFFFFFFFFFFFFFFFFFFFFFFFFFFFFFFFFF AND SWAP1 POP SWAP2 SWAP1 POP JUMP JUMPDEST PUSH1 0x0 PUSH2 0x9F6 DUP3 PUSH2 0xDB5 JUMP JUMPDEST SWAP1 POP DUP1 PUSH20 0xFFFFFFFFFFFFFFFFFFFFFFFFFFFFFFFFFFFFFFFF AND DUP4 PUSH20 0xFFFFFFFFFFFFFFFFFFFFFFFFFFFFFFFFFFFFFFFF AND EQ ISZERO PUSH2 0xA67 JUMPI PUSH1 0x40 MLOAD PUSH32 0x8C379A000000000000000000000000000000000000000000000000000000000 DUP2 MSTORE PUSH1 0x4 ADD PUSH2 0xA5E SWAP1 PUSH2 0x4752 JUMP JUMPDEST PUSH1 0x40 MLOAD DUP1 SWAP2 SUB SWAP1 REVERT JUMPDEST DUP1 PUSH20 0xFFFFFFFFFFFFFFFFFFFFFFFFFFFFFFFFFFFFFFFF AND PUSH2 0xA86 PUSH2 0x1884 JUMP JUMPDEST PUSH20 0xFFFFFFFFFFFFFFFFFFFFFFFFFFFFFFFFFFFFFFFF AND EQ DUP1 PUSH2 0xAB5 JUMPI POP PUSH2 0xAB4 DUP2 PUSH2 0xAAF PUSH2 0x1884 JUMP JUMPDEST PUSH2 0x1607 JUMP JUMPDEST JUMPDEST PUSH2 0xAF4 JUMPI PUSH1 0x40 MLOAD PUSH32 0x8C379A000000000000000000000000000000000000000000000000000000000 DUP2 MSTORE PUSH1 0x4 ADD PUSH2 0xAEB SWAP1 PUSH2 0x46D2 JUMP JUMPDEST PUSH1 0x40 MLOAD DUP1 SWAP2 SUB SWAP1 REVERT JUMPDEST PUSH2 0xAFE DUP4 DUP4 PUSH2 0x188C JUMP JUMPDEST POP POP POP JUMP JUMPDEST PUSH1 0x0 PUSH1 0x9 DUP1 SLOAD SWAP1 POP SWAP1 POP SWAP1 JUMP JUMPDEST PUSH32 0x0 PUSH20 0xFFFFFFFFFFFFFFFFFFFFFFFFFFFFFFFFFFFFFFFF AND CALLER PUSH20 0xFFFFFFFFFFFFFFFFFFFFFFFFFFFFFFFFFFFFFFFF AND EQ PUSH2 0xBC2 JUMPI CALLER PUSH32 0x0 PUSH1 0x40 MLOAD PUSH32 0x1CF993F400000000000000000000000000000000000000000000000000000000 DUP2 MSTORE PUSH1 0x4 ADD PUSH2 0xBB9 SWAP3 SWAP2 SWAP1 PUSH2 0x447D JUMP JUMPDEST PUSH1 0x40 MLOAD DUP1 SWAP2 SUB SWAP1 REVERT JUMPDEST PUSH2 0xBCC DUP3 DUP3 PUSH2 0x1945 JUMP JUMPDEST POP POP JUMP JUMPDEST PUSH2 0xBE1 PUSH2 0xBDB PUSH2 0x1884 JUMP JUMPDEST DUP3 PUSH2 0x1993 JUMP JUMPDEST PUSH2 0xC20 JUMPI PUSH1 0x40 MLOAD PUSH32 0x8C379A000000000000000000000000000000000000000000000000000000000 DUP2 MSTORE PUSH1 0x4 ADD PUSH2 0xC17 SWAP1 PUSH2 0x4792 JUMP JUMPDEST PUSH1 0x40 MLOAD DUP1 SWAP2 SUB SWAP1 REVERT JUMPDEST PUSH2 0xC2B DUP4 DUP4 DUP4 PUSH2 0x1A28 JUMP JUMPDEST POP POP POP JUMP JUMPDEST PUSH1 0x0 PUSH1 0xD SLOAD SWAP1 POP SWAP1 JUMP JUMPDEST PUSH1 0x0 PUSH2 0xC45 DUP4 PUSH2 0xE95 JUMP JUMPDEST DUP3 LT PUSH2 0xC86 JUMPI PUSH1 0x40 MLOAD PUSH32 0x8C379A000000000000000000000000000000000000000000000000000000000 DUP2 MSTORE PUSH1 0x4 ADD PUSH2 0xC7D SWAP1 PUSH2 0x45D2 JUMP JUMPDEST PUSH1 0x40 MLOAD DUP1 SWAP2 SUB SWAP1 REVERT JUMPDEST PUSH1 0x7 PUSH1 0x0 DUP5 PUSH20 0xFFFFFFFFFFFFFFFFFFFFFFFFFFFFFFFFFFFFFFFF AND PUSH20 0xFFFFFFFFFFFFFFFFFFFFFFFFFFFFFFFFFFFFFFFF AND DUP2 MSTORE PUSH1 0x20 ADD SWAP1 DUP2 MSTORE PUSH1 0x20 ADD PUSH1 0x0 KECCAK256 PUSH1 0x0 DUP4 DUP2 MSTORE PUSH1 0x20 ADD SWAP1 DUP2 MSTORE PUSH1 0x20 ADD PUSH1 0x0 KECCAK256 SLOAD SWAP1 POP SWAP3 SWAP2 POP POP JUMP JUMPDEST PUSH2 0xCFA DUP4 DUP4 DUP4 PUSH1 0x40 MLOAD DUP1 PUSH1 0x20 ADD PUSH1 0x40 MSTORE DUP1 PUSH1 0x0 DUP2 MSTORE POP PUSH2 0x1442 JUMP JUMPDEST POP POP POP JUMP JUMPDEST PUSH2 0xD07 PUSH2 0x10DB JUMP JUMPDEST POP POP POP JUMP JUMPDEST PUSH1 0x0 PUSH2 0xD16 PUSH2 0xB03 JUMP JUMPDEST DUP3 LT PUSH2 0xD57 JUMPI PUSH1 0x40 MLOAD PUSH32 0x8C379A000000000000000000000000000000000000000000000000000000000 DUP2 MSTORE PUSH1 0x4 ADD PUSH2 0xD4E SWAP1 PUSH2 0x4772 JUMP JUMPDEST PUSH1 0x40 MLOAD DUP1 SWAP2 SUB SWAP1 REVERT JUMPDEST PUSH1 0x9 DUP3 DUP2 SLOAD DUP2 LT PUSH2 0xD91 JUMPI PUSH32 0x4E487B7100000000000000000000000000000000000000000000000000000000 PUSH1 0x0 MSTORE PUSH1 0x32 PUSH1 0x4 MSTORE PUSH1 0x24 PUSH1 0x0 REVERT JUMPDEST SWAP1 PUSH1 0x0 MSTORE PUSH1 0x20 PUSH1 0x0 KECCAK256 ADD SLOAD SWAP1 POP SWAP2 SWAP1 POP JUMP JUMPDEST PUSH2 0xDAB PUSH2 0x1C8F JUMP JUMPDEST DUP1 PUSH1 0xD DUP2 SWAP1 SSTORE POP POP JUMP JUMPDEST PUSH1 0x0 DUP1 PUSH1 0x3 PUSH1 0x0 DUP5 DUP2 MSTORE PUSH1 0x20 ADD SWAP1 DUP2 MSTORE PUSH1 0x20 ADD PUSH1 0x0 KECCAK256 PUSH1 0x0 SWAP1 SLOAD SWAP1 PUSH2 0x100 EXP SWAP1 DIV PUSH20 0xFFFFFFFFFFFFFFFFFFFFFFFFFFFFFFFFFFFFFFFF AND SWAP1 POP PUSH1 0x0 PUSH20 0xFFFFFFFFFFFFFFFFFFFFFFFFFFFFFFFFFFFFFFFF AND DUP2 PUSH20 0xFFFFFFFFFFFFFFFFFFFFFFFFFFFFFFFFFFFFFFFF AND EQ ISZERO PUSH2 0xE5E JUMPI PUSH1 0x40 MLOAD PUSH32 0x8C379A000000000000000000000000000000000000000000000000000000000 DUP2 MSTORE PUSH1 0x4 ADD PUSH2 0xE55 SWAP1 PUSH2 0x4732 JUMP JUMPDEST PUSH1 0x40 MLOAD DUP1 SWAP2 SUB SWAP1 REVERT JUMPDEST DUP1 SWAP2 POP POP SWAP2 SWAP1 POP JUMP JUMPDEST PUSH1 0x0 PUSH1 0x60 PUSH1 0xF PUSH1 0x0 SWAP1 SLOAD SWAP1 PUSH2 0x100 EXP SWAP1 DIV PUSH1 0xFF AND ISZERO DUP1 ISZERO PUSH2 0xE8C JUMPI POP PUSH2 0xE8B PUSH2 0x1556 JUMP JUMPDEST JUMPDEST SWAP2 POP SWAP3 POP SWAP3 SWAP1 POP JUMP JUMPDEST PUSH1 0x0 DUP1 PUSH20 0xFFFFFFFFFFFFFFFFFFFFFFFFFFFFFFFFFFFFFFFF AND DUP3 PUSH20 0xFFFFFFFFFFFFFFFFFFFFFFFFFFFFFFFFFFFFFFFF AND EQ ISZERO PUSH2 0xF06 JUMPI PUSH1 0x40 MLOAD PUSH32 0x8C379A000000000000000000000000000000000000000000000000000000000 DUP2 MSTORE PUSH1 0x4 ADD PUSH2 0xEFD SWAP1 PUSH2 0x46B2 JUMP JUMPDEST PUSH1 0x40 MLOAD DUP1 SWAP2 SUB SWAP1 REVERT JUMPDEST PUSH1 0x4 PUSH1 0x0 DUP4 PUSH20 0xFFFFFFFFFFFFFFFFFFFFFFFFFFFFFFFFFFFFFFFF AND PUSH20 0xFFFFFFFFFFFFFFFFFFFFFFFFFFFFFFFFFFFFFFFF AND DUP2 MSTORE PUSH1 0x20 ADD SWAP1 DUP2 MSTORE PUSH1 0x20 ADD PUSH1 0x0 KECCAK256 SLOAD SWAP1 POP SWAP2 SWAP1 POP JUMP JUMPDEST PUSH2 0xF55 PUSH2 0x1C8F JUMP JUMPDEST PUSH2 0xF5F PUSH1 0x0 PUSH2 0x1D0D JUMP JUMPDEST JUMP JUMPDEST PUSH1 0x0 PUSH1 0xE SLOAD SWAP1 POP SWAP1 JUMP JUMPDEST PUSH1 0x0 DUP1 PUSH1 0x0 SWAP1 SLOAD SWAP1 PUSH2 0x100 EXP SWAP1 DIV PUSH20 0xFFFFFFFFFFFFFFFFFFFFFFFFFFFFFFFFFFFFFFFF AND SWAP1 POP SWAP1 JUMP JUMPDEST PUSH2 0xF9C PUSH2 0x1C8F JUMP JUMPDEST PUSH1 0x0 PUSH2 0xFA6 PUSH2 0xF6B JUMP JUMPDEST PUSH20 0xFFFFFFFFFFFFFFFFFFFFFFFFFFFFFFFFFFFFFFFF AND SELFBALANCE PUSH1 0x40 MLOAD PUSH2 0xFC9 SWAP1 PUSH2 0x4420 JUMP JUMPDEST PUSH1 0x0 PUSH1 0x40 MLOAD DUP1 DUP4 SUB DUP2 DUP6 DUP8 GAS CALL SWAP3 POP POP POP RETURNDATASIZE DUP1 PUSH1 0x0 DUP2 EQ PUSH2 0x1006 JUMPI PUSH1 0x40 MLOAD SWAP2 POP PUSH1 0x1F NOT PUSH1 0x3F RETURNDATASIZE ADD AND DUP3 ADD PUSH1 0x40 MSTORE RETURNDATASIZE DUP3 MSTORE RETURNDATASIZE PUSH1 0x0 PUSH1 0x20 DUP5 ADD RETURNDATACOPY PUSH2 0x100B JUMP JUMPDEST PUSH1 0x60 SWAP2 POP JUMPDEST POP POP SWAP1 POP DUP1 PUSH2 0x1046 JUMPI PUSH1 0x40 MLOAD PUSH32 0xCA5B23000000000000000000000000000000000000000000000000000000000 DUP2 MSTORE PUSH1 0x4 ADD PUSH1 0x40 MLOAD DUP1 SWAP2 SUB SWAP1 REVERT JUMPDEST POP JUMP JUMPDEST PUSH1 0x60 PUSH1 0x2 DUP1 SLOAD PUSH2 0x1058 SWAP1 PUSH2 0x4BAD JUMP JUMPDEST DUP1 PUSH1 0x1F ADD PUSH1 0x20 DUP1 SWAP2 DIV MUL PUSH1 0x20 ADD PUSH1 0x40 MLOAD SWAP1 DUP2 ADD PUSH1 0x40 MSTORE DUP1 SWAP3 SWAP2 SWAP1 DUP2 DUP2 MSTORE PUSH1 0x20 ADD DUP3 DUP1 SLOAD PUSH2 0x1084 SWAP1 PUSH2 0x4BAD JUMP JUMPDEST DUP1 ISZERO PUSH2 0x10D1 JUMPI DUP1 PUSH1 0x1F LT PUSH2 0x10A6 JUMPI PUSH2 0x100 DUP1 DUP4 SLOAD DIV MUL DUP4 MSTORE SWAP2 PUSH1 0x20 ADD SWAP2 PUSH2 0x10D1 JUMP JUMPDEST DUP3 ADD SWAP2 SWAP1 PUSH1 0x0 MSTORE PUSH1 0x20 PUSH1 0x0 KECCAK256 SWAP1 JUMPDEST DUP2 SLOAD DUP2 MSTORE SWAP1 PUSH1 0x1 ADD SWAP1 PUSH1 0x20 ADD DUP1 DUP4 GT PUSH2 0x10B4 JUMPI DUP3 SWAP1 SUB PUSH1 0x1F AND DUP3 ADD SWAP2 JUMPDEST POP POP POP POP POP SWAP1 POP SWAP1 JUMP JUMPDEST PUSH1 0x0 PUSH1 0xF PUSH1 0x0 SWAP1 SLOAD SWAP1 PUSH2 0x100 EXP SWAP1 DIV PUSH1 0xFF AND ISZERO PUSH2 0x1124 JUMPI PUSH1 0x40 MLOAD PUSH32 0xD0CF055400000000000000000000000000000000000000000000000000000000 DUP2 MSTORE PUSH1 0x4 ADD PUSH1 0x40 MLOAD DUP1 SWAP2 SUB SWAP1 REVERT JUMPDEST PUSH2 0x112C PUSH2 0x1556 JUMP JUMPDEST PUSH2 0x1162 JUMPI PUSH1 0x40 MLOAD PUSH32 0x4E628EBC00000000000000000000000000000000000000000000000000000000 DUP2 MSTORE PUSH1 0x4 ADD PUSH1 0x40 MLOAD DUP1 SWAP2 SUB SWAP1 REVERT JUMPDEST PUSH32 0x0 PUSH20 0xFFFFFFFFFFFFFFFFFFFFFFFFFFFFFFFFFFFFFFFF AND PUSH4 0x5D3B1D30 PUSH32 0x0 PUSH32 0x0 PUSH1 0x3 PUSH32 0x0 PUSH1 0x1 PUSH1 0x40 MLOAD DUP7 PUSH4 0xFFFFFFFF AND PUSH1 0xE0 SHL DUP2 MSTORE PUSH1 0x4 ADD PUSH2 0x1225 SWAP6 SWAP5 SWAP4 SWAP3 SWAP2 SWAP1 PUSH2 0x453D JUMP JUMPDEST PUSH1 0x20 PUSH1 0x40 MLOAD DUP1 DUP4 SUB DUP2 PUSH1 0x0 DUP8 DUP1 EXTCODESIZE ISZERO DUP1 ISZERO PUSH2 0x123F JUMPI PUSH1 0x0 DUP1 REVERT JUMPDEST POP GAS CALL ISZERO DUP1 ISZERO PUSH2 0x1253 JUMPI RETURNDATASIZE PUSH1 0x0 DUP1 RETURNDATACOPY RETURNDATASIZE PUSH1 0x0 REVERT JUMPDEST POP POP POP POP PUSH1 0x40 MLOAD RETURNDATASIZE PUSH1 0x1F NOT PUSH1 0x1F DUP3 ADD AND DUP3 ADD DUP1 PUSH1 0x40 MSTORE POP DUP2 ADD SWAP1 PUSH2 0x1277 SWAP2 SWAP1 PUSH2 0x3D8F JUMP JUMPDEST SWAP1 POP PUSH1 0x1 PUSH1 0xF PUSH1 0x0 PUSH2 0x100 EXP DUP2 SLOAD DUP2 PUSH1 0xFF MUL NOT AND SWAP1 DUP4 ISZERO ISZERO MUL OR SWAP1 SSTORE POP PUSH32 0x8D83BDD6DB199FF596CEC09EA8E4F4E50DA2DCB4020BC2A1CF072C507056B1EA DUP2 PUSH1 0x40 MLOAD PUSH2 0x12C3 SWAP2 SWAP1 PUSH2 0x47B2 JUMP JUMPDEST PUSH1 0x40 MLOAD DUP1 SWAP2 SUB SWAP1 LOG1 SWAP1 JUMP JUMPDEST PUSH1 0x0 PUSH2 0x12D8 PUSH2 0xB03 JUMP JUMPDEST SWAP1 POP PUSH1 0x0 DUP3 EQ ISZERO PUSH2 0x1315 JUMPI PUSH1 0x40 MLOAD PUSH32 0x2C5211C600000000000000000000000000000000000000000000000000000000 DUP2 MSTORE PUSH1 0x4 ADD PUSH1 0x40 MLOAD DUP1 SWAP2 SUB SWAP1 REVERT JUMPDEST PUSH32 0x0 DUP3 DUP3 PUSH2 0x1342 SWAP2 SWAP1 PUSH2 0x48FD JUMP JUMPDEST GT ISZERO PUSH2 0x137A JUMPI PUSH1 0x40 MLOAD PUSH32 0xD05CB60900000000000000000000000000000000000000000000000000000000 DUP2 MSTORE PUSH1 0x4 ADD PUSH1 0x40 MLOAD DUP1 SWAP2 SUB SWAP1 REVERT JUMPDEST DUP2 PUSH32 0x0 PUSH2 0x13A6 SWAP2 SWAP1 PUSH2 0x49BB JUMP JUMPDEST CALLVALUE LT ISZERO PUSH2 0x13DF JUMPI PUSH1 0x40 MLOAD PUSH32 0x356680B700000000000000000000000000000000000000000000000000000000 DUP2 MSTORE PUSH1 0x4 ADD PUSH1 0x40 MLOAD DUP1 SWAP2 SUB SWAP1 REVERT JUMPDEST PUSH1 0x0 PUSH1 0x1 SWAP1 POP JUMPDEST DUP3 DUP2 GT PUSH2 0x1415 JUMPI PUSH2 0x1402 CALLER DUP3 DUP5 PUSH2 0x13FD SWAP2 SWAP1 PUSH2 0x48FD JUMP JUMPDEST PUSH2 0x1DD1 JUMP JUMPDEST DUP1 DUP1 PUSH2 0x140D SWAP1 PUSH2 0x4C10 JUMP JUMPDEST SWAP2 POP POP PUSH2 0x13E6 JUMP JUMPDEST POP POP POP JUMP JUMPDEST PUSH2 0x142C PUSH2 0x1425 PUSH2 0x1884 JUMP JUMPDEST DUP4 DUP4 PUSH2 0x1DEF JUMP JUMPDEST POP POP JUMP JUMPDEST PUSH2 0x1438 PUSH2 0x1C8F JUMP JUMPDEST DUP1 PUSH1 0xC DUP2 SWAP1 SSTORE POP POP JUMP JUMPDEST PUSH2 0x1453 PUSH2 0x144D PUSH2 0x1884 JUMP JUMPDEST DUP4 PUSH2 0x1993 JUMP JUMPDEST PUSH2 0x1492 JUMPI PUSH1 0x40 MLOAD PUSH32 0x8C379A000000000000000000000000000000000000000000000000000000000 DUP2 MSTORE PUSH1 0x4 ADD PUSH2 0x1489 SWAP1 PUSH2 0x4792 JUMP JUMPDEST PUSH1 0x40 MLOAD DUP1 SWAP2 SUB SWAP1 REVERT JUMPDEST PUSH2 0x149E DUP5 DUP5 DUP5 DUP5 PUSH2 0x1F5C JUMP JUMPDEST POP POP POP POP JUMP JUMPDEST PUSH1 0x0 PUSH1 0xB SLOAD SWAP1 POP SWAP1 JUMP JUMPDEST PUSH1 0x0 PUSH32 0x0 SWAP1 POP SWAP1 JUMP JUMPDEST PUSH1 0x60 PUSH2 0x14E1 DUP3 PUSH2 0x1FB8 JUMP JUMPDEST PUSH2 0x1517 JUMPI PUSH1 0x40 MLOAD PUSH32 0x9430A17E00000000000000000000000000000000000000000000000000000000 DUP2 MSTORE PUSH1 0x4 ADD PUSH1 0x40 MLOAD DUP1 SWAP2 SUB SWAP1 REVERT JUMPDEST PUSH1 0x0 DUP1 PUSH2 0x1523 DUP5 PUSH2 0x2024 JUMP JUMPDEST SWAP2 POP SWAP2 POP PUSH1 0x0 PUSH2 0x1533 DUP4 DUP4 PUSH2 0x2178 JUMP JUMPDEST SWAP1 POP PUSH1 0x0 PUSH2 0x1540 DUP3 PUSH2 0x2770 JUMP JUMPDEST SWAP1 POP PUSH2 0x154B DUP2 PUSH2 0x2803 JUMP JUMPDEST SWAP5 POP POP POP POP POP SWAP2 SWAP1 POP JUMP JUMPDEST PUSH1 0x0 DUP1 PUSH1 0xB SLOAD PUSH2 0x1564 PUSH2 0xB03 JUMP JUMPDEST PUSH2 0x156E SWAP2 SWAP1 PUSH2 0x4A50 JUMP JUMPDEST SWAP1 POP PUSH1 0x0 DUP2 EQ ISZERO PUSH2 0x1583 JUMPI PUSH1 0x0 SWAP2 POP POP PUSH2 0x15DC JUMP JUMPDEST PUSH1 0x0 DUP1 PUSH1 0xC SLOAD GT DUP1 ISZERO PUSH2 0x1598 JUMPI POP PUSH1 0xC SLOAD DUP3 LT ISZERO JUMPDEST ISZERO PUSH2 0x15A2 JUMPI PUSH1 0x1 SWAP1 POP JUMPDEST PUSH1 0x0 DUP1 PUSH1 0xD SLOAD GT DUP1 ISZERO PUSH2 0x15C3 JUMPI POP PUSH1 0xD SLOAD PUSH1 0xE SLOAD TIMESTAMP PUSH2 0x15C1 SWAP2 SWAP1 PUSH2 0x4A50 JUMP JUMPDEST GT JUMPDEST ISZERO PUSH2 0x15CD JUMPI PUSH1 0x1 SWAP1 POP JUMPDEST DUP2 DUP1 PUSH2 0x15D6 JUMPI POP DUP1 JUMPDEST SWAP4 POP POP POP POP JUMPDEST SWAP1 JUMP JUMPDEST PUSH1 0x0 PUSH32 0x0 SWAP1 POP SWAP1 JUMP JUMPDEST PUSH1 0x0 PUSH1 0x6 PUSH1 0x0 DUP5 PUSH20 0xFFFFFFFFFFFFFFFFFFFFFFFFFFFFFFFFFFFFFFFF AND PUSH20 0xFFFFFFFFFFFFFFFFFFFFFFFFFFFFFFFFFFFFFFFF AND DUP2 MSTORE PUSH1 0x20 ADD SWAP1 DUP2 MSTORE PUSH1 0x20 ADD PUSH1 0x0 KECCAK256 PUSH1 0x0 DUP4 PUSH20 0xFFFFFFFFFFFFFFFFFFFFFFFFFFFFFFFFFFFFFFFF AND PUSH20 0xFFFFFFFFFFFFFFFFFFFFFFFFFFFFFFFFFFFFFFFF AND DUP2 MSTORE PUSH1 0x20 ADD SWAP1 DUP2 MSTORE PUSH1 0x20 ADD PUSH1 0x0 KECCAK256 PUSH1 0x0 SWAP1 SLOAD SWAP1 PUSH2 0x100 EXP SWAP1 DIV PUSH1 0xFF AND SWAP1 POP SWAP3 SWAP2 POP POP JUMP JUMPDEST PUSH2 0x16A3 PUSH2 0x1C8F JUMP JUMPDEST PUSH1 0x0 PUSH20 0xFFFFFFFFFFFFFFFFFFFFFFFFFFFFFFFFFFFFFFFF AND DUP2 PUSH20 0xFFFFFFFFFFFFFFFFFFFFFFFFFFFFFFFFFFFFFFFF AND EQ ISZERO PUSH2 0x1713 JUMPI PUSH1 0x40 MLOAD PUSH32 0x8C379A000000000000000000000000000000000000000000000000000000000 DUP2 MSTORE PUSH1 0x4 ADD PUSH2 0x170A SWAP1 PUSH2 0x4612 JUMP JUMPDEST PUSH1 0x40 MLOAD DUP1 SWAP2 SUB SWAP1 REVERT JUMPDEST PUSH2 0x171C DUP2 PUSH2 0x1D0D JUMP JUMPDEST POP JUMP JUMPDEST PUSH1 0x0 PUSH1 0xC SLOAD SWAP1 POP SWAP1 JUMP JUMPDEST PUSH1 0x0 DUP1 PUSH1 0x0 DUP1 PUSH1 0x10 DUP6 DUP2 SLOAD DUP2 LT PUSH2 0x1769 JUMPI PUSH32 0x4E487B7100000000000000000000000000000000000000000000000000000000 PUSH1 0x0 MSTORE PUSH1 0x32 PUSH1 0x4 MSTORE PUSH1 0x24 PUSH1 0x0 REVERT JUMPDEST SWAP1 PUSH1 0x0 MSTORE PUSH1 0x20 PUSH1 0x0 KECCAK256 SWAP1 PUSH1 0x3 MUL ADD PUSH1 0x40 MLOAD DUP1 PUSH1 0x60 ADD PUSH1 0x40 MSTORE SWAP1 DUP2 PUSH1 0x0 DUP3 ADD SLOAD DUP2 MSTORE PUSH1 0x20 ADD PUSH1 0x1 DUP3 ADD SLOAD DUP2 MSTORE PUSH1 0x20 ADD PUSH1 0x2 DUP3 ADD SLOAD DUP2 MSTORE POP POP SWAP1 POP DUP1 PUSH1 0x0 ADD MLOAD DUP2 PUSH1 0x20 ADD MLOAD DUP3 PUSH1 0x40 ADD MLOAD SWAP4 POP SWAP4 POP SWAP4 POP POP SWAP2 SWAP4 SWAP1 SWAP3 POP JUMP JUMPDEST PUSH1 0x0 PUSH32 0x780E9D6300000000000000000000000000000000000000000000000000000000 PUSH28 0xFFFFFFFFFFFFFFFFFFFFFFFFFFFFFFFFFFFFFFFFFFFFFFFFFFFFFFFF NOT AND DUP3 PUSH28 0xFFFFFFFFFFFFFFFFFFFFFFFFFFFFFFFFFFFFFFFFFFFFFFFFFFFFFFFF NOT AND EQ DUP1 PUSH2 0x1832 JUMPI POP PUSH2 0x1831 DUP3 PUSH2 0x2853 JUMP JUMPDEST JUMPDEST SWAP1 POP SWAP2 SWAP1 POP JUMP JUMPDEST PUSH2 0x1842 DUP2 PUSH2 0x1FB8 JUMP JUMPDEST PUSH2 0x1881 JUMPI PUSH1 0x40 MLOAD PUSH32 0x8C379A000000000000000000000000000000000000000000000000000000000 DUP2 MSTORE PUSH1 0x4 ADD PUSH2 0x1878 SWAP1 PUSH2 0x4732 JUMP JUMPDEST PUSH1 0x40 MLOAD DUP1 SWAP2 SUB SWAP1 REVERT JUMPDEST POP JUMP JUMPDEST PUSH1 0x0 CALLER SWAP1 POP SWAP1 JUMP JUMPDEST DUP2 PUSH1 0x5 PUSH1 0x0 DUP4 DUP2 MSTORE PUSH1 0x20 ADD SWAP1 DUP2 MSTORE PUSH1 0x20 ADD PUSH1 0x0 KECCAK256 PUSH1 0x0 PUSH2 0x100 EXP DUP2 SLOAD DUP2 PUSH20 0xFFFFFFFFFFFFFFFFFFFFFFFFFFFFFFFFFFFFFFFF MUL NOT AND SWAP1 DUP4 PUSH20 0xFFFFFFFFFFFFFFFFFFFFFFFFFFFFFFFFFFFFFFFF AND MUL OR SWAP1 SSTORE POP DUP1 DUP3 PUSH20 0xFFFFFFFFFFFFFFFFFFFFFFFFFFFFFFFFFFFFFFFF AND PUSH2 0x18FF DUP4 PUSH2 0xDB5 JUMP JUMPDEST PUSH20 0xFFFFFFFFFFFFFFFFFFFFFFFFFFFFFFFFFFFFFFFF AND PUSH32 0x8C5BE1E5EBEC7D5BD14F71427D1E84F3DD0314C0F7B2291E5B200AC8C7C3B925 PUSH1 0x40 MLOAD PUSH1 0x40 MLOAD DUP1 SWAP2 SUB SWAP1 LOG4 POP POP JUMP JUMPDEST PUSH2 0x198F DUP2 PUSH1 0x0 DUP2 MLOAD DUP2 LT PUSH2 0x1982 JUMPI PUSH32 0x4E487B7100000000000000000000000000000000000000000000000000000000 PUSH1 0x0 MSTORE PUSH1 0x32 PUSH1 0x4 MSTORE PUSH1 0x24 PUSH1 0x0 REVERT JUMPDEST PUSH1 0x20 MUL PUSH1 0x20 ADD ADD MLOAD PUSH2 0x2935 JUMP JUMPDEST POP POP JUMP JUMPDEST PUSH1 0x0 DUP1 PUSH2 0x199F DUP4 PUSH2 0xDB5 JUMP JUMPDEST SWAP1 POP DUP1 PUSH20 0xFFFFFFFFFFFFFFFFFFFFFFFFFFFFFFFFFFFFFFFF AND DUP5 PUSH20 0xFFFFFFFFFFFFFFFFFFFFFFFFFFFFFFFFFFFFFFFF AND EQ DUP1 PUSH2 0x19E1 JUMPI POP PUSH2 0x19E0 DUP2 DUP6 PUSH2 0x1607 JUMP JUMPDEST JUMPDEST DUP1 PUSH2 0x1A1F JUMPI POP DUP4 PUSH20 0xFFFFFFFFFFFFFFFFFFFFFFFFFFFFFFFFFFFFFFFF AND PUSH2 0x1A07 DUP5 PUSH2 0x9A5 JUMP JUMPDEST PUSH20 0xFFFFFFFFFFFFFFFFFFFFFFFFFFFFFFFFFFFFFFFF AND EQ JUMPDEST SWAP2 POP POP SWAP3 SWAP2 POP POP JUMP JUMPDEST DUP3 PUSH20 0xFFFFFFFFFFFFFFFFFFFFFFFFFFFFFFFFFFFFFFFF AND PUSH2 0x1A48 DUP3 PUSH2 0xDB5 JUMP JUMPDEST PUSH20 0xFFFFFFFFFFFFFFFFFFFFFFFFFFFFFFFFFFFFFFFF AND EQ PUSH2 0x1A9E JUMPI PUSH1 0x40 MLOAD PUSH32 0x8C379A000000000000000000000000000000000000000000000000000000000 DUP2 MSTORE PUSH1 0x4 ADD PUSH2 0x1A95 SWAP1 PUSH2 0x4632 JUMP JUMPDEST PUSH1 0x40 MLOAD DUP1 SWAP2 SUB SWAP1 REVERT JUMPDEST PUSH1 0x0 PUSH20 0xFFFFFFFFFFFFFFFFFFFFFFFFFFFFFFFFFFFFFFFF AND DUP3 PUSH20 0xFFFFFFFFFFFFFFFFFFFFFFFFFFFFFFFFFFFFFFFF AND EQ ISZERO PUSH2 0x1B0E JUMPI PUSH1 0x40 MLOAD PUSH32 0x8C379A000000000000000000000000000000000000000000000000000000000 DUP2 MSTORE PUSH1 0x4 ADD PUSH2 0x1B05 SWAP1 PUSH2 0x4672 JUMP JUMPDEST PUSH1 0x40 MLOAD DUP1 SWAP2 SUB SWAP1 REVERT JUMPDEST PUSH2 0x1B19 DUP4 DUP4 DUP4 PUSH2 0x2A33 JUMP JUMPDEST PUSH2 0x1B24 PUSH1 0x0 DUP3 PUSH2 0x188C JUMP JUMPDEST PUSH1 0x1 PUSH1 0x4 PUSH1 0x0 DUP6 PUSH20 0xFFFFFFFFFFFFFFFFFFFFFFFFFFFFFFFFFFFFFFFF AND PUSH20 0xFFFFFFFFFFFFFFFFFFFFFFFFFFFFFFFFFFFFFFFF AND DUP2 MSTORE PUSH1 0x20 ADD SWAP1 DUP2 MSTORE PUSH1 0x20 ADD PUSH1 0x0 KECCAK256 PUSH1 0x0 DUP3 DUP3 SLOAD PUSH2 0x1B74 SWAP2 SWAP1 PUSH2 0x4A50 JUMP JUMPDEST SWAP3 POP POP DUP2 SWAP1 SSTORE POP PUSH1 0x1 PUSH1 0x4 PUSH1 0x0 DUP5 PUSH20 0xFFFFFFFFFFFFFFFFFFFFFFFFFFFFFFFFFFFFFFFF AND PUSH20 0xFFFFFFFFFFFFFFFFFFFFFFFFFFFFFFFFFFFFFFFF AND DUP2 MSTORE PUSH1 0x20 ADD SWAP1 DUP2 MSTORE PUSH1 0x20 ADD PUSH1 0x0 KECCAK256 PUSH1 0x0 DUP3 DUP3 SLOAD PUSH2 0x1BCB SWAP2 SWAP1 PUSH2 0x48FD JUMP JUMPDEST SWAP3 POP POP DUP2 SWAP1 SSTORE POP DUP2 PUSH1 0x3 PUSH1 0x0 DUP4 DUP2 MSTORE PUSH1 0x20 ADD SWAP1 DUP2 MSTORE PUSH1 0x20 ADD PUSH1 0x0 KECCAK256 PUSH1 0x0 PUSH2 0x100 EXP DUP2 SLOAD DUP2 PUSH20 0xFFFFFFFFFFFFFFFFFFFFFFFFFFFFFFFFFFFFFFFF MUL NOT AND SWAP1 DUP4 PUSH20 0xFFFFFFFFFFFFFFFFFFFFFFFFFFFFFFFFFFFFFFFF AND MUL OR SWAP1 SSTORE POP DUP1 DUP3 PUSH20 0xFFFFFFFFFFFFFFFFFFFFFFFFFFFFFFFFFFFFFFFF AND DUP5 PUSH20 0xFFFFFFFFFFFFFFFFFFFFFFFFFFFFFFFFFFFFFFFF AND PUSH32 0xDDF252AD1BE2C89B69C2B068FC378DAA952BA7F163C4A11628F55A4DF523B3EF PUSH1 0x40 MLOAD PUSH1 0x40 MLOAD DUP1 SWAP2 SUB SWAP1 LOG4 PUSH2 0x1C8A DUP4 DUP4 DUP4 PUSH2 0x2B47 JUMP JUMPDEST POP POP POP JUMP JUMPDEST PUSH2 0x1C97 PUSH2 0x1884 JUMP JUMPDEST PUSH20 0xFFFFFFFFFFFFFFFFFFFFFFFFFFFFFFFFFFFFFFFF AND PUSH2 0x1CB5 PUSH2 0xF6B JUMP JUMPDEST PUSH20 0xFFFFFFFFFFFFFFFFFFFFFFFFFFFFFFFFFFFFFFFF AND EQ PUSH2 0x1D0B JUMPI PUSH1 0x40 MLOAD PUSH32 0x8C379A000000000000000000000000000000000000000000000000000000000 DUP2 MSTORE PUSH1 0x4 ADD PUSH2 0x1D02 SWAP1 PUSH2 0x4712 JUMP JUMPDEST PUSH1 0x40 MLOAD DUP1 SWAP2 SUB SWAP1 REVERT JUMPDEST JUMP JUMPDEST PUSH1 0x0 DUP1 PUSH1 0x0 SWAP1 SLOAD SWAP1 PUSH2 0x100 EXP SWAP1 DIV PUSH20 0xFFFFFFFFFFFFFFFFFFFFFFFFFFFFFFFFFFFFFFFF AND SWAP1 POP DUP2 PUSH1 0x0 DUP1 PUSH2 0x100 EXP DUP2 SLOAD DUP2 PUSH20 0xFFFFFFFFFFFFFFFFFFFFFFFFFFFFFFFFFFFFFFFF MUL NOT AND SWAP1 DUP4 PUSH20 0xFFFFFFFFFFFFFFFFFFFFFFFFFFFFFFFFFFFFFFFF AND MUL OR SWAP1 SSTORE POP DUP2 PUSH20 0xFFFFFFFFFFFFFFFFFFFFFFFFFFFFFFFFFFFFFFFF AND DUP2 PUSH20 0xFFFFFFFFFFFFFFFFFFFFFFFFFFFFFFFFFFFFFFFF AND PUSH32 0x8BE0079C531659141344CD1FD0A4F28419497F9722A3DAAFE3B4186F6B6457E0 PUSH1 0x40 MLOAD PUSH1 0x40 MLOAD DUP1 SWAP2 SUB SWAP1 LOG3 POP POP JUMP JUMPDEST PUSH2 0x1DEB DUP3 DUP3 PUSH1 0x40 MLOAD DUP1 PUSH1 0x20 ADD PUSH1 0x40 MSTORE DUP1 PUSH1 0x0 DUP2 MSTORE POP PUSH2 0x2B4C JUMP JUMPDEST POP POP JUMP JUMPDEST DUP2 PUSH20 0xFFFFFFFFFFFFFFFFFFFFFFFFFFFFFFFFFFFFFFFF AND DUP4 PUSH20 0xFFFFFFFFFFFFFFFFFFFFFFFFFFFFFFFFFFFFFFFF AND EQ ISZERO PUSH2 0x1E5E JUMPI PUSH1 0x40 MLOAD PUSH32 0x8C379A000000000000000000000000000000000000000000000000000000000 DUP2 MSTORE PUSH1 0x4 ADD PUSH2 0x1E55 SWAP1 PUSH2 0x4692 JUMP JUMPDEST PUSH1 0x40 MLOAD DUP1 SWAP2 SUB SWAP1 REVERT JUMPDEST DUP1 PUSH1 0x6 PUSH1 0x0 DUP6 PUSH20 0xFFFFFFFFFFFFFFFFFFFFFFFFFFFFFFFFFFFFFFFF AND PUSH20 0xFFFFFFFFFFFFFFFFFFFFFFFFFFFFFFFFFFFFFFFF AND DUP2 MSTORE PUSH1 0x20 ADD SWAP1 DUP2 MSTORE PUSH1 0x20 ADD PUSH1 0x0 KECCAK256 PUSH1 0x0 DUP5 PUSH20 0xFFFFFFFFFFFFFFFFFFFFFFFFFFFFFFFFFFFFFFFF AND PUSH20 0xFFFFFFFFFFFFFFFFFFFFFFFFFFFFFFFFFFFFFFFF AND DUP2 MSTORE PUSH1 0x20 ADD SWAP1 DUP2 MSTORE PUSH1 0x20 ADD PUSH1 0x0 KECCAK256 PUSH1 0x0 PUSH2 0x100 EXP DUP2 SLOAD DUP2 PUSH1 0xFF MUL NOT AND SWAP1 DUP4 ISZERO ISZERO MUL OR SWAP1 SSTORE POP DUP2 PUSH20 0xFFFFFFFFFFFFFFFFFFFFFFFFFFFFFFFFFFFFFFFF AND DUP4 PUSH20 0xFFFFFFFFFFFFFFFFFFFFFFFFFFFFFFFFFFFFFFFF AND PUSH32 0x17307EAB39AB6107E8899845AD3D59BD9653F200F220920489CA2B5937696C31 DUP4 PUSH1 0x40 MLOAD PUSH2 0x1F4F SWAP2 SWAP1 PUSH2 0x44F2 JUMP JUMPDEST PUSH1 0x40 MLOAD DUP1 SWAP2 SUB SWAP1 LOG3 POP POP POP JUMP JUMPDEST PUSH2 0x1F67 DUP5 DUP5 DUP5 PUSH2 0x1A28 JUMP JUMPDEST PUSH2 0x1F73 DUP5 DUP5 DUP5 DUP5 PUSH2 0x2BA7 JUMP JUMPDEST PUSH2 0x1FB2 JUMPI PUSH1 0x40 MLOAD PUSH32 0x8C379A000000000000000000000000000000000000000000000000000000000 DUP2 MSTORE PUSH1 0x4 ADD PUSH2 0x1FA9 SWAP1 PUSH2 0x45F2 JUMP JUMPDEST PUSH1 0x40 MLOAD DUP1 SWAP2 SUB SWAP1 REVERT JUMPDEST POP POP POP POP JUMP JUMPDEST PUSH1 0x0 DUP1 PUSH20 0xFFFFFFFFFFFFFFFFFFFFFFFFFFFFFFFFFFFFFFFF AND PUSH1 0x3 PUSH1 0x0 DUP5 DUP2 MSTORE PUSH1 0x20 ADD SWAP1 DUP2 MSTORE PUSH1 0x20 ADD PUSH1 0x0 KECCAK256 PUSH1 0x0 SWAP1 SLOAD SWAP1 PUSH2 0x100 EXP SWAP1 DIV PUSH20 0xFFFFFFFFFFFFFFFFFFFFFFFFFFFFFFFFFFFFFFFF AND PUSH20 0xFFFFFFFFFFFFFFFFFFFFFFFFFFFFFFFFFFFFFFFF AND EQ ISZERO SWAP1 POP SWAP2 SWAP1 POP JUMP JUMPDEST PUSH1 0x0 DUP1 PUSH1 0x0 JUMPDEST PUSH1 0x10 DUP1 SLOAD SWAP1 POP DUP2 LT ISZERO PUSH2 0x2172 JUMPI PUSH1 0x10 DUP2 DUP2 SLOAD DUP2 LT PUSH2 0x2071 JUMPI PUSH32 0x4E487B7100000000000000000000000000000000000000000000000000000000 PUSH1 0x0 MSTORE PUSH1 0x32 PUSH1 0x4 MSTORE PUSH1 0x24 PUSH1 0x0 REVERT JUMPDEST SWAP1 PUSH1 0x0 MSTORE PUSH1 0x20 PUSH1 0x0 KECCAK256 SWAP1 PUSH1 0x3 MUL ADD PUSH1 0x0 ADD SLOAD DUP5 LT ISZERO DUP1 ISZERO PUSH2 0x20DC JUMPI POP PUSH1 0x10 DUP2 DUP2 SLOAD DUP2 LT PUSH2 0x20C7 JUMPI PUSH32 0x4E487B7100000000000000000000000000000000000000000000000000000000 PUSH1 0x0 MSTORE PUSH1 0x32 PUSH1 0x4 MSTORE PUSH1 0x24 PUSH1 0x0 REVERT JUMPDEST SWAP1 PUSH1 0x0 MSTORE PUSH1 0x20 PUSH1 0x0 KECCAK256 SWAP1 PUSH1 0x3 MUL ADD PUSH1 0x1 ADD SLOAD DUP5 LT JUMPDEST ISZERO PUSH2 0x215F JUMPI PUSH1 0x10 DUP2 DUP2 SLOAD DUP2 LT PUSH2 0x211B JUMPI PUSH32 0x4E487B7100000000000000000000000000000000000000000000000000000000 PUSH1 0x0 MSTORE PUSH1 0x32 PUSH1 0x4 MSTORE PUSH1 0x24 PUSH1 0x0 REVERT JUMPDEST SWAP1 PUSH1 0x0 MSTORE PUSH1 0x20 PUSH1 0x0 KECCAK256 SWAP1 PUSH1 0x3 MUL ADD PUSH1 0x2 ADD SLOAD DUP5 PUSH1 0x40 MLOAD PUSH1 0x20 ADD PUSH2 0x213F SWAP3 SWAP2 SWAP1 PUSH2 0x47CD JUMP JUMPDEST PUSH1 0x40 MLOAD PUSH1 0x20 DUP2 DUP4 SUB SUB DUP2 MSTORE SWAP1 PUSH1 0x40 MSTORE DUP1 MLOAD SWAP1 PUSH1 0x20 ADD KECCAK256 PUSH1 0x0 SHR SWAP3 POP PUSH1 0x1 SWAP2 POP JUMPDEST DUP1 DUP1 PUSH2 0x216A SWAP1 PUSH2 0x4C10 JUMP JUMPDEST SWAP2 POP POP PUSH2 0x202A JUMP JUMPDEST POP SWAP2 POP SWAP2 JUMP JUMPDEST PUSH1 0x60 PUSH2 0x2182 PUSH2 0x3914 JUMP JUMPDEST PUSH1 0x40 MLOAD DUP1 PUSH1 0xA0 ADD PUSH1 0x40 MSTORE DUP1 PUSH1 0x62 DUP2 MSTORE PUSH1 0x20 ADD PUSH2 0x537C PUSH1 0x62 SWAP2 CODECOPY DUP2 PUSH1 0x0 PUSH1 0x4 DUP2 LT PUSH2 0x21D5 JUMPI PUSH32 0x4E487B7100000000000000000000000000000000000000000000000000000000 PUSH1 0x0 MSTORE PUSH1 0x32 PUSH1 0x4 MSTORE PUSH1 0x24 PUSH1 0x0 REVERT JUMPDEST PUSH1 0x20 MUL ADD DUP2 SWAP1 MSTORE POP DUP3 ISZERO PUSH2 0x24FD JUMPI PUSH1 0x40 MLOAD DUP1 PUSH1 0xC0 ADD PUSH1 0x40 MSTORE DUP1 PUSH1 0x8D DUP2 MSTORE PUSH1 0x20 ADD PUSH2 0x54BB PUSH1 0x8D SWAP2 CODECOPY DUP2 PUSH1 0x1 PUSH1 0x4 DUP2 LT PUSH2 0x2236 JUMPI PUSH32 0x4E487B7100000000000000000000000000000000000000000000000000000000 PUSH1 0x0 MSTORE PUSH1 0x32 PUSH1 0x4 MSTORE PUSH1 0x24 PUSH1 0x0 REVERT JUMPDEST PUSH1 0x20 MUL ADD DUP2 SWAP1 MSTORE POP PUSH2 0x2246 PUSH2 0x393B JUMP JUMPDEST PUSH1 0x0 PUSH2 0x2253 DUP7 PUSH1 0x20 PUSH2 0x2D3E JUMP JUMPDEST SWAP1 POP PUSH1 0x0 JUMPDEST PUSH1 0x6 DUP2 PUSH1 0xFF AND LT ISZERO PUSH2 0x2315 JUMPI PUSH1 0x0 PUSH2 0x229B DUP4 PUSH1 0xB DUP5 PUSH2 0x2277 SWAP2 SWAP1 PUSH2 0x4A15 JUMP JUMPDEST PUSH1 0xFF AND PUSH1 0xB PUSH1 0x1 DUP7 PUSH2 0x2289 SWAP2 SWAP1 PUSH2 0x4953 JUMP JUMPDEST PUSH2 0x2293 SWAP2 SWAP1 PUSH2 0x4A15 JUMP JUMPDEST PUSH1 0xFF AND PUSH2 0x3038 JUMP JUMPDEST SWAP1 POP DUP1 PUSH1 0x40 MLOAD PUSH1 0x20 ADD PUSH2 0x22AE SWAP2 SWAP1 PUSH2 0x4435 JUMP JUMPDEST PUSH1 0x40 MLOAD PUSH1 0x20 DUP2 DUP4 SUB SUB DUP2 MSTORE SWAP1 PUSH1 0x40 MSTORE DUP5 DUP4 PUSH1 0xFF AND PUSH1 0x6 DUP2 LT PUSH2 0x22F9 JUMPI PUSH32 0x4E487B7100000000000000000000000000000000000000000000000000000000 PUSH1 0x0 MSTORE PUSH1 0x32 PUSH1 0x4 MSTORE PUSH1 0x24 PUSH1 0x0 REVERT JUMPDEST PUSH1 0x20 MUL ADD DUP2 SWAP1 MSTORE POP POP DUP1 DUP1 PUSH2 0x230D SWAP1 PUSH2 0x4C59 JUMP JUMPDEST SWAP2 POP POP PUSH2 0x2258 JUMP JUMPDEST POP DUP2 PUSH1 0x0 PUSH1 0x6 DUP2 LT PUSH2 0x2350 JUMPI PUSH32 0x4E487B7100000000000000000000000000000000000000000000000000000000 PUSH1 0x0 MSTORE PUSH1 0x32 PUSH1 0x4 MSTORE PUSH1 0x24 PUSH1 0x0 REVERT JUMPDEST PUSH1 0x20 MUL ADD MLOAD DUP3 PUSH1 0x1 PUSH1 0x6 DUP2 LT PUSH2 0x238F JUMPI PUSH32 0x4E487B7100000000000000000000000000000000000000000000000000000000 PUSH1 0x0 MSTORE PUSH1 0x32 PUSH1 0x4 MSTORE PUSH1 0x24 PUSH1 0x0 REVERT JUMPDEST PUSH1 0x20 MUL ADD MLOAD DUP4 PUSH1 0x2 PUSH1 0x6 DUP2 LT PUSH2 0x23CE JUMPI PUSH32 0x4E487B7100000000000000000000000000000000000000000000000000000000 PUSH1 0x0 MSTORE PUSH1 0x32 PUSH1 0x4 MSTORE PUSH1 0x24 PUSH1 0x0 REVERT JUMPDEST PUSH1 0x20 MUL ADD MLOAD DUP5 PUSH1 0x3 PUSH1 0x6 DUP2 LT PUSH2 0x240D JUMPI PUSH32 0x4E487B7100000000000000000000000000000000000000000000000000000000 PUSH1 0x0 MSTORE PUSH1 0x32 PUSH1 0x4 MSTORE PUSH1 0x24 PUSH1 0x0 REVERT JUMPDEST PUSH1 0x20 MUL ADD MLOAD DUP6 PUSH1 0x4 PUSH1 0x6 DUP2 LT PUSH2 0x244C JUMPI PUSH32 0x4E487B7100000000000000000000000000000000000000000000000000000000 PUSH1 0x0 MSTORE PUSH1 0x32 PUSH1 0x4 MSTORE PUSH1 0x24 PUSH1 0x0 REVERT JUMPDEST PUSH1 0x20 MUL ADD MLOAD DUP7 PUSH1 0x5 PUSH1 0x6 DUP2 LT PUSH2 0x248B JUMPI PUSH32 0x4E487B7100000000000000000000000000000000000000000000000000000000 PUSH1 0x0 MSTORE PUSH1 0x32 PUSH1 0x4 MSTORE PUSH1 0x24 PUSH1 0x0 REVERT JUMPDEST PUSH1 0x20 MUL ADD MLOAD PUSH1 0x40 MLOAD PUSH1 0x20 ADD PUSH2 0x24A5 SWAP7 SWAP6 SWAP5 SWAP4 SWAP3 SWAP2 SWAP1 PUSH2 0x4342 JUMP JUMPDEST PUSH1 0x40 MLOAD PUSH1 0x20 DUP2 DUP4 SUB SUB DUP2 MSTORE SWAP1 PUSH1 0x40 MSTORE DUP4 PUSH1 0x2 PUSH1 0x4 DUP2 LT PUSH2 0x24EE JUMPI PUSH32 0x4E487B7100000000000000000000000000000000000000000000000000000000 PUSH1 0x0 MSTORE PUSH1 0x32 PUSH1 0x4 MSTORE PUSH1 0x24 PUSH1 0x0 REVERT JUMPDEST PUSH1 0x20 MUL ADD DUP2 SWAP1 MSTORE POP POP POP PUSH2 0x25D1 JUMP JUMPDEST PUSH1 0x40 MLOAD DUP1 PUSH1 0xC0 ADD PUSH1 0x40 MSTORE DUP1 PUSH1 0x9D DUP2 MSTORE PUSH1 0x20 ADD PUSH2 0x541E PUSH1 0x9D SWAP2 CODECOPY DUP2 PUSH1 0x1 PUSH1 0x4 DUP2 LT PUSH2 0x2550 JUMPI PUSH32 0x4E487B7100000000000000000000000000000000000000000000000000000000 PUSH1 0x0 MSTORE PUSH1 0x32 PUSH1 0x4 MSTORE PUSH1 0x24 PUSH1 0x0 REVERT JUMPDEST PUSH1 0x20 MUL ADD DUP2 SWAP1 MSTORE POP PUSH1 0x40 MLOAD DUP1 PUSH1 0x40 ADD PUSH1 0x40 MSTORE DUP1 PUSH1 0x1 DUP2 MSTORE PUSH1 0x20 ADD PUSH32 0x3F00000000000000000000000000000000000000000000000000000000000000 DUP2 MSTORE POP DUP2 PUSH1 0x2 PUSH1 0x4 DUP2 LT PUSH2 0x25C8 JUMPI PUSH32 0x4E487B7100000000000000000000000000000000000000000000000000000000 PUSH1 0x0 MSTORE PUSH1 0x32 PUSH1 0x4 MSTORE PUSH1 0x24 PUSH1 0x0 REVERT JUMPDEST PUSH1 0x20 MUL ADD DUP2 SWAP1 MSTORE POP JUMPDEST PUSH1 0x40 MLOAD DUP1 PUSH1 0x40 ADD PUSH1 0x40 MSTORE DUP1 PUSH1 0xD DUP2 MSTORE PUSH1 0x20 ADD PUSH32 0x3C2F746578743E3C2F7376673E00000000000000000000000000000000000000 DUP2 MSTORE POP DUP2 PUSH1 0x3 PUSH1 0x4 DUP2 LT PUSH2 0x2641 JUMPI PUSH32 0x4E487B7100000000000000000000000000000000000000000000000000000000 PUSH1 0x0 MSTORE PUSH1 0x32 PUSH1 0x4 MSTORE PUSH1 0x24 PUSH1 0x0 REVERT JUMPDEST PUSH1 0x20 MUL ADD DUP2 SWAP1 MSTORE POP DUP1 PUSH1 0x0 PUSH1 0x4 DUP2 LT PUSH2 0x2683 JUMPI PUSH32 0x4E487B7100000000000000000000000000000000000000000000000000000000 PUSH1 0x0 MSTORE PUSH1 0x32 PUSH1 0x4 MSTORE PUSH1 0x24 PUSH1 0x0 REVERT JUMPDEST PUSH1 0x20 MUL ADD MLOAD DUP2 PUSH1 0x1 PUSH1 0x4 DUP2 LT PUSH2 0x26C2 JUMPI PUSH32 0x4E487B7100000000000000000000000000000000000000000000000000000000 PUSH1 0x0 MSTORE PUSH1 0x32 PUSH1 0x4 MSTORE PUSH1 0x24 PUSH1 0x0 REVERT JUMPDEST PUSH1 0x20 MUL ADD MLOAD DUP3 PUSH1 0x2 PUSH1 0x4 DUP2 LT PUSH2 0x2701 JUMPI PUSH32 0x4E487B7100000000000000000000000000000000000000000000000000000000 PUSH1 0x0 MSTORE PUSH1 0x32 PUSH1 0x4 MSTORE PUSH1 0x24 PUSH1 0x0 REVERT JUMPDEST PUSH1 0x20 MUL ADD MLOAD DUP4 PUSH1 0x3 PUSH1 0x4 DUP2 LT PUSH2 0x2740 JUMPI PUSH32 0x4E487B7100000000000000000000000000000000000000000000000000000000 PUSH1 0x0 MSTORE PUSH1 0x32 PUSH1 0x4 MSTORE PUSH1 0x24 PUSH1 0x0 REVERT JUMPDEST PUSH1 0x20 MUL ADD MLOAD PUSH1 0x40 MLOAD PUSH1 0x20 ADD PUSH2 0x2758 SWAP5 SWAP4 SWAP3 SWAP2 SWAP1 PUSH2 0x4304 JUMP JUMPDEST PUSH1 0x40 MLOAD PUSH1 0x20 DUP2 DUP4 SUB SUB DUP2 MSTORE SWAP1 PUSH1 0x40 MSTORE SWAP2 POP POP SWAP3 SWAP2 POP POP JUMP JUMPDEST PUSH1 0x60 PUSH1 0x0 PUSH1 0x40 MLOAD DUP1 PUSH1 0x40 ADD PUSH1 0x40 MSTORE DUP1 PUSH1 0x1A DUP2 MSTORE PUSH1 0x20 ADD PUSH32 0x646174613A696D6167652F7376672B786D6C3B6261736536342C000000000000 DUP2 MSTORE POP SWAP1 POP PUSH1 0x0 PUSH2 0x27D6 DUP5 PUSH1 0x40 MLOAD PUSH1 0x20 ADD PUSH2 0x27C2 SWAP2 SWAP1 PUSH2 0x42C9 JUMP JUMPDEST PUSH1 0x40 MLOAD PUSH1 0x20 DUP2 DUP4 SUB SUB DUP2 MSTORE SWAP1 PUSH1 0x40 MSTORE PUSH2 0x31A6 JUMP JUMPDEST SWAP1 POP DUP2 DUP2 PUSH1 0x40 MLOAD PUSH1 0x20 ADD PUSH2 0x27EB SWAP3 SWAP2 SWAP1 PUSH2 0x42E0 JUMP JUMPDEST PUSH1 0x40 MLOAD PUSH1 0x20 DUP2 DUP4 SUB SUB DUP2 MSTORE SWAP1 PUSH1 0x40 MSTORE SWAP3 POP POP POP SWAP2 SWAP1 POP JUMP JUMPDEST PUSH1 0x60 PUSH2 0x282D DUP3 PUSH1 0x40 MLOAD PUSH1 0x20 ADD PUSH2 0x2819 SWAP2 SWAP1 PUSH2 0x439A JUMP JUMPDEST PUSH1 0x40 MLOAD PUSH1 0x20 DUP2 DUP4 SUB SUB DUP2 MSTORE SWAP1 PUSH1 0x40 MSTORE PUSH2 0x31A6 JUMP JUMPDEST PUSH1 0x40 MLOAD PUSH1 0x20 ADD PUSH2 0x283D SWAP2 SWAP1 PUSH2 0x43FE JUMP JUMPDEST PUSH1 0x40 MLOAD PUSH1 0x20 DUP2 DUP4 SUB SUB DUP2 MSTORE SWAP1 PUSH1 0x40 MSTORE SWAP1 POP SWAP2 SWAP1 POP JUMP JUMPDEST PUSH1 0x0 PUSH32 0x80AC58CD00000000000000000000000000000000000000000000000000000000 PUSH28 0xFFFFFFFFFFFFFFFFFFFFFFFFFFFFFFFFFFFFFFFFFFFFFFFFFFFFFFFF NOT AND DUP3 PUSH28 0xFFFFFFFFFFFFFFFFFFFFFFFFFFFFFFFFFFFFFFFFFFFFFFFFFFFFFFFF NOT AND EQ DUP1 PUSH2 0x291E JUMPI POP PUSH32 0x5B5E139F00000000000000000000000000000000000000000000000000000000 PUSH28 0xFFFFFFFFFFFFFFFFFFFFFFFFFFFFFFFFFFFFFFFFFFFFFFFFFFFFFFFF NOT AND DUP3 PUSH28 0xFFFFFFFFFFFFFFFFFFFFFFFFFFFFFFFFFFFFFFFFFFFFFFFFFFFFFFFF NOT AND EQ JUMPDEST DUP1 PUSH2 0x292E JUMPI POP PUSH2 0x292D DUP3 PUSH2 0x3330 JUMP JUMPDEST JUMPDEST SWAP1 POP SWAP2 SWAP1 POP JUMP JUMPDEST PUSH1 0x0 PUSH2 0x293F PUSH2 0xB03 JUMP JUMPDEST SWAP1 POP PUSH1 0x0 PUSH1 0x1 PUSH1 0xB SLOAD PUSH2 0x2952 SWAP2 SWAP1 PUSH2 0x48FD JUMP JUMPDEST SWAP1 POP PUSH1 0x0 PUSH1 0x1 DUP4 PUSH2 0x2963 SWAP2 SWAP1 PUSH2 0x48FD JUMP JUMPDEST SWAP1 POP PUSH1 0x10 PUSH1 0x40 MLOAD DUP1 PUSH1 0x60 ADD PUSH1 0x40 MSTORE DUP1 DUP5 DUP2 MSTORE PUSH1 0x20 ADD DUP4 DUP2 MSTORE PUSH1 0x20 ADD DUP7 DUP2 MSTORE POP SWAP1 DUP1 PUSH1 0x1 DUP2 SLOAD ADD DUP1 DUP3 SSTORE DUP1 SWAP2 POP POP PUSH1 0x1 SWAP1 SUB SWAP1 PUSH1 0x0 MSTORE PUSH1 0x20 PUSH1 0x0 KECCAK256 SWAP1 PUSH1 0x3 MUL ADD PUSH1 0x0 SWAP1 SWAP2 SWAP1 SWAP2 SWAP1 SWAP2 POP PUSH1 0x0 DUP3 ADD MLOAD DUP2 PUSH1 0x0 ADD SSTORE PUSH1 0x20 DUP3 ADD MLOAD DUP2 PUSH1 0x1 ADD SSTORE PUSH1 0x40 DUP3 ADD MLOAD DUP2 PUSH1 0x2 ADD SSTORE POP POP DUP3 PUSH1 0xB DUP2 SWAP1 SSTORE POP TIMESTAMP PUSH1 0xE DUP2 SWAP1 SSTORE POP PUSH1 0x0 PUSH1 0xF PUSH1 0x0 PUSH2 0x100 EXP DUP2 SLOAD DUP2 PUSH1 0xFF MUL NOT AND SWAP1 DUP4 ISZERO ISZERO MUL OR SWAP1 SSTORE POP PUSH32 0xA39D9410ABE7578BFBF71501989F175C50A6950B6595718DD8092474541C889B DUP3 DUP3 PUSH1 0x40 MLOAD PUSH2 0x2A25 SWAP3 SWAP2 SWAP1 PUSH2 0x47CD JUMP JUMPDEST PUSH1 0x40 MLOAD DUP1 SWAP2 SUB SWAP1 LOG1 POP POP POP POP JUMP JUMPDEST PUSH2 0x2A3E DUP4 DUP4 DUP4 PUSH2 0x339A JUMP JUMPDEST PUSH1 0x0 PUSH20 0xFFFFFFFFFFFFFFFFFFFFFFFFFFFFFFFFFFFFFFFF AND DUP4 PUSH20 0xFFFFFFFFFFFFFFFFFFFFFFFFFFFFFFFFFFFFFFFF AND EQ ISZERO PUSH2 0x2A81 JUMPI PUSH2 0x2A7C DUP2 PUSH2 0x339F JUMP JUMPDEST PUSH2 0x2AC0 JUMP JUMPDEST DUP2 PUSH20 0xFFFFFFFFFFFFFFFFFFFFFFFFFFFFFFFFFFFFFFFF AND DUP4 PUSH20 0xFFFFFFFFFFFFFFFFFFFFFFFFFFFFFFFFFFFFFFFF AND EQ PUSH2 0x2ABF JUMPI PUSH2 0x2ABE DUP4 DUP3 PUSH2 0x33E8 JUMP JUMPDEST JUMPDEST JUMPDEST PUSH1 0x0 PUSH20 0xFFFFFFFFFFFFFFFFFFFFFFFFFFFFFFFFFFFFFFFF AND DUP3 PUSH20 0xFFFFFFFFFFFFFFFFFFFFFFFFFFFFFFFFFFFFFFFF AND EQ ISZERO PUSH2 0x2B03 JUMPI PUSH2 0x2AFE DUP2 PUSH2 0x3555 JUMP JUMPDEST PUSH2 0x2B42 JUMP JUMPDEST DUP3 PUSH20 0xFFFFFFFFFFFFFFFFFFFFFFFFFFFFFFFFFFFFFFFF AND DUP3 PUSH20 0xFFFFFFFFFFFFFFFFFFFFFFFFFFFFFFFFFFFFFFFF AND EQ PUSH2 0x2B41 JUMPI PUSH2 0x2B40 DUP3 DUP3 PUSH2 0x3698 JUMP JUMPDEST JUMPDEST JUMPDEST POP POP POP JUMP JUMPDEST POP POP POP JUMP JUMPDEST PUSH2 0x2B56 DUP4 DUP4 PUSH2 0x3717 JUMP JUMPDEST PUSH2 0x2B63 PUSH1 0x0 DUP5 DUP5 DUP5 PUSH2 0x2BA7 JUMP JUMPDEST PUSH2 0x2BA2 JUMPI PUSH1 0x40 MLOAD PUSH32 0x8C379A000000000000000000000000000000000000000000000000000000000 DUP2 MSTORE PUSH1 0x4 ADD PUSH2 0x2B99 SWAP1 PUSH2 0x45F2 JUMP JUMPDEST PUSH1 0x40 MLOAD DUP1 SWAP2 SUB SWAP1 REVERT JUMPDEST POP POP POP JUMP JUMPDEST PUSH1 0x0 PUSH2 0x2BC8 DUP5 PUSH20 0xFFFFFFFFFFFFFFFFFFFFFFFFFFFFFFFFFFFFFFFF AND PUSH2 0x38F1 JUMP JUMPDEST ISZERO PUSH2 0x2D31 JUMPI DUP4 PUSH20 0xFFFFFFFFFFFFFFFFFFFFFFFFFFFFFFFFFFFFFFFF AND PUSH4 0x150B7A02 PUSH2 0x2BF1 PUSH2 0x1884 JUMP JUMPDEST DUP8 DUP7 DUP7 PUSH1 0x40 MLOAD DUP6 PUSH4 0xFFFFFFFF AND PUSH1 0xE0 SHL DUP2 MSTORE PUSH1 0x4 ADD PUSH2 0x2C13 SWAP5 SWAP4 SWAP3 SWAP2 SWAP1 PUSH2 0x44A6 JUMP JUMPDEST PUSH1 0x20 PUSH1 0x40 MLOAD DUP1 DUP4 SUB DUP2 PUSH1 0x0 DUP8 DUP1 EXTCODESIZE ISZERO DUP1 ISZERO PUSH2 0x2C2D JUMPI PUSH1 0x0 DUP1 REVERT JUMPDEST POP GAS CALL SWAP3 POP POP POP DUP1 ISZERO PUSH2 0x2C5E JUMPI POP PUSH1 0x40 MLOAD RETURNDATASIZE PUSH1 0x1F NOT PUSH1 0x1F DUP3 ADD AND DUP3 ADD DUP1 PUSH1 0x40 MSTORE POP DUP2 ADD SWAP1 PUSH2 0x2C5B SWAP2 SWAP1 PUSH2 0x3CF8 JUMP JUMPDEST PUSH1 0x1 JUMPDEST PUSH2 0x2CE1 JUMPI RETURNDATASIZE DUP1 PUSH1 0x0 DUP2 EQ PUSH2 0x2C8E JUMPI PUSH1 0x40 MLOAD SWAP2 POP PUSH1 0x1F NOT PUSH1 0x3F RETURNDATASIZE ADD AND DUP3 ADD PUSH1 0x40 MSTORE RETURNDATASIZE DUP3 MSTORE RETURNDATASIZE PUSH1 0x0 PUSH1 0x20 DUP5 ADD RETURNDATACOPY PUSH2 0x2C93 JUMP JUMPDEST PUSH1 0x60 SWAP2 POP JUMPDEST POP PUSH1 0x0 DUP2 MLOAD EQ ISZERO PUSH2 0x2CD9 JUMPI PUSH1 0x40 MLOAD PUSH32 0x8C379A000000000000000000000000000000000000000000000000000000000 DUP2 MSTORE PUSH1 0x4 ADD PUSH2 0x2CD0 SWAP1 PUSH2 0x45F2 JUMP JUMPDEST PUSH1 0x40 MLOAD DUP1 SWAP2 SUB SWAP1 REVERT JUMPDEST DUP1 MLOAD DUP2 PUSH1 0x20 ADD REVERT JUMPDEST PUSH4 0x150B7A02 PUSH1 0xE0 SHL PUSH28 0xFFFFFFFFFFFFFFFFFFFFFFFFFFFFFFFFFFFFFFFFFFFFFFFFFFFFFFFF NOT AND DUP2 PUSH28 0xFFFFFFFFFFFFFFFFFFFFFFFFFFFFFFFFFFFFFFFFFFFFFFFFFFFFFFFF NOT AND EQ SWAP2 POP POP PUSH2 0x2D36 JUMP JUMPDEST PUSH1 0x1 SWAP1 POP JUMPDEST SWAP5 SWAP4 POP POP POP POP JUMP JUMPDEST PUSH1 0x60 PUSH1 0x0 PUSH1 0x2 DUP4 PUSH1 0x2 PUSH2 0x2D51 SWAP2 SWAP1 PUSH2 0x49BB JUMP JUMPDEST PUSH2 0x2D5B SWAP2 SWAP1 PUSH2 0x48FD JUMP JUMPDEST PUSH8 0xFFFFFFFFFFFFFFFF DUP2 GT ISZERO PUSH2 0x2D9A JUMPI PUSH32 0x4E487B7100000000000000000000000000000000000000000000000000000000 PUSH1 0x0 MSTORE PUSH1 0x41 PUSH1 0x4 MSTORE PUSH1 0x24 PUSH1 0x0 REVERT JUMPDEST PUSH1 0x40 MLOAD SWAP1 DUP1 DUP3 MSTORE DUP1 PUSH1 0x1F ADD PUSH1 0x1F NOT AND PUSH1 0x20 ADD DUP3 ADD PUSH1 0x40 MSTORE DUP1 ISZERO PUSH2 0x2DCC JUMPI DUP2 PUSH1 0x20 ADD PUSH1 0x1 DUP3 MUL DUP1 CALLDATASIZE DUP4 CALLDATACOPY DUP1 DUP3 ADD SWAP2 POP POP SWAP1 POP JUMPDEST POP SWAP1 POP PUSH32 0x3000000000000000000000000000000000000000000000000000000000000000 DUP2 PUSH1 0x0 DUP2 MLOAD DUP2 LT PUSH2 0x2E2A JUMPI PUSH32 0x4E487B7100000000000000000000000000000000000000000000000000000000 PUSH1 0x0 MSTORE PUSH1 0x32 PUSH1 0x4 MSTORE PUSH1 0x24 PUSH1 0x0 REVERT JUMPDEST PUSH1 0x20 ADD ADD SWAP1 PUSH31 0xFFFFFFFFFFFFFFFFFFFFFFFFFFFFFFFFFFFFFFFFFFFFFFFFFFFFFFFFFFFFFF NOT AND SWAP1 DUP2 PUSH1 0x0 BYTE SWAP1 MSTORE8 POP PUSH32 0x7800000000000000000000000000000000000000000000000000000000000000 DUP2 PUSH1 0x1 DUP2 MLOAD DUP2 LT PUSH2 0x2EB4 JUMPI PUSH32 0x4E487B7100000000000000000000000000000000000000000000000000000000 PUSH1 0x0 MSTORE PUSH1 0x32 PUSH1 0x4 MSTORE PUSH1 0x24 PUSH1 0x0 REVERT JUMPDEST PUSH1 0x20 ADD ADD SWAP1 PUSH31 0xFFFFFFFFFFFFFFFFFFFFFFFFFFFFFFFFFFFFFFFFFFFFFFFFFFFFFFFFFFFFFF NOT AND SWAP1 DUP2 PUSH1 0x0 BYTE SWAP1 MSTORE8 POP PUSH1 0x0 PUSH1 0x1 DUP5 PUSH1 0x2 PUSH2 0x2EF4 SWAP2 SWAP1 PUSH2 0x49BB JUMP JUMPDEST PUSH2 0x2EFE SWAP2 SWAP1 PUSH2 0x48FD JUMP JUMPDEST SWAP1 POP JUMPDEST PUSH1 0x1 DUP2 GT ISZERO PUSH2 0x2FEA JUMPI PUSH32 0x3031323334353637383961626364656600000000000000000000000000000000 PUSH1 0xF DUP7 AND PUSH1 0x10 DUP2 LT PUSH2 0x2F66 JUMPI PUSH32 0x4E487B7100000000000000000000000000000000000000000000000000000000 PUSH1 0x0 MSTORE PUSH1 0x32 PUSH1 0x4 MSTORE PUSH1 0x24 PUSH1 0x0 REVERT JUMPDEST BYTE PUSH1 0xF8 SHL DUP3 DUP3 DUP2 MLOAD DUP2 LT PUSH2 0x2FA3 JUMPI PUSH32 0x4E487B7100000000000000000000000000000000000000000000000000000000 PUSH1 0x0 MSTORE PUSH1 0x32 PUSH1 0x4 MSTORE PUSH1 0x24 PUSH1 0x0 REVERT JUMPDEST PUSH1 0x20 ADD ADD SWAP1 PUSH31 0xFFFFFFFFFFFFFFFFFFFFFFFFFFFFFFFFFFFFFFFFFFFFFFFFFFFFFFFFFFFFFF NOT AND SWAP1 DUP2 PUSH1 0x0 BYTE SWAP1 MSTORE8 POP PUSH1 0x4 DUP6 SWAP1 SHR SWAP5 POP DUP1 PUSH2 0x2FE3 SWAP1 PUSH2 0x4B83 JUMP JUMPDEST SWAP1 POP PUSH2 0x2F01 JUMP JUMPDEST POP PUSH1 0x0 DUP5 EQ PUSH2 0x302E JUMPI PUSH1 0x40 MLOAD PUSH32 0x8C379A000000000000000000000000000000000000000000000000000000000 DUP2 MSTORE PUSH1 0x4 ADD PUSH2 0x3025 SWAP1 PUSH2 0x45B2 JUMP JUMPDEST PUSH1 0x40 MLOAD DUP1 SWAP2 SUB SWAP1 REVERT JUMPDEST DUP1 SWAP2 POP POP SWAP3 SWAP2 POP POP JUMP JUMPDEST PUSH1 0x60 PUSH1 0x0 DUP5 SWAP1 POP PUSH1 0x0 DUP5 DUP5 PUSH2 0x304D SWAP2 SWAP1 PUSH2 0x4A50 JUMP JUMPDEST PUSH8 0xFFFFFFFFFFFFFFFF DUP2 GT ISZERO PUSH2 0x308C JUMPI PUSH32 0x4E487B7100000000000000000000000000000000000000000000000000000000 PUSH1 0x0 MSTORE PUSH1 0x41 PUSH1 0x4 MSTORE PUSH1 0x24 PUSH1 0x0 REVERT JUMPDEST PUSH1 0x40 MLOAD SWAP1 DUP1 DUP3 MSTORE DUP1 PUSH1 0x1F ADD PUSH1 0x1F NOT AND PUSH1 0x20 ADD DUP3 ADD PUSH1 0x40 MSTORE DUP1 ISZERO PUSH2 0x30BE JUMPI DUP2 PUSH1 0x20 ADD PUSH1 0x1 DUP3 MUL DUP1 CALLDATASIZE DUP4 CALLDATACOPY DUP1 DUP3 ADD SWAP2 POP POP SWAP1 POP JUMPDEST POP SWAP1 POP PUSH1 0x0 DUP6 SWAP1 POP JUMPDEST DUP5 DUP2 LT ISZERO PUSH2 0x3199 JUMPI DUP3 DUP2 DUP2 MLOAD DUP2 LT PUSH2 0x3108 JUMPI PUSH32 0x4E487B7100000000000000000000000000000000000000000000000000000000 PUSH1 0x0 MSTORE PUSH1 0x32 PUSH1 0x4 MSTORE PUSH1 0x24 PUSH1 0x0 REVERT JUMPDEST PUSH1 0x20 ADD ADD MLOAD PUSH1 0xF8 SHR PUSH1 0xF8 SHL DUP3 DUP8 DUP4 PUSH2 0x3120 SWAP2 SWAP1 PUSH2 0x4A50 JUMP JUMPDEST DUP2 MLOAD DUP2 LT PUSH2 0x3157 JUMPI PUSH32 0x4E487B7100000000000000000000000000000000000000000000000000000000 PUSH1 0x0 MSTORE PUSH1 0x32 PUSH1 0x4 MSTORE PUSH1 0x24 PUSH1 0x0 REVERT JUMPDEST PUSH1 0x20 ADD ADD SWAP1 PUSH31 0xFFFFFFFFFFFFFFFFFFFFFFFFFFFFFFFFFFFFFFFFFFFFFFFFFFFFFFFFFFFFFF NOT AND SWAP1 DUP2 PUSH1 0x0 BYTE SWAP1 MSTORE8 POP DUP1 DUP1 PUSH2 0x3191 SWAP1 PUSH2 0x4C10 JUMP JUMPDEST SWAP2 POP POP PUSH2 0x30C7 JUMP JUMPDEST POP DUP1 SWAP3 POP POP POP SWAP4 SWAP3 POP POP POP JUMP JUMPDEST PUSH1 0x60 PUSH1 0x0 DUP3 MLOAD EQ ISZERO PUSH2 0x31C9 JUMPI PUSH1 0x40 MLOAD DUP1 PUSH1 0x20 ADD PUSH1 0x40 MSTORE DUP1 PUSH1 0x0 DUP2 MSTORE POP SWAP1 POP PUSH2 0x332B JUMP JUMPDEST PUSH1 0x0 PUSH1 0x40 MLOAD DUP1 PUSH1 0x60 ADD PUSH1 0x40 MSTORE DUP1 PUSH1 0x40 DUP2 MSTORE PUSH1 0x20 ADD PUSH2 0x53DE PUSH1 0x40 SWAP2 CODECOPY SWAP1 POP PUSH1 0x0 PUSH1 0x3 PUSH1 0x2 DUP6 MLOAD PUSH2 0x31F8 SWAP2 SWAP1 PUSH2 0x48FD JUMP JUMPDEST PUSH2 0x3202 SWAP2 SWAP1 PUSH2 0x498A JUMP JUMPDEST PUSH1 0x4 PUSH2 0x320E SWAP2 SWAP1 PUSH2 0x49BB JUMP JUMPDEST PUSH8 0xFFFFFFFFFFFFFFFF DUP2 GT ISZERO PUSH2 0x324D JUMPI PUSH32 0x4E487B7100000000000000000000000000000000000000000000000000000000 PUSH1 0x0 MSTORE PUSH1 0x41 PUSH1 0x4 MSTORE PUSH1 0x24 PUSH1 0x0 REVERT JUMPDEST PUSH1 0x40 MLOAD SWAP1 DUP1 DUP3 MSTORE DUP1 PUSH1 0x1F ADD PUSH1 0x1F NOT AND PUSH1 0x20 ADD DUP3 ADD PUSH1 0x40 MSTORE DUP1 ISZERO PUSH2 0x327F JUMPI DUP2 PUSH1 0x20 ADD PUSH1 0x1 DUP3 MUL DUP1 CALLDATASIZE DUP4 CALLDATACOPY DUP1 DUP3 ADD SWAP2 POP POP SWAP1 POP JUMPDEST POP SWAP1 POP PUSH1 0x1 DUP3 ADD PUSH1 0x20 DUP3 ADD DUP6 DUP7 MLOAD DUP8 ADD JUMPDEST DUP1 DUP3 LT ISZERO PUSH2 0x32EB JUMPI PUSH1 0x3 DUP3 ADD SWAP2 POP DUP2 MLOAD PUSH1 0x3F DUP2 PUSH1 0x12 SHR AND DUP6 ADD MLOAD DUP5 MSTORE8 PUSH1 0x1 DUP5 ADD SWAP4 POP PUSH1 0x3F DUP2 PUSH1 0xC SHR AND DUP6 ADD MLOAD DUP5 MSTORE8 PUSH1 0x1 DUP5 ADD SWAP4 POP PUSH1 0x3F DUP2 PUSH1 0x6 SHR AND DUP6 ADD MLOAD DUP5 MSTORE8 PUSH1 0x1 DUP5 ADD SWAP4 POP PUSH1 0x3F DUP2 AND DUP6 ADD MLOAD DUP5 MSTORE8 PUSH1 0x1 DUP5 ADD SWAP4 POP POP PUSH2 0x3290 JUMP JUMPDEST POP POP PUSH1 0x3 DUP7 MLOAD MOD PUSH1 0x1 DUP2 EQ PUSH2 0x3307 JUMPI PUSH1 0x2 DUP2 EQ PUSH2 0x331A JUMPI PUSH2 0x3322 JUMP JUMPDEST PUSH1 0x3D PUSH1 0x1 DUP4 SUB MSTORE8 PUSH1 0x3D PUSH1 0x2 DUP4 SUB MSTORE8 PUSH2 0x3322 JUMP JUMPDEST PUSH1 0x3D PUSH1 0x1 DUP4 SUB MSTORE8 JUMPDEST POP POP POP DUP1 SWAP3 POP POP POP JUMPDEST SWAP2 SWAP1 POP JUMP JUMPDEST PUSH1 0x0 PUSH32 0x1FFC9A700000000000000000000000000000000000000000000000000000000 PUSH28 0xFFFFFFFFFFFFFFFFFFFFFFFFFFFFFFFFFFFFFFFFFFFFFFFFFFFFFFFF NOT AND DUP3 PUSH28 0xFFFFFFFFFFFFFFFFFFFFFFFFFFFFFFFFFFFFFFFFFFFFFFFFFFFFFFFF NOT AND EQ SWAP1 POP SWAP2 SWAP1 POP JUMP JUMPDEST POP POP POP JUMP JUMPDEST PUSH1 0x9 DUP1 SLOAD SWAP1 POP PUSH1 0xA PUSH1 0x0 DUP4 DUP2 MSTORE PUSH1 0x20 ADD SWAP1 DUP2 MSTORE PUSH1 0x20 ADD PUSH1 0x0 KECCAK256 DUP2 SWAP1 SSTORE POP PUSH1 0x9 DUP2 SWAP1 DUP1 PUSH1 0x1 DUP2 SLOAD ADD DUP1 DUP3 SSTORE DUP1 SWAP2 POP POP PUSH1 0x1 SWAP1 SUB SWAP1 PUSH1 0x0 MSTORE PUSH1 0x20 PUSH1 0x0 KECCAK256 ADD PUSH1 0x0 SWAP1 SWAP2 SWAP1 SWAP2 SWAP1 SWAP2 POP SSTORE POP JUMP JUMPDEST PUSH1 0x0 PUSH1 0x1 PUSH2 0x33F5 DUP5 PUSH2 0xE95 JUMP JUMPDEST PUSH2 0x33FF SWAP2 SWAP1 PUSH2 0x4A50 JUMP JUMPDEST SWAP1 POP PUSH1 0x0 PUSH1 0x8 PUSH1 0x0 DUP5 DUP2 MSTORE PUSH1 0x20 ADD SWAP1 DUP2 MSTORE PUSH1 0x20 ADD PUSH1 0x0 KECCAK256 SLOAD SWAP1 POP DUP2 DUP2 EQ PUSH2 0x34E4 JUMPI PUSH1 0x0 PUSH1 0x7 PUSH1 0x0 DUP7 PUSH20 0xFFFFFFFFFFFFFFFFFFFFFFFFFFFFFFFFFFFFFFFF AND PUSH20 0xFFFFFFFFFFFFFFFFFFFFFFFFFFFFFFFFFFFFFFFF AND DUP2 MSTORE PUSH1 0x20 ADD SWAP1 DUP2 MSTORE PUSH1 0x20 ADD PUSH1 0x0 KECCAK256 PUSH1 0x0 DUP5 DUP2 MSTORE PUSH1 0x20 ADD SWAP1 DUP2 MSTORE PUSH1 0x20 ADD PUSH1 0x0 KECCAK256 SLOAD SWAP1 POP DUP1 PUSH1 0x7 PUSH1 0x0 DUP8 PUSH20 0xFFFFFFFFFFFFFFFFFFFFFFFFFFFFFFFFFFFFFFFF AND PUSH20 0xFFFFFFFFFFFFFFFFFFFFFFFFFFFFFFFFFFFFFFFF AND DUP2 MSTORE PUSH1 0x20 ADD SWAP1 DUP2 MSTORE PUSH1 0x20 ADD PUSH1 0x0 KECCAK256 PUSH1 0x0 DUP5 DUP2 MSTORE PUSH1 0x20 ADD SWAP1 DUP2 MSTORE PUSH1 0x20 ADD PUSH1 0x0 KECCAK256 DUP2 SWAP1 SSTORE POP DUP2 PUSH1 0x8 PUSH1 0x0 DUP4 DUP2 MSTORE PUSH1 0x20 ADD SWAP1 DUP2 MSTORE PUSH1 0x20 ADD PUSH1 0x0 KECCAK256 DUP2 SWAP1 SSTORE POP POP JUMPDEST PUSH1 0x8 PUSH1 0x0 DUP5 DUP2 MSTORE PUSH1 0x20 ADD SWAP1 DUP2 MSTORE PUSH1 0x20 ADD PUSH1 0x0 KECCAK256 PUSH1 0x0 SWAP1 SSTORE PUSH1 0x7 PUSH1 0x0 DUP6 PUSH20 0xFFFFFFFFFFFFFFFFFFFFFFFFFFFFFFFFFFFFFFFF AND PUSH20 0xFFFFFFFFFFFFFFFFFFFFFFFFFFFFFFFFFFFFFFFF AND DUP2 MSTORE PUSH1 0x20 ADD SWAP1 DUP2 MSTORE PUSH1 0x20 ADD PUSH1 0x0 KECCAK256 PUSH1 0x0 DUP4 DUP2 MSTORE PUSH1 0x20 ADD SWAP1 DUP2 MSTORE PUSH1 0x20 ADD PUSH1 0x0 KECCAK256 PUSH1 0x0 SWAP1 SSTORE POP POP POP POP JUMP JUMPDEST PUSH1 0x0 PUSH1 0x1 PUSH1 0x9 DUP1 SLOAD SWAP1 POP PUSH2 0x3569 SWAP2 SWAP1 PUSH2 0x4A50 JUMP JUMPDEST SWAP1 POP PUSH1 0x0 PUSH1 0xA PUSH1 0x0 DUP5 DUP2 MSTORE PUSH1 0x20 ADD SWAP1 DUP2 MSTORE PUSH1 0x20 ADD PUSH1 0x0 KECCAK256 SLOAD SWAP1 POP PUSH1 0x0 PUSH1 0x9 DUP4 DUP2 SLOAD DUP2 LT PUSH2 0x35BF JUMPI PUSH32 0x4E487B7100000000000000000000000000000000000000000000000000000000 PUSH1 0x0 MSTORE PUSH1 0x32 PUSH1 0x4 MSTORE PUSH1 0x24 PUSH1 0x0 REVERT JUMPDEST SWAP1 PUSH1 0x0 MSTORE PUSH1 0x20 PUSH1 0x0 KECCAK256 ADD SLOAD SWAP1 POP DUP1 PUSH1 0x9 DUP4 DUP2 SLOAD DUP2 LT PUSH2 0x3607 JUMPI PUSH32 0x4E487B7100000000000000000000000000000000000000000000000000000000 PUSH1 0x0 MSTORE PUSH1 0x32 PUSH1 0x4 MSTORE PUSH1 0x24 PUSH1 0x0 REVERT JUMPDEST SWAP1 PUSH1 0x0 MSTORE PUSH1 0x20 PUSH1 0x0 KECCAK256 ADD DUP2 SWAP1 SSTORE POP DUP2 PUSH1 0xA PUSH1 0x0 DUP4 DUP2 MSTORE PUSH1 0x20 ADD SWAP1 DUP2 MSTORE PUSH1 0x20 ADD PUSH1 0x0 KECCAK256 DUP2 SWAP1 SSTORE POP PUSH1 0xA PUSH1 0x0 DUP6 DUP2 MSTORE PUSH1 0x20 ADD SWAP1 DUP2 MSTORE PUSH1 0x20 ADD PUSH1 0x0 KECCAK256 PUSH1 0x0 SWAP1 SSTORE PUSH1 0x9 DUP1 SLOAD DUP1 PUSH2 0x367C JUMPI PUSH32 0x4E487B7100000000000000000000000000000000000000000000000000000000 PUSH1 0x0 MSTORE PUSH1 0x31 PUSH1 0x4 MSTORE PUSH1 0x24 PUSH1 0x0 REVERT JUMPDEST PUSH1 0x1 SWAP1 SUB DUP2 DUP2 SWAP1 PUSH1 0x0 MSTORE PUSH1 0x20 PUSH1 0x0 KECCAK256 ADD PUSH1 0x0 SWAP1 SSTORE SWAP1 SSTORE POP POP POP POP JUMP JUMPDEST PUSH1 0x0 PUSH2 0x36A3 DUP4 PUSH2 0xE95 JUMP JUMPDEST SWAP1 POP DUP2 PUSH1 0x7 PUSH1 0x0 DUP6 PUSH20 0xFFFFFFFFFFFFFFFFFFFFFFFFFFFFFFFFFFFFFFFF AND PUSH20 0xFFFFFFFFFFFFFFFFFFFFFFFFFFFFFFFFFFFFFFFF AND DUP2 MSTORE PUSH1 0x20 ADD SWAP1 DUP2 MSTORE PUSH1 0x20 ADD PUSH1 0x0 KECCAK256 PUSH1 0x0 DUP4 DUP2 MSTORE PUSH1 0x20 ADD SWAP1 DUP2 MSTORE PUSH1 0x20 ADD PUSH1 0x0 KECCAK256 DUP2 SWAP1 SSTORE POP DUP1 PUSH1 0x8 PUSH1 0x0 DUP5 DUP2 MSTORE PUSH1 0x20 ADD SWAP1 DUP2 MSTORE PUSH1 0x20 ADD PUSH1 0x0 KECCAK256 DUP2 SWAP1 SSTORE POP POP POP POP JUMP JUMPDEST PUSH1 0x0 PUSH20 0xFFFFFFFFFFFFFFFFFFFFFFFFFFFFFFFFFFFFFFFF AND DUP3 PUSH20 0xFFFFFFFFFFFFFFFFFFFFFFFFFFFFFFFFFFFFFFFF AND EQ ISZERO PUSH2 0x3787 JUMPI PUSH1 0x40 MLOAD PUSH32 0x8C379A000000000000000000000000000000000000000000000000000000000 DUP2 MSTORE PUSH1 0x4 ADD PUSH2 0x377E SWAP1 PUSH2 0x46F2 JUMP JUMPDEST PUSH1 0x40 MLOAD DUP1 SWAP2 SUB SWAP1 REVERT JUMPDEST PUSH2 0x3790 DUP2 PUSH2 0x1FB8 JUMP JUMPDEST ISZERO PUSH2 0x37D0 JUMPI PUSH1 0x40 MLOAD PUSH32 0x8C379A000000000000000000000000000000000000000000000000000000000 DUP2 MSTORE PUSH1 0x4 ADD PUSH2 0x37C7 SWAP1 PUSH2 0x4652 JUMP JUMPDEST PUSH1 0x40 MLOAD DUP1 SWAP2 SUB SWAP1 REVERT JUMPDEST PUSH2 0x37DC PUSH1 0x0 DUP4 DUP4 PUSH2 0x2A33 JUMP JUMPDEST PUSH1 0x1 PUSH1 0x4 PUSH1 0x0 DUP5 PUSH20 0xFFFFFFFFFFFFFFFFFFFFFFFFFFFFFFFFFFFFFFFF AND PUSH20 0xFFFFFFFFFFFFFFFFFFFFFFFFFFFFFFFFFFFFFFFF AND DUP2 MSTORE PUSH1 0x20 ADD SWAP1 DUP2 MSTORE PUSH1 0x20 ADD PUSH1 0x0 KECCAK256 PUSH1 0x0 DUP3 DUP3 SLOAD PUSH2 0x382C SWAP2 SWAP1 PUSH2 0x48FD JUMP JUMPDEST SWAP3 POP POP DUP2 SWAP1 SSTORE POP DUP2 PUSH1 0x3 PUSH1 0x0 DUP4 DUP2 MSTORE PUSH1 0x20 ADD SWAP1 DUP2 MSTORE PUSH1 0x20 ADD PUSH1 0x0 KECCAK256 PUSH1 0x0 PUSH2 0x100 EXP DUP2 SLOAD DUP2 PUSH20 0xFFFFFFFFFFFFFFFFFFFFFFFFFFFFFFFFFFFFFFFF MUL NOT AND SWAP1 DUP4 PUSH20 0xFFFFFFFFFFFFFFFFFFFFFFFFFFFFFFFFFFFFFFFF AND MUL OR SWAP1 SSTORE POP DUP1 DUP3 PUSH20 0xFFFFFFFFFFFFFFFFFFFFFFFFFFFFFFFFFFFFFFFF AND PUSH1 0x0 PUSH20 0xFFFFFFFFFFFFFFFFFFFFFFFFFFFFFFFFFFFFFFFF AND PUSH32 0xDDF252AD1BE2C89B69C2B068FC378DAA952BA7F163C4A11628F55A4DF523B3EF PUSH1 0x40 MLOAD PUSH1 0x40 MLOAD DUP1 SWAP2 SUB SWAP1 LOG4 PUSH2 0x38ED PUSH1 0x0 DUP4 DUP4 PUSH2 0x2B47 JUMP JUMPDEST POP POP JUMP JUMPDEST PUSH1 0x0 DUP1 DUP3 PUSH20 0xFFFFFFFFFFFFFFFFFFFFFFFFFFFFFFFFFFFFFFFF AND EXTCODESIZE GT SWAP1 POP SWAP2 SWAP1 POP JUMP JUMPDEST PUSH1 0x40 MLOAD DUP1 PUSH1 0x80 ADD PUSH1 0x40 MSTORE DUP1 PUSH1 0x4 SWAP1 JUMPDEST PUSH1 0x60 DUP2 MSTORE PUSH1 0x20 ADD SWAP1 PUSH1 0x1 SWAP1 SUB SWAP1 DUP2 PUSH2 0x3923 JUMPI SWAP1 POP POP SWAP1 JUMP JUMPDEST PUSH1 0x40 MLOAD DUP1 PUSH1 0xC0 ADD PUSH1 0x40 MSTORE DUP1 PUSH1 0x6 SWAP1 JUMPDEST PUSH1 0x60 DUP2 MSTORE PUSH1 0x20 ADD SWAP1 PUSH1 0x1 SWAP1 SUB SWAP1 DUP2 PUSH2 0x394A JUMPI SWAP1 POP POP SWAP1 JUMP JUMPDEST PUSH1 0x0 PUSH2 0x3975 PUSH2 0x3970 DUP5 PUSH2 0x4852 JUMP JUMPDEST PUSH2 0x482D JUMP JUMPDEST SWAP1 POP DUP1 DUP4 DUP3 MSTORE PUSH1 0x20 DUP3 ADD SWAP1 POP DUP3 DUP6 PUSH1 0x20 DUP7 MUL DUP3 ADD GT ISZERO PUSH2 0x3994 JUMPI PUSH1 0x0 DUP1 REVERT JUMPDEST PUSH1 0x0 JUMPDEST DUP6 DUP2 LT ISZERO PUSH2 0x39C4 JUMPI DUP2 PUSH2 0x39AA DUP9 DUP3 PUSH2 0x3AFE JUMP JUMPDEST DUP5 MSTORE PUSH1 0x20 DUP5 ADD SWAP4 POP PUSH1 0x20 DUP4 ADD SWAP3 POP POP PUSH1 0x1 DUP2 ADD SWAP1 POP PUSH2 0x3997 JUMP JUMPDEST POP POP POP SWAP4 SWAP3 POP POP POP JUMP JUMPDEST PUSH1 0x0 PUSH2 0x39E1 PUSH2 0x39DC DUP5 PUSH2 0x487E JUMP JUMPDEST PUSH2 0x482D JUMP JUMPDEST SWAP1 POP DUP3 DUP2 MSTORE PUSH1 0x20 DUP2 ADD DUP5 DUP5 DUP5 ADD GT ISZERO PUSH2 0x39F9 JUMPI PUSH1 0x0 DUP1 REVERT JUMPDEST PUSH2 0x3A04 DUP5 DUP3 DUP6 PUSH2 0x4B41 JUMP JUMPDEST POP SWAP4 SWAP3 POP POP POP JUMP JUMPDEST PUSH1 0x0 DUP2 CALLDATALOAD SWAP1 POP PUSH2 0x3A1B DUP2 PUSH2 0x531F JUMP JUMPDEST SWAP3 SWAP2 POP POP JUMP JUMPDEST PUSH1 0x0 DUP3 PUSH1 0x1F DUP4 ADD SLT PUSH2 0x3A32 JUMPI PUSH1 0x0 DUP1 REVERT JUMPDEST DUP2 CALLDATALOAD PUSH2 0x3A42 DUP5 DUP3 PUSH1 0x20 DUP7 ADD PUSH2 0x3962 JUMP JUMPDEST SWAP2 POP POP SWAP3 SWAP2 POP POP JUMP JUMPDEST PUSH1 0x0 DUP2 CALLDATALOAD SWAP1 POP PUSH2 0x3A5A DUP2 PUSH2 0x5336 JUMP JUMPDEST SWAP3 SWAP2 POP POP JUMP JUMPDEST PUSH1 0x0 DUP2 CALLDATALOAD SWAP1 POP PUSH2 0x3A6F DUP2 PUSH2 0x534D JUMP JUMPDEST SWAP3 SWAP2 POP POP JUMP JUMPDEST PUSH1 0x0 DUP2 MLOAD SWAP1 POP PUSH2 0x3A84 DUP2 PUSH2 0x534D JUMP JUMPDEST SWAP3 SWAP2 POP POP JUMP JUMPDEST PUSH1 0x0 DUP1 DUP4 PUSH1 0x1F DUP5 ADD SLT PUSH2 0x3A9C JUMPI PUSH1 0x0 DUP1 REVERT JUMPDEST DUP3 CALLDATALOAD SWAP1 POP PUSH8 0xFFFFFFFFFFFFFFFF DUP2 GT ISZERO PUSH2 0x3AB5 JUMPI PUSH1 0x0 DUP1 REVERT JUMPDEST PUSH1 0x20 DUP4 ADD SWAP2 POP DUP4 PUSH1 0x1 DUP3 MUL DUP4 ADD GT ISZERO PUSH2 0x3ACD JUMPI PUSH1 0x0 DUP1 REVERT JUMPDEST SWAP3 POP SWAP3 SWAP1 POP JUMP JUMPDEST PUSH1 0x0 DUP3 PUSH1 0x1F DUP4 ADD SLT PUSH2 0x3AE5 JUMPI PUSH1 0x0 DUP1 REVERT JUMPDEST DUP2 CALLDATALOAD PUSH2 0x3AF5 DUP5 DUP3 PUSH1 0x20 DUP7 ADD PUSH2 0x39CE JUMP JUMPDEST SWAP2 POP POP SWAP3 SWAP2 POP POP JUMP JUMPDEST PUSH1 0x0 DUP2 CALLDATALOAD SWAP1 POP PUSH2 0x3B0D DUP2 PUSH2 0x5364 JUMP JUMPDEST SWAP3 SWAP2 POP POP JUMP JUMPDEST PUSH1 0x0 DUP2 MLOAD SWAP1 POP PUSH2 0x3B22 DUP2 PUSH2 0x5364 JUMP JUMPDEST SWAP3 SWAP2 POP POP JUMP JUMPDEST PUSH1 0x0 PUSH1 0x20 DUP3 DUP5 SUB SLT ISZERO PUSH2 0x3B3A JUMPI PUSH1 0x0 DUP1 REVERT JUMPDEST PUSH1 0x0 PUSH2 0x3B48 DUP5 DUP3 DUP6 ADD PUSH2 0x3A0C JUMP JUMPDEST SWAP2 POP POP SWAP3 SWAP2 POP POP JUMP JUMPDEST PUSH1 0x0 DUP1 PUSH1 0x40 DUP4 DUP6 SUB SLT ISZERO PUSH2 0x3B64 JUMPI PUSH1 0x0 DUP1 REVERT JUMPDEST PUSH1 0x0 PUSH2 0x3B72 DUP6 DUP3 DUP7 ADD PUSH2 0x3A0C JUMP JUMPDEST SWAP3 POP POP PUSH1 0x20 PUSH2 0x3B83 DUP6 DUP3 DUP7 ADD PUSH2 0x3A0C JUMP JUMPDEST SWAP2 POP POP SWAP3 POP SWAP3 SWAP1 POP JUMP JUMPDEST PUSH1 0x0 DUP1 PUSH1 0x0 PUSH1 0x60 DUP5 DUP7 SUB SLT ISZERO PUSH2 0x3BA2 JUMPI PUSH1 0x0 DUP1 REVERT JUMPDEST PUSH1 0x0 PUSH2 0x3BB0 DUP7 DUP3 DUP8 ADD PUSH2 0x3A0C JUMP JUMPDEST SWAP4 POP POP PUSH1 0x20 PUSH2 0x3BC1 DUP7 DUP3 DUP8 ADD PUSH2 0x3A0C JUMP JUMPDEST SWAP3 POP POP PUSH1 0x40 PUSH2 0x3BD2 DUP7 DUP3 DUP8 ADD PUSH2 0x3AFE JUMP JUMPDEST SWAP2 POP POP SWAP3 POP SWAP3 POP SWAP3 JUMP JUMPDEST PUSH1 0x0 DUP1 PUSH1 0x0 DUP1 PUSH1 0x80 DUP6 DUP8 SUB SLT ISZERO PUSH2 0x3BF2 JUMPI PUSH1 0x0 DUP1 REVERT JUMPDEST PUSH1 0x0 PUSH2 0x3C00 DUP8 DUP3 DUP9 ADD PUSH2 0x3A0C JUMP JUMPDEST SWAP5 POP POP PUSH1 0x20 PUSH2 0x3C11 DUP8 DUP3 DUP9 ADD PUSH2 0x3A0C JUMP JUMPDEST SWAP4 POP POP PUSH1 0x40 PUSH2 0x3C22 DUP8 DUP3 DUP9 ADD PUSH2 0x3AFE JUMP JUMPDEST SWAP3 POP POP PUSH1 0x60 DUP6 ADD CALLDATALOAD PUSH8 0xFFFFFFFFFFFFFFFF DUP2 GT ISZERO PUSH2 0x3C3F JUMPI PUSH1 0x0 DUP1 REVERT JUMPDEST PUSH2 0x3C4B DUP8 DUP3 DUP9 ADD PUSH2 0x3AD4 JUMP JUMPDEST SWAP2 POP POP SWAP3 SWAP6 SWAP2 SWAP5 POP SWAP3 POP JUMP JUMPDEST PUSH1 0x0 DUP1 PUSH1 0x40 DUP4 DUP6 SUB SLT ISZERO PUSH2 0x3C6A JUMPI PUSH1 0x0 DUP1 REVERT JUMPDEST PUSH1 0x0 PUSH2 0x3C78 DUP6 DUP3 DUP7 ADD PUSH2 0x3A0C JUMP JUMPDEST SWAP3 POP POP PUSH1 0x20 PUSH2 0x3C89 DUP6 DUP3 DUP7 ADD PUSH2 0x3A4B JUMP JUMPDEST SWAP2 POP POP SWAP3 POP SWAP3 SWAP1 POP JUMP JUMPDEST PUSH1 0x0 DUP1 PUSH1 0x40 DUP4 DUP6 SUB SLT ISZERO PUSH2 0x3CA6 JUMPI PUSH1 0x0 DUP1 REVERT JUMPDEST PUSH1 0x0 PUSH2 0x3CB4 DUP6 DUP3 DUP7 ADD PUSH2 0x3A0C JUMP JUMPDEST SWAP3 POP POP PUSH1 0x20 PUSH2 0x3CC5 DUP6 DUP3 DUP7 ADD PUSH2 0x3AFE JUMP JUMPDEST SWAP2 POP POP SWAP3 POP SWAP3 SWAP1 POP JUMP JUMPDEST PUSH1 0x0 PUSH1 0x20 DUP3 DUP5 SUB SLT ISZERO PUSH2 0x3CE1 JUMPI PUSH1 0x0 DUP1 REVERT JUMPDEST PUSH1 0x0 PUSH2 0x3CEF DUP5 DUP3 DUP6 ADD PUSH2 0x3A60 JUMP JUMPDEST SWAP2 POP POP SWAP3 SWAP2 POP POP JUMP JUMPDEST PUSH1 0x0 PUSH1 0x20 DUP3 DUP5 SUB SLT ISZERO PUSH2 0x3D0A JUMPI PUSH1 0x0 DUP1 REVERT JUMPDEST PUSH1 0x0 PUSH2 0x3D18 DUP5 DUP3 DUP6 ADD PUSH2 0x3A75 JUMP JUMPDEST SWAP2 POP POP SWAP3 SWAP2 POP POP JUMP JUMPDEST PUSH1 0x0 DUP1 PUSH1 0x20 DUP4 DUP6 SUB SLT ISZERO PUSH2 0x3D34 JUMPI PUSH1 0x0 DUP1 REVERT JUMPDEST PUSH1 0x0 DUP4 ADD CALLDATALOAD PUSH8 0xFFFFFFFFFFFFFFFF DUP2 GT ISZERO PUSH2 0x3D4E JUMPI PUSH1 0x0 DUP1 REVERT JUMPDEST PUSH2 0x3D5A DUP6 DUP3 DUP7 ADD PUSH2 0x3A8A JUMP JUMPDEST SWAP3 POP SWAP3 POP POP SWAP3 POP SWAP3 SWAP1 POP JUMP JUMPDEST PUSH1 0x0 PUSH1 0x20 DUP3 DUP5 SUB SLT ISZERO PUSH2 0x3D78 JUMPI PUSH1 0x0 DUP1 REVERT JUMPDEST PUSH1 0x0 PUSH2 0x3D86 DUP5 DUP3 DUP6 ADD PUSH2 0x3AFE JUMP JUMPDEST SWAP2 POP POP SWAP3 SWAP2 POP POP JUMP JUMPDEST PUSH1 0x0 PUSH1 0x20 DUP3 DUP5 SUB SLT ISZERO PUSH2 0x3DA1 JUMPI PUSH1 0x0 DUP1 REVERT JUMPDEST PUSH1 0x0 PUSH2 0x3DAF DUP5 DUP3 DUP6 ADD PUSH2 0x3B13 JUMP JUMPDEST SWAP2 POP POP SWAP3 SWAP2 POP POP JUMP JUMPDEST PUSH1 0x0 DUP1 PUSH1 0x40 DUP4 DUP6 SUB SLT ISZERO PUSH2 0x3DCB JUMPI PUSH1 0x0 DUP1 REVERT JUMPDEST PUSH1 0x0 PUSH2 0x3DD9 DUP6 DUP3 DUP7 ADD PUSH2 0x3AFE JUMP JUMPDEST SWAP3 POP POP PUSH1 0x20 DUP4 ADD CALLDATALOAD PUSH8 0xFFFFFFFFFFFFFFFF DUP2 GT ISZERO PUSH2 0x3DF6 JUMPI PUSH1 0x0 DUP1 REVERT JUMPDEST PUSH2 0x3E02 DUP6 DUP3 DUP7 ADD PUSH2 0x3A21 JUMP JUMPDEST SWAP2 POP POP SWAP3 POP SWAP3 SWAP1 POP JUMP JUMPDEST PUSH2 0x3E15 DUP2 PUSH2 0x4A84 JUMP JUMPDEST DUP3 MSTORE POP POP JUMP JUMPDEST PUSH2 0x3E24 DUP2 PUSH2 0x4A96 JUMP JUMPDEST DUP3 MSTORE POP POP JUMP JUMPDEST PUSH2 0x3E33 DUP2 PUSH2 0x4AA2 JUMP JUMPDEST DUP3 MSTORE POP POP JUMP JUMPDEST PUSH1 0x0 PUSH2 0x3E44 DUP3 PUSH2 0x48AF JUMP JUMPDEST PUSH2 0x3E4E DUP2 DUP6 PUSH2 0x48C5 JUMP JUMPDEST SWAP4 POP PUSH2 0x3E5E DUP2 DUP6 PUSH1 0x20 DUP7 ADD PUSH2 0x4B50 JUMP JUMPDEST PUSH2 0x3E67 DUP2 PUSH2 0x4D3F JUMP JUMPDEST DUP5 ADD SWAP2 POP POP SWAP3 SWAP2 POP POP JUMP JUMPDEST PUSH1 0x0 PUSH2 0x3E7D DUP3 PUSH2 0x48BA JUMP JUMPDEST PUSH2 0x3E87 DUP2 DUP6 PUSH2 0x48E1 JUMP JUMPDEST SWAP4 POP PUSH2 0x3E97 DUP2 DUP6 PUSH1 0x20 DUP7 ADD PUSH2 0x4B50 JUMP JUMPDEST PUSH2 0x3EA0 DUP2 PUSH2 0x4D3F JUMP JUMPDEST DUP5 ADD SWAP2 POP POP SWAP3 SWAP2 POP POP JUMP JUMPDEST PUSH1 0x0 PUSH2 0x3EB6 DUP3 PUSH2 0x48BA JUMP JUMPDEST PUSH2 0x3EC0 DUP2 DUP6 PUSH2 0x48F2 JUMP JUMPDEST SWAP4 POP PUSH2 0x3ED0 DUP2 DUP6 PUSH1 0x20 DUP7 ADD PUSH2 0x4B50 JUMP JUMPDEST DUP1 DUP5 ADD SWAP2 POP POP SWAP3 SWAP2 POP POP JUMP JUMPDEST PUSH1 0x0 PUSH2 0x3EE9 PUSH1 0x20 DUP4 PUSH2 0x48E1 JUMP JUMPDEST SWAP2 POP PUSH2 0x3EF4 DUP3 PUSH2 0x4D50 JUMP JUMPDEST PUSH1 0x20 DUP3 ADD SWAP1 POP SWAP2 SWAP1 POP JUMP JUMPDEST PUSH1 0x0 PUSH2 0x3F0C PUSH1 0x2B DUP4 PUSH2 0x48E1 JUMP JUMPDEST SWAP2 POP PUSH2 0x3F17 DUP3 PUSH2 0x4D79 JUMP JUMPDEST PUSH1 0x40 DUP3 ADD SWAP1 POP SWAP2 SWAP1 POP JUMP JUMPDEST PUSH1 0x0 PUSH2 0x3F2F PUSH1 0x32 DUP4 PUSH2 0x48E1 JUMP JUMPDEST SWAP2 POP PUSH2 0x3F3A DUP3 PUSH2 0x4DC8 JUMP JUMPDEST PUSH1 0x40 DUP3 ADD SWAP1 POP SWAP2 SWAP1 POP JUMP JUMPDEST PUSH1 0x0 PUSH2 0x3F52 PUSH1 0x26 DUP4 PUSH2 0x48E1 JUMP JUMPDEST SWAP2 POP PUSH2 0x3F5D DUP3 PUSH2 0x4E17 JUMP JUMPDEST PUSH1 0x40 DUP3 ADD SWAP1 POP SWAP2 SWAP1 POP JUMP JUMPDEST PUSH1 0x0 PUSH2 0x3F75 PUSH1 0x25 DUP4 PUSH2 0x48E1 JUMP JUMPDEST SWAP2 POP PUSH2 0x3F80 DUP3 PUSH2 0x4E66 JUMP JUMPDEST PUSH1 0x40 DUP3 ADD SWAP1 POP SWAP2 SWAP1 POP JUMP JUMPDEST PUSH1 0x0 PUSH2 0x3F98 PUSH1 0x1C DUP4 PUSH2 0x48E1 JUMP JUMPDEST SWAP2 POP PUSH2 0x3FA3 DUP3 PUSH2 0x4EB5 JUMP JUMPDEST PUSH1 0x20 DUP3 ADD SWAP1 POP SWAP2 SWAP1 POP JUMP JUMPDEST PUSH1 0x0 PUSH2 0x3FBB PUSH1 0x8 DUP4 PUSH2 0x48F2 JUMP JUMPDEST SWAP2 POP PUSH2 0x3FC6 DUP3 PUSH2 0x4EDE JUMP JUMPDEST PUSH1 0x8 DUP3 ADD SWAP1 POP SWAP2 SWAP1 POP JUMP JUMPDEST PUSH1 0x0 PUSH2 0x3FDE PUSH1 0xE DUP4 PUSH2 0x48F2 JUMP JUMPDEST SWAP2 POP PUSH2 0x3FE9 DUP3 PUSH2 0x4F07 JUMP JUMPDEST PUSH1 0xE DUP3 ADD SWAP1 POP SWAP2 SWAP1 POP JUMP JUMPDEST PUSH1 0x0 PUSH2 0x4001 PUSH1 0x24 DUP4 PUSH2 0x48E1 JUMP JUMPDEST SWAP2 POP PUSH2 0x400C DUP3 PUSH2 0x4F30 JUMP JUMPDEST PUSH1 0x40 DUP3 ADD SWAP1 POP SWAP2 SWAP1 POP JUMP JUMPDEST PUSH1 0x0 PUSH2 0x4024 PUSH1 0x19 DUP4 PUSH2 0x48E1 JUMP JUMPDEST SWAP2 POP PUSH2 0x402F DUP3 PUSH2 0x4F7F JUMP JUMPDEST PUSH1 0x20 DUP3 ADD SWAP1 POP SWAP2 SWAP1 POP JUMP JUMPDEST PUSH1 0x0 PUSH2 0x4047 PUSH1 0x11 DUP4 PUSH2 0x48F2 JUMP JUMPDEST SWAP2 POP PUSH2 0x4052 DUP3 PUSH2 0x4FA8 JUMP JUMPDEST PUSH1 0x11 DUP3 ADD SWAP1 POP SWAP2 SWAP1 POP JUMP JUMPDEST PUSH1 0x0 PUSH2 0x406A PUSH1 0x29 DUP4 PUSH2 0x48E1 JUMP JUMPDEST SWAP2 POP PUSH2 0x4075 DUP3 PUSH2 0x4FD1 JUMP JUMPDEST PUSH1 0x40 DUP3 ADD SWAP1 POP SWAP2 SWAP1 POP JUMP JUMPDEST PUSH1 0x0 PUSH2 0x408D PUSH1 0x1 DUP4 PUSH2 0x48F2 JUMP JUMPDEST SWAP2 POP PUSH2 0x4098 DUP3 PUSH2 0x5020 JUMP JUMPDEST PUSH1 0x1 DUP3 ADD SWAP1 POP SWAP2 SWAP1 POP JUMP JUMPDEST PUSH1 0x0 PUSH2 0x40B0 PUSH1 0x25 DUP4 PUSH2 0x48F2 JUMP JUMPDEST SWAP2 POP PUSH2 0x40BB DUP3 PUSH2 0x5049 JUMP JUMPDEST PUSH1 0x25 DUP3 ADD SWAP1 POP SWAP2 SWAP1 POP JUMP JUMPDEST PUSH1 0x0 PUSH2 0x40D3 PUSH1 0x9 DUP4 PUSH2 0x48F2 JUMP JUMPDEST SWAP2 POP PUSH2 0x40DE DUP3 PUSH2 0x5098 JUMP JUMPDEST PUSH1 0x9 DUP3 ADD SWAP1 POP SWAP2 SWAP1 POP JUMP JUMPDEST PUSH1 0x0 PUSH2 0x40F6 PUSH1 0x3E DUP4 PUSH2 0x48E1 JUMP JUMPDEST SWAP2 POP PUSH2 0x4101 DUP3 PUSH2 0x50C1 JUMP JUMPDEST PUSH1 0x40 DUP3 ADD SWAP1 POP SWAP2 SWAP1 POP JUMP JUMPDEST PUSH1 0x0 PUSH2 0x4119 PUSH1 0x20 DUP4 PUSH2 0x48E1 JUMP JUMPDEST SWAP2 POP PUSH2 0x4124 DUP3 PUSH2 0x5110 JUMP JUMPDEST PUSH1 0x20 DUP3 ADD SWAP1 POP SWAP2 SWAP1 POP JUMP JUMPDEST PUSH1 0x0 PUSH2 0x413C PUSH1 0x1 DUP4 PUSH2 0x48F2 JUMP JUMPDEST SWAP2 POP PUSH2 0x4147 DUP3 PUSH2 0x5139 JUMP JUMPDEST PUSH1 0x1 DUP3 ADD SWAP1 POP SWAP2 SWAP1 POP JUMP JUMPDEST PUSH1 0x0 PUSH2 0x415F PUSH1 0x20 DUP4 PUSH2 0x48E1 JUMP JUMPDEST SWAP2 POP PUSH2 0x416A DUP3 PUSH2 0x5162 JUMP JUMPDEST PUSH1 0x20 DUP3 ADD SWAP1 POP SWAP2 SWAP1 POP JUMP JUMPDEST PUSH1 0x0 PUSH2 0x4182 PUSH1 0x1 DUP4 PUSH2 0x48F2 JUMP JUMPDEST SWAP2 POP PUSH2 0x418D DUP3 PUSH2 0x518B JUMP JUMPDEST PUSH1 0x1 DUP3 ADD SWAP1 POP SWAP2 SWAP1 POP JUMP JUMPDEST PUSH1 0x0 PUSH2 0x41A5 PUSH1 0x18 DUP4 PUSH2 0x48E1 JUMP JUMPDEST SWAP2 POP PUSH2 0x41B0 DUP3 PUSH2 0x51B4 JUMP JUMPDEST PUSH1 0x20 DUP3 ADD SWAP1 POP SWAP2 SWAP1 POP JUMP JUMPDEST PUSH1 0x0 PUSH2 0x41C8 PUSH1 0x21 DUP4 PUSH2 0x48E1 JUMP JUMPDEST SWAP2 POP PUSH2 0x41D3 DUP3 PUSH2 0x51DD JUMP JUMPDEST PUSH1 0x40 DUP3 ADD SWAP1 POP SWAP2 SWAP1 POP JUMP JUMPDEST PUSH1 0x0 PUSH2 0x41EB PUSH1 0x1D DUP4 PUSH2 0x48F2 JUMP JUMPDEST SWAP2 POP PUSH2 0x41F6 DUP3 PUSH2 0x522C JUMP JUMPDEST PUSH1 0x1D DUP3 ADD SWAP1 POP SWAP2 SWAP1 POP JUMP JUMPDEST PUSH1 0x0 PUSH2 0x420E PUSH1 0x0 DUP4 PUSH2 0x48D6 JUMP JUMPDEST SWAP2 POP PUSH2 0x4219 DUP3 PUSH2 0x5255 JUMP JUMPDEST PUSH1 0x0 DUP3 ADD SWAP1 POP SWAP2 SWAP1 POP JUMP JUMPDEST PUSH1 0x0 PUSH2 0x4231 PUSH1 0x2C DUP4 PUSH2 0x48E1 JUMP JUMPDEST SWAP2 POP PUSH2 0x423C DUP3 PUSH2 0x5258 JUMP JUMPDEST PUSH1 0x40 DUP3 ADD SWAP1 POP SWAP2 SWAP1 POP JUMP JUMPDEST PUSH1 0x0 PUSH2 0x4254 PUSH1 0x2E DUP4 PUSH2 0x48E1 JUMP JUMPDEST SWAP2 POP PUSH2 0x425F DUP3 PUSH2 0x52A7 JUMP JUMPDEST PUSH1 0x40 DUP3 ADD SWAP1 POP SWAP2 SWAP1 POP JUMP JUMPDEST PUSH1 0x0 PUSH2 0x4277 PUSH1 0x16 DUP4 PUSH2 0x48F2 JUMP JUMPDEST SWAP2 POP PUSH2 0x4282 DUP3 PUSH2 0x52F6 JUMP JUMPDEST PUSH1 0x16 DUP3 ADD SWAP1 POP SWAP2 SWAP1 POP JUMP JUMPDEST PUSH2 0x4296 DUP2 PUSH2 0x4AD8 JUMP JUMPDEST DUP3 MSTORE POP POP JUMP JUMPDEST PUSH2 0x42A5 DUP2 PUSH2 0x4B06 JUMP JUMPDEST DUP3 MSTORE POP POP JUMP JUMPDEST PUSH2 0x42B4 DUP2 PUSH2 0x4B10 JUMP JUMPDEST DUP3 MSTORE POP POP JUMP JUMPDEST PUSH2 0x42C3 DUP2 PUSH2 0x4B20 JUMP JUMPDEST DUP3 MSTORE POP POP JUMP JUMPDEST PUSH1 0x0 PUSH2 0x42D5 DUP3 DUP5 PUSH2 0x3EAB JUMP JUMPDEST SWAP2 POP DUP2 SWAP1 POP SWAP3 SWAP2 POP POP JUMP JUMPDEST PUSH1 0x0 PUSH2 0x42EC DUP3 DUP6 PUSH2 0x3EAB JUMP JUMPDEST SWAP2 POP PUSH2 0x42F8 DUP3 DUP5 PUSH2 0x3EAB JUMP JUMPDEST SWAP2 POP DUP2 SWAP1 POP SWAP4 SWAP3 POP POP POP JUMP JUMPDEST PUSH1 0x0 PUSH2 0x4310 DUP3 DUP8 PUSH2 0x3EAB JUMP JUMPDEST SWAP2 POP PUSH2 0x431C DUP3 DUP7 PUSH2 0x3EAB JUMP JUMPDEST SWAP2 POP PUSH2 0x4328 DUP3 DUP6 PUSH2 0x3EAB JUMP JUMPDEST SWAP2 POP PUSH2 0x4334 DUP3 DUP5 PUSH2 0x3EAB JUMP JUMPDEST SWAP2 POP DUP2 SWAP1 POP SWAP6 SWAP5 POP POP POP POP POP JUMP JUMPDEST PUSH1 0x0 PUSH2 0x434E DUP3 DUP10 PUSH2 0x3EAB JUMP JUMPDEST SWAP2 POP PUSH2 0x435A DUP3 DUP9 PUSH2 0x3EAB JUMP JUMPDEST SWAP2 POP PUSH2 0x4366 DUP3 DUP8 PUSH2 0x3EAB JUMP JUMPDEST SWAP2 POP PUSH2 0x4372 DUP3 DUP7 PUSH2 0x3EAB JUMP JUMPDEST SWAP2 POP PUSH2 0x437E DUP3 DUP6 PUSH2 0x3EAB JUMP JUMPDEST SWAP2 POP PUSH2 0x438A DUP3 DUP5 PUSH2 0x3EAB JUMP JUMPDEST SWAP2 POP DUP2 SWAP1 POP SWAP8 SWAP7 POP POP POP POP POP POP POP JUMP JUMPDEST PUSH1 0x0 PUSH2 0x43A5 DUP3 PUSH2 0x4175 JUMP JUMPDEST SWAP2 POP PUSH2 0x43B0 DUP3 PUSH2 0x3FD1 JUMP JUMPDEST SWAP2 POP PUSH2 0x43BB DUP3 PUSH2 0x40A3 JUMP JUMPDEST SWAP2 POP PUSH2 0x43C6 DUP3 PUSH2 0x403A JUMP JUMPDEST SWAP2 POP PUSH2 0x43D1 DUP3 PUSH2 0x40C6 JUMP JUMPDEST SWAP2 POP PUSH2 0x43DD DUP3 DUP5 PUSH2 0x3EAB JUMP JUMPDEST SWAP2 POP PUSH2 0x43E8 DUP3 PUSH2 0x4080 JUMP JUMPDEST SWAP2 POP PUSH2 0x43F3 DUP3 PUSH2 0x412F JUMP JUMPDEST SWAP2 POP DUP2 SWAP1 POP SWAP3 SWAP2 POP POP JUMP JUMPDEST PUSH1 0x0 PUSH2 0x4409 DUP3 PUSH2 0x41DE JUMP JUMPDEST SWAP2 POP PUSH2 0x4415 DUP3 DUP5 PUSH2 0x3EAB JUMP JUMPDEST SWAP2 POP DUP2 SWAP1 POP SWAP3 SWAP2 POP POP JUMP JUMPDEST PUSH1 0x0 PUSH2 0x442B DUP3 PUSH2 0x4201 JUMP JUMPDEST SWAP2 POP DUP2 SWAP1 POP SWAP2 SWAP1 POP JUMP JUMPDEST PUSH1 0x0 PUSH2 0x4440 DUP3 PUSH2 0x426A JUMP JUMPDEST SWAP2 POP PUSH2 0x444C DUP3 DUP5 PUSH2 0x3EAB JUMP JUMPDEST SWAP2 POP PUSH2 0x4457 DUP3 PUSH2 0x3FAE JUMP JUMPDEST SWAP2 POP DUP2 SWAP1 POP SWAP3 SWAP2 POP POP JUMP JUMPDEST PUSH1 0x0 PUSH1 0x20 DUP3 ADD SWAP1 POP PUSH2 0x4477 PUSH1 0x0 DUP4 ADD DUP5 PUSH2 0x3E0C JUMP JUMPDEST SWAP3 SWAP2 POP POP JUMP JUMPDEST PUSH1 0x0 PUSH1 0x40 DUP3 ADD SWAP1 POP PUSH2 0x4492 PUSH1 0x0 DUP4 ADD DUP6 PUSH2 0x3E0C JUMP JUMPDEST PUSH2 0x449F PUSH1 0x20 DUP4 ADD DUP5 PUSH2 0x3E0C JUMP JUMPDEST SWAP4 SWAP3 POP POP POP JUMP JUMPDEST PUSH1 0x0 PUSH1 0x80 DUP3 ADD SWAP1 POP PUSH2 0x44BB PUSH1 0x0 DUP4 ADD DUP8 PUSH2 0x3E0C JUMP JUMPDEST PUSH2 0x44C8 PUSH1 0x20 DUP4 ADD DUP7 PUSH2 0x3E0C JUMP JUMPDEST PUSH2 0x44D5 PUSH1 0x40 DUP4 ADD DUP6 PUSH2 0x429C JUMP JUMPDEST DUP2 DUP2 SUB PUSH1 0x60 DUP4 ADD MSTORE PUSH2 0x44E7 DUP2 DUP5 PUSH2 0x3E39 JUMP JUMPDEST SWAP1 POP SWAP6 SWAP5 POP POP POP POP POP JUMP JUMPDEST PUSH1 0x0 PUSH1 0x20 DUP3 ADD SWAP1 POP PUSH2 0x4507 PUSH1 0x0 DUP4 ADD DUP5 PUSH2 0x3E1B JUMP JUMPDEST SWAP3 SWAP2 POP POP JUMP JUMPDEST PUSH1 0x0 PUSH1 0x40 DUP3 ADD SWAP1 POP PUSH2 0x4522 PUSH1 0x0 DUP4 ADD DUP6 PUSH2 0x3E1B JUMP JUMPDEST DUP2 DUP2 SUB PUSH1 0x20 DUP4 ADD MSTORE PUSH2 0x4534 DUP2 DUP5 PUSH2 0x3E39 JUMP JUMPDEST SWAP1 POP SWAP4 SWAP3 POP POP POP JUMP JUMPDEST PUSH1 0x0 PUSH1 0xA0 DUP3 ADD SWAP1 POP PUSH2 0x4552 PUSH1 0x0 DUP4 ADD DUP9 PUSH2 0x3E2A JUMP JUMPDEST PUSH2 0x455F PUSH1 0x20 DUP4 ADD DUP8 PUSH2 0x42BA JUMP JUMPDEST PUSH2 0x456C PUSH1 0x40 DUP4 ADD DUP7 PUSH2 0x428D JUMP JUMPDEST PUSH2 0x4579 PUSH1 0x60 DUP4 ADD DUP6 PUSH2 0x42AB JUMP JUMPDEST PUSH2 0x4586 PUSH1 0x80 DUP4 ADD DUP5 PUSH2 0x42AB JUMP JUMPDEST SWAP7 SWAP6 POP POP POP POP POP POP JUMP JUMPDEST PUSH1 0x0 PUSH1 0x20 DUP3 ADD SWAP1 POP DUP2 DUP2 SUB PUSH1 0x0 DUP4 ADD MSTORE PUSH2 0x45AA DUP2 DUP5 PUSH2 0x3E72 JUMP JUMPDEST SWAP1 POP SWAP3 SWAP2 POP POP JUMP JUMPDEST PUSH1 0x0 PUSH1 0x20 DUP3 ADD SWAP1 POP DUP2 DUP2 SUB PUSH1 0x0 DUP4 ADD MSTORE PUSH2 0x45CB DUP2 PUSH2 0x3EDC JUMP JUMPDEST SWAP1 POP SWAP2 SWAP1 POP JUMP JUMPDEST PUSH1 0x0 PUSH1 0x20 DUP3 ADD SWAP1 POP DUP2 DUP2 SUB PUSH1 0x0 DUP4 ADD MSTORE PUSH2 0x45EB DUP2 PUSH2 0x3EFF JUMP JUMPDEST SWAP1 POP SWAP2 SWAP1 POP JUMP JUMPDEST PUSH1 0x0 PUSH1 0x20 DUP3 ADD SWAP1 POP DUP2 DUP2 SUB PUSH1 0x0 DUP4 ADD MSTORE PUSH2 0x460B DUP2 PUSH2 0x3F22 JUMP JUMPDEST SWAP1 POP SWAP2 SWAP1 POP JUMP JUMPDEST PUSH1 0x0 PUSH1 0x20 DUP3 ADD SWAP1 POP DUP2 DUP2 SUB PUSH1 0x0 DUP4 ADD MSTORE PUSH2 0x462B DUP2 PUSH2 0x3F45 JUMP JUMPDEST SWAP1 POP SWAP2 SWAP1 POP JUMP JUMPDEST PUSH1 0x0 PUSH1 0x20 DUP3 ADD SWAP1 POP DUP2 DUP2 SUB PUSH1 0x0 DUP4 ADD MSTORE PUSH2 0x464B DUP2 PUSH2 0x3F68 JUMP JUMPDEST SWAP1 POP SWAP2 SWAP1 POP JUMP JUMPDEST PUSH1 0x0 PUSH1 0x20 DUP3 ADD SWAP1 POP DUP2 DUP2 SUB PUSH1 0x0 DUP4 ADD MSTORE PUSH2 0x466B DUP2 PUSH2 0x3F8B JUMP JUMPDEST SWAP1 POP SWAP2 SWAP1 POP JUMP JUMPDEST PUSH1 0x0 PUSH1 0x20 DUP3 ADD SWAP1 POP DUP2 DUP2 SUB PUSH1 0x0 DUP4 ADD MSTORE PUSH2 0x468B DUP2 PUSH2 0x3FF4 JUMP JUMPDEST SWAP1 POP SWAP2 SWAP1 POP JUMP JUMPDEST PUSH1 0x0 PUSH1 0x20 DUP3 ADD SWAP1 POP DUP2 DUP2 SUB PUSH1 0x0 DUP4 ADD MSTORE PUSH2 0x46AB DUP2 PUSH2 0x4017 JUMP JUMPDEST SWAP1 POP SWAP2 SWAP1 POP JUMP JUMPDEST PUSH1 0x0 PUSH1 0x20 DUP3 ADD SWAP1 POP DUP2 DUP2 SUB PUSH1 0x0 DUP4 ADD MSTORE PUSH2 0x46CB DUP2 PUSH2 0x405D JUMP JUMPDEST SWAP1 POP SWAP2 SWAP1 POP JUMP JUMPDEST PUSH1 0x0 PUSH1 0x20 DUP3 ADD SWAP1 POP DUP2 DUP2 SUB PUSH1 0x0 DUP4 ADD MSTORE PUSH2 0x46EB DUP2 PUSH2 0x40E9 JUMP JUMPDEST SWAP1 POP SWAP2 SWAP1 POP JUMP JUMPDEST PUSH1 0x0 PUSH1 0x20 DUP3 ADD SWAP1 POP DUP2 DUP2 SUB PUSH1 0x0 DUP4 ADD MSTORE PUSH2 0x470B DUP2 PUSH2 0x410C JUMP JUMPDEST SWAP1 POP SWAP2 SWAP1 POP JUMP JUMPDEST PUSH1 0x0 PUSH1 0x20 DUP3 ADD SWAP1 POP DUP2 DUP2 SUB PUSH1 0x0 DUP4 ADD MSTORE PUSH2 0x472B DUP2 PUSH2 0x4152 JUMP JUMPDEST SWAP1 POP SWAP2 SWAP1 POP JUMP JUMPDEST PUSH1 0x0 PUSH1 0x20 DUP3 ADD SWAP1 POP DUP2 DUP2 SUB PUSH1 0x0 DUP4 ADD MSTORE PUSH2 0x474B DUP2 PUSH2 0x4198 JUMP JUMPDEST SWAP1 POP SWAP2 SWAP1 POP JUMP JUMPDEST PUSH1 0x0 PUSH1 0x20 DUP3 ADD SWAP1 POP DUP2 DUP2 SUB PUSH1 0x0 DUP4 ADD MSTORE PUSH2 0x476B DUP2 PUSH2 0x41BB JUMP JUMPDEST SWAP1 POP SWAP2 SWAP1 POP JUMP JUMPDEST PUSH1 0x0 PUSH1 0x20 DUP3 ADD SWAP1 POP DUP2 DUP2 SUB PUSH1 0x0 DUP4 ADD MSTORE PUSH2 0x478B DUP2 PUSH2 0x4224 JUMP JUMPDEST SWAP1 POP SWAP2 SWAP1 POP JUMP JUMPDEST PUSH1 0x0 PUSH1 0x20 DUP3 ADD SWAP1 POP DUP2 DUP2 SUB PUSH1 0x0 DUP4 ADD MSTORE PUSH2 0x47AB DUP2 PUSH2 0x4247 JUMP JUMPDEST SWAP1 POP SWAP2 SWAP1 POP JUMP JUMPDEST PUSH1 0x0 PUSH1 0x20 DUP3 ADD SWAP1 POP PUSH2 0x47C7 PUSH1 0x0 DUP4 ADD DUP5 PUSH2 0x429C JUMP JUMPDEST SWAP3 SWAP2 POP POP JUMP JUMPDEST PUSH1 0x0 PUSH1 0x40 DUP3 ADD SWAP1 POP PUSH2 0x47E2 PUSH1 0x0 DUP4 ADD DUP6 PUSH2 0x429C JUMP JUMPDEST PUSH2 0x47EF PUSH1 0x20 DUP4 ADD DUP5 PUSH2 0x429C JUMP JUMPDEST SWAP4 SWAP3 POP POP POP JUMP JUMPDEST PUSH1 0x0 PUSH1 0x60 DUP3 ADD SWAP1 POP PUSH2 0x480B PUSH1 0x0 DUP4 ADD DUP7 PUSH2 0x429C JUMP JUMPDEST PUSH2 0x4818 PUSH1 0x20 DUP4 ADD DUP6 PUSH2 0x429C JUMP JUMPDEST PUSH2 0x4825 PUSH1 0x40 DUP4 ADD DUP5 PUSH2 0x429C JUMP JUMPDEST SWAP5 SWAP4 POP POP POP POP JUMP JUMPDEST PUSH1 0x0 PUSH2 0x4837 PUSH2 0x4848 JUMP JUMPDEST SWAP1 POP PUSH2 0x4843 DUP3 DUP3 PUSH2 0x4BDF JUMP JUMPDEST SWAP2 SWAP1 POP JUMP JUMPDEST PUSH1 0x0 PUSH1 0x40 MLOAD SWAP1 POP SWAP1 JUMP JUMPDEST PUSH1 0x0 PUSH8 0xFFFFFFFFFFFFFFFF DUP3 GT ISZERO PUSH2 0x486D JUMPI PUSH2 0x486C PUSH2 0x4D10 JUMP JUMPDEST JUMPDEST PUSH1 0x20 DUP3 MUL SWAP1 POP PUSH1 0x20 DUP2 ADD SWAP1 POP SWAP2 SWAP1 POP JUMP JUMPDEST PUSH1 0x0 PUSH8 0xFFFFFFFFFFFFFFFF DUP3 GT ISZERO PUSH2 0x4899 JUMPI PUSH2 0x4898 PUSH2 0x4D10 JUMP JUMPDEST JUMPDEST PUSH2 0x48A2 DUP3 PUSH2 0x4D3F JUMP JUMPDEST SWAP1 POP PUSH1 0x20 DUP2 ADD SWAP1 POP SWAP2 SWAP1 POP JUMP JUMPDEST PUSH1 0x0 DUP2 MLOAD SWAP1 POP SWAP2 SWAP1 POP JUMP JUMPDEST PUSH1 0x0 DUP2 MLOAD SWAP1 POP SWAP2 SWAP1 POP JUMP JUMPDEST PUSH1 0x0 DUP3 DUP3 MSTORE PUSH1 0x20 DUP3 ADD SWAP1 POP SWAP3 SWAP2 POP POP JUMP JUMPDEST PUSH1 0x0 DUP2 SWAP1 POP SWAP3 SWAP2 POP POP JUMP JUMPDEST PUSH1 0x0 DUP3 DUP3 MSTORE PUSH1 0x20 DUP3 ADD SWAP1 POP SWAP3 SWAP2 POP POP JUMP JUMPDEST PUSH1 0x0 DUP2 SWAP1 POP SWAP3 SWAP2 POP POP JUMP JUMPDEST PUSH1 0x0 PUSH2 0x4908 DUP3 PUSH2 0x4B06 JUMP JUMPDEST SWAP2 POP PUSH2 0x4913 DUP4 PUSH2 0x4B06 JUMP JUMPDEST SWAP3 POP DUP3 PUSH32 0xFFFFFFFFFFFFFFFFFFFFFFFFFFFFFFFFFFFFFFFFFFFFFFFFFFFFFFFFFFFFFFFF SUB DUP3 GT ISZERO PUSH2 0x4948 JUMPI PUSH2 0x4947 PUSH2 0x4C83 JUMP JUMPDEST JUMPDEST DUP3 DUP3 ADD SWAP1 POP SWAP3 SWAP2 POP POP JUMP JUMPDEST PUSH1 0x0 PUSH2 0x495E DUP3 PUSH2 0x4B34 JUMP JUMPDEST SWAP2 POP PUSH2 0x4969 DUP4 PUSH2 0x4B34 JUMP JUMPDEST SWAP3 POP DUP3 PUSH1 0xFF SUB DUP3 GT ISZERO PUSH2 0x497F JUMPI PUSH2 0x497E PUSH2 0x4C83 JUMP JUMPDEST JUMPDEST DUP3 DUP3 ADD SWAP1 POP SWAP3 SWAP2 POP POP JUMP JUMPDEST PUSH1 0x0 PUSH2 0x4995 DUP3 PUSH2 0x4B06 JUMP JUMPDEST SWAP2 POP PUSH2 0x49A0 DUP4 PUSH2 0x4B06 JUMP JUMPDEST SWAP3 POP DUP3 PUSH2 0x49B0 JUMPI PUSH2 0x49AF PUSH2 0x4CB2 JUMP JUMPDEST JUMPDEST DUP3 DUP3 DIV SWAP1 POP SWAP3 SWAP2 POP POP JUMP JUMPDEST PUSH1 0x0 PUSH2 0x49C6 DUP3 PUSH2 0x4B06 JUMP JUMPDEST SWAP2 POP PUSH2 0x49D1 DUP4 PUSH2 0x4B06 JUMP JUMPDEST SWAP3 POP DUP2 PUSH32 0xFFFFFFFFFFFFFFFFFFFFFFFFFFFFFFFFFFFFFFFFFFFFFFFFFFFFFFFFFFFFFFFF DIV DUP4 GT DUP3 ISZERO ISZERO AND ISZERO PUSH2 0x4A0A JUMPI PUSH2 0x4A09 PUSH2 0x4C83 JUMP JUMPDEST JUMPDEST DUP3 DUP3 MUL SWAP1 POP SWAP3 SWAP2 POP POP JUMP JUMPDEST PUSH1 0x0 PUSH2 0x4A20 DUP3 PUSH2 0x4B34 JUMP JUMPDEST SWAP2 POP PUSH2 0x4A2B DUP4 PUSH2 0x4B34 JUMP JUMPDEST SWAP3 POP DUP2 PUSH1 0xFF DIV DUP4 GT DUP3 ISZERO ISZERO AND ISZERO PUSH2 0x4A45 JUMPI PUSH2 0x4A44 PUSH2 0x4C83 JUMP JUMPDEST JUMPDEST DUP3 DUP3 MUL SWAP1 POP SWAP3 SWAP2 POP POP JUMP JUMPDEST PUSH1 0x0 PUSH2 0x4A5B DUP3 PUSH2 0x4B06 JUMP JUMPDEST SWAP2 POP PUSH2 0x4A66 DUP4 PUSH2 0x4B06 JUMP JUMPDEST SWAP3 POP DUP3 DUP3 LT ISZERO PUSH2 0x4A79 JUMPI PUSH2 0x4A78 PUSH2 0x4C83 JUMP JUMPDEST JUMPDEST DUP3 DUP3 SUB SWAP1 POP SWAP3 SWAP2 POP POP JUMP JUMPDEST PUSH1 0x0 PUSH2 0x4A8F DUP3 PUSH2 0x4AE6 JUMP JUMPDEST SWAP1 POP SWAP2 SWAP1 POP JUMP JUMPDEST PUSH1 0x0 DUP2 ISZERO ISZERO SWAP1 POP SWAP2 SWAP1 POP JUMP JUMPDEST PUSH1 0x0 DUP2 SWAP1 POP SWAP2 SWAP1 POP JUMP JUMPDEST PUSH1 0x0 PUSH32 0xFFFFFFFF00000000000000000000000000000000000000000000000000000000 DUP3 AND SWAP1 POP SWAP2 SWAP1 POP JUMP JUMPDEST PUSH1 0x0 PUSH2 0xFFFF DUP3 AND SWAP1 POP SWAP2 SWAP1 POP JUMP JUMPDEST PUSH1 0x0 PUSH20 0xFFFFFFFFFFFFFFFFFFFFFFFFFFFFFFFFFFFFFFFF DUP3 AND SWAP1 POP SWAP2 SWAP1 POP JUMP JUMPDEST PUSH1 0x0 DUP2 SWAP1 POP SWAP2 SWAP1 POP JUMP JUMPDEST PUSH1 0x0 PUSH4 0xFFFFFFFF DUP3 AND SWAP1 POP SWAP2 SWAP1 POP JUMP JUMPDEST PUSH1 0x0 PUSH8 0xFFFFFFFFFFFFFFFF DUP3 AND SWAP1 POP SWAP2 SWAP1 POP JUMP JUMPDEST PUSH1 0x0 PUSH1 0xFF DUP3 AND SWAP1 POP SWAP2 SWAP1 POP JUMP JUMPDEST DUP3 DUP2 DUP4 CALLDATACOPY PUSH1 0x0 DUP4 DUP4 ADD MSTORE POP POP POP JUMP JUMPDEST PUSH1 0x0 JUMPDEST DUP4 DUP2 LT ISZERO PUSH2 0x4B6E JUMPI DUP1 DUP3 ADD MLOAD DUP2 DUP5 ADD MSTORE PUSH1 0x20 DUP2 ADD SWAP1 POP PUSH2 0x4B53 JUMP JUMPDEST DUP4 DUP2 GT ISZERO PUSH2 0x4B7D JUMPI PUSH1 0x0 DUP5 DUP5 ADD MSTORE JUMPDEST POP POP POP POP JUMP JUMPDEST PUSH1 0x0 PUSH2 0x4B8E DUP3 PUSH2 0x4B06 JUMP JUMPDEST SWAP2 POP PUSH1 0x0 DUP3 EQ ISZERO PUSH2 0x4BA2 JUMPI PUSH2 0x4BA1 PUSH2 0x4C83 JUMP JUMPDEST JUMPDEST PUSH1 0x1 DUP3 SUB SWAP1 POP SWAP2 SWAP1 POP JUMP JUMPDEST PUSH1 0x0 PUSH1 0x2 DUP3 DIV SWAP1 POP PUSH1 0x1 DUP3 AND DUP1 PUSH2 0x4BC5 JUMPI PUSH1 0x7F DUP3 AND SWAP2 POP JUMPDEST PUSH1 0x20 DUP3 LT DUP2 EQ ISZERO PUSH2 0x4BD9 JUMPI PUSH2 0x4BD8 PUSH2 0x4CE1 JUMP JUMPDEST JUMPDEST POP SWAP2 SWAP1 POP JUMP JUMPDEST PUSH2 0x4BE8 DUP3 PUSH2 0x4D3F JUMP JUMPDEST DUP2 ADD DUP2 DUP2 LT PUSH8 0xFFFFFFFFFFFFFFFF DUP3 GT OR ISZERO PUSH2 0x4C07 JUMPI PUSH2 0x4C06 PUSH2 0x4D10 JUMP JUMPDEST JUMPDEST DUP1 PUSH1 0x40 MSTORE POP POP POP JUMP JUMPDEST PUSH1 0x0 PUSH2 0x4C1B DUP3 PUSH2 0x4B06 JUMP JUMPDEST SWAP2 POP PUSH32 0xFFFFFFFFFFFFFFFFFFFFFFFFFFFFFFFFFFFFFFFFFFFFFFFFFFFFFFFFFFFFFFFF DUP3 EQ ISZERO PUSH2 0x4C4E JUMPI PUSH2 0x4C4D PUSH2 0x4C83 JUMP JUMPDEST JUMPDEST PUSH1 0x1 DUP3 ADD SWAP1 POP SWAP2 SWAP1 POP JUMP JUMPDEST PUSH1 0x0 PUSH2 0x4C64 DUP3 PUSH2 0x4B34 JUMP JUMPDEST SWAP2 POP PUSH1 0xFF DUP3 EQ ISZERO PUSH2 0x4C78 JUMPI PUSH2 0x4C77 PUSH2 0x4C83 JUMP JUMPDEST JUMPDEST PUSH1 0x1 DUP3 ADD SWAP1 POP SWAP2 SWAP1 POP JUMP JUMPDEST PUSH32 0x4E487B7100000000000000000000000000000000000000000000000000000000 PUSH1 0x0 MSTORE PUSH1 0x11 PUSH1 0x4 MSTORE PUSH1 0x24 PUSH1 0x0 REVERT JUMPDEST PUSH32 0x4E487B7100000000000000000000000000000000000000000000000000000000 PUSH1 0x0 MSTORE PUSH1 0x12 PUSH1 0x4 MSTORE PUSH1 0x24 PUSH1 0x0 REVERT JUMPDEST PUSH32 0x4E487B7100000000000000000000000000000000000000000000000000000000 PUSH1 0x0 MSTORE PUSH1 0x22 PUSH1 0x4 MSTORE PUSH1 0x24 PUSH1 0x0 REVERT JUMPDEST PUSH32 0x4E487B7100000000000000000000000000000000000000000000000000000000 PUSH1 0x0 MSTORE PUSH1 0x41 PUSH1 0x4 MSTORE PUSH1 0x24 PUSH1 0x0 REVERT JUMPDEST PUSH1 0x0 PUSH1 0x1F NOT PUSH1 0x1F DUP4 ADD AND SWAP1 POP SWAP2 SWAP1 POP JUMP JUMPDEST PUSH32 0x537472696E67733A20686578206C656E67746820696E73756666696369656E74 PUSH1 0x0 DUP3 ADD MSTORE POP JUMP JUMPDEST PUSH32 0x455243373231456E756D657261626C653A206F776E657220696E646578206F75 PUSH1 0x0 DUP3 ADD MSTORE PUSH32 0x74206F6620626F756E6473000000000000000000000000000000000000000000 PUSH1 0x20 DUP3 ADD MSTORE POP JUMP JUMPDEST PUSH32 0x4552433732313A207472616E7366657220746F206E6F6E204552433732315265 PUSH1 0x0 DUP3 ADD MSTORE PUSH32 0x63656976657220696D706C656D656E7465720000000000000000000000000000 PUSH1 0x20 DUP3 ADD MSTORE POP JUMP JUMPDEST PUSH32 0x4F776E61626C653A206E6577206F776E657220697320746865207A65726F2061 PUSH1 0x0 DUP3 ADD MSTORE PUSH32 0x6464726573730000000000000000000000000000000000000000000000000000 PUSH1 0x20 DUP3 ADD MSTORE POP JUMP JUMPDEST PUSH32 0x4552433732313A207472616E736665722066726F6D20696E636F727265637420 PUSH1 0x0 DUP3 ADD MSTORE PUSH32 0x6F776E6572000000000000000000000000000000000000000000000000000000 PUSH1 0x20 DUP3 ADD MSTORE POP JUMP JUMPDEST PUSH32 0x4552433732313A20746F6B656E20616C7265616479206D696E74656400000000 PUSH1 0x0 DUP3 ADD MSTORE POP JUMP JUMPDEST PUSH32 0x3C2F747370616E3E000000000000000000000000000000000000000000000000 PUSH1 0x0 DUP3 ADD MSTORE POP JUMP JUMPDEST PUSH32 0x226E616D65223A224E4654222C20000000000000000000000000000000000000 PUSH1 0x0 DUP3 ADD MSTORE POP JUMP JUMPDEST PUSH32 0x4552433732313A207472616E7366657220746F20746865207A65726F20616464 PUSH1 0x0 DUP3 ADD MSTORE PUSH32 0x7265737300000000000000000000000000000000000000000000000000000000 PUSH1 0x20 DUP3 ADD MSTORE POP JUMP JUMPDEST PUSH32 0x4552433732313A20617070726F766520746F2063616C6C657200000000000000 PUSH1 0x0 DUP3 ADD MSTORE POP JUMP JUMPDEST PUSH32 0x2261747472696275746573223A22222C20000000000000000000000000000000 PUSH1 0x0 DUP3 ADD MSTORE POP JUMP JUMPDEST PUSH32 0x4552433732313A2061646472657373207A65726F206973206E6F742061207661 PUSH1 0x0 DUP3 ADD MSTORE PUSH32 0x6C6964206F776E65720000000000000000000000000000000000000000000000 PUSH1 0x20 DUP3 ADD MSTORE POP JUMP JUMPDEST PUSH32 0x2200000000000000000000000000000000000000000000000000000000000000 PUSH1 0x0 DUP3 ADD MSTORE POP JUMP JUMPDEST PUSH32 0x226465736372697074696F6E223A2242617463682D72657665616C6564204E46 PUSH1 0x0 DUP3 ADD MSTORE PUSH32 0x5421222C20000000000000000000000000000000000000000000000000000000 PUSH1 0x20 DUP3 ADD MSTORE POP JUMP JUMPDEST PUSH32 0x22696D616765223A220000000000000000000000000000000000000000000000 PUSH1 0x0 DUP3 ADD MSTORE POP JUMP JUMPDEST PUSH32 0x4552433732313A20617070726F76652063616C6C6572206973206E6F7420746F PUSH1 0x0 DUP3 ADD MSTORE PUSH32 0x6B656E206F776E6572206E6F7220617070726F76656420666F7220616C6C0000 PUSH1 0x20 DUP3 ADD MSTORE POP JUMP JUMPDEST PUSH32 0x4552433732313A206D696E7420746F20746865207A65726F2061646472657373 PUSH1 0x0 DUP3 ADD MSTORE POP JUMP JUMPDEST PUSH32 0x7D00000000000000000000000000000000000000000000000000000000000000 PUSH1 0x0 DUP3 ADD MSTORE POP JUMP JUMPDEST PUSH32 0x4F776E61626C653A2063616C6C6572206973206E6F7420746865206F776E6572 PUSH1 0x0 DUP3 ADD MSTORE POP JUMP JUMPDEST PUSH32 0x7B00000000000000000000000000000000000000000000000000000000000000 PUSH1 0x0 DUP3 ADD MSTORE POP JUMP JUMPDEST PUSH32 0x4552433732313A20696E76616C696420746F6B656E2049440000000000000000 PUSH1 0x0 DUP3 ADD MSTORE POP JUMP JUMPDEST PUSH32 0x4552433732313A20617070726F76616C20746F2063757272656E74206F776E65 PUSH1 0x0 DUP3 ADD MSTORE PUSH32 0x7200000000000000000000000000000000000000000000000000000000000000 PUSH1 0x20 DUP3 ADD MSTORE POP JUMP JUMPDEST PUSH32 0x646174613A6170706C69636174696F6E2F6A736F6E3B6261736536342C000000 PUSH1 0x0 DUP3 ADD MSTORE POP JUMP JUMPDEST POP JUMP JUMPDEST PUSH32 0x455243373231456E756D657261626C653A20676C6F62616C20696E646578206F PUSH1 0x0 DUP3 ADD MSTORE PUSH32 0x7574206F6620626F756E64730000000000000000000000000000000000000000 PUSH1 0x20 DUP3 ADD MSTORE POP JUMP JUMPDEST PUSH32 0x4552433732313A2063616C6C6572206973206E6F7420746F6B656E206F776E65 PUSH1 0x0 DUP3 ADD MSTORE PUSH32 0x72206E6F7220617070726F766564000000000000000000000000000000000000 PUSH1 0x20 DUP3 ADD MSTORE POP JUMP JUMPDEST PUSH32 0x3C747370616E20783D223136222064793D223536223E00000000000000000000 PUSH1 0x0 DUP3 ADD MSTORE POP JUMP JUMPDEST PUSH2 0x5328 DUP2 PUSH2 0x4A84 JUMP JUMPDEST DUP2 EQ PUSH2 0x5333 JUMPI PUSH1 0x0 DUP1 REVERT JUMPDEST POP JUMP JUMPDEST PUSH2 0x533F DUP2 PUSH2 0x4A96 JUMP JUMPDEST DUP2 EQ PUSH2 0x534A JUMPI PUSH1 0x0 DUP1 REVERT JUMPDEST POP JUMP JUMPDEST PUSH2 0x5356 DUP2 PUSH2 0x4AAC JUMP JUMPDEST DUP2 EQ PUSH2 0x5361 JUMPI PUSH1 0x0 DUP1 REVERT JUMPDEST POP JUMP JUMPDEST PUSH2 0x536D DUP2 PUSH2 0x4B06 JUMP JUMPDEST DUP2 EQ PUSH2 0x5378 JUMPI PUSH1 0x0 DUP1 REVERT JUMPDEST POP JUMP INVALID EXTCODECOPY PUSH20 0x766720786D6C6E733D22687474703A2F2F777777 0x2E PUSH24 0x332E6F72672F323030302F73766722207072657365727665 COINBASE PUSH20 0x70656374526174696F3D22784D696E594D696E20 PUSH14 0x656574222076696577426F783D22 ADDRESS KECCAK256 ADDRESS KECCAK256 CALLER CALLDATALOAD ADDRESS KECCAK256 CALLER CALLDATALOAD ADDRESS 0x22 RETURNDATACOPY COINBASE TIMESTAMP NUMBER DIFFICULTY GASLIMIT CHAINID SELFBALANCE 0x48 0x49 0x4A 0x4B 0x4C 0x4D 0x4E 0x4F POP MLOAD MSTORE MSTORE8 SLOAD SSTORE JUMP JUMPI PC MSIZE GAS PUSH2 0x6263 PUSH5 0x6566676869 PUSH11 0x6B6C6D6E6F707172737475 PUSH23 0x7778797A303132333435363738392B2F3C7374796C653E 0x2E PUSH3 0x617365 KECCAK256 PUSH28 0x2066696C6C3A2077686974653B20666F6E742D66616D696C793A2073 PUSH6 0x7269663B2066 PUSH16 0x6E742D73697A653A2033353070783B20 PUSH30 0x3C2F7374796C653E3C726563742077696474683D22313030252220686569 PUSH8 0x68743D2231303025 0x22 KECCAK256 PUSH7 0x696C6C3D22626C PUSH2 0x636B 0x22 KECCAK256 0x2F RETURNDATACOPY EXTCODECOPY PUSH21 0x65787420783D2239302220793D223239352220636C PUSH2 0x7373 RETURNDATASIZE 0x22 PUSH3 0x617365 0x22 RETURNDATACOPY EXTCODECOPY PUSH20 0x74796C653E2E62617365207B2066696C6C3A2077 PUSH9 0x6974653B20666F6E74 0x2D PUSH7 0x616D696C793A20 PUSH20 0x657269663B20666F6E742D73697A653A20353970 PUSH25 0x3B207D3C2F7374796C653E3C726563742077696474683D2231 ADDRESS ADDRESS 0x25 0x22 KECCAK256 PUSH9 0x65696768743D223130 ADDRESS 0x25 0x22 KECCAK256 PUSH7 0x696C6C3D22626C PUSH2 0x636B 0x22 KECCAK256 0x2F RETURNDATACOPY EXTCODECOPY PUSH21 0x65787420636C6173733D2262617365223EA2646970 PUSH7 0x735822122007B9 0xAA PUSH19 0x6C47C574FCCA79070496365EAD9237214C8C79 SWAP7 GT SWAP8 SELFBALANCE 0x48 0xD7 SWAP6 0xE0 SELFDESTRUCT PUSH5 0x736F6C6343 STOP ADDMOD DIV STOP CALLER "},"gasEstimates":{"creation":{"codeDepositCost":"4377000","executionCost":"infinite","totalCost":"infinite"},"external":{"approve(address,uint256)":"infinite","balanceOf(address)":"1690","batchCount()":"1214","batchDetails(uint256)":"infinite","batchSize()":"1247","checkUpkeep(bytes)":"infinite","getApproved(uint256)":"2702","isApprovedForAll(address,address)":"infinite","lastRevealed()":"1183","maxSupply()":"infinite","mint(uint256)":"infinite","mintCost()":"infinite","name()":"infinite","owner()":"1290","ownerOf(uint256)":"1726","performUpkeep(bytes)":"infinite","rawFulfillRandomWords(uint256,uint256[])":"infinite","renounceOwnership()":"24531","revealInterval()":"1271","revealPendingMetadata()":"infinite","revealedCount()":"1182","safeTransferFrom(address,address,uint256)":"infinite","safeTransferFrom(address,address,uint256,bytes)":"infinite","setApprovalForAll(address,bool)":"infinite","setRevealBatchSize(uint256)":"21495","setRevealInterval(uint256)":"21429","shouldReveal()":"infinite","supportsInterface(bytes4)":"998","symbol()":"infinite","tokenByIndex(uint256)":"infinite","tokenOfOwnerByIndex(address,uint256)":"infinite","tokenURI(uint256)":"infinite","totalSupply()":"1213","transferFrom(address,address,uint256)":"infinite","transferOwnership(address)":"24835","withdrawProceeds()":"infinite"},"internal":{"_formatTokenURI(string memory)":"infinite","_fulfillRandomnessForMetadata(uint256)":"infinite","_generateSVG(uint256,bool)":"infinite","_getTokenRandomness(uint256)":"infinite","_substring(string memory,uint256,uint256)":"infinite","_svgToImageURI(string memory)":"infinite","fulfillRandomWords(uint256,uint256[] memory)":"infinite"}},"methodIdentifiers":{"approve(address,uint256)":"095ea7b3","balanceOf(address)":"70a08231","batchCount()":"06f13056","batchDetails(uint256)":"f8190966","batchSize()":"f4daaba1","checkUpkeep(bytes)":"6e04ff0d","getApproved(uint256)":"081812fc","isApprovedForAll(address,address)":"e985e9c5","lastRevealed()":"7b4fab5a","maxSupply()":"d5abeb01","mint(uint256)":"a0712d68","mintCost()":"bdb4b848","name()":"06fdde03","owner()":"8da5cb5b","ownerOf(uint256)":"6352211e","performUpkeep(bytes)":"4585e33b","rawFulfillRandomWords(uint256,uint256[])":"1fe543e3","renounceOwnership()":"715018a6","revealInterval()":"247cd8ad","revealPendingMetadata()":"96634a40","revealedCount()":"bbd78e93","safeTransferFrom(address,address,uint256)":"42842e0e","safeTransferFrom(address,address,uint256,bytes)":"b88d4fde","setApprovalForAll(address,bool)":"a22cb465","setRevealBatchSize(uint256)":"aaae4e23","setRevealInterval(uint256)":"5c65d81f","shouldReveal()":"cf3b94cd","supportsInterface(bytes4)":"01ffc9a7","symbol()":"95d89b41","tokenByIndex(uint256)":"4f6ccce7","tokenOfOwnerByIndex(address,uint256)":"2f745c59","tokenURI(uint256)":"c87b56dd","totalSupply()":"18160ddd","transferFrom(address,address,uint256)":"23b872dd","transferOwnership(address)":"f2fde38b","withdrawProceeds()":"9038e693"}},"storageLayout":{"storage":[{"astId":212,"contract":"contracts/NFTCollection.sol:NFTCollection","label":"_owner","offset":0,"slot":"0","type":"t_address"},{"astId":343,"contract":"contracts/NFTCollection.sol:NFTCollection","label":"_name","offset":0,"slot":"1","type":"t_string_storage"},{"astId":345,"contract":"contracts/NFTCollection.sol:NFTCollection","label":"_symbol","offset":0,"slot":"2","type":"t_string_storage"},{"astId":349,"contract":"contracts/NFTCollection.sol:NFTCollection","label":"_owners","offset":0,"slot":"3","type":"t_mapping(t_uint256,t_address)"},{"astId":353,"contract":"contracts/NFTCollection.sol:NFTCollection","label":"_balances","offset":0,"slot":"4","type":"t_mapping(t_address,t_uint256)"},{"astId":357,"contract":"contracts/NFTCollection.sol:NFTCollection","label":"_tokenApprovals","offset":0,"slot":"5","type":"t_mapping(t_uint256,t_address)"},{"astId":363,"contract":"contracts/NFTCollection.sol:NFTCollection","label":"_operatorApprovals","offset":0,"slot":"6","type":"t_mapping(t_address,t_mapping(t_address,t_bool))"},{"astId":1333,"contract":"contracts/NFTCollection.sol:NFTCollection","label":"_ownedTokens","offset":0,"slot":"7","type":"t_mapping(t_address,t_mapping(t_uint256,t_uint256))"},{"astId":1337,"contract":"contracts/NFTCollection.sol:NFTCollection","label":"_ownedTokensIndex","offset":0,"slot":"8","type":"t_mapping(t_uint256,t_uint256)"},{"astId":1340,"contract":"contracts/NFTCollection.sol:NFTCollection","label":"_allTokens","offset":0,"slot":"9","type":"t_array(t_uint256)dyn_storage"},{"astId":1344,"contract":"contracts/NFTCollection.sol:NFTCollection","label":"_allTokensIndex","offset":0,"slot":"10","type":"t_mapping(t_uint256,t_uint256)"},{"astId":2434,"contract":"contracts/NFTCollection.sol:NFTCollection","label":"s_revealedCount","offset":0,"slot":"11","type":"t_uint256"},{"astId":2436,"contract":"contracts/NFTCollection.sol:NFTCollection","label":"s_revealBatchSize","offset":0,"slot":"12","type":"t_uint256"},{"astId":2438,"contract":"contracts/NFTCollection.sol:NFTCollection","label":"s_revealInterval","offset":0,"slot":"13","type":"t_uint256"},{"astId":2442,"contract":"contracts/NFTCollection.sol:NFTCollection","label":"s_lastRevealed","offset":0,"slot":"14","type":"t_uint256"},{"astId":2444,"contract":"contracts/NFTCollection.sol:NFTCollection","label":"s_revealInProgress","offset":0,"slot":"15","type":"t_bool"},{"astId":2448,"contract":"contracts/NFTCollection.sol:NFTCollection","label":"s_metadatas","offset":0,"slot":"16","type":"t_array(t_struct(Metadata)2428_storage)dyn_storage"}],"types":{"t_address":{"encoding":"inplace","label":"address","numberOfBytes":"20"},"t_array(t_struct(Metadata)2428_storage)dyn_storage":{"base":"t_struct(Metadata)2428_storage","encoding":"dynamic_array","label":"struct NFTCollection.Metadata[]","numberOfBytes":"32"},"t_array(t_uint256)dyn_storage":{"base":"t_uint256","encoding":"dynamic_array","label":"uint256[]","numberOfBytes":"32"},"t_bool":{"encoding":"inplace","label":"bool","numberOfBytes":"1"},"t_mapping(t_address,t_bool)":{"encoding":"mapping","key":"t_address","label":"mapping(address => bool)","numberOfBytes":"32","value":"t_bool"},"t_mapping(t_address,t_mapping(t_address,t_bool))":{"encoding":"mapping","key":"t_address","label":"mapping(address => mapping(address => bool))","numberOfBytes":"32","value":"t_mapping(t_address,t_bool)"},"t_mapping(t_address,t_mapping(t_uint256,t_uint256))":{"encoding":"mapping","key":"t_address","label":"mapping(address => mapping(uint256 => uint256))","numberOfBytes":"32","value":"t_mapping(t_uint256,t_uint256)"},"t_mapping(t_address,t_uint256)":{"encoding":"mapping","key":"t_address","label":"mapping(address => uint256)","numberOfBytes":"32","value":"t_uint256"},"t_mapping(t_uint256,t_address)":{"encoding":"mapping","key":"t_uint256","label":"mapping(uint256 => address)","numberOfBytes":"32","value":"t_address"},"t_mapping(t_uint256,t_uint256)":{"encoding":"mapping","key":"t_uint256","label":"mapping(uint256 => uint256)","numberOfBytes":"32","value":"t_uint256"},"t_string_storage":{"encoding":"bytes","label":"string","numberOfBytes":"32"},"t_struct(Metadata)2428_storage":{"encoding":"inplace","label":"struct NFTCollection.Metadata","members":[{"astId":2423,"contract":"contracts/NFTCollection.sol:NFTCollection","label":"startIndex","offset":0,"slot":"0","type":"t_uint256"},{"astId":2425,"contract":"contracts/NFTCollection.sol:NFTCollection","label":"endIndex","offset":0,"slot":"1","type":"t_uint256"},{"astId":2427,"contract":"contracts/NFTCollection.sol:NFTCollection","label":"entropy","offset":0,"slot":"2","type":"t_uint256"}],"numberOfBytes":"96"},"t_uint256":{"encoding":"inplace","label":"uint256","numberOfBytes":"32"}}},"userdoc":{"kind":"user","methods":{},"version":1}}}}