{
  "_format": "hh-sol-artifact-1",
  "contractName": "VRFCoordinatorV2Mock",
  "sourceName": "@chainlink/contracts/src/v0.8/mocks/VRFCoordinatorV2Mock.sol",
  "abi": [
    {
      "inputs": [
        {
          "internalType": "uint96",
          "name": "_baseFee",
          "type": "uint96"
        },
        {
          "internalType": "uint96",
          "name": "_gasPriceLink",
          "type": "uint96"
        }
      ],
      "stateMutability": "nonpayable",
      "type": "constructor"
    },
    {
      "inputs": [],
      "name": "InsufficientBalance",
      "type": "error"
    },
    {
      "inputs": [],
      "name": "InvalidSubscription",
      "type": "error"
    },
    {
      "inputs": [
        {
          "internalType": "address",
          "name": "owner",
          "type": "address"
        }
      ],
      "name": "MustBeSubOwner",
      "type": "error"
    },
    {
      "anonymous": false,
      "inputs": [
        {
          "indexed": true,
          "internalType": "uint256",
          "name": "requestId",
          "type": "uint256"
        },
        {
          "indexed": false,
          "internalType": "uint256",
          "name": "outputSeed",
          "type": "uint256"
        },
        {
          "indexed": false,
          "internalType": "uint96",
          "name": "payment",
          "type": "uint96"
        },
        {
          "indexed": false,
          "internalType": "bool",
          "name": "success",
          "type": "bool"
        }
      ],
      "name": "RandomWordsFulfilled",
      "type": "event"
    },
    {
      "anonymous": false,
      "inputs": [
        {
          "indexed": true,
          "internalType": "bytes32",
          "name": "keyHash",
          "type": "bytes32"
        },
        {
          "indexed": false,
          "internalType": "uint256",
          "name": "requestId",
          "type": "uint256"
        },
        {
          "indexed": false,
          "internalType": "uint256",
          "name": "preSeed",
          "type": "uint256"
        },
        {
          "indexed": true,
          "internalType": "uint64",
          "name": "subId",
          "type": "uint64"
        },
        {
          "indexed": false,
          "internalType": "uint16",
          "name": "minimumRequestConfirmations",
          "type": "uint16"
        },
        {
          "indexed": false,
          "internalType": "uint32",
          "name": "callbackGasLimit",
          "type": "uint32"
        },
        {
          "indexed": false,
          "internalType": "uint32",
          "name": "numWords",
          "type": "uint32"
        },
        {
          "indexed": true,
          "internalType": "address",
          "name": "sender",
          "type": "address"
        }
      ],
      "name": "RandomWordsRequested",
      "type": "event"
    },
    {
      "anonymous": false,
      "inputs": [
        {
          "indexed": true,
          "internalType": "uint64",
          "name": "subId",
          "type": "uint64"
        },
        {
          "indexed": false,
          "internalType": "address",
          "name": "to",
          "type": "address"
        },
        {
          "indexed": false,
          "internalType": "uint256",
          "name": "amount",
          "type": "uint256"
        }
      ],
      "name": "SubscriptionCanceled",
      "type": "event"
    },
    {
      "anonymous": false,
      "inputs": [
        {
          "indexed": true,
          "internalType": "uint64",
          "name": "subId",
          "type": "uint64"
        },
        {
          "indexed": false,
          "internalType": "address",
          "name": "owner",
          "type": "address"
        }
      ],
      "name": "SubscriptionCreated",
      "type": "event"
    },
    {
      "anonymous": false,
      "inputs": [
        {
          "indexed": true,
          "internalType": "uint64",
          "name": "subId",
          "type": "uint64"
        },
        {
          "indexed": false,
          "internalType": "uint256",
          "name": "oldBalance",
          "type": "uint256"
        },
        {
          "indexed": false,
          "internalType": "uint256",
          "name": "newBalance",
          "type": "uint256"
        }
      ],
      "name": "SubscriptionFunded",
      "type": "event"
    },
    {
      "inputs": [],
      "name": "BASE_FEE",
      "outputs": [
        {
          "internalType": "uint96",
          "name": "",
          "type": "uint96"
        }
      ],
      "stateMutability": "view",
      "type": "function"
    },
    {
      "inputs": [],
      "name": "GAS_PRICE_LINK",
      "outputs": [
        {
          "internalType": "uint96",
          "name": "",
          "type": "uint96"
        }
      ],
      "stateMutability": "view",
      "type": "function"
    },
    {
      "inputs": [
        {
          "internalType": "uint64",
          "name": "_subId",
          "type": "uint64"
        }
      ],
      "name": "acceptSubscriptionOwnerTransfer",
      "outputs": [],
      "stateMutability": "pure",
      "type": "function"
    },
    {
      "inputs": [
        {
          "internalType": "uint64",
          "name": "_subId",
          "type": "uint64"
        },
        {
          "internalType": "address",
          "name": "_consumer",
          "type": "address"
        }
      ],
      "name": "addConsumer",
      "outputs": [],
      "stateMutability": "pure",
      "type": "function"
    },
    {
      "inputs": [
        {
          "internalType": "uint64",
          "name": "_subId",
          "type": "uint64"
        },
        {
          "internalType": "address",
          "name": "_to",
          "type": "address"
        }
      ],
      "name": "cancelSubscription",
      "outputs": [],
      "stateMutability": "nonpayable",
      "type": "function"
    },
    {
      "inputs": [],
      "name": "createSubscription",
      "outputs": [
        {
          "internalType": "uint64",
          "name": "_subId",
          "type": "uint64"
        }
      ],
      "stateMutability": "nonpayable",
      "type": "function"
    },
    {
      "inputs": [
        {
          "internalType": "uint256",
          "name": "_requestId",
          "type": "uint256"
        },
        {
          "internalType": "address",
          "name": "_consumer",
          "type": "address"
        }
      ],
      "name": "fulfillRandomWords",
      "outputs": [],
      "stateMutability": "nonpayable",
      "type": "function"
    },
    {
      "inputs": [
        {
          "internalType": "uint64",
          "name": "_subId",
          "type": "uint64"
        },
        {
          "internalType": "uint96",
          "name": "_amount",
          "type": "uint96"
        }
      ],
      "name": "fundSubscription",
      "outputs": [],
      "stateMutability": "nonpayable",
      "type": "function"
    },
    {
      "inputs": [],
      "name": "getRequestConfig",
      "outputs": [
        {
          "internalType": "uint16",
          "name": "",
          "type": "uint16"
        },
        {
          "internalType": "uint32",
          "name": "",
          "type": "uint32"
        },
        {
          "internalType": "bytes32[]",
          "name": "",
          "type": "bytes32[]"
        }
      ],
      "stateMutability": "pure",
      "type": "function"
    },
    {
      "inputs": [
        {
          "internalType": "uint64",
          "name": "_subId",
          "type": "uint64"
        }
      ],
      "name": "getSubscription",
      "outputs": [
        {
          "internalType": "uint96",
          "name": "balance",
          "type": "uint96"
        },
        {
          "internalType": "uint64",
          "name": "reqCount",
          "type": "uint64"
        },
        {
          "internalType": "address",
          "name": "owner",
          "type": "address"
        },
        {
          "internalType": "address[]",
          "name": "consumers",
          "type": "address[]"
        }
      ],
      "stateMutability": "view",
      "type": "function"
    },
    {
      "inputs": [
        {
          "internalType": "uint64",
          "name": "_subId",
          "type": "uint64"
        },
        {
          "internalType": "address",
          "name": "_consumer",
          "type": "address"
        }
      ],
      "name": "removeConsumer",
      "outputs": [],
      "stateMutability": "pure",
      "type": "function"
    },
    {
      "inputs": [
        {
          "internalType": "bytes32",
          "name": "_keyHash",
          "type": "bytes32"
        },
        {
          "internalType": "uint64",
          "name": "_subId",
          "type": "uint64"
        },
        {
          "internalType": "uint16",
          "name": "_minimumRequestConfirmations",
          "type": "uint16"
        },
        {
          "internalType": "uint32",
          "name": "_callbackGasLimit",
          "type": "uint32"
        },
        {
          "internalType": "uint32",
          "name": "_numWords",
          "type": "uint32"
        }
      ],
      "name": "requestRandomWords",
      "outputs": [
        {
          "internalType": "uint256",
          "name": "",
          "type": "uint256"
        }
      ],
      "stateMutability": "nonpayable",
      "type": "function"
    },
    {
      "inputs": [
        {
          "internalType": "uint64",
          "name": "_subId",
          "type": "uint64"
        },
        {
          "internalType": "address",
          "name": "_newOwner",
          "type": "address"
        }
      ],
      "name": "requestSubscriptionOwnerTransfer",
      "outputs": [],
      "stateMutability": "pure",
      "type": "function"
    }
  ],
  "bytecode": "0x60c06040526001805560646002553480156200001a57600080fd5b5060405162002045380380620020458339818101604052810190620000409190620000ad565b816bffffffffffffffffffffffff166080816bffffffffffffffffffffffff1660a01b81525050806bffffffffffffffffffffffff1660a0816bffffffffffffffffffffffff1660a01b81525050505062000120565b600081519050620000a78162000106565b92915050565b60008060408385031215620000c157600080fd5b6000620000d18582860162000096565b9250506020620000e48582860162000096565b9150509250929050565b60006bffffffffffffffffffffffff82169050919050565b6200011181620000ee565b81146200011d57600080fd5b50565b60805160a01c60a05160a01c611eeb6200015a600039600081816108de0152610d4e01526000818161033701526109230152611eeb6000f3fe608060405234801561001057600080fd5b50600436106100ce5760003560e01c8063823597401161008c578063a410347f11610066578063a410347f146101eb578063a47c769614610209578063afc69b531461023c578063d7ae1d3014610258576100ce565b806382359740146101955780639f87fad7146101b1578063a21a23e4146101cd576100ce565b8062012291146100d357806304c357cb146100f35780633d18651e1461010f5780635d3b1d301461012d5780637341c10c1461015d578063808974ff14610179575b600080fd5b6100db610274565b6040516100ea93929190611825565b60405180910390f35b61010d60048036038101906101089190611494565b6102fa565b005b610117610335565b604051610124919061197c565b60405180910390f35b610147600480360381019061014291906113b8565b610359565b6040516101549190611863565b60405180910390f35b61017760048036038101906101729190611494565b610575565b005b610193600480360381019061018e919061142f565b6105b0565b005b6101af60048036038101906101aa919061146b565b610b21565b005b6101cb60048036038101906101c69190611494565b610b5c565b005b6101d5610b97565b6040516101e29190611961565b60405180910390f35b6101f3610d4c565b604051610200919061197c565b60405180910390f35b610223600480360381019061021e919061146b565b610d70565b6040516102339493929190611997565b60405180910390f35b610256600480360381019061025191906114d0565b610f37565b005b610272600480360381019061026d9190611494565b611102565b005b60008060606003621e8480600067ffffffffffffffff8111156102c0577f4e487b7100000000000000000000000000000000000000000000000000000000600052604160045260246000fd5b6040519080825280602002602001820160405280156102ee5781602001602082028036833780820191505090505b50925092509250909192565b6040517f08c379a000000000000000000000000000000000000000000000000000000000815260040161032c906117e5565b60405180910390fd5b7f000000000000000000000000000000000000000000000000000000000000000081565b60008073ffffffffffffffffffffffffffffffffffffffff16600360008767ffffffffffffffff1667ffffffffffffffff16815260200190815260200160002060000160009054906101000a900473ffffffffffffffffffffffffffffffffffffffff1673ffffffffffffffffffffffffffffffffffffffff16141561040b576040517f1f6a65b600000000000000000000000000000000000000000000000000000000815260040160405180910390fd5b60006001600081548092919061042090611d19565b91905055905060006002600081548092919061043b90611d19565b91905055905060405180606001604052808867ffffffffffffffff1681526020018663ffffffff1681526020018563ffffffff168152506004600084815260200190815260200160002060008201518160000160006101000a81548167ffffffffffffffff021916908367ffffffffffffffff16021790555060208201518160000160086101000a81548163ffffffff021916908363ffffffff160217905550604082015181600001600c6101000a81548163ffffffff021916908363ffffffff1602179055509050503373ffffffffffffffffffffffffffffffffffffffff168767ffffffffffffffff16897f63373d1c4696214b898952999c9aaec57dac1ee2723cec59bea6888f489a977285858b8b8b60405161055f9594939291906118d7565b60405180910390a4819250505095945050505050565b6040517f08c379a00000000000000000000000000000000000000000000000000000000081526004016105a7906117e5565b60405180910390fd5b60005a905060006004600085815260200190815260200160002060000160009054906101000a900467ffffffffffffffff1667ffffffffffffffff16141561062d576040517f08c379a000000000000000000000000000000000000000000000000000000000815260040161062490611805565b60405180910390fd5b6000600460008581526020019081526020016000206040518060600160405290816000820160009054906101000a900467ffffffffffffffff1667ffffffffffffffff1667ffffffffffffffff1681526020016000820160089054906101000a900463ffffffff1663ffffffff1663ffffffff16815260200160008201600c9054906101000a900463ffffffff1663ffffffff1663ffffffff168152505090506000816040015163ffffffff1667ffffffffffffffff811115610719577f4e487b7100000000000000000000000000000000000000000000000000000000600052604160045260246000fd5b6040519080825280602002602001820160405280156107475781602001602082028036833780820191505090505b50905060005b826040015163ffffffff168110156107e35785816040516020016107729291906118ae565b6040516020818303038152906040528051906020012060001c8282815181106107c4577f4e487b7100000000000000000000000000000000000000000000000000000000600052603260045260246000fd5b60200260200101818152505080806107db90611d19565b91505061074d565b50600080631fe543e360e01b878460405160240161080292919061187e565b604051602081830303815290604052907bffffffffffffffffffffffffffffffffffffffffffffffffffffffff19166020820180517bffffffffffffffffffffffffffffffffffffffffffffffffffffffff8381831617835250505050905060008673ffffffffffffffffffffffffffffffffffffffff16856020015163ffffffff1683604051610893919061178a565b60006040518083038160008787f1925050503d80600081146108d1576040519150601f19603f3d011682016040523d82523d6000602084013e6108d6565b606091505b5050905060007f00000000000000000000000000000000000000000000000000000000000000006bffffffffffffffffffffffff165a886109179190611bd0565b6109219190611b76565b7f00000000000000000000000000000000000000000000000000000000000000006bffffffffffffffffffffffff1661095a9190611ade565b9050806bffffffffffffffffffffffff1660036000886000015167ffffffffffffffff1667ffffffffffffffff16815260200190815260200160002060000160149054906101000a90046bffffffffffffffffffffffff166bffffffffffffffffffffffff1610156109f8576040517ff4d678b800000000000000000000000000000000000000000000000000000000815260040160405180910390fd5b8060036000886000015167ffffffffffffffff1667ffffffffffffffff16815260200190815260200160002060000160148282829054906101000a90046bffffffffffffffffffffffff16610a4d9190611c04565b92506101000a8154816bffffffffffffffffffffffff02191690836bffffffffffffffffffffffff160217905550600460008a8152602001908152602001600020600080820160006101000a81549067ffffffffffffffff02191690556000820160086101000a81549063ffffffff021916905560008201600c6101000a81549063ffffffff02191690555050887f7dffc5ae5ee4e2e4df1651cf6ad329a73cebdb728f37ea0187b9b17e036756e48a8385604051610b0e9392919061192a565b60405180910390a2505050505050505050565b6040517f08c379a0000000000000000000000000000000000000000000000000000000008152600401610b53906117e5565b60405180910390fd5b6040517f08c379a0000000000000000000000000000000000000000000000000000000008152600401610b8e906117e5565b60405180910390fd5b600080600081819054906101000a900467ffffffffffffffff1680929190610bbe90611d62565b91906101000a81548167ffffffffffffffff021916908367ffffffffffffffff1602179055505060405180604001604052803373ffffffffffffffffffffffffffffffffffffffff16815260200160006bffffffffffffffffffffffff16815250600360008060009054906101000a900467ffffffffffffffff1667ffffffffffffffff1667ffffffffffffffff16815260200190815260200160002060008201518160000160006101000a81548173ffffffffffffffffffffffffffffffffffffffff021916908373ffffffffffffffffffffffffffffffffffffffff16021790555060208201518160000160146101000a8154816bffffffffffffffffffffffff02191690836bffffffffffffffffffffffff16021790555090505060008054906101000a900467ffffffffffffffff1667ffffffffffffffff167f464722b4166576d3dcbba877b999bc35cf911f4eaf434b7eba68fa113951d0bf33604051610d2a91906117a1565b60405180910390a260008054906101000a900467ffffffffffffffff16905090565b7f000000000000000000000000000000000000000000000000000000000000000081565b60008060006060600073ffffffffffffffffffffffffffffffffffffffff16600360008767ffffffffffffffff1667ffffffffffffffff16815260200190815260200160002060000160009054906101000a900473ffffffffffffffffffffffffffffffffffffffff1673ffffffffffffffffffffffffffffffffffffffff161415610e28576040517f1f6a65b600000000000000000000000000000000000000000000000000000000815260040160405180910390fd5b600360008667ffffffffffffffff1667ffffffffffffffff16815260200190815260200160002060000160149054906101000a90046bffffffffffffffffffffffff166000600360008867ffffffffffffffff1667ffffffffffffffff16815260200190815260200160002060000160009054906101000a900473ffffffffffffffffffffffffffffffffffffffff16600067ffffffffffffffff811115610ef9577f4e487b7100000000000000000000000000000000000000000000000000000000600052604160045260246000fd5b604051908082528060200260200182016040528015610f275781602001602082028036833780820191505090505b5093509350935093509193509193565b600073ffffffffffffffffffffffffffffffffffffffff16600360008467ffffffffffffffff1667ffffffffffffffff16815260200190815260200160002060000160009054906101000a900473ffffffffffffffffffffffffffffffffffffffff1673ffffffffffffffffffffffffffffffffffffffff161415610fe8576040517f1f6a65b600000000000000000000000000000000000000000000000000000000815260040160405180910390fd5b6000600360008467ffffffffffffffff1667ffffffffffffffff16815260200190815260200160002060000160149054906101000a90046bffffffffffffffffffffffff16905081600360008567ffffffffffffffff1667ffffffffffffffff16815260200190815260200160002060000160148282829054906101000a90046bffffffffffffffffffffffff166110809190611b34565b92506101000a8154816bffffffffffffffffffffffff02191690836bffffffffffffffffffffffff1602179055508267ffffffffffffffff167fd39ec07f4e209f627a4c427971473820dc129761ba28de8906bd56f57101d4f88284846110e79190611b34565b6040516110f59291906119e3565b60405180910390a2505050565b816000600360008367ffffffffffffffff1667ffffffffffffffff16815260200190815260200160002060000160009054906101000a900473ffffffffffffffffffffffffffffffffffffffff169050600073ffffffffffffffffffffffffffffffffffffffff168173ffffffffffffffffffffffffffffffffffffffff1614156111b9576040517f1f6a65b600000000000000000000000000000000000000000000000000000000815260040160405180910390fd5b8073ffffffffffffffffffffffffffffffffffffffff163373ffffffffffffffffffffffffffffffffffffffff161461122957806040517fd8a3fb5200000000000000000000000000000000000000000000000000000000815260040161122091906117a1565b60405180910390fd5b8367ffffffffffffffff167fe8ed5b475a5b5987aa9165e8731bb78043f39eee32ec5a1169a89e27fcd4981584600360008867ffffffffffffffff1667ffffffffffffffff16815260200190815260200160002060000160149054906101000a90046bffffffffffffffffffffffff166040516112a79291906117bc565b60405180910390a2600360008567ffffffffffffffff1667ffffffffffffffff168152602001908152602001600020600080820160006101000a81549073ffffffffffffffffffffffffffffffffffffffff02191690556000820160146101000a8154906bffffffffffffffffffffffff0219169055505050505050565b60008135905061133481611e14565b92915050565b60008135905061134981611e2b565b92915050565b60008135905061135e81611e42565b92915050565b60008135905061137381611e59565b92915050565b60008135905061138881611e70565b92915050565b60008135905061139d81611e87565b92915050565b6000813590506113b281611e9e565b92915050565b600080600080600060a086880312156113d057600080fd5b60006113de8882890161133a565b95505060206113ef8882890161138e565b94505060406114008882890161134f565b935050606061141188828901611379565b925050608061142288828901611379565b9150509295509295909350565b6000806040838503121561144257600080fd5b600061145085828601611364565b925050602061146185828601611325565b9150509250929050565b60006020828403121561147d57600080fd5b600061148b8482850161138e565b91505092915050565b600080604083850312156114a757600080fd5b60006114b58582860161138e565b92505060206114c685828601611325565b9150509250929050565b600080604083850312156114e357600080fd5b60006114f18582860161138e565b9250506020611502858286016113a3565b9150509250929050565b60006115188383611554565b60208301905092915050565b6000611530838361169b565b60208301905092915050565b60006115488383611730565b60208301905092915050565b61155d81611c38565b82525050565b61156c81611c38565b82525050565b600061157d82611a3c565b6115878185611a8f565b935061159283611a0c565b8060005b838110156115c35781516115aa888261150c565b97506115b583611a68565b925050600181019050611596565b5085935050505092915050565b60006115db82611a47565b6115e58185611aa0565b93506115f083611a1c565b8060005b838110156116215781516116088882611524565b975061161383611a75565b9250506001810190506115f4565b5085935050505092915050565b600061163982611a52565b6116438185611ab1565b935061164e83611a2c565b8060005b8381101561167f578151611666888261153c565b975061167183611a82565b925050600181019050611652565b5085935050505092915050565b61169581611c4a565b82525050565b6116a481611c56565b82525050565b60006116b582611a5d565b6116bf8185611ac2565b93506116cf818560208601611ce6565b80840191505092915050565b60006116e8600f83611acd565b91506116f382611dc2565b602082019050919050565b600061170b601383611acd565b915061171682611deb565b602082019050919050565b61172a81611c60565b82525050565b61173981611c8e565b82525050565b61174881611c8e565b82525050565b61175781611c98565b82525050565b61176681611ca8565b82525050565b61177581611cd4565b82525050565b61178481611cbc565b82525050565b600061179682846116aa565b915081905092915050565b60006020820190506117b66000830184611563565b92915050565b60006040820190506117d16000830185611563565b6117de602083018461176c565b9392505050565b600060208201905081810360008301526117fe816116db565b9050919050565b6000602082019050818103600083015261181e816116fe565b9050919050565b600060608201905061183a6000830186611721565b611847602083018561174e565b818103604083015261185981846115d0565b9050949350505050565b6000602082019050611878600083018461173f565b92915050565b6000604082019050611893600083018561173f565b81810360208301526118a5818461162e565b90509392505050565b60006040820190506118c3600083018561173f565b6118d0602083018461173f565b9392505050565b600060a0820190506118ec600083018861173f565b6118f9602083018761173f565b6119066040830186611721565b611913606083018561174e565b611920608083018461174e565b9695505050505050565b600060608201905061193f600083018661173f565b61194c602083018561177b565b611959604083018461168c565b949350505050565b6000602082019050611976600083018461175d565b92915050565b6000602082019050611991600083018461177b565b92915050565b60006080820190506119ac600083018761177b565b6119b9602083018661175d565b6119c66040830185611563565b81810360608301526119d88184611572565b905095945050505050565b60006040820190506119f8600083018561176c565b611a05602083018461176c565b9392505050565b6000819050602082019050919050565b6000819050602082019050919050565b6000819050602082019050919050565b600081519050919050565b600081519050919050565b600081519050919050565b600081519050919050565b6000602082019050919050565b6000602082019050919050565b6000602082019050919050565b600082825260208201905092915050565b600082825260208201905092915050565b600082825260208201905092915050565b600081905092915050565b600082825260208201905092915050565b6000611ae982611c8e565b9150611af483611c8e565b9250827fffffffffffffffffffffffffffffffffffffffffffffffffffffffffffffffff03821115611b2957611b28611d93565b5b828201905092915050565b6000611b3f82611cbc565b9150611b4a83611cbc565b9250826bffffffffffffffffffffffff03821115611b6b57611b6a611d93565b5b828201905092915050565b6000611b8182611c8e565b9150611b8c83611c8e565b9250817fffffffffffffffffffffffffffffffffffffffffffffffffffffffffffffffff0483118215151615611bc557611bc4611d93565b5b828202905092915050565b6000611bdb82611c8e565b9150611be683611c8e565b925082821015611bf957611bf8611d93565b5b828203905092915050565b6000611c0f82611cbc565b9150611c1a83611cbc565b925082821015611c2d57611c2c611d93565b5b828203905092915050565b6000611c4382611c6e565b9050919050565b60008115159050919050565b6000819050919050565b600061ffff82169050919050565b600073ffffffffffffffffffffffffffffffffffffffff82169050919050565b6000819050919050565b600063ffffffff82169050919050565b600067ffffffffffffffff82169050919050565b60006bffffffffffffffffffffffff82169050919050565b6000611cdf82611cbc565b9050919050565b60005b83811015611d04578082015181840152602081019050611ce9565b83811115611d13576000848401525b50505050565b6000611d2482611c8e565b91507fffffffffffffffffffffffffffffffffffffffffffffffffffffffffffffffff821415611d5757611d56611d93565b5b600182019050919050565b6000611d6d82611ca8565b915067ffffffffffffffff821415611d8857611d87611d93565b5b600182019050919050565b7f4e487b7100000000000000000000000000000000000000000000000000000000600052601160045260246000fd5b7f6e6f7420696d706c656d656e7465640000000000000000000000000000000000600082015250565b7f6e6f6e6578697374656e74207265717565737400000000000000000000000000600082015250565b611e1d81611c38565b8114611e2857600080fd5b50565b611e3481611c56565b8114611e3f57600080fd5b50565b611e4b81611c60565b8114611e5657600080fd5b50565b611e6281611c8e565b8114611e6d57600080fd5b50565b611e7981611c98565b8114611e8457600080fd5b50565b611e9081611ca8565b8114611e9b57600080fd5b50565b611ea781611cbc565b8114611eb257600080fd5b5056fea26469706673582212205fa8acf41dfd8fa3ed41ec65df5db3020cea80f3afa38502566645c9cb122dc864736f6c63430008040033",
  "linkReferences": {},
  "deployedLinkReferences": {}
}